:04069A00C101C100D9
:10043F00A20192921206531206741206A31206A973
:10044F00120665120516E4FBFA79E078401202A451
:10045F00400C200009C292C2011206A3801512059A
:10046F00167BCD7ACC79EC78401202A4600250034F
:10047F001206A61205767B667A6679867840120296
:10048F00A440051206A980151205767BCD7ACC798A
:10049F008C78401202A4600250031206ACA20192A3
:0304AF0092809D9B
:0D06740053B2FB53B1FBD288D2A8D2AF2203
:030003000204B242
:1004B200C0E0C0F0C083C082C0D075D000C000C010
:1004C20001C002C003C004C005C006C00712068EE8
:1004D20020B226B201300107D2001206A6801720F0
:1004E20001141206357B337A3379F378401202A471
:1004F20060044002C20030B2FDD007D006D005D061
:1005020004D003D002D001D000D0D0D082D083D08A
:04051200F0D0E03213
:1006530053BCEF759DFFE4F5BD759D0375BC880222
:02066300068E01
:100635007F0112060A8E138F147F007E007D007CD9
:0D064500007518667517667516E675154088
:010652002285
:1005D600E4FFFEFBFAF9F875169A751599751499E4
:1005E60075134012060AAD07AC06E41203227B0A15
:1005F6007A2879A0783B1200FEAB16AA15A914A892
:04060600130200FEDD
:10060A00E4FDFC53BCF8EF540742BC43BC08E5BC0C
:10061A0030E4FB53BCEFAFBDEF75F004A4FDACF0C2
:0A062A00E5BE54034205AE04AF051F
:0106340022A3
:10051600E4F50EF512F511F510F50FF50EC3E50E1F
:10052600940A74809480502DAB12AA11A910A80FBA
:10053600C000C001C002C003120635D003D002D0ED
:1005460001D00012000D8F128E118D108C0F120625
:100556008E050E80C8AF12AE11AD10AC0FE4FBFADB
:0F056600792078411202078F128E118D108C0FA1
:010575002263
:10057600E4F50EF512F511F510F50FF50EC3E50EBF
:10058600940A74809480502DAB12AA11A910A80F5A
:10059600C000C001C002C0031205D6D003D002D0ED
:1005A60001D00012000D8F128E118D108C0F1206C5
:1005B6008E050E80C8AF12AE11AD10AC0FE4FBFA7B
:0F05C600792078411202078F128E118D108C0F41
:0105D5002203
:0E06650000007F2B7E067DCBDDFEDEFCDFFA83
:010673002264
:0B068E000000007F0B7EBEDEFEDFFCE4
:01069900223E
:04069F000000002235
:0D0681004392065391DB43CA1053C9EF2288
:0306A300D29522CB
:0306A600C29522D8
:0306A900D2CC228E
:0306AC00C2CC229B
:10000600020390E86480F8E933E83360110460F095
:10001600ED33EC337009E8FCE9FDEAFEEBFF220460
:1000260060DED3EB9FEA9EE99DE8C2E78CF0C2F75B
:1000360095F0400CE8CCF8E9CDF9EACEFAEBCFFB27
:1000460012035B85D0F05804700320D5B3E8047022
:10005600075002B2D502039A92D5EC0460F7E4CCBD
:10006600C0E0C398F8603B94186008400DD0E0FBF0
:10007600020372E4FBFAC9FC8028E830E406E4C90E
:10008600FBE4CAFCE830E305E4C9CACBFCE8540744
:100096006010F8C3E913F9EA13FAEB13FBEC13FC4F
:1000A600D8F130F52FC3E49CFCEF9BFFEE9AFEEDF2
:1000B60099FDD0E0FBEF4E4D4C701222DB0302039C
:1000C60097EC2CFCEF33FFEE33FEED33FDED30E71E
:1000D600EB020372EF2BFFEE3AFEED39FDD0E0FBAB
:1000E60050130BBB000302039AED13FDEE13FEEF54
:0800F60013FFEC13FC0203727E
:1000FE00EC4D6011E8497017ED33EC3304600DE4FC
:10010E00FCFFFEFD22E933E8330470F8020390127F
:10011E00035B58046009E4CC248150062850090280
:10012E00039A284003020397C0E0EB4A7044B9805B
:10013E0006D0E0FB020386EF4E701CBD8008EBFF7D
:10014E00EAFEE9FD80EBE98DF0A4FEE5F00201E7A1
:10015E00E9CDF9EAFEEBFFEF89F0A4FCE5F0CE89DC
:10016E00F0A42EFFE435F0CD89F0A42DFEE435F099
:10017E008067EF4E7005BD80D780C3EF8BF0A4ACC7
:10018E00F0EE8BF0A42CFCE435F0F8EF8AF0A42C02
:10019E00E5F038FCE433CB8DF0A42CFCE5F03BF815
:1001AE00EE8AF0A42CFCE5F038F8E433CF89F0A405
:1001BE002CFCE5F038CF3400CE89F0A42FFFE5F00B
:1001CE003EFEE433C98DF0A42EFEE5F039CD8AF063
:1001DE00A42FFFE5F03EFEE43DFD33D0E0FB5007DB
:1001EE000BBB000F02039AEC2CFCEF33FFEE33FE39
:0601FE00ED33FD02037267
:1002040002039AEC5D046005E8590470030203904C
:1002140012035B580460F6EC4860F2EC7004FDFED7
:10022400FF22C860DB2481C85009C39860025006CD
:100234000203979850CAF582E9294B4A7005AB82AC
:1002440002038675F0007C1A7880C3EF9BEE9AED6A
:1002540099400DC3EF9BFFEE9AFEED99FDE842F045
:10026400DC23ACF0D0E0FFD0E0FED0E0FDAB822098
:10027400E7101BEB60BAEC2CFCEF33FFEE33FEED22
:1002840033FD020372E803F830E705C0F075F000AF
:10029400EF2FFFEE33FEED33FD40B830E7C280AA06
:1002A40074F8CC6480CCC86480C8F58204604FC301
:1002B400EB9FF5F0EA9E42F0E99D42F0E89C45F0A0
:1002C400603C501DE5825FFFE582D313CB5BCBF42A
:1002D4002B5582FB50280ABA002409B90020088053
:1002E4001DE5825BFBE582D313CF5FCFF4C3132FED
:1002F4005582FF50090EBE00050DBD00010CC3EB75
:100304009FF5F0EA9E42F0E99D42F0E89C45F060DA
:0903140007CC4820E701B3EC22FC
:10031D0075F020800E75F010800575F0087D007E5B
:10032D00007F003392D530D5031203A5EC33401076
:10033D00EF33FFEE33FEED33FDEC33FCD5F0ED2264
:0E034D00E5F0247EA2D513CC92E7CDCEFF22A0
:10035B00E9D2E7C933E833F892D5EDD2E7CD33ECE8
:07036B0033FC5002B2D52261
:10037200EC30E7100FBF000C0EBE00080DBD0004EC
:100382000BEB6014A2D5EB13FCED92E7FD2274FF98
:10039200FCFDFEFF22E480F8A2D574FF13FC7D80F1
:0303A200E480EF05
:030000000203B345
:0C03B300787FE4F6D8FD7581200203FA83
:0E03A500C3E49FFFE49EFEE49DFDE49CFC2269
:1003BF0002043FE493A3F8E493A34003F68001F211
:1003CF0008DFF48029E493A3F85407240CC8C3333F
:1003DF00C4540F4420C8834004F456800146F6DF0E
:1003EF00E4800B010204081020408090069AE47EFE
:1003FF00019360BCA3FF543F30E509541FFEE49303
:10040F00A360010ECF54C025E060A840B8E493A3C9
:10041F00FAE493A3F8E493A3C8C582C8CAC583CAF4
:10042F00F0A3C8C582C8CAC583CADFE9DEE780BEAC
:01069E00005B
:00000001FF
