:1001AA00D200120113D2017FD27E041200037FE82B
:1001BA007E03120241C2017FD27E041200037FE84D
:0701CA007E0312024180DEFA
:02014C008F0F13
:10014E00E4F510C3E510940874809480501FC2A08B
:10015E00E50F30E7028001C392A1E50F25E0F50F10
:0D016E00D2A07F017E001202A2051080D6F3
:01017B002261
:100218008D11C2A212014CAF1112014CD2A27F0162
:050228007E000202A2AD
:1001F5007D017F0C120218E4FD7F0F1202187D07A6
:100205007F0B1202187DFF7F091202187D087F0AF5
:03021500020218CA
:0F027900EB60047E8080027E00EE4DFD020218D5
:100267003F065B4F666D7D077F6F777C395E7971DF
:02027700400045
:10022D00D2A0D2A17F027E001202A2C2A17F027EC5
:04023D00000202A217
:1001D100C2A07F027E001202A2C2A17F027E001293
:1001E10002A2D2A07F027E001202A2D2A17F027ED1
:0401F100000202A264
:020069008F0DF9
:10006B00E4F50EC3E50E940874809480502EC2A064
:10007B007F027E001202A2E50D30E004D2A18002C5
:10008B00C2A17F027E001202A2E50DC313F50DD2B1
:10009B00A07F027E001202A2050E80C7C2A0D2A1D1
:1000AB007F027E001202A2D2A07F027E001202A269
:0200BB00C2A0E1
:0100BD002220
:10011300D2A0D2A112022D7F8F1200691201D11237
:10012300022D7F401200691201D112022D7FC012ED
:100133000069E4FF120069E4FF120069E4FF1200A2
:0901430069E4FF1200690201D118
:02017C008F0BE7
:10017E00ED90026793F50C300203430C8012022DB2
:10018E007F441200691201D112022DE50B1444C0F6
:0C019E00FF120069AF0C1200690201D1D1
:04000300AB07AA0697
:100007007C007D0A1200BE8D087C007D0AAF03AE1E
:10001700021200BE7C007D0A1200BE8D097C007DA5
:1000270064AF03AE021200BE7C007D0A1200BE8DD3
:100037000AAE02AF037C037DE81200BEAD07C20221
:100047007F0112017CA2019202AD0A7F0212017C9C
:10005700C202AD097F0312017CC202AD087F040210
:02006700017C1A
:0B02A200EF1FAC0670011E4C70F6222E
:0802AD007F027EEFDEFEDFFCA4
:0102B5002226
:0D028800007F087E9A7D7ADDFEDEFCDFFA45
:010295002246
:10024100AD07AC06ED4C600A1202ADED1D70F51C58
:0302510080F22216
:10025400AB07AA06EB4A600A120288EB1B70F51A78
:0302640080F22203
:0300000002029663
:0C029600787FE4F6D8FD7581200201AAF3
:1000BE00BC000BBE0029EF8DF084FFADF022E4CC26
:1000CE00F875F008EF2FFFEE33FEEC33FCEE9DECEF
:1000DE00984005FCEE9DFE0FD5F0E9E4CEFD22ED35
:1000EE00F8F5F0EE8420D21CFEADF075F008EF2F7F
:1000FE00FFED33FD4007985006D5F0F222C398FD70
:05010E000FD5F0EA220C
:00000001FF
