:10000300E68891E698AFE582BBE9B89F00574F2099
:1000130053484920534841204E49414F00E5A4A786
:10002300E58FB731367831363A20E68891E698AFD6
:10003300E582BBE9B89F2100E4B8ADE58FB7387816
:1000430031363A20E68891E698AFE582BBE9B89F5E
:1000530021003578372041534349493A2048656C9C
:100063006C6F20323032340000FE8242A29E8A82BC
:10007300868AB26202FE0000007F40407F4040401B
:1000830040407F40407F0000808080BFA5A5A53F02
:10009300A5A5A5BF808080007F24243F24247F0062
:1000A3007F24243F24247F00000000000000000080
:1000B30000000000000000000000008080C0C0C0FD
:1000C300C0E060E0E0E0E060606060606060E0E04D
:1000D300E0E0C0C0C0C0808000000000000000005D
:1000E300000000000000000000000000000000000D
:1000F30000000000000000000000000000000000FD
:1001030000000000000000000000000000000000EC
:1001130000000000000000000000000000000000DC
:1001230000000000000000000000000000000000CC
:1001330080C0E07038181C0C0E0703030181E078BF
:100143001C0E070301000000000000000000000077
:100153000103070E1C79E18303070E0C1C1838708A
:10016300E0C080000000000000000000000000006C
:100173000000008080C0C0C0C0E0E0E0E0E0E0E05C
:10018300E0E0E0E0E0E0E0E0E0E0E0E0E0E0E0E06C
:10019300E0E0E0E0E0E0E0E0E0E0E0C0C0C0C0C0FC
:1001A300800000000000000000000080F0781E07BF
:1001B300038180C0C0C0E060606070F0FE3F19182A
:1001C30018181818181818181818181818181818AC
:1001D300181818181838313FFEF06060E0C0C0C02E
:1001E300808103071E78F0800000000000000000FB
:1001F300C0FCFF7F070F1F3D7971F0E0C080000056
:1002030000000000000000000000000000000000EB
:10021300000000000000008080C0E0F071793D1F05
:100223000FFFFEFC000000000080FEFFF91C0E071C
:1002330003030101000000000000FFFF00000000B5
:1002430000000000000000000000000000000000AB
:10025300000000000000000000FFFF00000000019C
:10026300010303070E1CF9FFFE000000000000005D
:10027300FFFFFF00000000000000000103070F0E56
:100283009EFCF8F0E0C0C080000000000080C0C009
:10029300E0F0F8F8FC9E0F070303010000000000E4
:1002A30000FFFFFF0000000000003FFFDF3870E0A9
:1002B300C0C08080000000000000FFFF00000000BD
:1002C300000000000000000000000000000000002B
:1002D300000000000000000000FFFF00000000809D
:1002E30080C0C0E07038DFFF3F0000000000000066
:1002F3007FFFFF000000000080C0E0F0783C1E0F8D
:1003030007030100010103070F1E1E0E0F07030160
:100313000100010103070F1E3C78F0E0C0800000DC
:1003230000FFFFFF0000000000000000070F3C700B
:10033300E0C181030303070606060E0F7FFC98182E
:10034300181818181818181818181818181818182A
:1003530018181818180C8CFC7F0F060607030303E4
:1003630081C1E0703C0F07000000000000000000A6
:10037300000F1F3F7CFCFEEFE7E3E1E0E0E0E0E09D
:10038300E0E0E0E0E0E0E0E0E0E0E0E0E0E0E0E06A
:10039300E0E0E0E0E0E0E0E0E0E0E0E1E3E7EFFE22
:1003A3007C3F1F0F00000000000000000000000061
:1003B300000103070E0C1C18387060E0C0C1879E53
:1003C300B8F0E0C080000000000000000000000062
:1003D30080C0E0F0B8DEC7E1607038181C0C0E076F
:1003E3000301000000000000000000000000000006
:1003F30000000000000000000000000000000000FA
:1004030000000000000000000000000000000000E9
:1004130000000000000000000000000000000000D9
:1004230000000000000000000000000000000000C9
:1004330000000000000000000000000000010101B6
:100443000103030303030707070707070707070357
:10045300030301010101000000000000000000008F
:100463000000000000000000000000000000000089
:100473000000000000000000000000000000000079
:100483000000000000000000000000000000000069
:100493000000000000000000000000000000000059
:0804A300000000000000000051
:101022001211BA1212F71212F77BFF7A0079037DBE
:10103200017F011204AB7BFF7A0079037D017F04FB
:101042001213F37BFF7A0079107D017F07120AF6F3
:101052007FA07E0F1213621212F77BFF7A007920B3
:101062007D017F011204AB7BFF7A00793B7D017F1A
:10107200041213F37BFF7A0079557D017F07120A70
:0A108200F67FA07E0F121362809C1F
:07135B0012132C7F057E0038
:10136200E4FDFCC3ED9FEC9E5015E4FBFA0BBB00C1
:0F137200010AEB646E4A70F50DBD00010C80E4BA
:011381002249
:1013C700E4FDFCC3ED9FEC9E5015E4FBFA0BBB005C
:0F13D700010AEB64014A70F50DBD00010C80E4C2
:0113E60022E4
:10132C00C2B7C2B5E4FEEEFD3395E0FCC3ED940804
:10133C00EC648094805015C2A5EF30E704D2A680EF
:0E134C0002C2A6D2A5EF25E0FF0E80DAD2B7CE
:01135A002270
:1012120075F01090002AE0A42FF582E435F0F583F2
:0E122200E582240AF582E5833400F583E0FFBF
:10123000C2B7D2B5E4FEEEFD3395E0FCC3ED9408F1
:10124000EC648094805015C2A5EF30E704D2A680EC
:0E12500002C2A6D2A5EF25E0FF0E80DAD2B7CB
:01125E00226D
:1011BA00C2B67F647E00121362D2B61213627FE255
:1011CA0012135B7F2C12132C7F327E001213627F64
:1011DA002E12132C7F327E001213627F2F12135BA2
:1011EA007F2312132C7F8112132C7F2812132C7F3A
:1011FA00A212132C7FC812132C7FA012132C7F402B
:08120A0012132C7FAF02132C1C
:09138200900000E02FFFA3E0FD44
:10138B00AB051BEF24AFFF12132CEBC4540F24102F
:0B139B00FF12132CEB540FFF02132C69
:1012F700E4FBEBC39409748094805028EB24B0FF7F
:1013070012132C7F1012132CE4FF12132CE4FAEAA9
:10131700C39484748094805008E4FF1212300A80CA
:04132700EE0B80CE7B
:01132B00229F
:0B0FA70090005BEBF0A3EAF0A3E9F080
:100FB200E4900060F0A3F0900060E0FEA3E0FFC3C5
:100FC2009408EE94005058EF04FF7D0112138BE455
:100FD20090005EF0A3F090005BE0FBA3E0FAA3E0D8
:100FE200F9120BFEFF12123090005CE475F0011250
:100FF2000C7890005FE004F0700690005EE004F070
:10100200C390005FE0948090005EE0940040C7903F
:0F1012000061E004F070A0900060E004F08098AE
:0110210022AC
:100EA900900049EFF0A3EDF0A3EBF0A3EAF0A3E97A
:010EB900F048
:100EBA00E4900050F0A3F0900050E0FEA3E0FFC3DE
:100ECA009402EE94005056900049121385E4900063
:100EDA004EF0A3F090004BE0FBA3E0FAA3E0F91276
:100EEA000BFEFF12123090004CE475F001120C78E0
:100EFA0090004FE004F0700690004EE004F0C390BA
:100F0A00004FE0941090004EE0940040C7900051CA
:0D0F1A00E004F070A2900050E004F0809A16
:010F270022A7
:100F2800900052EFF0A3EDF0A3EBF0A3EAF0A3E9F1
:010F3800F0C8
:100F3900E4900059F0A3F0900059E0FEA3E0FFC34C
:100F49009402EE94005056900052121385E49000DA
:100F590057F0A3F0900054E0FBA3E0FAA3E0F912E4
:100F69000BFEFF121230900055E475F001120C7857
:100F7900900058E004F07006900057E004F0C39028
:100F89000058E09408900057E0940040C790005A38
:0D0F9900E004F070A2900059E004F0809A8E
:010FA6002228
:0B125F00900074EBF0A3EAF0A3E9F0AC
:10126A0012138BE4A3F0A3F0900074E0FBA3E0FA5E
:10127A00A3E0F9120BFEFF121230900075E475F02C
:10128A0001120C78900078E004F07006900077E084
:10129A0004F0C3900078E09406900077E094004050
:0112AA00C77C
:0112AB002220
:0F12AC00A3E0FDA3A3E4FFFEE4FC7810120CDD29
:0512BB00900034EFF08B
:1012C000E4F9E9C3940874809480502AC2947F0A98
:1012D0007E001213C7900034E0FF30E704D2928002
:1012E00002C292EF25E0900034F0D2947F0A7E0093
:0612F0001213C70980CCB7
:0112F60022D5
:1013A600E4FFFEEEC39408748094805013D293C277
:1013B60094EF25E0FF3093034401FFD2940E80E3BF
:0113C6002204
:06108C00900062120CF05E
:10109200C2957F031212BB9000621212AC900062E2
:1010A200A3A3E0FEA3E4FFE4FDFC7808120CDD122A
:1010B20012BB900062E0FCA3E0FDA3E0FEA3E0FF10
:1010C2001212BBE4FAEAC394027480948050229014
:1010D2000066E02A121387E4FBEBC3941074809439
:1010E20080500B1213A6A9071212300B80EB0A8054
:0310F200D4D295C0
:0110F50022D8
:0610F600900068120CF0EE
:1010FC00C2957F031212BB9000681212AC9000686C
:10110C00A3A3E0FEA3E4FFE4FDFC7808120CDD12BF
:10111C0012BB900068E0FCA3E0FDA3E0FEA3E0FF9F
:10112C001212BBE4FAEAC3940274809480502290A9
:10113C00006CE02A121387E4FBEBC39408748094D0
:10114C0080500B1213A6A9071212300B80EB0A80E9
:03115C00D4D29555
:01115F00226D
:0611600090006E120CF07D
:10116600C2957F031212BB90006E1212AC90006EF5
:10117600A3A3E0FEA3E4FFE4FDFC7808120CDD1255
:1011860012BB90006EE0FCA3E0FDA3E0FEA3E0FF2F
:101196001212BB900072E0121387E4FBEBC39405B6
:1011A60074809480500B1213A6AA071212300B807B
:0311B600EBD295E4
:0111B9002213
:10082400900035EFF0A3EDF0A3EBF0A3EAF0A3E919
:01083400F0D3
:10083500E4A3F0900037E0FBA3E0FAA3E0F9A3E01E
:10084500F582758300120C17FF7E00D39400748027
:1008550094805003020AF5EF94B07480948050039D
:10086500020910D3EF94F7748094804003020910B5
:1008750090003AE02401FFEE33FE8F828E83120C46
:1008850017C394A174809480500302091090003A14
:10089500E0F582758300120C172450FFE434FFFE47
:1008A5007C007D5E120C66EE3395E0FDFC90003B0E
:1008B500120CF090003BE0F8A3E0F9A3E0FAA3E006
:1008C500FBC000C001C002C00390003AE02401FF54
:1008D500E433FE900037E0FBA3E0FAA3E0F98F8252
:1008E5008E83120C17245FFFE434FFCF244ECF34E0
:1008F50003FEE4FCFDD003D002D001D000EB2FFFB6
:10090500EA3EFEED39FDEC380209D5900037E0FBF3
:10091500A3E0FAA3E0F9A3E0F582758300120C17B2
:10092500FF7E00C394A1748094805003020A2BD3E8
:10093500EF94A3748094804003020A2B90003AE060
:100945002401FFEE33FE8F828E83120C17C394A110
:10095500748094805003020A2B90003AE0F582756A
:100965008300120C17245FFFE434FFFE7C007D5EDC
:10097500120C66EE3395E0FDFC90003B120CF090F6
:10098500003BE0F8A3E0F9A3E0FAA3E0FBC000C058
:1009950001C002C00390003AE02401FFE433FE9059
:1009A5000037E0FBA3E0FAA3E0F98F828E83120CF7
:1009B50017245FFFE434FFFE3395E0FDFCD003D040
:1009C50002D001D000EB2FFFEA3EFEE93DFDE83CF9
:1009D500FC90003B120CF090003BE0FCA3E0FDA373
:1009E500E0FEA3E0FFE47B20FAF9F8120C8E9000FC
:1009F5003B120CF090003BE0FCA3E0FDA3E0FEA35E
:100A0500E0FF900035E0900066F0900036E0900041
:100A150067F012108C90003AE02402F0900036E066
:100A25002410F0020838900037E0FBA3E0FAA3E0B9
:100A3500F9A3E0F582758300120C17FF7E00C394BD
:100A450020748094805003020AECD3EF947E748066
:100A550094804003020AEC900037A3A3A3E0F5823B
:100A6500758300120C1724E0FFEE34FFFE3395E08A
:100A7500FDFC90003B120CF090003BE0FCA3E0FD78
:100A8500A3E0FEA3E0FFE47B10FAF9F8120C8E90C8
:100A9500003B120CF090003BE0FCA3E0FDA3E0FE60
:100AA500A3E02480FFEE34CFFEED3403FDE43CFCEF
:100AB50090003B120CF090003BE0FCA3E0FDA3E0AE
:100AC500FEA3E0FF900035E090006CF0900036E06A
:100AD50090006DF01210F690003AE004F0900036A8
:100AE500E02408F002083890003AE004F0020838E3
:010AF50022DE
:100CFC0090003FEFF0A3EDF0A3EBF0A3EAF0A3E933
:010D0C00F0F6
:100D0D00E4A3F0900041E0FBA3E0FAA3E0F9A3E037
:100D1D00F582758300120C17FF7E00D3940074804A
:100D2D0094805003020DE6EF94207480948050035C
:100D3D00020DDDD3EF947E748094804003020DDDAF
:100D4D00900041A3A3A3E0F582758300120C172434
:100D5D00E0FFEE34FFFE3395E0FDFC900045120CF4
:100D6D00F0900045E0FCA3E0FDA3E0FEA3E0FFE46E
:100D7D007B08FAF9F8120C8E900045120CF09000D9
:100D8D0045E0FCA3E0FDA3E0FEA3E024C0FFEE34AC
:100D9D00BFFEED3403FDE43CFC900045120CF090D9
:100DAD000045E0FCA3E0FDA3E0FEA3E0FF90003FC3
:100DBD00E0900072F0900040E0900073F01211602E
:100DCD00900044E004F0900040E02406F0020D1085
:090DDD00900044E004F0020D1046
:010DE60022EA
:100DE700EB2FFFEA3EFEE93DFDE83CFC90000612D2
:100DF7000CF0900006E0FCA3E0FDA3E0FEA3E0FFFB
:100E0700E47B20FAF9F8120C8E900006120CF09091
:100E17000006E0FCA3E0FDA3E0FEA3E0FF74207B57
:090E2700017A00790A900033F011
:100E300090002C120CF0900030EBF0A3EAF0A3E944
:010E4000F0C1
:100E4100C2957F031212BB90002CE0FCA3E0FDA32E
:100E5100E0FEA3E0FF1212B690002CE0FCA3E0FD3F
:100E6100A3E0FEA3E0FF7808120CDD1212BB900094
:100E71002CE0FCA3E0FDA3E0FEA3E0FF1212BBE423
:100E8100FD900033E0FFEDC39F501A1213A69000AE
:100E910030E0FBA3E0FAA3E0F98D82758300EF1245
:070EA1000C440D80DCD2952A
:010EA8002227
:1004AB00900001EDF0A3EBF0A3EAF0A3E9F09000CC
:0304BB0000EFF05F
:1004BE00E4900005F0C3EF94017480948050030221
:1004CE000823D3EF9407748094804003020823908E
:1004DE000001E0FFC394017480948050030208234E
:1004EE00D3EF94807480948040030208239000021E
:1004FE00E0FBA3E0FAA3E0F9A3E0F5827583001216
:10050E000C17FF7E007003020823C394B07480940E
:10051E0080500302061BD3EF94F77480948040033F
:10052E0002061B900005E02401FFEE33FE8F828E43
:10053E0083120C17C394A174809480500302061B7F
:10054E00900001E0D39471748094804003020823DC
:10055E00900005E0F582758300120C172450FFE41D
:10056E0034FFFE3395E0FDFCE47B5EFAF9F8120CE5
:10057E008E900006120CF0900006E0F8A3E0F9A3AE
:10058E00E0FAA3E0FBC000C001C002C0039000056A
:10059E00E02401FFE433FE900002E0FBA3E0FAA3A7
:1005AE00E0F98F828E83120C17245FFFE434FFFE76
:1005BE003395E0FDFCEF244EFFEE3403FEE43DFDEB
:1005CE00E43CFCD003D002D001D000120DE7E49041
:1005DE00002AF090002AE0FFC394027480948050A9
:1005EE0029121382E490002BF090002BE0FFC394AD
:1005FE001074809480500B12121290002BE004F0B5
:10060E0080E790002AE004F080C9020725900002DE
:10061E00E0FBA3E0FAA3E0F9A3E0F58275830012F4
:10062E000C17FF7E00C394A17480948050030207C0
:10063E0036D3EF94A3748094804003020736900063
:10064E0005E02401FFEE33FE8F828E83120C17C35A
:10065E0094A1748094805003020736900001E0D379
:10066E009471748094804003020823900005E0F595
:10067E0082758300120C17245FFFE434FFFE33955E
:10068E00E0FDFCE47B5EFAF9F8120C8E9000061287
:10069E000CF0900006E0F8A3E0F9A3E0FAA3E0FB6B
:1006AE00C000C001C002C003900005E02401FFE4B9
:1006BE0033FE900002E0FBA3E0FAA3E0F98F828EF6
:1006CE0083120C17245FFFE434FFFE3395E0FDFC2C
:1006DE00D003D002D001D000120DE7E490002AF032
:1006EE0090002AE0FFC39402748094805029121364
:1006FE0082E490002BF090002BE0FFC394107480E6
:10070E009480500B12121290002BE004F080E790B0
:10071E00002AE004F080C9900001E02410F090005F
:10072E0005E02402F00204FB900002E0FBA3E0FAD5
:10073E00A3E0F9A3E0F582758300120C17FF7E008B
:10074E00C3942074809480500302081AD3EF947ED1
:10075E0074809480400302081A900001E09479742A
:10076E008094804003020823A3A3A3A3E0F582751F
:10077E008300120C1724E0FFEE34FFFE3395E0FDEC
:10078E00FCE47B10FAF9F8120C8E900006120CF0B5
:10079E00900006E0FCA3E0FDA3E0FEA3E02480FFB2
:1007AE00EE34CFFEED3403FDE43CFC900006120C5B
:1007BE00F0900006E0FCA3E0FDA3E0FEA3E0FF74D2
:1007CE0010120E26E490002AF090002AE0FFC39447
:1007DE000274809480502C121382E490002BF090BF
:1007EE00002BE0FFC3940874809480500E75F008BF
:1007FE0012121590002BE004F080E490002AE00421
:10080E00F080C6900001E02408F08000900005E022
:05081E0004F00204FBE0
:0108230022B2
:0313F3000204AB46
:100AF600900001EDF0A3EBF0A3EAF0A3E9F090007B
:030B060000EFF00D
:100B0900E4900005F0C3EF940174809480500302CF
:100B19000BFDD3EF9408748094804003020BFD9081
:100B29000001E0FFC39401748094805003020BFD1F
:100B3900D3EF9480748094804003020BFD900002EF
:100B4900E0FBA3E0FAA3E0F9A3E0F58275830012C4
:100B59000C17FF7E007003020BFDC3942074809470
:100B6900805003020BF4D3EF947E74809480507B01
:100B7900900001E0947B748094805078A3A3A3A390
:100B8900E0F582758300120C1724E0FFEE34FFFEB6
:100B99003395E0FDFCE47B08FAF9F8120C8EEF249A
:100BA900C0FFEE34BFFEED3403FDE43CFC7B017A6B
:100BB9000079069000337405F0120E30900000E0C1
:100BC900121387E4FBEBC3940574809480500E7470
:100BD900062BF582E4340012122C0B80E8E4FF1294
:100BE9001230900001E02406F08000900005E00436
:040BF900F0020B46B5
:010BFD0022D5
:030000000213E701
:0C13E700787FE4F6D8FD75810702102223
:100BFE00BB010689828A83E0225002E722BBFE02F5
:090C0E00E32289828A83E4932227
:100C1700BB010CE58229F582E5833AF583E0225092
:100C270006E92582F8E622BBFE06E92582F8E222DC
:0D0C3700E58229F582E5833AF583E49322F6
:100C4400F8BB010DE58229F582E5833AF583E8F0E6
:100C5400225006E92582C8F622BBFE05E92582C892
:020C6400F2227A
:100C6600EF8DF0A4A8F0CF8CF0A428CE8DF0A42EA2
:020C7600FE225C
:100C7800C5F0F8A3E028F0C5F0F8E5821582700207
:060C88001583E038F022A4
:100C8E00E88FF0A4CC8BF0A42CFCE98EF0A42CFC05
:100C9E008AF0EDA42CFCEA8EF0A4CDA8F08BF0A483
:100CAE002DCC3825F0FDE98FF0A42CCD35F0FCEBE2
:100CBE008EF0A4FEA9F0EB8FF0A4CFC5F02ECD39A7
:0F0CCE00FEE43CFCEAA42DCE35F0FDE43CFC2214
:100CDD00E8600FECC313FCED13FDEE13FEEF13FFF5
:030CED00D8F12219
:0C0CF000ECF0A3EDF0A3EEF0A3EFF02277
:00000001FF
