:020000040800F2
:100000007806002035020008392900085926000822
:1000100035290008AF1E00083D310008000000002F
:10002000000000000000000000000000992A000805
:10003000C91F0008000000003B290008392C0008F7
:100040004F0200084F0200084F0200084F0200084C
:100050004F0200084F0200084F0200084F0200083C
:100060004F0200084F0200084F0200084F0200082C
:100070004F0200084F0200084F0200084F0200081C
:100080004F0200084F0200084F0200084F0200080C
:100090004F0200084F0200084F0200084F020008FC
:1000A0004F0200084F0200084F0200084F020008EC
:1000B0004F0200084F0200084F0200084F020008DC
:1000C0004F0200084F0200084F0200084F020008CC
:1000D0004F0200084F0200084F0200084F020008BC
:1000E0004F0200084F0200084F02000800F002F81B
:1000F00000F090F80AA090E8000C82448344AAF132
:100100000107DA4501D100F085F8AFF2090EBAE82F
:100110000F0013F0010F18BFFB1A43F0010318473B
:10012000A0400000C0400000103A24BF78C878C149
:10013000FAD8520724BF30C830C144BF04680C60ED
:10014000704700000023002400250026103A28BF35
:1001500078C1FBD8520728BF30C148BF0B60704739
:100160006E2900F04381702900F08D82662903F02A
:100170009787652903F09487672903F091876129A0
:1001800003F0908703681B0A28BF41F080016929AA
:1001900000F0F080642900F0ED80752900F0EA801D
:1001A0006F2900F01A82782900F05982E92900F0BD
:1001B000B581E42900F0B281F52900F0AF81EF2983
:1001C00000F01782F82900F058820368DB0928BF85
:1001D00041F08001632900F05B87732900F060879C
:1001E000E32900F06B87F32900F070870020704747
:1001F0001FB500F0BDFF04000020002103F088FAC5
:10020000401C60600020002103F06CFAE0601FBD1C
:1002100010B510BD00F07EFF1146FFF7E9FF02F0B8
:10022000F1FF01F05BF803B4FFF7F2FF03BC01F04C
:10023000A3F800000948804709480047FEE7FEE7A9
:10024000FEE7FEE7FEE7FEE7FEE7FEE7FEE7FEE786
:1002500004480549054A064B704700003D2C00083C
:10026000ED000008780000207806002078020020C9
:10027000780200207CB51D4616460C00009001D087
:100280002044401E074B7B442A4669460190304675
:1002900000F0C5F805461CB10020694600F0D2F810
:1002A00028467CBDC501000070477047704770B597
:1002B000044685690068C10601D5302600E0202685
:1002C000C00707D070BDD4E9012130469047206AAD
:1002D000401C20626D1EF6D570BD70B50446856960
:1002E0000078C00707D170BDD4E9012120209047D4
:1002F000206A401C20626D1EF6D570BD09684A0553
:1003000001D540B27047C905FCD500B270470968F5
:100310004A0501D5C0B27047C905FCD580B2704707
:1003200070B50C460546012A05D02878800600D510
:10033000EA69002302E0012305E05B1C934202D23C
:10034000E05C0028F9D1A869E618C01AA861286AFB
:10035000184428622846FFF7AAFF04E0D5E90121E6
:1003600014F8010B9047B442F8D32846FFF7B5FFC5
:1003700070BD00002DE9F041064600241068752983
:10038000314616A510D0FFF7B9FF002802DA404227
:1003900013A507E031688A0701D512A502E04907D5
:1003A00004D511A5012401E0FFF7B1FF00210A22C5
:1003B00006F1240709E0B0FBF2FCB0FBF2F302FB0C
:1003C0001C00303078541846491C0028F3D12346CD
:1003D0002A463046BDE8F04100F069BA000000004E
:1003E0002D0000002B0000002000000011680268B2
:1003F000006A530501D508700AE0D30501D50880CD
:1004000006E0130603D5C217C1E9000200E0086048
:100410000120704701694A1C02610878704700B5E5
:100420008FB0CDE901310021059105497944CDE92D
:1004300003101146684600F031F90FB000BD00000E
:10044000E5FFFFFF0A6802F8010B0A607047D1E977
:1004500000239A4202D2531C0B60107070470000B8
:100460002DE9FF5F15468A460446DFF8AC80F84464
:100470000027D8E900103E46CDE9001010E03AF818
:1004800016106A4602A800F025FE411C07D021780C
:10049000890603D5E269391891420DD80744761CC4
:1004A0002078800602D5E069B84205DDAE42E6DB81
:1004B0003AF816000028E2D1A069C01BA0612046CE
:1004C000FFF7F5FED8E90010CDE90010002017E095
:1004D0003AF818106A4602A800F0FCFDB0F1FF3FA0
:1004E00081460BD000250DF1080B05E0D4E9012170
:1004F0001BF8050090476D1C4D45F7D308F101002E
:10050000B0428046E4DB206A384420622046FFF790
:10051000E4FEBDE8FF9F0000523C00002DE9F041E1
:100520008046D21D22F007020025D2E90002F529FB
:1005300015A614D0011E72F1000106DA0023D0EBDB
:10054000030063EB020211A608E0D8F800108B0745
:1005500001D50FA602E0490701D50EA601251146D7
:10056000002408F1240704E000F05CF930323A5529
:10057000641C50EA0102F7D12B4632462146404620
:10058000BDE8F04100F093B9000000002D0000002C
:100590002B0000002000000030B4002100F12404F2
:1005A00008E002F00705D208303542EA4372DB0862
:1005B0006554491C52EA0305F3D10468002310A2D4
:1005C000250707D5A40600D421B1C46901230DA2D3
:1005D000641EC46130BC00F06AB910B504462146FF
:1005E0001068FFF794FE02462046BDE81040002345
:1005F000D2E7D21D22F00701D1E90023CCE70000A9
:100600000000000030000000F0B40D46018809052C
:1006100002D5214C7C4402E01F4C7C440E34002166
:1006200000F1240608E002F00F071209E75D42EA34
:1006300003721B097754491C52EA0307F3D102786D
:100640000023120704D5702D06D009B102231134FE
:100650002246F0BC00F02BB901231034F8E770B546
:1006600004460D4621461068FFF751FE0246294612
:100670002046BDE870400023C6E7D21D22F00703E4
:10068000D3E90023C0E70368126843F02003036046
:100690000823C3610023B7E7B43A00002DE9F05FF7
:1006A000894604464FF0000ADFF874B1FB44C0F8F5
:1006B00020A02046E1688847002874D0252806D06D
:1006C000D4E901219047206A401C2062F1E700260E
:1006D0005F462046E16888472028054607DB312D24
:1006E00005D2781910F8200C08B10643F1E7B007DD
:1006F00001D526F00406C4F81CA00027C4F818A0F1
:100700002A2D09D0284602F075FD38B304EB87087E
:10071000303DC8F8185019E059F8041B204604EB86
:1007200087029161E1688847012F054618D1E06989
:10073000002820DA26F020061DE0D8F8180000EB8B
:10074000800005EB40003038C8F818002046E1680A
:100750008847054602F04EFD0028EED1012F0AD051
:100760002E2D08D12046E16888477F1C0546022FC0
:1007700046F02006C4DBA069002803DA404246F0B8
:100780000106A061F00701D026F010066C2D0BD0F9
:10079000682D09D04C2D39D06A2D35D0742D35D027
:1007A0007A2D33D016E038E0E1682F46204688479E
:1007B000B842054609D16C2F26D04FF48060E1681D
:1007C000064320468847054604E06C2F1AD04FF4B4
:1007D000807006430DB3A5F14100192802D82035D9
:1007E00046F400664A462946204626604E46FFF7F4
:1007F000B7FC80B101280BD0F61D26F0070000F1F0
:10080000080956E74020E4E78020D8E70020D6E733
:1008100006F104094DE7284652E7206ABDE8F09F3B
:10082000443A000030B5B0F10A024FEA900E71F17F
:1008300000034EEA817EB0EB0E0061EB91014FEABE
:10084000101E4EEA017E10EB0E0041EB11114FEA33
:10085000102E4EEA016E10EB0E0041EB11214FEA13
:10086000104E4EEA014E10EB0E0041EB11414018C4
:1008700041F100014FEAD00040EA41704FEAD10156
:1008800010EB80054FEA810444EA907444EB0104C4
:100890006D1944EB0404521BA3414FF0000348BF01
:1008A0000A3200D530BD401C41F1000130BD2DE9B8
:1008B000F0470D4699469246044600F12408016827
:1008C000880604D5E06921F01001216000E00120D4
:1008D000A84201DD471B00E00027A1697A1902EB5D
:1008E0000900081AA0612078C00602D42046FFF74C
:1008F000DEFC002608E0D4E901211AF80600904742
:10090000206A401C761C20624E45F4DB2078C0062D
:100910000AD52046FFF7CBFC06E0D4E901213020C0
:100920009047206A401C2062381EA7F10107F4DCC2
:1009300007E0D4E9012118F805009047206A401C1F
:100940002062281EA5F10105F3DC2046FFF7C5FC57
:100950002078000602D50220BDE8F0870120FBE7E1
:1009600070472DE9FF4F0C461E464FF0FF378BB006
:10097000D2E90001DDF860800A908A46C1F30A5589
:1009800005B93D46002108464FF00000BAF1000FBE
:1009900000F4400005DA00EB80004FF4400101EA6A
:1009A00050004FEA9059B9F1010F00DDB9460A989D
:1009B00050EA4A000ED044F61050A5F2FF354543E8
:1009C0002F14B8F1000F1ED07542291E1EDDC9F18B
:1009D00000021CE0B8F1010F4FF0000001D03021FF
:1009E00003E0F24305E02154401CB042FBDB3046FB
:1009F0000022002121540B99C1F80880C1E9002090
:100A00000FB0BDE8F08FBD1B6D1CDEE74A4600DA73
:100A1000694206A800F0F0FB06AB93E8070003ABC1
:100A200083E8070050460A9900F0ADFC8DE8070006
:100A3000A0F500501F3800900398002D0ADD42F207
:100A40001F014A460844002303A90390684600F0AA
:100A500016FF09E0A0F500504A461F38002303A9FD
:100A60000390684600F020FF8DE807000004000CAA
:100A700003D04FF0FF30410800E01046B8F1000FFE
:100A800003D00022009215461EE0751E05D4FFF724
:100A9000C9FE303262556D1EF9D5B34601220843B6
:100AA00002D000227F1C04E02078302801D10022EF
:100AB0007F1E002A099784D01DE0112D07DAFFF769
:100AC000B1FE303262556D1C50EA0102F5D1084387
:100AD00002D00098C8B10EE00021681E05E0235C3A
:100AE000625C63542254401E491C8142F7DBAB46D2
:100AF000A81B401E0990002004F80B000B98099ACF
:100B0000C0F80880C0E9002B7AE711264FF00008F2
:100B100057E72DE9F04F88460446D21D22F0070121
:100B200091B0D1E90001CDE90A0102F04FFB024684
:100B30000B98C00F01D02D2007E02068810701D558
:100B40002B2002E0202101EAC000032A099001D0F5
:100B5000072A05DB03464146204600F00DFB0BE16A
:100B60002078800601D5E06900E00620B8F1650F25
:100B7000814606D0B8F1660F18D0B8F1670F70D172
:100B800031E00020B9F1110F009001DB112301E0E9
:100B900009F101030AAA01A90CA8FFF7E2FEDDE9A9
:100BA0000C70002609F10105834647E001204B4601
:100BB00000904FF000470AAA01A90CA8FFF7D1FE48
:100BC000DDE90DB00C995D46002610B909F1010070
:100BD0000D18B9EB050003D4C0F1FF3609F101058A
:100BE000A5EB09002BE0B9F1010F01DA4FF0010983
:100BF0000020B9F1110F0090484601DD112300E0FB
:100C000003460AAA01A90CA8FFF7ABFEDDE90C70A8
:100C10004D4600268346207800070AD4AB4500DA0B
:100C20005D4601A8012D04DD411911F8011C302990
:100C300007D04F4502DA17F1040F04DA012082468B
:100C40000FE06D1EEEE7002F02DCED1B3E4403E0DB
:100C5000781CA84200DD7D1CB81B00F1010A4FF092
:100C600000472078000703D4AA4501DB4FF0FF3A84
:100C70000021B7F1004F0DF143088DF8431024D047
:100C800002202B23002F01DA7F422D230A21021E8E
:100C9000A0F1010000DC5FB197FBF1FC97FBF1F2E2
:100CA00001FB1C7C17460CF1300C08F801CDEEE777
:100CB000A8F1010003702188090501D5452100E054
:100CC0006521A0F1010800F8011C09980FA9A1EB0A
:100CD0000807FF1D00B10120411901EBEA70A1696D
:100CE0003844081A401EA0612078C00602D420466D
:100CF000FFF7DDFA099828B1D4E901219047206A6D
:100D0000401C20622078C00622D52046FFF7CFFA8B
:100D10001EE0002E04DBB34502DD01A8805D00E08B
:100D20003020D4E901219047206A401C2062761CC3
:100D3000AAF101005FEA000A0AD100F019FAC068BE
:100D40000168405CD4E901219047206A401C206280
:100D5000281EA5F10105DCDC07E0D4E9012118F823
:100D6000010B9047206A401C2062381EA7F1010742
:100D7000F3DC2046FFF7B1FA032011B041E6000092
:100D80002DE9F04F04460D46D21D22F0070089B030
:100D9000D0E900974846394602F018FA0246F80FA3
:100DA00001D02D2307E02068810701D52B2302E025
:100DB000202101EAC0038DF820300BB1012000E0B2
:100DC0000020032A824601D0072A04DB2946204658
:100DD00000F0D2F93FE12078800601D40D2500E033
:100DE000E569C7F30A560D2D49DA00214FEA175B72
:100DF00008464FF00000002F00F4400007DA00EB37
:100E000080004FF4400100EBD07001EA60008115D2
:100E1000012901DD4FF0FF3100224FEA850CBCF1C2
:100E2000180F06D31346ACF118004FF08052C240A1
:100E300003E04FF4801323FA0CF30CF10C0CBCF11B
:100E4000200F04D3ACF1200C09FA0CF001E007FAF2
:100E50000CF000294FF0004801DD18B90FE00ED169
:100E600040450CD319EB02095F4121B9404502D13D
:100E70009F4329EA0209BBEB175F00D0761C20884C
:100E8000000502D57B48784402E07A487844193856
:100E900008AA302302F80A30037C0AF10101002E6F
:100EA0000AF1020A53546A4602DC4FF0300101E0B5
:100EB0004FF031014FF001088DF8001002D0A6F27A
:100EC000FF3603E059EA470100D06B4E002D02DCEB
:100ED0002178090704D54FF002082E218DF8011062
:100EE000C44600210BE0C7F303433F01C35C491C28
:100EF0006D1E02F80830052908F1010801DA002DFD
:100F0000F1DC00210CE000EB1973491C1B786D1E0D
:100F1000082902F808304FEA091908F1010801DA36
:100F2000002DF0DC21688B0602D516E0A8F101083F
:100F3000E04505DD02EB080313F8013C302BF5D04A
:100F4000B8F1000F09DD02EB080313F8013C2E2B6A
:100F500003D1090701D4A8F10108002D05DD3E21C8
:100F600002F808106D1E08F10108407C002E02F8FE
:100F7000080008F1010804DA2D20764202F8080082
:100F800002E02B2002F808000A214FF47A70864212
:100F900008F101080BDB96FBF0F3303302F8083060
:100FA00096FBF0F308F1010800FB136601E0642EE4
:100FB0000CDB642096FBF0F3303302F8083096FB2C
:100FC000F0F308F1010800FB136601E00A2E06DBCE
:100FD00096FBF1F0303002F8080008F1010896FBAA
:100FE000F1F001FB1060303002F80800A16908F14F
:100FF000010808EB050202EB0A00081AA06120783C
:10100000C00602D42046FFF752F9216A08AE01EB70
:101010000A00206204E0D4E9012116F8010B904790
:10102000BAF1010AF7D22078C00602D52046FFF7B0
:101030003EF96E4609E016F8010B3E280FD0D4E9C0
:1010400001219047206A401C2062B8F10108F2D2C9
:101050002046FFF742F909B00320BDE8F08F206A6F
:101060002844206203E0D4E90121302090476D1E1E
:10107000EBD3F8E78E32000002FCFFFF10B54369A6
:1010800013B1AFF3008001E0FFF74AF9012010BD72
:10109000127800F124010A7000224A700122EDE763
:1010A00011684FF0FF32E9E710B5436913B1AFF3B0
:1010B000008001E0FFF7D4F9012010BD128800F193
:1010C000240182840022C2840122EDE711684FF0DE
:1010D000FF32E9E770B516460C46054600F040F8C9
:1010E000036893F80101012806D0FF2C0FD8185D82
:1010F00068B101202C7070BDD3F80701324621463B
:1011000003F2071303442846BDE8704018474FF028
:10111000FF3070BD754600F0EBF8AE46050069463D
:10112000534620F00700854618B020B5FFF790F829
:10113000BDE820404FF000064FF000074FF00008D8
:101140004FF0000B21F00701AC46ACE8C009ACE859
:10115000C009ACE8C009ACE8C0098D467047000082
:1011600010B500F005F8001D10BD00BFA52500005A
:1011700000487047380000202DE9F0411F46044622
:1011800003260168072A01F4006004DB08B116A5F4
:1011900005E016A503E008B115A500E015A521F0AE
:1011A00010002060A069C01EA0610FB1401EA061A8
:1011B0002046FFF77CF84FB1D4E90121384690472B
:1011C000206A401C2062C01C206206E0206AFAE708
:1011D000D4E9012115F8010B9047761EF8D220467C
:1011E000FFF77BF8BDE8F0814E414E006E616E0066
:1011F000494E4600696E66002DE9F0478146164665
:101200008AB0354878440DC88DE80D0032487844DE
:10121000801C03AC0DC884E80D0041F69B300844E7
:10122000372190FBF1F290FBF1F5A5F1800501FB70
:1012300012041B3C02D56442012000E00020DFF8CC
:1012400098A080460027FA44AAF1BE0A0EE0E00703
:101250000AD03246684607EB470101230AEB8101B9
:1012600000F022FB8DE8070064107F1C002CEED1FB
:10127000194F7F44AE3F19E0E80715D007EB041083
:101280000DF1180A90E80E008AE80E00C068F042DE
:1012900001D1981908903246012306A903A800F04D
:1012A00003FB03AB83E807006D10641C002DE3D142
:1012B0004FF0010332466946B8F1000F03A802D08F
:1012C00000F0DDFA01E000F0EFFAC9E90001C9F829
:1012D00008200AB0BDE8F087A02F000010B5044632
:1012E000AFF300802046BDE81040FEF79CBF000031
:1012F00000487047180000204FF0013C50F8042BC4
:1013000051F8043B9A4221D1A2EB0C03934313EA18
:10131000CC1317D150F8042B51F8043B9A4215D145
:10132000A2EB0C03934313EACC130BD150F8042B1C
:1013300051F8043B9A4209D1A2EB0C03934313EA00
:10134000CC13DBD04FF00000704700BFD01A01BAB9
:10135000B1FA81F101F0180122FA01F0CB40C1F19C
:101360002001DBB2C0B2C01A2CFA01F3D11A9143AA
:1013700011EAC311E6D1704701491820ABBEFEE760
:101380002600020070475FEA400C08BF91F0000F92
:101390004FEA8C234FEAC12243EA51514FEA1C50D5
:1013A00018BF00F5F0404FEA300018BF41F000418F
:1013B0005FEA6C5C00F02980BCF1FF3F08BF40F0A1
:1013C00080407047130C06BF12044FF0100C4FF012
:1013D000000C130E04BF12020CF1080C130F04BF13
:1013E00012010CF1040C930F04BF92000CF1020CDB
:1013F000D30F04BF52000CF1010C11464FF0000254
:10140000A0F11F00A0EB0C00704711F0004F08BFC7
:10141000704731F000413FF4D5AF0B0C06BF090413
:101420004FF0100C4FF0000C0B0E04BF09020CF132
:10143000080C0B0F04BF09010CF1040C8B0F04BF47
:1014400089000CF1020CCB0F04BF49000CF1010C18
:10145000CCF12003A0EB0C0022FA03F302FA0CF209
:1014600041EA030100F10100704720F07F4C80EA5F
:10147000030023F07F47ACEB070303F57C5300F038
:10148000004003F1FF032DE980494FEA154B09B4F1
:101490004FEA144325EA0B4E24EA03480FF20426D0
:1014A00006EB132749083E785FEA320203FB066722
:1014B000C7F5000707FB06F64FEA54374FEAD64652
:1014C00006F1020607FB066CCCF1005C4FEA1C47F4
:1014D0002CEA074C07FB06F40CFB06F504EB15465B
:1014E0004FEA961634BF00204FF000404FEAD13744
:1014F00006FB07FC4FEA1C4C0CFB0BF7D21B03FB53
:101500000CF761EB07010CFB0EF7B0EB074072EB39
:1015100017420CFB08F734BFA2EB0742B2EB0742BD
:1015200061EB17414FEA0C444FEA910706FB07FCB9
:101530004FEA1C4C0CFB0BF7B0EBC74072EB573279
:1015400003FB0CF734BFA2EBC742B2EBC74261EB1F
:1015500057310CFB0EF7B0EBC70072EB57720CFB68
:1015600008F734BFA2EBC702B2EBC70261EB5771B9
:10157000039F4FEA816141EA921104EBCC044FEAE8
:10158000D1374FEA826206FB07FC42EA90124FEA2B
:1015900080604FEA1C4C0CFB0BF7D21B03FB0CF7D3
:1015A00061EB07010CFB0EF7B0EB074072EB174243
:1015B0000CFB08F734BFA2EB0742B2EB074261EB2A
:1015C00017414FEA8C554FEA910704EB9C2406FB28
:1015D00007FC4FEA1C4C0CFB0BF7B0EBC74072EB5F
:1015E000573203FB0CF734BFA2EBC742B2EBC74242
:1015F00061EB57310CFB0EF7B0EBC70072EB577283
:101600000CFB08F734BFA2EBC702B2EBC70261EBD9
:10161000577115EB4C254FEA816141EA92114FEA6F
:1016200082624FEAD13742EA901206FB07FC44F18E
:1016300000044FEA80604FEA1C4C0CFB0BF7D21BF6
:1016400003FB0CF761EB07010CFB0EF7B0EB074057
:1016500072EB17420CFB08F734BFA2EB0742B2EB68
:10166000074261EB174115EB1C154FEA813141EA46
:1016700092414FEA823242EA90424FEA80304FEA8A
:101680000C7644F1000448EA03434EEA0B484FF05D
:10169000000EB2EB080C71EB030724BF624639461B
:1016A0004EEB0E0E4FF0000B0018524149414BEB30
:1016B0000B0BB2EB080C71EB03077BF1000B24BFA3
:1016C000624639464EEB0E0E4FF0000B00185241A9
:1016D00049414BEB0B0BB2EB080C71EB03077BF1B1
:1016E000000B24BF624639464EEB0E0E51EA02074C
:1016F00018BF46F0010616EB0E7655F1000254F1C4
:10170000000103D5BDE88901BDE80088BDE8890175
:10171000BDE80048B619524141EB0101A3F10103B4
:10172000704780807F7E7D7C7B7A7978777676754E
:101730007473727171706F6E6E6D6C6C6B6A6A69C6
:101740006868676666656464636362616160605F60
:101750005F5E5E5D5D5C5C5B5B5A5A5959585857D9
:101760005756565555555454535352525251515041
:1017700050504F4F4F4E4E4D4D4D4C4C4C4B4B4B94
:101780004A4A4A49494948484847474747464646DA
:101790004545454444444443434343424242424115
:1017A0004141002B9C4630D477002BD01CB54FEA2A
:1017B000370703B44FF010004FF01001BAF1000FDB
:1017C00006D0BCF1000FDCBF40F0080040F008017B
:1017D0004FF000000FBCBDE810400BF1010BBBF156
:1017E000010F08BF5FEA170722BF12F1010211F1D2
:1017F00001014FF0004143F1000300F0004043EAD3
:1018000000007047F9D35708D0E746EA064613F1BF
:10181000400F4FEA16461FDD13F1200FDFBF1643BE
:101820000A46002120335B42BED0C3F1200746EABE
:10183000064602FA07F74FEA164646EA0706C3F1DC
:10184000200722FA03F201FA07F721FA03F14FF019
:10185000000342EA0702A7E746EA020646EA06460E
:101860004FEA164646EA0106BCBF46EA0646360C73
:101870004FF000034FF000024FF0000194E72DE914
:10188000804C9A46934670B491E8380007C831EA14
:10189000400C48BF34EA430C03D5FFF7E6FDFFF7E1
:1018A00080FFF0BCBDE8008C2DE9804C9A46934641
:1018B00070B491E8380007C810F0804F08BF13F0EB
:1018C000804F03D100F005F8FFF76BFFF0BCBDE8D7
:1018D000008C20F07F4780EA030023F07F4C07EB69
:1018E0000C03A3F57C5300F00040A3F1FE0392F03B
:1018F000000F00F0B38095F0000F00F077802DE925
:1019000001494FEA11404FEA144621EA004800FB22
:1019100006FC24EA064708FB06F607FB08F800FB6E
:1019200007F718EB06484CEB164C4FEA124B18EB36
:1019300007484FEA15464CEB174022EA0B4E0BFBCB
:1019400006FC25EA06470EFB06F607FB0EFE0BFB20
:1019500007F71EEB064E4CEB164C4FF000061EEB45
:10196000074E4CEB174B18EB0B0840F1000018EB3F
:101970000E0B58EB000840F100008F1A4FF00001E9
:101980003CBFC943661B14BFB5EB040C00213CBF30
:10199000C943F61B4FEA17444EEA8E0E27EA044568
:1019A0004FEA1C4704FB07622CEA074C05FB07F7CC
:1019B0000CFB05F604FB0CFC16EB074642EB17424A
:1019C00016EB0C4642EB1C421BEB060658EB0202E0
:1019D000414146EA9E0601D5BDE80189B61952414A
:1019E00041EB0101A3F10103BDE801894FEA144570
:1019F0004FEA114724EA054621EA074C05FB07F4A4
:101A000006FB07F70CFB06F105FB0CFC11EB07418D
:101A100044EB17444FEA124711EB0C4144EB1C44D2
:101A200022EA074C05FB07F206FB07F70CFB06F65C
:101A300005FB0CFC16EB074642EB174216EB0C4677
:101A400042EB1C456A1854F1000148BF7047B619B3
:101A5000524141EB0101A3F10103704795F0000FE2
:101A600037D04FEA11424FEA144721EA024624EAEE
:101A7000074C02FB07F106FB07F70CFB06F402FB21
:101A80000CFC14EB074441EB17414FEA154714EBEC
:101A90000C4441EB1C4125EA074C02FB07F506FB11
:101AA00007F70CFB06F602FB0CFC16EB074645EBB2
:101AB000174516EB0C4645EB1C42121951F100017B
:101AC00048BF7047B619524141EB0101A3F1010330
:101AD00070474FEA14454FEA114724EA054621EAC8
:101AE000074C05FB07F106FB07F70CFB06F24FF06E
:101AF000000605FB0CFC12EB074241EB174112EB11
:101B00000C4251EB1C4148BF7047921841EB010158
:101B1000A3F10103704721B1826842F001028260A3
:101B200003E0826822F00102826070472DE9FF5FC6
:101B300084B014461D46DDE91267049802F037F8B8
:101B400082464FF06632104B02F080F88046002249
:101B50000E4B01F0A7FECDE9020132463B4620467E
:101B6000294601F0EBFD8046DDE9022302F06EF824
:101B7000824632463B4601F095FECDE90001DDE9A3
:101B8000000108B0BDE8F09F66660A4000FEAF4065
:101B900010B504461248844208D10121401500F0D6
:101BA000E9FE0021601500F0E5FE17E00D488442D3
:101BB00008D10121001500F0DDFE0021201500F004
:101BC000D9FE0BE00848844208D10121C80300F087
:101BD000D1FE00214FF4004000F0CCFE10BD00000B
:101BE0000024014000280140003C01401CB50220B7
:101BF00000F080F80446002104480A46044BCDE971
:101C000000102046FFF792FF1CBD00000088C34073
:101C100060E326411CB5012000F06CF80446002169
:101C200004480A46044BCDE900102046FFF77EFF2A
:101C30001CBD00000088C340006AF8401CB50020AD
:101C400000F058F80446002104480A46044BCDE948
:101C500000102046FFF76AFF1CBD00000088C3404B
:101C600000ECB3401CB5032000F044F8044600210A
:101C700004480A46044BCDE900102046FFF756FF02
:101C80001CBD00000088C34040773B417CB5042068
:101C900000F030F80646002106480A46064BCDE91A
:101CA00000103046FFF742FF0446044A044B02F09E
:101CB0000DF97CBD0088C340804F424174029A08F0
:101CC0001B9ED23F014600208A6802F004020AB13E
:101CD000012000E0002070470146C86C80B27047C8
:101CE0000246002013680B400BB1012000E00020E9
:101CF000704700002DE9F04105460026052301222A
:101D00002946184800F062F8002410E00121154827
:101D100000F0BDF800BF02211248FFF7E1FF0028E4
:101D2000F9D01048FFF7D8FF0746601CC4B2032C57
:101D3000ECDB002410E001210A4800F0A8F800BF05
:101D400002210848FFF7CCFF0028F9D00548FFF72B
:101D5000C3FF0644601CC4B2102CECDBC6F30F10AA
:101D6000BDE8F08100240140014600208A6802F0AD
:101D700008020AB1012000E00020704730B5024699
:101D80000020002350680F4C20400D790C6844EA75
:101D900005242043506090680B4C2040D1E9025448
:101DA0002C434D7944EA450420439060D06A20F4E6
:101DB00070000C7C641EE4B2234340EA0350D062FE
:101DC00030BD0000FFFEF0FFFDF7F1FFF0B5044667
:101DD0000D4600200021092D11DDE068A5F10A065D
:101DE00006EB4607072606FA07F18843A5F10A061F
:101DF00006EB460603FA06F10843E0600CE02069B2
:101E000005EB4507072606FA07F1884305EB45066B
:101E100003FA06F108432061072A0FDA606B561EA9
:101E200006EB86071F2606FA07F18843561E06EBC7
:101E3000860605FA06F10843606322E00D2A0FDAF0
:101E4000206BD61F06EB86071F2606FA07F188438C
:101E5000D61F06EB860605FA06F10843206310E05C
:101E6000E06AA2F10D0606EB86071F2606FA07F1C7
:101E70008843A2F10D0606EB860605FA06F1084333
:101E8000E062F0BD816841F008018160704721B1D6
:101E9000826842F4A002826003E0826822F4A00219
:101EA00082607047816841F004018160704700BF23
:101EB000FEE7000010B50121034800F0C9FB8021B6
:101EC000024800F0C7FB10BD000C014000080140B3
:101ED00010B50121034800F0BDFB0221014800F0CC
:101EE000B7FB10BD000C014010B50121034800F004
:101EF000B1FB0221014800F0ADFB10BD000C014018
:101F000010B50121034800F0A3FB8021024800F036
:101F10009FFB10BD000C01400008014008B50121E5
:101F20000C2000F017FD0120ADF8000010208DF806
:101F3000030003208DF8020069460F4800F0FDFA07
:101F400001210D4800F084FB8020ADF800006946B7
:101F50000A4800F0F2FA8021084800F079FB0220DC
:101F6000ADF800006946044800F0E7FA0221024893
:101F700000F06EFB08BD0000000C014000080140AD
:101F800010B5044634B1012C07D0022C08D0032C24
:101F90000CD108E0FFF7A8FF0BE0FFF799FF08E07E
:101FA000FFF788FF05E0FFF7ABFF02E0FFF7A8FFB0
:101FB00000BF00BF10BD00000146024830F811000C
:101FC00070470000A8400008704700B5034603E0D2
:101FD0004FF47A7000F005F8181EA3F10103F7D151
:101FE00000BD00EBC001C9004FF0E02251610021AB
:101FF00091610521116100BF4FF0E021096901F4F1
:1020000080310029F8D004214FF0E022116170479F
:102010002DE9F04F8BB0814617469846DDF850A069
:1020200000200590002213463846414601F0D2FDBB
:1020300001D20027B8460022824B3846414601F0C3
:10204000C9FD09D20022804B3846414601F0FEFD11
:1020500007468846012005903846414601F07AFD42
:102060000A900A9E0EB9012509E0002504E0681CCB
:10207000C5B20A20B6FBF0F60EB1092DF7DB0598C4
:1020800000284BD0042D0EDD012409E009EB0401EA
:10209000491EC8B20022092100F038FB601CC4B2FE
:1020A000042CF3DD31E04FF0000B0CE009EB0B01E9
:1020B000C8B200F0F0FB0F21029000F01BFC0BF106
:1020C000010000F0FF0BBBF1040FEFDB0A9E4FF0A5
:1020D000000B17E00A20B6FBF0F100FB116008903E
:1020E00009F10301A1EB0B01C8B200F0D4FB02908F
:1020F000089900F0FFFB0A20B6FBF0F60BF1010097
:1021000000F0FF0BAB45E5DB00BFBAF1000F02D0DA
:1021100001208AF800000BB0BDE8F08F00224A4B86
:102120003846414601F090FE14D8012409E009EB3D
:102130000401491EC8B20022092100F0E7FA601C20
:10214000C4B2042CF3DDBAF1000F02D000208AF8EB
:102150000000E0E7032D05DB0325012003900320A9
:10216000049009E0022D03D102200390049003E0C3
:10217000032003900120049001200990012406E02F
:10218000099800EB800040000990601CC4B2AC428A
:10219000F6DB0A9E01241DE00998B6FBF0F00A2147
:1021A000B0FBF1F201FB1200089004998C4201D1BE
:1021B000012100E000210A4609EB0401491EC8B2D2
:1021C000089900F0A3FA0A210998B0FBF1F00990F0
:1021D000601CC4B2AC42DFDD0A9801F0E8FC3A466C
:1021E0004346CDE9000101F065FECDE90601012479
:1021F0001CE00022154BDDE9060101F027FDCDE9C9
:102200000601DDE9060101F0A5FC0A21B0FBF1F2AF
:1022100001FB1200089009EB05012144491EC8B2D8
:102220000022089900F072FA601CC4B2039884423C
:10223000DFDDBAF1000F02D000208AF8000000BFF5
:1022400069E700000000F03F00408F40000024409C
:102250002DE9F0410446642094FBF0F0C5B20A2059
:1022600094FBF0F00A2190FBF1F201FB1200C6B2E0
:102270000A2094FBF0F100FB1140C7B2642C13DB81
:102280003921012000F040FD00222946022000F003
:1022900025FD00223146032000F020FD00223946B2
:1022A000042000F01BFD17E03921012000F02CFD77
:1022B000F621022000F028FD0A2C03DA032000F0AA
:1022C00006FD04E000223146032000F007FD002255
:1022D0003946042000F002FDBDE8F08110B500F0A1
:1022E00029FA00F033FD10BD10B50021092000F0DF
:1022F00001FB00227721012000F008FA00227E2154
:10230000022000F003FA00221146032000F0FEF93B
:1023100000226D21042000F0F9F90022302105206F
:1023200000F0F4F900227D21062000F0EFF90022F0
:102330001146072000F0EAF900228021082000F071
:10234000E5F9FF21092000F0D5FA7721012000F0FE
:10235000DBFC7E21022000F0D7FC8021032000F06E
:10236000D3FC8021042000F0CFFC10BDFEB5044654
:102370000D4616461F4600200290019002A82246F4
:102380002B4600900120FFF743FE01A832463B4652
:1023900000900520FFF73CFE9DF8080010B99DF85D
:1023A000040010B100F090F901E000F085F9FEBDE5
:1023B0002DE9F047064600F08FF900F07DF900F0B6
:1023C0004DF9642096FBF0F0C7B20A2096FBF0F0BE
:1023D0000A2190FBF1F201FB120000F0FF080A2035
:1023E00096FBF0F100FB116000F0FF09642E13DB97
:1023F0003921012000F088FC00223946022000F03B
:102400006DFC00224146032000F068FC0022494692
:10241000042000F063FC17E03921012000F074FC77
:10242000F621022000F070FC0A2E03DA032000F0EF
:102430004EFC04E000224146032000F04FFC002245
:102440004946042000F04AFC00F010F9012409E09C
:1024500001220821204600F059F95020FFF7B5FD70
:10246000601CC4B2082CF3DD082407E0204600F00D
:1024700043F95020FFF7A9FD601EC4B2012CF5DA24
:1024800000250FE0012406E000222946204600F046
:102490003DF9601CC4B2082CF6DD5020FFF795FD15
:1024A000681CC5B20A2DEDDB00251CE0012413E0F9
:1024B00028190A2190FBF1F201FB120000F0FF0A3B
:1024C000042C01D1012000E00020024651462046A4
:1024D00000F01CF9601CC4B2082CE9DD3C20FFF7B9
:1024E00074FD681CC5B20A2DE0DB00251DE0012447
:1024F00006E001222146204600F008F9601CC4B223
:10250000082CF6DD6420FFF760FD012406E00022C0
:102510002146204600F0FAF8601CC4B2082CF6DD13
:102520006420FFF752FD681CC5B2042DDFDB00F00C
:1025300095F800F0D1F8BDE8F0872DE9F0410246AA
:1025400000250026002000230024002791F803C066
:102550000CF00F0591F803C00CF0100CBCF1000F4B
:1025600003D091F802C04CEA050591F800C0BCF117
:10257000000F31D0146800202BE04FF0010C0CFA52
:1025800000F3B1F800C00CEA03069E4220D183009C
:102590004FF00F0C0CFA03F7BC4305FA03FC4CEAAE
:1025A000040491F803C0BCF1280F06D14FF0010CD0
:1025B0000CFA00FCC2F814C00AE091F803C0BCF1A8
:1025C000480F05D14FF0010C0CFA00FCC2F810C006
:1025D000401C0828D1D31460B1F800C0BCF1FF0F33
:1025E00034DD546800202EE000F1080C4FF00108A3
:1025F00008FA0CF3B1F800C00CEA03069E4221D1A0
:1026000083004FF00F0C0CFA03F7BC4305FA03FCF0
:102610004CEA040491F803C0BCF1280F05D100F185
:10262000080C08FA0CF8C2F8148091F803C0BCF149
:10263000480F07D100F1080C4FF0010808FA0CF818
:10264000C2F81080401C0828CED35460BDE8F08149
:10265000416170470161704700BFFEE710B520215E
:102660000148FFF7F7FF10BD000C014010B5202115
:102670000148FFF7EDFF10BD000C014008B5012136
:10268000082000F067F96020ADF8000010208DF8F8
:10269000030003208DF8020069460648FFF74DFF4E
:1026A00040210448FFF7D6FF20210248FFF7D2FF60
:1026B00008BD0000000C014010B540210148FFF7A3
:1026C000C9FF10BD000C014010B540210148FFF7C3
:1026D000BFFF10BD000C014070B5002409E0611C73
:1026E000C8B200F0D8F805460F2100F003F9601CCD
:1026F000C4B2082CF3DB70BD70B50446204600F070
:10270000CAF805460F2100F0F5F870BD2DE9F0413B
:1027100006460C461546304600F0BDF807460DB19A
:10272000802000E0002040EA0401384600F0E2F892
:10273000BDE8F08138B50121082000F00BF94FF415
:102740006070ADF8000010208DF8030003208DF8B4
:10275000020069463C48FFF7F0FE4FF480713A48AA
:10276000FFF778FF4FF400713748FFF771FF8021C2
:102770003548FFF76DFF3220FFF727FC002411E0FA
:102780004FF400713048FFF765FF0520FFF729FC83
:102790004FF400712C48FFF75BFF0520FFF721FC89
:1027A000601CC4B2102CEBDB0520FFF70EFC0121EE
:1027B0000C2000F09FF80220FFF707FC00210F20FB
:1027C00000F098F80220FFF700FC07210B2000F032
:1027D00091F80220FFF7F9FBFF21092000F08AF8A9
:1027E0000220FFF7F2FB0C210A2000F083F8022000
:1027F000FFF7EBFB01210C2000F07CF80220FFF733
:10280000E4FB00210F2000F075F80220FFF7DDFB4C
:1028100007210B2000F06EF80220FFF7D6FBFF2106
:10282000092000F067F80220FFF7CFFB0C210A20F7
:1028300000F060F80220FFF7C8FBFFF74DFF022011
:10284000FFF7C3FB38BD0000000C014010B50121AB
:102850000C2000F04FF80120FFF7B7FB00210F20FC
:1028600000F048F80120FFF7B0FB07210B2000F033
:1028700041F80120FFF7A9FBFF21092000F03AF8F9
:102880000120FFF7A2FB08210A2000F033F8012005
:10289000FFF79BFB10BD0146C1F10900C0B27047B4
:1028A00070B5044600251FE04FF400711048FFF793
:1028B000CFFE04F0800020B180210D48FFF7CAFE52
:1028C00003E080210A48FFF7C3FE0220FFF789FBDF
:1028D0004FF400710648FFF7BDFE0220FFF781FBB1
:1028E0006006040E681CC5B2082DDDDB70BD00005B
:1028F000000C014070B505460C464FF480710C4841
:10290000FFF7A6FE0520FFF76CFB2846FFF7C8FF80
:102910002046FFF7C5FF0520FFF763FB4FF48071EA
:102920000348FFF797FE0A20FFF75BFB70BD00002E
:10293000000C014000BFFEE77047704701460020D1
:10294000034A506820F4404008435060704700003C
:102950000010024029B1064A92690243044B9A6171
:1029600004E0034A92698243014B9A617047000078
:102970000010024029B1064AD2680243044BDA60D3
:1029800004E0034AD2688243014BDA6070470000DA
:102990000010024030B500210022002400232D4DFC
:1029A0006D6805F00C0121B1042905D0082923D157
:1029B00005E0294D056022E0274D05601FE0254D0B
:1029C0006D6805F47012234D6D6805F4803402259E
:1029D00005EB92421CB9214D554305600BE01D4D9E
:1029E0006D6805F400351DB11C4D5543056002E0CE
:1029F000194D5543056002E0174D056000BF00BF4B
:102A0000144D6D6805F0F0010909154D6B5C056802
:102A1000DD4045600F4D6D6805F4E061090A104D19
:102A20006B5C4568DD4085600A4D6D6805F460515A
:102A3000C90A0B4D6B5C4568DD40C560054D6D688E
:102A400005F44041890B074D6B5CC568B5FBF3F598
:102A5000056130BD0010024000127A0000093D00FF
:102A6000000000201000002010B5044674B1012CB5
:102A700009D0022C04D0032C0BD1FFF7F3F810BDC2
:102A8000FFF7B4F8FBE7FFF7C5F8F8E7FFF7D6F86C
:102A9000F5E7FFF7FBF8F2E7704700002DE9F0419A
:102AA00005460E4614462046FFF786FA0746032CD5
:102AB00009DA0022204B2846314601F0C5F902D838
:102AC0000320BDE8F081022C08DA00221B4B2846C7
:102AD000314601F0B9F901D80220F2E7012C08DAF9
:102AE0000022174B2846314601F0AEF901D80120EB
:102AF000E7E7002C08DD0022124B2846314601F0A2
:102B000069F801D20020DCE7012C08DD00220E4B21
:102B10002846314601F05EF801D20120D1E7022CAF
:102B200008DD0022094B2846314601F053F801D256
:102B30000220C6E72046C4E700406F400000424044
:102B400000001440000012400000404000206C4093
:102B500010B500F001F810BD0CB5002001900090F8
:102B60003348006840F480303149086000BF304885
:102B7000006800F4003000900198401C019000981B
:102B800018B90198B0F5A06FF1D12948006800F498
:102B9000003010B10120009001E00020009000986A
:102BA000012843D12348006840F010002149086003
:102BB0000846006820F0030008600846006840F0FE
:102BC000020008601A484068194948600846406891
:102BD00048600846406840F48060486008464068A5
:102BE00020F47C1048600846406840F4E8104860D3
:102BF0000846006840F08070086000BF0C4800681C
:102C000000F000700028F9D00948406820F0030067
:102C1000074948600846406840F00200486000BF2D
:102C20000348406800F00C000828F9D10CBD0000F2
:102C300000100240002002407047000010B5134809
:102C4000006840F0010011490860084640681049DA
:102C500008400E494860084600680E4908400B4984
:102C600008600846006820F4802008600846406834
:102C700020F4FE0048604FF41F008860FFF768FFF3
:102C80004FF000600449086010BD000000100240D1
:102C90000000FFF8FFFFF6FE08ED00E010B500F0C1
:102CA00085F8402000F0C0F800F09AF800F07EF8B7
:102CB000C02000F0B9F8002404E0002000F0B4F8CF
:102CC000601CC4B2042CF8DB00F08AF810BD10B50B
:102CD00004460021204600F017F810BD2DE9F04110
:102CE00007460D461646122D01DB002401E005487B
:102CF000445D0EB144F080042146384600F004F8EB
:102D0000BDE8F081B040000870B504460D46012CC6
:102D100004DB042C02DC601E0B490D5400F046F865
:102D2000442000F081F800F05BF800F03FF8611EED
:102D3000C9B241F0C00000F077F8284600F074F8FE
:102D400000F04EF870BD00001400002008B501210D
:102D50000820FFF7FFFD4FF44050ADF800001020B1
:102D60008DF8030003208DF8020069460E48FFF736
:102D7000E4FB4FF480510C48FFF76CFC4FF400511A
:102D80000948FFF767FC00F011F88F2000F04CF8BD
:102D900000F026F800F00AF8402000F045F800F0B6
:102DA0001FF8FFF77BFF08BD000C014010B54FF482
:102DB00080510A48FFF74EFC4FF400510748FFF7D7
:102DC00049FC0220FFF70DF94FF400510348FFF7CB
:102DD0003FFC0220FFF705F910BD0000000C014088
:102DE00010B54FF480510F48FFF732FC0220FFF777
:102DF000F8F84FF400510B48FFF72AFC0220FFF7C8
:102E0000F0F84FF480510748FFF724FC0220FFF749
:102E1000E8F84FF400510348FFF71CFC0220FFF7CD
:102E2000E0F810BD000C014070B50446002523E019
:102E30004FF480511F48FFF70BFC0220FFF7D1F839
:102E400004F0010028B14FF400511A48FFF702FCCA
:102E500004E04FF400511748FFF7FAFB0220FFF798
:102E6000C0F864104FF480511248FFF7F3FB0220C2
:102E7000FFF7B7F8681CC5B2082DD9DB4FF48051B5
:102E80000C48FFF7E5FB4FF400510A48FFF7E2FB5F
:102E90000220FFF7A6F84FF480510648FFF7DAFB4F
:102EA0000220FFF79EF84FF480510248FFF7D0FB55
:102EB00070BD0000000C014000B585B0012144F256
:102EC0000400FFF747FD4FF40070ADF81000182024
:102ED0008DF8130003208DF8120004A91348FFF7A2
:102EE0002CFB4FF48060ADF8100004208DF8130027
:102EF00004A90E48FFF721FB4FF4E13000900020B9
:102F0000ADF80400ADF80600ADF80800ADF80C000F
:102F10000C20ADF80A006946054800F09FF8012131
:102F2000034800F082F805B000BD00000008014031
:102F3000003801402DE9F04F8BB0FEF7A7FE0446A4
:102F40000D46FEF78FFE06460F46FEF74FFE804603
:102F50008946FEF75FFE82468B46FEF76FFECDE99F
:102F60000801DDE9080122462B468DE8C00FCDE9B6
:102F7000060103A000F024F80BB0BDE8F08F0000BC
:102F8000383030563A252E336656207C2036303085
:102F9000563A252E336656207C20323430563A2558
:102FA0002E336656207C203336563A252E3366560D
:102FB000207C2035563A252E3366560A0000000044
:102FC0000FB400B5C1B043A800904FF4807101A8C0
:102FD000009B429AFDF74EF90020009001A800F0F6
:102FE00013F841B05DF814FB10B5044600BF802112
:102FF000044800F026F80028F9D02146014800F0E6
:1030000099F810BD0038014010B5044609E0207859
:103010000A2802D10D20FFF7E7FF2078FFF7E4FF31
:10302000641C20780028F2D110BD21B1828942F4BD
:103030000052828104E082894DF6FF731A4082813A
:10304000704702460020B1F5007F00D100BF138811
:103050000B400BB1012000E0002070472DE9F04744
:1030600086B005460E460024A24600BFA1460027B2
:10307000B08900B100BF2F462C8A4CF6FF70044087
:10308000F08804432C82AC894EF6F3100440B088DB
:1030900031890843718908430443AC81AC8A4FF6F7
:1030A000FF400440B0890443AC8201A8FFF772FCE2
:1030B0001F48874202D1DDF810A001E0DDF80CA026
:1030C000A88900F4004040B10AEBCA0000EB0A10E6
:1030D00031684900B0FBF1F807E00AEBCA0000EBE9
:1030E0000A1031688900B0FBF1F86420B8FBF0F0F9
:1030F00004012009642101FB1089A88900F4004023
:1031000040B1322000EBC900B0FBF1F000F0070045
:10311000044308E0322000EB09106421B0FBF1F019
:1031200000F00F0004432C8106B0BDE8F0870000DA
:1031300000380140C1F308028280704700BFFEE7FB
:1031400000B587B001214FF40170FFF703FC1F2089
:10315000ADF8180000208DF81B0006A91948FFF7EC
:10316000ECF94FF40040FFF7E9FB1748FEF710FDBC
:10317000002001908DF808008DF809004FF46020C0
:1031800003900020049001208DF8140001A90E483E
:10319000FEF7F4FD01210C48FEF7BDFC0A48FEF7DE
:1031A00071FE00BF0848FEF7DFFD0028FAD106488F
:1031B000FEF778FE00BF0448FEF784FD0028FAD130
:1031C00007B000BD0008014000240140490050EA5A
:1031D000C12018BF04204A0D18BF40F0010040F282
:1031E000FF72B2EB515F08BF40F00200012808BF38
:1031F0000520704730380A2801D20120704700208E
:1032000070470000B6B000203190309000212A9124
:103210002B9100BF00BF139000BF00BF00BF0B90F9
:10322000FFF74AFEFEA0FFF7EFFEFFF727FAFFF7D2
:1032300055F8FEF773FEFFF783FF032034904FF439
:1032400016703390FFF712FA00212C912D91002077
:10325000359010E0FEF71AFDCDE90801DDE92C23D9
:1032600000F06CFACDE92C010520FEF7AEFE359892
:10327000401CC0B2359035980528EBDB0022F24B9C
:10328000DDE92C0100F00EFB82468B46FFF7E6F9E4
:1032900050465946349AFFF701FC329034993298DF
:1032A00088420BD0329834903498FEF785FE3390E4
:1032B0003498FEF765FE1420FEF787FE0520309057
:1032C0000020359009E014A9359801EBC000C0E951
:1032D00000AB3598401CC0B2359035980A28F2DB17
:1032E0000022DA4B5046594600F0B0FCCDE91001FF
:1032F0003398FFF75DF8FEF7F7FF3398FEF7A8FF66
:103300000021D348CDE90E10CDE90C103398524678
:103310005B460090CFA0FFF753FEE2E100200A9049
:10332000002425460026D44F00BF2C902D903590C8
:103330006DE03498FFF798FB8046894600BF22462F
:103340002B464046494600F07FFD01D244464D469B
:1033500032463B464046494600F03CFC01D24646D8
:103360004F46FEF793FCCDE92E012CA80FC800F0C4
:10337000E5F9CDE92C01DDE92A23DDE92E0100F094
:10338000A5FDCDE9280100221346DDE9280100F062
:1033900021FC05D2DDE9280181F00041CDE92801B9
:1033A000B64AB74BDDE9280100F04EFD2BD2349A26
:1033B000DDE92E01FFF772FB329032993498814299
:1033C00021D0329834903498FEF7F6FD339034983B
:1033D000FEF7D6FD1420FEF7F8FD05203090002002
:1033E000319001200A9033980090A6A0DDE92E23A9
:1033F000FFF7E6FD3498FFF737FB04460D462646F7
:103400002F4600BF09E03598401CC0B23590359872
:10341000142802DA359814288BDB00BF0A9898BB71
:10342000142003902BE03598142817DA3498FFF70E
:103430001BFB8046894600BF22462B464046494634
:1034400000F002FD01D244464D4632463B4640461E
:10345000494600F0BFFB01D246464F463598142836
:1034600009DAFEF713FCCDE90001DDE92C2300F0B9
:1034700065F9CDE92C013598401CC0B2359003990F
:1034800035988842CFDB00BF0022884BDDE92C0154
:1034900000F008FA82468B4614A9139801EBC0008D
:1034A00003C8CDE90201DDE9102300F003FDCDE9F9
:1034B000100114AA139902EBC101C1E900AB5246F5
:1034C0005B46DDE9100100F039F9CDE910011398F0
:1034D000401C0A2190FBF1F201FB1200C0B21390D4
:1034E00000225A4BDDE9100100F0DCF9CDE90801BA
:1034F0000A9848BB309838BB349ADDE90801FFF7D9
:10350000CDFA32903299349881421ED03198401CC5
:10351000C0B231903198032819DB32983490349836
:10352000FEF74AFD33903498FEF72AFD1420FEF78B
:103530004CFD0520309000203190339800905CA025
:10354000DDE90823FFF73CFD01E0002031903098D1
:10355000002803DD3098401EC0B23090CDE92AAB80
:1035600020462946DDE90E2300F0B0FCCDE9060136
:1035700000221346DDE9060100F02CFB05D2DDE94F
:10358000060181F00041CDE9060130463946DDE90A
:103590000C2300F09BFCCDE9040100221346DDE979
:1035A000040100F017FB05D2DDE9040181F00041C0
:1035B000CDE90401314A474BDDE9060100F044FC46
:1035C00006D32E4A434BDDE9040100F03DFC09D24D
:1035D00032463B4620462946FEF7C8FECDE90E4559
:1035E000CDE90C673398FEF733FE0B98401C0B9027
:1035F0000B9805280BD300200B90FFF727F93246D4
:103600003B4620462946FEF7B1FEFFF793FCFFF745
:103610002DF83220FEF7D9FCFFF720F85CE000001F
:103620000D0A3D3D3D3D3D3D3D3D3D3D20537973C2
:1036300074656D205374617274203D3D3D3D3D3D88
:103640003D3D3D3D0D0A00000000144000002440B7
:103650000000F0BF5B494E49545D2053636F7574A1
:103660003D252E3266562C204368616E6E656C3D9A
:103670002564560D0A00000065CDCD419A999999AF
:103680009999E93F5B5341464554595F4A4D505D16
:103690002053636F75743D252E3266562C20436887
:1036A000616E6E656C3D2564560D0A000000344065
:1036B0005B4445424F554E43455D204176673D256D
:1036C0002E3266562C204368616E6E656C3D256413
:1036D000560D0A009999A93F40F2B630FEF775FCE5
:1036E00000BF1BE610B500290AD00878002807D0D3
:1036F00005487844FDF700FE002801D0002010BDE9
:103700000248784410BD0000EE0A0000E60A0000FE
:1037100010B500290AD00878002807D00548784459
:10372000FDF7EAFD002801D0002010BD02487844D2
:1037300010BD0000DE0A0000D60A000010B591EAB4
:10374000030F48BF83F0004300F1C883841A71EB74
:10375000030C05D2121943EB0C03001B61EB0C01A7
:10376000DFF824E14FEA1154A4EB135C1EEA430F87
:1037700018BF9EEA445F73D023EA0E03DCF1200EEB
:1037800021EA045143F4801332D322FA0CFE10EBE9
:103790000E0023FA0CFE41EB0E01CCF1200E03FAD1
:1037A0000EFE10EB0E0051F10001B1F5801FCCF1BF
:1037B000200E32D201EB045112FA0EF2BDE8104095
:1037C00058BF7047401C38BF5FEA420218BF7047BD
:1037D000002814BF20F0010041F100014FEA41032D
:1037E00013F5001F38BF7047A1F1C04100F026BBA0
:1037F000012A43EB0302ACF1200CDCF11F0E32BFB7
:103800004FF0000E23FA0CF310EB030041EB0451D0
:10381000B4EB115FD0D0A1EB045101F58011490840
:103820005FEA300001EB04510ED350F1000038BFC5
:1038300012FA0EFE08D1BDE81040C9E7401C38BF9F
:103840005FEA4202CAD1C3E7BDE810404FEA410334
:1038500013F5001F38BF7047A1F1C04100F0EEBA68
:103860009EEA445F08D011EA5E0FBDE8104004BF35
:1038700001F0004100207047BDE8104070B500F035
:103880008FFA00BF64FBBE3E0000E0FF491058BF46
:10389000C1F140415B1058BFC3F140438B42EFF38D
:1038A000008070472DE9C04130B4DFF8A0C23CEA87
:1038B000111418BF3CEA131400F0EC8081EA0305F0
:1038C0001CEA111444EAD57418BF1CEA131500F061
:1038D000C780A4EB05044FF0004545EAC12145EA45
:1038E000C32341EA505143EA525304F17F74994291
:1038F00004F500344FEAC0204FEAC22208BF9042CC
:1039000000F09C804FEA13650FF24016765D4FEA97
:10391000134506FB05F7C7F1807706FB07F74FEA6B
:10392000D737A7FB03687642C8F58038A7FB06CED9
:1039300038BFA8F1010807FB08E64FF0000EA6FB10
:10394000028CE6FB03CEDCF1000CCEF1004E38BF5A
:10395000AEF1010EA6FB0C584FF000074FF000052A
:10396000E6FB0E87A1FB08C6A0FB07CE16EB0E06F2
:1039700045F10005E1FB076515F1E04E7EBFA4F5BA
:1039800080345FEA46066D4116F1800745F1000577
:103990004FEA17274FEA066647EA0567A6F1DE46B3
:1039A000B6F1805F4FEA15251FD9384624F0010C87
:1039B00005EBC471BCF1FE6F01EB0C1102D8F0BC39
:1039C000BDE8008124425CBF01F5801E9EEAC47FF1
:1039D00002D4F0BCBDE80081244238D4F0BCA1F18F
:1039E000C041BDE8004100F029BA4FEAD22242EAC4
:1039F00043524FEAD323A7FB02864FEAD02040EA86
:103A0000415007FB03661EEA0E0F4FEAD12105FB6A
:103A1000026658BFA6EB0056B6EB00564FEA520EB0
:103A20004EEAC37E18EB0E0E56EB530EBDD518EBC7
:103A300002085E417F1C55F10005B6E74FF4801582
:103A40004FF000074FF000064FF00008ADE7F0BC64
:103A50004FF0000001F1C04101F00041BDE80081DC
:103A600011EA0C1F0CEA131500D00CE013EA0C1F2E
:103A700000F025804FF00000F0BC81EA030101F066
:103A80000041BDE80081F0BCBDE8004181EA0301CE
:103A900000F0D4B9F0BCBDE8004170B500F080F989
:103AA000097EFC3E00F007B881EA03014FF00000F8
:103AB00001F00041704781EA030100F0BFB9F0BC9A
:103AC000BDE800414FF0000021497047FFFDFBF9C0
:103AD000F7F5F4F2F0EEEDEBE9E8E6E4E3E1E0DE41
:103AE000DDDBDAD8D7D5D4D3D1D0CFCDCCCBCAC8B3
:103AF000C7C6C5C4C2C1C0BFBEBDBCBBBAB9B8B7DA
:103B0000B6B5B4B3B2B1B0AFAEADACABAAA9A8A8CC
:103B1000A7A6A5A4A3A3A2A1A09F9F9E9D9C9C9B9A
:103B20009A99999897979695959493939291919045
:103B30008F8F8E8E8D8C8C8B8B8A898988888787D6
:103B40008685858484838382828181800000FF074B
:103B50000000F87F4FEA1153A3F58063D3F11E03F1
:103B6000A8BFD3F1200C08DB4FF0004242EAC1228B
:103B700052EA505232FA03F0704709420BD4102B2C
:103B8000C4BF0020704703F5787CBCF1FF3F05D02F
:103B90004FF0FF3070474FF00000704770B500F0F5
:103BA000FFF800BF4992248000207047F0E7B0FA88
:103BB00080F310FA03F10AD0C3F11D0303F580630B
:103BC0004FEA41504FEA035202EBD12170474FF0C8
:103BD0000000704751EA030C17D41CF5801F58BF32
:103BE000BCF5801F00F10680994218BF704708BFDE
:103BF0009042704707D711F5801F58BF13F5801FFB
:103C000019D499427047894270471CF5801F08D526
:103C1000BCF5801FF7D58B4218BF704708BF8242A2
:103C200070474FF4001C1CEB410F38BF1CEB430FD7
:103C300001D28B42704770B500F0B2F8922449006F
:103C40004FF000514FF08053FFF720BEDFF848C11E
:103C500070B51CEA111E1EBF1CEA13159EEA0C0F5C
:103C600095EA0C0F00F06F8081EA030423EA4C13FD
:103C70004EEAD47E21EA4C1141F4801143F48013C2
:103C8000AE44A1FB024CA0FB0365AEF17F7E36196A
:103C900055EB0C05A1FB034C4CF10003A0FB021CEF
:103CA00016EB0C06654153F10003094218BF46F0BC
:103CB000010613F4007F0BD14FEA03314FEA0530C0
:103CC000340341EA155140EA16506FF003020AE04E
:103CD0004FEAC3214FEAC520F40241EA555140EAB8
:103CE00056506FF0020202EB2E4201EB025585EABC
:103CF000CE710AD05FEA440C18BF24F0004450F1A2
:103D0000000041F1000120EAD47040F2FE7C6245DF
:103D100000D270BDA84214BF4FF080444FF0404421
:103D2000002E08BF0024BEF1806FA8BFA1F1C041E2
:103D3000BDE8704080F282804FF0000001F1C04188
:103D400001F0004170479EEA0C0F0CEA131518BFF2
:103D500095EA0C0F06D04FF0000081EA030E0EF03A
:103D6000004170BD00F01CF88900013E00F007B86A
:103D700000F009B84FEA430C5FEA5C5C08D081EAC6
:103D8000030100F05BB84FEA410C5FEA5C5CF6D1DE
:103D90004FF00000014970470000FF070000F87F66
:103DA0000EF1020E2EF0030E5EF8046B364205D4BF
:103DB000012A43EB030515F5001F12D8012841EB3A
:103DC000010C1CF5001F0CD80ED14FEAD17C15F563
:103DD000001F0CEB4C0C0CF1020C08BF4CEBD37C1D
:103DE00004E04FF0080C01E04FEAD37C0CEB4C05EB
:103DF00026FA05F606F00706B6F1040C06D20EEB1D
:103E0000860CBDE870404CF0010C6047DFE80CF018
:103E1000090B02024FF000414FF00000A1F5002114
:103E200070BD19461046012851EB010418BFD4F5A6
:103E3000001484BF002001F0004170BD0808A0F507
:103E400000114FEA3101704753EA010C17D41CF5F9
:103E5000801F58BFBCF5801F00F106808B4218BF41
:103E6000704708BF8242704707D713F5801F58BFBD
:103E700011F5801F19D48B4270479B4270471CF587
:103E8000801F08D5BCF5801FF7D5994218BF704731
:103E900008BF904270474FF4001C1CEB430F38BF23
:103EA0001CEB410F01D2994270470FB40CBC03BC0C
:103EB000FFF7C1BE91EA030F10B581F000413FF555
:103EC00045AC83F0004300F009B8000010B591EA5A
:103ED000030F48BF83F000433FF538AC841A71EB01
:103EE000030C07D212198CF0004C43EB0C03001B9F
:103EF00061EB0C01DFF8A4E14FEA1154A4EB135C71
:103F00001EEA430F18BF9EEA445F00F0B08023EA28
:103F10006E03524221EA0451C3EB6E0338BF5B1EAD
:103F2000DCF1200E25D322FA0CFE10EB0E0043FA32
:103F30000CFE41EB0E01CCF1200E03FA0EFE10EB4D
:103F40000E0051F10001CCF1200E29D412FA0EF22C
:103F500001EB0451BDE8104058BF7047401C1CBF26
:103F6000B2F1004F704700280CBF491C20F001003F
:103F7000704712EB020E43EB030218BF4FF0010E25
:103F80004EEA4202ACF1200CDCF11E0E54D943FA89
:103F90000CFE10EB0E0051F1FF31CCF11E0ED5D509
:103FA0000EF1010E12FA0EFE404141EB010101EB50
:103FB000445C5FEA5C5C10D910EBDE7001EB0451ED
:103FC00038BFBEF1004FBDE8104018BF7047002851
:103FD0000CBF491C20F00100704730D24FEAD42CAE
:103FE00011F5001124F400641BD0B1FA81F20B3AF0
:103FF000A41AA41ED2F12003914030FA03F319430E
:10400000904001EBCC71002C01EB0451BDE8104055
:10401000A8BF704701F1C0414FF0000001F000411E
:104020007047B0FA80F310FA03F100D110BDE41A22
:10403000173C4805C90AE4E701EB045110BD4910DB
:1040400001EB0451BDE810404FEA300002E04FF0B0
:10405000000170474A0008BF0042F8D0B2F5001FC7
:1040600028BF704701F000414FF0000070479EEA02
:10407000445F07D011EA5E0FBDE8104004BF002185
:1040800000207047BDE8104070B5FFF789FE00BF03
:1040900040DFF63E83F00041104670470000E0FF2D
:1040A000FCF737BDFCF76CBE05002400FA0058028F
:1040B0003F065B4F666D7D077F6F777C395E797158
:1040C00040000000000000000000000030313233EA
:1040D000343536373839414243444546403058003C
:1040E000303132333435363738396162636465666E
:1040F00040307800040000080000000000000002CA
:104100000001000010303132333435363738396130
:104110006263646566787000303132333435363727
:10412000383941424344454658500000024000009F
:10413000000000A00000000005400000000000C8D2
:10414000000000000C4000000000409C0000000047
:10415000194000000020BCBE0000000034400000F8
:10416000BFC91B8E00000004B5400000504BCFD0EB
:104170006607E2CF010000006C4100003E8251AAB8
:10418000DFEEA73401000000D9420000DCB5A0E258
:104190003A301F97FFFFFFFFB4450000FD25A0C880
:1041A000E9A3C14FFFFFFFFFFF3F000000000080B9
:1041B00000000000FF3F0000000000800000000041
:1041C0000C4300080000002018000000280100082F
:1041D0002443000818000020600600004401000885
:1041E0001C00000043000000F8FFFFFF0C0000006F
:1041F0000E0000000F0000002E0000001001000063
:1042000043000000F8FFFFFF0040404040404040B6
:104210004040414141414140404040404040404099
:10422000404040404040404040050202020202023D
:10423000020202020202020202202020202020208C
:1042400020202002020202020202909090909090A0
:10425000101010101010101010101010101010105E
:1042600010101010020202020202888888888888D2
:1042700008080808080808080808080808080808BE
:1042800008080808020202024000000000000000C6
:10429000000000000000000000000000000000001E
:1042A000000000000000000000000000000000000E
:1042B00000000000000000000000000000000000FE
:1042C00000000000000000000000000000000000EE
:1042D00000000000000000000000000000000000DE
:1042E00000000000000000000000000000000000CE
:1042F00000000000000000000000000000000000BE
:1043000000000000000000000000000000000000AD
:104310000102030401020304060708090204060857
:044320000000000099
:04000005080000ED02
:00000001FF
