:1001C000EF139293EFC313139294EF1313543F134F
:0301D000929522E3
:030003000200A256
:1000A200C0E0C0F0C083C082C0D075D000C000C024
:1000B20001C002C003C004C005C006C0071202038B
:1000C20020B21CC3E5089402748094804003750832
:1000D2000012017874092508F8A607D2920508D003
:1000E20007D006D005D004D003D002D001D000D072
:0A00F200D0D082D083D0F0D0E032ED
:030013000200FCEC
:1000FC00C0E0C0F0C083C082C0D075D000C000C0CA
:10010C0001C002C003C004C005C006C00712020330
:10011C0020B30B750909750A09750800C292D0073E
:10012C00D006D005D004D003D002D001D000D0D05E
:09013C00D082D083D0F0D0E03273
:0B01F300D288D2A8D28AD2AAD2AF22B2
:10014500E4F50D1201D31201F3C292750909750A7E
:1001550009E4F508E4F50DC3E50D94027480948077
:1001650050F27409250DF8E6FF1201C012000605CC
:030175000D80E416
:0401FE00020B1234AA
:1001D30053BCEF759D01E4F5BDF5BE75BC88020007
:0101E3000615
:1001A200E4FFFE43BC08E5BC30E4FB53BCEFAFBD4B
:0D01B200EF75F004A4FFAEF0ADBEEF4DFF01
:0101BF00221D
:10017800E50C25E0FFE50B33FEE50B30E7067C10C8
:100188007D2180047C007D00EE6CF50BEF6DF50C95
:0A0198001201A2E50C54072FFF220C
:0E01E40000007F2B7E067DCBDDFEDEFCDFFA09
:0101F20022EA
:0B0006000000007F0B7EBEDEFEDFFC72
:0100110022CC
:0402030000000022D5
:03000000020016E5
:0C001600787FE4F6D8FD75810D02005DD6
:10002200020145E493A3F8E493A34003F68001F2AE
:1000320008DFF48029E493A3F85407240CC8C333DF
:10004200C4540F4420C8834004F456800146F6DFAE
:10005200E4800B01020408102040809001FEE47E3F
:10006200019360BCA3FF543F30E509541FFEE493A3
:10007200A360010ECF54C025E060A840B8E493A36A
:10008200FAE493A3F8E493A3C8C582C8CAC583CA95
:10009200F0A3C8C582C8CAC583CADFE9DEE780BE4D
:0102020000FB
:00000001FF
