:0809AD00010304050506030423
:1007C00078227C007D007BFF7A0979AD7E007F086E
:1007D00012041AD20312089AE4F521C3E521940801
:1007E000748094805014E52104FF74222521F8E6DA
:1007F000FD7B01120965052180E17FE87E03120976
:030800002D80D573
:0B098E0000000000000000000000005E
:02083C008F2B00
:10083E00E4F52CC3E52C940874809480501FC2817B
:10084E00E52B30E7028001C39282E52B25E0F52BE4
:0D085E00D2817F017E00120999052C80D601
:01086B00226A
:100904008D2AC28312083CAF2A12083CD2837F018D
:050914007E00020999BC
:10089A007F0A7E0012092D7D017F0C120904E4FDF6
:1008AA007F0F1209047D077F0B1209047DFF7F0960
:0A08BA001209047D087F0A020904F8
:0F096500EB60047E8080027E00EE4DFD020904EF
:1008E800E4F536C3E536940874809480500DE536F7
:0B08F80004FFE4FD120904053680E84F
:0109030022D1
:0804D0008F0B8E0A8D098C08C8
:1004D800780F7C007D007BFF7A09798E7E007F088B
:1004E80012041A78177C007D007BFF7A0979967EC2
:1004F800007F0312041AE4F51AFFFEFDFCAB0BAAF9
:100508000AA909A808120201501FE4FB7D0A7F010D
:10051800120965AF0BAE0AAD09AC0812027A8F0B4F
:100528008E0A8D098C08751A01AF0BAE0AAD09AC9D
:10053800081202C98E0D8F0EAC0DAD0EE41202909A
:10054800A804A905AA06AB07AF0BAE0AAD09AC080B
:10055800120006E4FBFA797A78441200FB1202C909
:10056800AB07AA06E50E450D700CAF1A051A740FF5
:100578002FF8E4F68033D3E50E9400E50D9400409F
:1005880028AE0DAF0E7C007D0A12046DAF05AE1AC1
:10059800051A740F2EF8A607AE0DAF0E7C007D0A63
:1005A80012046D8E0D8F0E80CD7C007D64AF03AE7E
:1005B8000212046D7C007D0A12046D8D177C007D8B
:1005C8000AAF03AE0212046D7C007D0A12046D8D21
:1005D80018AE02AF037C007D0A12046D8D19E4F594
:0805E8000CE50CC3951A504804
:1005F000AF1A7E00EF9401748094804011740E2530
:100600001AF8E6640A7007E50C2402FD8004E50C84
:1006100004FD8D1BE51A14B50C047D0180027D00DC
:100620008D1CC3EF950CFF740E2FF8E6FDAB1CAFCD
:040630001B1209652B
:10063400050C80B1E4F50CC3E50C9403748094803C
:02064400502242
:10064600E51A04250CF51BD3940874809480501287
:0E0656007417250CF8E6FDE4FBAF1B120965D6
:04066400050C80D32E
:01066800226F
:060669008B2D8A2E892F63
:10066F00E4F530753101C200AB2DAA2EA92F8530CC
:10067F00827583001204406064D3E531940874805E
:10068F0094805059853082758300A3120440B42E94
:10069F0004D2000530853082758300120440FF3389
:1006AF0095E0FEC3EF9430EE648094804029D3EF41
:1006BF009439EE64809480501EAB2DAA2EA92F85FD
:1006CF00308275830012044024D0FDA200E433FB76
:1006DF00AF311209650531C2000530808BD3E5318A
:1006EF00940874809480500DAF310531E4FB7D0F79
:0506FF0012096580E80E
:0107040022D2
:100953003F065B4F666D7D077F6F777C395E7971EC
:02096300400052
:10091900D2A0D2A17F027E00120999C2A17F027ED4
:040929000002099926
:1008C400C2A07F027E00120999C2A17F027E00129B
:1008D4000999D2A07F027E00120999D2A17F027EDB
:0408E400000209996C
:02076B008F32CB
:10076D00E4F533C3E533940874809480502EC2A011
:10077D007F027E00120999E53230E004D2A1800299
:10078D00C2A17F027E00120999E532C313F532D260
:10079D00A07F027E00120999053380C7C2A0D2A1A5
:1007AD007F027E00120999D2A07F027E0012099964
:0207BD00C2A0D8
:0107BF002217
:10080300D2A0D2A11209197F8F12076B1208C4124A
:1008130009197F4012076B1208C41209197FC0120D
:10082300076BE4FF12076BE4FF12076BE4FF120789
:090833006BE4FF12076B0208C41C
:02086C008F34C7
:10086E00ED90095393F53530010343358012091984
:10087E007F4412076B1208C4120919E5341444C0E0
:0C088E00FF12076BAF3512076B0208C4A5
:04070500AB07AA068E
:100709007C007D0A12046D8D1F7C007D0AAF03AE4B
:100719000212046D7C007D0A12046D8D1E7C007D21
:1007290064AF03AE0212046D7C007D0A12046D8D64
:100739001DAE02AF037C037DE812046DAD07C20153
:100749007F0112086CA2029201AD1D7F0212086C92
:10075900C201AD1E7F0312086CC201AD1F7F0402E6
:02076900086C1A
:0B099900EF1FAC0670011E4C70F62230
:0809A4007F027EEFDEFEDFFCA6
:0109AC002228
:0D097400007F087E9A7D7ADDFEDEFCDFFA52
:010981002253
:10092D00AD07AC06ED4C600A1209A4ED1D70F51C67
:03093D0080F22223
:10094000AB07AA06EB4A600A120974EB1B70F51A92
:0309500080F22210
:10000300020335E86480F8E933E83360110460F0F3
:10001300ED33EC337009E8FCE9FDEAFEEBFF220463
:1000230060DED3EB9FEA9EE99DE8C2E78CF0C2F75E
:1000330095F0400CE8CCF8E9CDF9EACEFAEBCFFB2A
:1000430012030085D0F05804700320D5B3E8047080
:10005300075002B2D502033F92D5EC0460F7E4CC1B
:10006300C0E0C398F8603B94186008400DD0E0FBF3
:10007300020317E4FBFAC9FC8028E830E406E4C96C
:10008300FBE4CAFCE830E305E4C9CACBFCE8540747
:100093006010F8C3E913F9EA13FAEB13FBEC13FC52
:1000A300D8F130F52FC3E49CFCEF9BFFEE9AFEEDF5
:1000B30099FDD0E0FBEF4E4D4C701222DB0302039F
:1000C3003CEC2CFCEF33FFEE33FEED33FDED30E77C
:1000D300EB020317EF2BFFEE3AFEED39FDD0E0FB09
:1000E30050130BBB000302033FED13FDEE13FEEFB2
:0800F30013FFEC13FC020317DC
:1000FB00EC4D6011E8497017ED33EC3304600DE4FF
:10010B00FCFFFEFD22E933E8330470F802033512DD
:10011B00030058046009E4CC2481500628500902DE
:10012B00033F28400302033CC0E0EB4A7044B98014
:10013B0006D0E0FB02032BEF4E701CBD8008EBFFDB
:10014B00EAFEE9FD80EBE98DF0A4FEE5F00201E4A7
:10015B00E9CDF9EAFEEBFFEF89F0A4FCE5F0CE89DF
:10016B00F0A42EFFE435F0CD89F0A42DFEE435F09C
:10017B008067EF4E7005BD80D780C3EF8BF0A4ACCA
:10018B00F0EE8BF0A42CFCE435F0F8EF8AF0A42C05
:10019B00E5F038FCE433CB8DF0A42CFCE5F03BF818
:1001AB00EE8AF0A42CFCE5F038F8E433CF89F0A408
:1001BB002CFCE5F038CF3400CE89F0A42FFFE5F00E
:1001CB003EFEE433C98DF0A42EFEE5F039CD8AF066
:1001DB00A42FFFE5F03EFEE43DFD33D0E0FB5007DE
:1001EB000BBB000F02033FEC2CFCEF33FFEE33FE97
:0601FB00ED33FD020317C5
:1002010074F8CC6480CCC86480C8F58204604FC3A4
:10021100EB9FF5F0EA9E42F0E99D42F0E89C45F043
:10022100603C501DE5825FFFE582D313CB5BCBF4CD
:100231002B5582FB50280ABA002409B900200880F6
:100241001DE5825BFBE582D313CF5FCFF4C3132F90
:100251005582FF50090EBE00050DBD00010CC3EB18
:100261009FF5F0EA9E42F0E99D42F0E89C45F0607E
:0902710007CC4820E701B3EC22A0
:10027A00ED33EC33600A047003BD8004ECB2E7FC92
:01028A002251
:10028B0075F020800E75F010800575F0087D007EEE
:10029B00007F003392D530D5031204C2EC334010EB
:1002AB00EF33FFEE33FEED33FDEC33FCD5F0ED22F7
:0E02BB00E5F0247EA2D513CC92E7CDCEFF2233
:1002C900EDD2E7CD33EC3392D524814006E4FFFE2D
:1002D900FDFC22FCE4CFCECDCC24E0501174FF808C
:1002E900EDC3CC13CCCD13CDCE13CECF13CF047029
:0702F900F030D5DE0204C263
:10030000E9D2E7C933E833F892D5EDD2E7CD33EC43
:0703100033FC5002B2D522BC
:10031700EC30E7100FBF000C0EBE00080DBD000447
:100327000BEB6014A2D5EB13FCED92E7FD2274FFF3
:10033700FCFDFEFF22E480F8A2D574FF13FC7D804C
:03034700E480EF60
:0300000002098270
:0C098200787FE4F6D8FD7581360207C0CE
:10034A00E709F608DFFA8046E709F208DFFA803E95
:10035A0088828C83E709F0A3DFFA8032E309F60882
:10036A00DFFA8078E309F208DFFA807088828C83EA
:10037A00E309F0A3DFFA806489828A83E0A3F6089E
:10038A00DFFA805889828A83E0A3F208DFFA804C78
:10039A0080D280FA80C680D4806980F2803380104F
:1003AA0080A680EA809A80A880DA80E280CA8033B8
:1003BA0089828A83ECFAE493A3C8C582C8CCC58330
:1003CA00CCF0A3C8C582C8CCC583CCDFE9DEE78000
:1003DA000D89828A83E493A3F608DFF9ECFAA9F07F
:1003EA00EDFB2289828A83ECFAE0A3C8C582C8CCD5
:1003FA00C583CCF0A3C8C582C8CCC583CCDFEADEEE
:10040A00E880DB89828A83E493A3F208DFF980CC4F
:10041A0088F0EF60010E4E60C388F0ED2402B40448
:10042A000050B9F582EB2402B4040050AF232345EF
:06043A00822390039A7377
:10044000BB010CE58229F582E5833AF583E0225071
:1004500006E92582F8E622BBFE06E92582F8E222BB
:0D046000E58229F582E5833AF583E49322D5
:10046D00BC000BBE0029EF8DF084FFADF022E4CC73
:10047D00F875F008EF2FFFEE33FEEC33FCEE9DEC3C
:10048D00984005FCEE9DFE0FD5F0E9E4CEFD22ED82
:10049D00F8F5F0EE8420D21CFEADF075F008EF2FCC
:1004AD00FFED33FD4007985006D5F0F222C398FDBD
:0504BD000FD5F0EA225A
:0E04C200C3E49FFFE49EFEE49DFDE49CFC224B
:00000001FF
