:020000040800F2
:10000000F8070020350200081D3100088F2A00087B
:1000100019310008C5250008F53E00080000000061
:10002000000000000000000000000000393500085A
:10003000C5270008000000004532000841360008CE
:100040004F0200084F0200084F0200084F0200084C
:100050004F0200084F0200084F0200084F0200083C
:100060004F0200084F0200084F0200084F0200082C
:100070004F0200084F0200084F0200084F0200081C
:100080004F0200084F0200084F0200084F0200080C
:100090004F0200084F0200084F0200084F020008FC
:1000A0004F0200084F0200084F0200084F020008EC
:1000B000A53600084F0200084F0200084F02000852
:1000C0004F0200084F0200084F0200084F020008CC
:1000D0004F0200084F0200084F0200084F020008BC
:1000E0004F0200084F0200084F02000800F002F81B
:1000F00000F090F80AA090E8000C82448344AAF132
:100100000107DA4501D100F085F8AFF2090EBAE82F
:100110000F0013F0010F18BFFB1A43F0010318473B
:100120004451000064510000103A24BF78C878C1DF
:10013000FAD8520724BF30C830C144BF04680C60ED
:10014000704700000023002400250026103A28BF35
:1001500078C1FBD8520728BF30C148BF0B60704739
:100160006E2900F00582702900F04F83662904F0A3
:10017000C887652904F0C587672904F0C28761290B
:1001800004F0C18703681B0A28BF41F08001692978
:1001900000F0B281642900F0AF81752900F0AC81D4
:1001A0006F2900F0DC82782900F01B83E92900F038
:1001B0007782E42900F07482F52900F07182EF293A
:1001C00000F0D982F82900F01A830368DB0928BF00
:1001D00041F08001632901F01D80732901F0228024
:1001E000E32901F02D80F32901F0328000207047CF
:1001F0001FB501F07FF804000020002104F0CEF9C3
:10020000401C60600020002104F0B2F9E0601FBDD6
:1002100010B510BD01F040F81146FFF7E9FF04F0FA
:1002200053F801F01DF903B4FFF7F2FF03BC01F02E
:1002300065F900000948804709480047FEE7FEE7E6
:10024000FEE7FEE7FEE7FEE7FEE7FEE7FEE7FEE786
:1002500004480549054A064B70470000453600082A
:10026000ED000008F8010020F8070020F803002046
:10027000F803002010B54C1084EA530404D5404222
:10028000C1F1000138BF491E1B4204D55242C3F1DF
:10029000000338BF5B1E00F055F814F0804F04D007
:1002A0004042C1F1000138BF491E14F0004F04D094
:1002B0005242C3F1000338BF5B1E10BD7CB51D4622
:1002C00016460C00009001D02044401E074B7B4492
:1002D0002A4669460190304600F063F905461CB194
:1002E0000020694600F070F928467CBD010300003B
:1002F0004FF0000200B5134694469646203922BFBF
:10030000A0E80C50A0E80C50B1F12001BFF4F7AF09
:10031000090728BFA0E80C5048BF0CC05DF804EBEB
:10032000890028BF40F8042B08BF704748BF20F859
:10033000022B11F0804F18BF00F8012B7047704757
:100340007047704753EA020C00F069802DE9F04BCA
:100350004FF00006002B1FBFB3FA83F503FA05F434
:1003600024FA05F65E4012BF1643B2FA82F502FA8D
:1003700005F4C5F120051EBF22FA05FC44EA0C0471
:10038000203556EA044C4FEA144418BF641C4FF061
:1003900000084FF00009904271EB030C39D300299B
:1003A00019BFB1FA81F701FA07F6B0FA80F700FA3F
:1003B00007F6C7F120071EBF20FA07FC46EA0C0625
:1003C0002037B6FBF4FCA7EB0507103F07F01F0B27
:1003D000CBF120060CFA0BFB2CFA06F644BFB34611
:1003E0000026202FA4BF5E464FF0000B5BEA060CF0
:1003F00008BF4FF0010B19EB0B09ABFB027C48EB7C
:100400000608C01B06FB02CC0BFB03CC71EB0C01F6
:10041000C1E70B46024641464846BDE8F08B13B59E
:100420004FF000004FF00001AFF30080BDE81C402A
:10043000704770B5044685690068C10601D530264D
:1004400000E02026C00707D070BDD4E90121304666
:100450009047206A401C20626D1EF6D570BD70B5B5
:10046000044685690078C00707D170BDD4E9012131
:1004700020209047206A401C20626D1EF6D570BD7A
:1004800009684A0501D540B27047C905FCD500B2DC
:10049000704709684A0501D5C0B27047C905FCD547
:1004A00080B2704770B50C460546012A05D0287801
:1004B000800600D5EA69002302E0012305E05B1C09
:1004C000934202D2E05C0028F9D1A869E618C01A6C
:1004D000A861286A184428622846FFF7AAFF04E0AA
:1004E000D5E9012114F8010B9047B442F8D328460E
:1004F000FFF7B5FF70BD00002DE9F041064600246E
:1005000010687529314616A510D0FFF7B9FF0028ED
:1005100002DA404213A507E031688A0701D512A527
:1005200002E0490704D511A5012401E0FFF7B1FF5E
:1005300000210A2206F1240709E0B0FBF2FCB0FB1F
:10054000F2F302FB1C00303078541846491C002896
:10055000F3D123462A463046BDE8F04100F069BA9F
:10056000000000002D0000002B0000002000000013
:1005700011680268006A530501D508700AE0D305C6
:1005800001D5088006E0130603D5C217C1E90002B1
:1005900000E008600120704701694A1C0261087888
:1005A000704700B58FB0CDE90131002105910549B3
:1005B0007944CDE903101146684600F031F90FB0D7
:1005C00000BD0000E5FFFFFF0A6802F8010B0A60AA
:1005D0007047D1E900239A4202D2531C0B6010707D
:1005E000704700002DE9FF5F15468A460446DFF894
:1005F000AC80F8440027D8E900103E46CDE9001051
:1006000010E03AF816106A4602A800F025FE411CD8
:1006100007D02178890603D5E269391891420DD8AF
:100620000744761C2078800602D5E069B84205DDD3
:10063000AE42E6DB3AF816000028E2D1A069C01B02
:10064000A0612046FFF7F5FED8E90010CDE90010C3
:10065000002017E03AF818106A4602A800F0FCFDE6
:10066000B0F1FF3F81460BD000250DF1080B05E0EE
:10067000D4E901211BF8050090476D1C4D45F7D3C7
:1006800008F10100B0428046E4DB206A3844206271
:100690002046FFF7E4FEBDE8FF9F0000164B000078
:1006A0002DE9F0418046D21D22F007020025D2E953
:1006B0000002F52915A614D0011E72F1000106DA18
:1006C0000023D0EB030063EB020211A608E0D8F888
:1006D00000108B0701D50FA602E0490701D50EA631
:1006E00001251146002408F1240704E000F05CF91C
:1006F00030323A55641C50EA0102F7D12B4632469B
:1007000021464046BDE8F04100F093B900000000EA
:100710002D0000002B0000002000000030B400215C
:1007200000F1240408E002F00705D208303542EA5F
:100730004372DB086554491C52EA0305F3D104688F
:10074000002310A2250707D5A40600D421B1C4694F
:1007500001230DA2641EC46130BC00F06AB910B55B
:10076000044621461068FFF794FE02462046BDE885
:1007700010400023D2E7D21D22F00701D1E9002367
:10078000CCE700000000000030000000F0B40D468F
:100790000188090502D5214C7C4402E01F4C7C44B1
:1007A0000E34002100F1240608E002F00F071209C0
:1007B000E75D42EA03721B097754491C52EA0307BA
:1007C000F3D102780023120704D5702D06D009B1A9
:1007D000022311342246F0BC00F02BB9012310345F
:1007E000F8E770B504460D4621461068FFF751FE44
:1007F000024629462046BDE870400023C6E7D21DC8
:1008000022F00703D3E90023C0E70368126843F02E
:10081000200303600823C3610023B7E77849000081
:100820002DE9F05F894604464FF0000ADFF874B105
:10083000FB44C0F820A02046E1688847002874D017
:10084000252806D0D4E901219047206A401C206267
:10085000F1E700265F462046E168884720280546E4
:1008600007DB312D05D2781910F8200C08B10643AA
:10087000F1E7B00701D526F00406C4F81CA0002754
:10088000C4F818A02A2D09D0284603F0BFFC38B3BD
:1008900004EB8708303DC8F8185019E059F8041BDC
:1008A000204604EB87029161E1688847012F0546E5
:1008B00018D1E069002820DA26F020061DE0D8F8DB
:1008C000180000EB800005EB40003038C8F8180035
:1008D0002046E1688847054603F098FC0028EED1E1
:1008E000012F0AD02E2D08D12046E16888477F1CB1
:1008F0000546022F46F02006C4DBA069002803DA73
:10090000404246F00106A061F00701D026F0100633
:100910006C2D0BD0682D09D04C2D39D06A2D35D0D7
:10092000742D35D07A2D33D016E038E0E1682F46AB
:1009300020468847B842054609D16C2F26D04FF48F
:100940008060E168064320468847054604E06C2F36
:100950001AD04FF4807006430DB3A5F14100192859
:1009600002D8203546F400664A46294620462660CD
:100970004E46FFF7F5FB80B101280BD0F61D26F09F
:10098000070000F1080956E74020E4E78020D8E797
:100990000020D6E706F104094DE7284652E7206A11
:1009A000BDE8F09F0849000030B5B0F10A024FEAF7
:1009B000900E71F100034EEA817EB0EB0E0061EB08
:1009C00091014FEA101E4EEA017E10EB0E0041EB42
:1009D00011114FEA102E4EEA016E10EB0E0041EBA2
:1009E00011214FEA104E4EEA014E10EB0E0041EB82
:1009F0001141401841F100014FEAD00040EA417036
:100A00004FEAD10110EB80054FEA810444EA90746B
:100A100044EB01046D1944EB0404521BA3414FF055
:100A2000000348BF0A3200D530BD401C41F100012F
:100A300030BD2DE9F0470D4699469246044600F137
:100A400024080168880604D5E06921F010012160BE
:100A500000E00120A84201DD471B00E00027A1695A
:100A60007A1902EB0900081AA0612078C00602D4A6
:100A70002046FFF7DEFC002608E0D4E901211AF841
:100A800006009047206A401C761C20624E45F4DB2D
:100A90002078C0060AD52046FFF7CBFC06E0D4E953
:100AA000012130209047206A401C2062381EA7F1A7
:100AB0000107F4DC07E0D4E9012118F805009047AC
:100AC000206A401C2062281EA5F10105F3DC2046A7
:100AD000FFF7C5FC2078000602D50220BDE8F087AC
:100AE0000120FBE770472DE9FF4F0C461E464FF0F3
:100AF000FF378BB0D2E90001DDF860800A908A46AA
:100B0000C1F30A5505B93D46002108464FF00000E3
:100B1000BAF1000F00F4400005DA00EB80004FF45A
:100B2000400101EA50004FEA9059B9F1010F00DD90
:100B3000B9460A9850EA4A000ED044F61050A5F281
:100B4000FF3545432F14B8F1000F1ED07542291E02
:100B50001EDDC9F100021CE0B8F1010F4FF00000EA
:100B600001D0302103E0F24305E02154401CB042A3
:100B7000FBDB30460022002121540B99C1F808808C
:100B8000C1E900200FB0BDE8F08FBD1B6D1CDEE792
:100B90004A4600DA694206A800F0F0FB06AB93E88B
:100BA000070003AB83E8070050460A9900F0ADFC4C
:100BB0008DE80700A0F500501F3800900398002D25
:100BC0000ADD42F21F014A460844002303A90390AC
:100BD000684600F016FF09E0A0F500504A461F38AD
:100BE000002303A90390684600F020FF8DE807006A
:100BF0000004000C03D04FF0FF30410800E0104625
:100C0000B8F1000F03D00022009215461EE0751EB9
:100C100005D4FFF7C9FE303262556D1EF9D5B346D3
:100C20000122084302D000227F1C04E020783028F3
:100C300001D100227F1E002A099784D01DE0112DCA
:100C400007DAFFF7B1FE303262556D1C50EA01023F
:100C5000F5D1084302D00098C8B10EE00021681E0B
:100C600005E0235C625C63542254401E491C8142AF
:100C7000F7DBAB46A81B401E0990002004F80B00D0
:100C80000B98099AC0F80880C0E9002B7AE7112672
:100C90004FF0000857E72DE9F04F88460446D21D73
:100CA00022F0070191B0D1E90001CDE90A0103F07A
:100CB00099FA02460B98C00F01D02D2007E020685A
:100CC000810701D52B2002E0202101EAC000032A80
:100CD000099001D0072A05DB03464146204600F073
:100CE0000DFB0BE12078800601D5E06900E00620CD
:100CF000B8F1650F814606D0B8F1660F18D0B8F18B
:100D0000670F70D131E00020B9F1110F009001DBC5
:100D1000112301E009F101030AAA01A90CA8FFF7B8
:100D2000E2FEDDE90C70002609F10105834647E08B
:100D300001204B4600904FF000470AAA01A90CA8D9
:100D4000FFF7D1FEDDE90DB00C995D46002610B924
:100D500009F101000D18B9EB050003D4C0F1FF360D
:100D600009F10105A5EB09002BE0B9F1010F01DA4A
:100D70004FF001090020B9F1110F0090484601DD44
:100D8000112300E003460AAA01A90CA8FFF7ABFE55
:100D9000DDE90C704D4600268346207800070AD412
:100DA000AB4500DA5D4601A8012D04DD411911F8BB
:100DB000011C302907D04F4502DA17F1040F04DA7D
:100DC000012082460FE06D1EEEE7002F02DCED1BD6
:100DD0003E4403E0781CA84200DD7D1CB81B00F1F6
:100DE000010A4FF000472078000703D4AA4501DB31
:100DF0004FF0FF3A0021B7F1004F0DF143088DF895
:100E0000431024D002202B23002F01DA7F422D2310
:100E10000A21021EA0F1010000DC5FB197FBF1FC8A
:100E200097FBF1F201FB1C7C17460CF1300C08F823
:100E300001CDEEE7A8F1010003702188090501D575
:100E4000452100E06521A0F1010800F8011C099886
:100E50000FA9A1EB0807FF1D00B10120411901EB0B
:100E6000EA70A1693844081A401EA0612078C006C3
:100E700002D42046FFF7DDFA099828B1D4E9012110
:100E80009047206A401C20622078C00622D5204668
:100E9000FFF7CFFA1EE0002E04DBB34502DD01A808
:100EA000805D00E03020D4E901219047206A401C99
:100EB0002062761CAAF101005FEA000A0AD100F064
:100EC00019FAC0680168405CD4E901219047206AA2
:100ED000401C2062281EA5F10105DCDC07E0D4E9F6
:100EE000012118F8010B9047206A401C2062381E2F
:100EF000A7F10107F3DC2046FFF7B1FA032011B098
:100F000041E600002DE9F04F04460D46D21D22F0C7
:100F1000070089B0D0E900974846394603F062F9E6
:100F20000246F80F01D02D2307E02068810701D584
:100F30002B2302E0202101EAC0038DF820300BB101
:100F4000012000E00020032A824601D0072A04DBAA
:100F50002946204600F0D2F93FE12078800601D4EE
:100F60000D2500E0E569C7F30A560D2D49DA002189
:100F70004FEA175B08464FF00000002F00F44000D6
:100F800007DA00EB80004FF4400100EBD07001EA7B
:100F900060008115012901DD4FF0FF3100224FEA89
:100FA000850CBCF1180F06D31346ACF118004FF0B6
:100FB0008052C24003E04FF4801323FA0CF30CF18B
:100FC0000C0CBCF1200F04D3ACF1200C09FA0CF08E
:100FD00001E007FA0CF000294FF0004801DD18B9D4
:100FE0000FE00ED140450CD319EB02095F4121B946
:100FF000404502D19F4329EA0209BBEB175F00D0AD
:10100000761C2088000502D57B48784402E07A48A7
:101010007844193808AA302302F80A30037C0AF110
:101020000101002E0AF1020A53546A4602DC4FF015
:10103000300101E04FF031014FF001088DF8001050
:1010400002D0A6F2FF3603E059EA470100D06B4E0A
:10105000002D02DC2178090704D54FF002082E216B
:101060008DF80110C44600210BE0C7F303433F0194
:10107000C35C491C6D1E02F80830052908F10108FF
:1010800001DA002DF1DC00210CE000EB1973491CA2
:101090001B786D1E082902F808304FEA091908F17B
:1010A000010801DA002DF0DC21688B0602D516E07C
:1010B000A8F10108E04505DD02EB080313F8013C47
:1010C000302BF5D0B8F1000F09DD02EB080313F85F
:1010D000013C2E2B03D1090701D4A8F10108002DF2
:1010E00005DD3E2102F808106D1E08F10108407C64
:1010F000002E02F8080008F1010804DA2D207642DB
:1011000002F8080002E02B2002F808000A214FF440
:101110007A70864208F101080BDB96FBF0F330335E
:1011200002F8083096FBF0F308F1010800FB1366A3
:1011300001E0642E0CDB642096FBF0F3303302F800
:10114000083096FBF0F308F1010800FB136601E09C
:101150000A2E06DB96FBF1F0303002F8080008F1A9
:10116000010896FBF1F001FB1060303002F8080036
:10117000A16908F1010808EB050202EB0A00081A50
:10118000A0612078C00602D42046FFF752F9216AF8
:1011900008AE01EB0A00206204E0D4E9012116F850
:1011A000010B9047BAF1010AF7D22078C00602D5A8
:1011B0002046FFF73EF96E4609E016F8010B3E287F
:1011C0000FD0D4E901219047206A401C2062B8F179
:1011D0000108F2D22046FFF742F909B00320BDE82A
:1011E000F08F206A2844206203E0D4E901213020F6
:1011F00090476D1EEBD3F8E75241000002FCFFFF61
:1012000010B5436913B1AFF3008001E0FFF74AF96D
:10121000012010BD127800F124010A7000224A70EA
:101220000122EDE711684FF0FF32E9E710B543699D
:1012300013B1AFF3008001E0FFF7D4F9012010BD36
:10124000128800F1240182840022C2840122EDE789
:1012500011684FF0FF32E9E770B516460C460546B7
:1012600000F040F8036893F80101012806D0FF2C34
:101270000FD8185D68B101202C7070BDD3F807013C
:101280003246214603F2071303442846BDE8704066
:1012900018474FF0FF3070BD754600F0EBF8AE46D2
:1012A00005006946534620F00700854618B020B572
:1012B000FEF7CEFFBDE820404FF000064FF00007DC
:1012C0004FF000084FF0000B21F00701AC46ACE8EE
:1012D000C009ACE8C009ACE8C009ACE8C0098D465B
:1012E0007047000010B500F005F8001D10BD00BFEC
:1012F000AD32000000487047B80100202DE9F041F0
:101300001F46044603260168072A01F4006004DB37
:1013100008B116A505E016A503E008B115A500E083
:1013200015A521F010002060A069C01EA0610FB1BA
:10133000401EA0612046FFF77CF84FB1D4E901219F
:1013400038469047206A401C2062C01C206206E09C
:10135000206AFAE7D4E9012115F8010B9047761EBF
:10136000F8D22046FFF77BF8BDE8F0814E414E00F1
:101370006E616E00494E4600696E66002DE9F047C9
:10138000814616468AB0354878440DC88DE80D0070
:1013900032487844801C03AC0DC884E80D0041F647
:1013A0009B300844372190FBF1F290FBF1F5A5F159
:1013B000800501FB12041B3C02D56442012000E0C1
:1013C0000020DFF898A080460027FA44AAF1BE0A60
:1013D0000EE0E0070AD03246684607EB47010123DA
:1013E0000AEB810100F022FB8DE8070064107F1CEE
:1013F000002CEED1194F7F44AE3F19E0E80715D01D
:1014000007EB04100DF1180A90E80E008AE80E00B0
:10141000C068F04201D1981908903246012306A90C
:1014200003A800F003FB03AB83E807006D10641C06
:10143000002DE3D14FF0010332466946B8F1000FA9
:1014400003A802D000F0DDFA01E000F0EFFAC9E9EC
:101450000001C9F808200AB0BDE8F087643E00002A
:1014600010B50446AFF300802046BDE81040FEF7FB
:10147000DABE000000487047980100204FF0013CA0
:1014800050F8042B51F8043B9A4221D1A2EB0C03F3
:10149000934313EACC1317D150F8042B51F8043BB3
:1014A0009A4215D1A2EB0C03934313EACC130BD150
:1014B00050F8042B51F8043B9A4209D1A2EB0C03DB
:1014C000934313EACC13DBD04FF00000704700BF0A
:1014D000D01A01BAB1FA81F101F0180122FA01F033
:1014E000CB40C1F12001DBB2C0B2C01A2CFA01F32B
:1014F000D11A914311EAC311E6D17047014918206E
:10150000ABBEFEE72600020070475FEA400C08BF52
:1015100091F0000F4FEA8C234FEAC12243EA515168
:101520004FEA1C5018BF00F5F0404FEA300018BFDA
:1015300041F000415FEA6C5C00F02980BCF1FF3FA4
:1015400008BF40F080407047130C06BF12044FF0F4
:10155000100C4FF0000C130E04BF12020CF1080C1B
:10156000130F04BF12010CF1040C930F04BF92007F
:101570000CF1020CD30F04BF52000CF1010C114608
:101580004FF00002A0F11F00A0EB0C00704711F01B
:10159000004F08BF704731F000413FF4D5AF0B0C4E
:1015A00006BF09044FF0100C4FF0000C0B0E04BFE7
:1015B00009020CF1080C0B0F04BF09010CF1040C1B
:1015C0008B0F04BF89000CF1020CCB0F04BF490044
:1015D0000CF1010CCCF12003A0EB0C0022FA03F378
:1015E00002FA0CF241EA030100F10100704720F019
:1015F0007F4C80EA030023F07F47ACEB070303F541
:101600007C5300F0004003F1FF032DE980494FEACD
:10161000154B09B44FEA144325EA0B4E24EA03485C
:101620000FF2042606EB132749083E785FEA3202E0
:1016300003FB0667C7F5000707FB06F64FEA5437BA
:101640004FEAD64606F1020607FB066CCCF1005CB9
:101650004FEA1C472CEA074C07FB06F40CFB06F587
:1016600004EB15464FEA961634BF00204FF00040B9
:101670004FEAD13706FB07FC4FEA1C4C0CFB0BF77B
:10168000D21B03FB0CF761EB07010CFB0EF7B0EB71
:10169000074072EB17420CFB08F734BFA2EB07427E
:1016A000B2EB074261EB17414FEA0C444FEA910756
:1016B00006FB07FC4FEA1C4C0CFB0BF7B0EBC740DA
:1016C00072EB573203FB0CF734BFA2EBC742B2EB0D
:1016D000C74261EB57310CFB0EF7B0EBC70072EB62
:1016E00057720CFB08F734BFA2EBC702B2EBC7027C
:1016F00061EB5771039F4FEA816141EA921104EB5C
:10170000CC044FEAD1374FEA826206FB07FC42EA7B
:1017100090124FEA80604FEA1C4C0CFB0BF7D21B77
:1017200003FB0CF761EB07010CFB0EF7B0EB074076
:1017300072EB17420CFB08F734BFA2EB0742B2EB87
:10174000074261EB17414FEA8C554FEA910704EBD2
:101750009C2406FB07FC4FEA1C4C0CFB0BF7B0EB80
:10176000C74072EB573203FB0CF734BFA2EBC74202
:10177000B2EBC74261EB57310CFB0EF7B0EBC70081
:1017800072EB57720CFB08F734BFA2EBC702B2EB47
:10179000C70261EB577115EB4C254FEA816141EAB5
:1017A00092114FEA82624FEAD13742EA901206FB69
:1017B00007FC44F100044FEA80604FEA1C4C0CFB2C
:1017C0000BF7D21B03FB0CF761EB07010CFB0EF7C9
:1017D000B0EB074072EB17420CFB08F734BFA2EBEB
:1017E0000742B2EB074261EB174115EB1C154FEABC
:1017F000813141EA92414FEA823242EA90424FEA15
:1018000080304FEA0C7644F1000448EA03434EEA84
:101810000B484FF0000EB2EB080C71EB030724BF2E
:10182000624639464EEB0E0E4FF0000B0018524147
:1018300049414BEB0B0BB2EB080C71EB03077BF14F
:10184000000B24BF624639464EEB0E0E4FF0000BE4
:101850000018524149414BEB0B0BB2EB080C71EBFA
:1018600003077BF1000B24BF624639464EEB0E0E98
:1018700051EA020718BF46F0010616EB0E7655F145
:10188000000254F1000103D5BDE88901BDE80088DC
:10189000BDE88901BDE80048B619524141EB01019C
:1018A000A3F10103704780807F7E7D7C7B7A79780D
:1018B000777676757473727171706F6E6E6D6C6C15
:1018C0006B6A6A69686867666665646463636261B7
:1018D0006160605F5F5E5E5D5D5C5C5B5B5A5A5938
:1018E00059585857575656555555545453535252A4
:1018F0005251515050504F4F4F4E4E4D4D4D4C4CFC
:101900004C4B4B4B4A4A4A49494948484847474744
:101910004746464645454544444444434343434281
:10192000424242414141002B9C4630D477002BD0AB
:101930001CB54FEA370703B44FF010004FF0100109
:10194000BAF1000F06D0BCF1000FDCBF40F0080078
:1019500040F008014FF000000FBCBDE810400BF153
:10196000010BBBF1010F08BF5FEA170722BF12F19D
:10197000010211F101014FF0004143F1000300F0B9
:10198000004043EA00007047F9D35708D0E746EA21
:10199000064613F1400F4FEA16461FDD13F1200FE4
:1019A000DFBF16430A46002120335B42BED0C3F19D
:1019B000200746EA064602FA07F74FEA164646EAC5
:1019C0000706C3F1200722FA03F201FA07F721FA0A
:1019D00003F14FF0000342EA0702A7E746EA0206D6
:1019E00046EA06464FEA164646EA0106BCBF46EA04
:1019F0000646360C4FF000034FF000024FF0000196
:101A000094E72DE9804C9A46934670B491E83800EB
:101A100007C831EA400C48BF34EA430C03D5FFF74E
:101A2000E6FDFFF780FFF0BCBDE8008C2DE9804C9F
:101A30009A46934670B491E8380007C810F0804F7A
:101A400008BF13F0804F03D100F005F8FFF76BFFDC
:101A5000F0BCBDE8008C20F07F4780EA030023F053
:101A60007F4C07EB0C03A3F57C5300F00040A3F17F
:101A7000FE0392F0000F00F0B38095F0000F00F02D
:101A800077802DE901494FEA11404FEA144621EAD7
:101A9000004800FB06FC24EA064708FB06F607FBA5
:101AA00008F800FB07F718EB06484CEB164C4FEA1A
:101AB000124B18EB07484FEA15464CEB174022EA49
:101AC0000B4E0BFB06FC25EA06470EFB06F607FB52
:101AD0000EFE0BFB07F71EEB064E4CEB164C4FF0C1
:101AE00000061EEB074E4CEB174B18EB0B0840F1B2
:101AF000000018EB0E0B58EB000840F100008F1AA5
:101B00004FF000013CBFC943661B14BFB5EB040C8A
:101B100000213CBFC943F61B4FEA17444EEA8E0E24
:101B200027EA04454FEA1C4704FB07622CEA074CEE
:101B300005FB07F70CFB05F604FB0CFC16EB074650
:101B400042EB174216EB0C4642EB1C421BEB06061F
:101B500058EB0202414146EA9E0601D5BDE80189E3
:101B6000B619524141EB0101A3F10103BDE801891E
:101B70004FEA14454FEA114724EA054621EA074C8B
:101B800005FB07F406FB07F70CFB06F105FB0CFC55
:101B900011EB074144EB17444FEA124711EB0C419C
:101BA00044EB1C4422EA074C05FB07F206FB07F74F
:101BB0000CFB06F605FB0CFC16EB074642EB174246
:101BC00016EB0C4642EB1C456A1854F1000148BF65
:101BD0007047B619524141EB0101A3F1010370476F
:101BE00095F0000F37D04FEA11424FEA144721EA2F
:101BF000024624EA074C02FB07F106FB07F70CFB41
:101C000006F402FB0CFC14EB074441EB17414FEACE
:101C1000154714EB0C4441EB1C4125EA074C02FB31
:101C200007F506FB07F70CFB06F602FB0CFC16EBB0
:101C3000074645EB174516EB0C4645EB1C421219BF
:101C400051F1000148BF7047B619524141EB010103
:101C5000A3F1010370474FEA14454FEA114724EA04
:101C6000054621EA074C05FB07F106FB07F70CFBCD
:101C700006F24FF0000605FB0CFC12EB074241EBAD
:101C8000174112EB0C4251EB1C4148BF70479218B0
:101C900041EB0101A3F10103704721B1826842F0D9
:101CA0000102826003E0826822F0010282607047D4
:101CB000014600208A6802F004020AB1012000E017
:101CC000002070470146C86C80B270470246002071
:101CD00013680B400BB1012000E000207047014663
:101CE00000208A6802F008020AB1012000E000200A
:101CF0007047000030B502460020002350680F4CAA
:101D000020400D790C6844EA052420435060906817
:101D10000B4C2040D1E902542C434D7944EA450450
:101D200020439060D06A20F470000C7C641EE4B202
:101D3000234340EA0350D06230BD0000FFFEF0FFB5
:101D4000FDF7F1FFF0B504460D4600200021092DF6
:101D500011DDE068A5F10A0606EB4607072606FA3C
:101D600007F18843A5F10A0606EB460603FA06F1D9
:101D70000843E0600CE0206905EB4507072606FAFA
:101D800007F1884305EB450603FA06F10843206195
:101D9000072A0FDA606B561E06EB86071F2606FA27
:101DA00007F18843561E06EB860605FA06F108433E
:101DB000606322E00D2A0FDA206BD61F06EB860740
:101DC0001F2606FA07F18843D61F06EB860605FA9A
:101DD00006F10843206310E0E06AA2F10D0606EB6D
:101DE00086071F2606FA07F18843A2F10D0606EBC7
:101DF000860605FA06F10843E062F0BD816841F00D
:101E000008018160704721B1826842F4A0028260BB
:101E100003E0826822F4A00282607047816841F08A
:101E2000040181607047000000B587B001214FF4C4
:101E3000017001F025FA4FF4004001F005FA30205E
:101E4000ADF8180000208DF81B0006A9164800F018
:101E50003DFD002001908DF808008DF809004FF439
:101E6000602003900020049001208DF8140001A947
:101E70000E48FFF73FFF01210C48FFF70EFF0B480C
:101E8000FFF7BCFF00BF0948FFF729FF0028FAD180
:101E90000648FFF7C3FF00BF0448FFF709FF00280B
:101EA000FAD107B000BD0000000801400024014045
:101EB00070B505460DB9052400E004240523012270
:101EC00021460948FFF73EFF01210748FFF79BFF26
:101ED00000BF02210448FFF7F9FE0028F9D00248AC
:101EE000FFF7F0FE70BD0000002401402DE9F84F1F
:101EF00004462046FFF7DCFF0090009802F03CFF0C
:101F000006461F4902F080FF05464FF08B4102F064
:101F10000DFE824614B9DFF86C9001E0DFF868909E
:101F20003CB94946504602F06FFF074602F064FD97
:101F30000BE04946504602F067FF834602F05CFD25
:101F40000746124A124B02F06DFC054602F03CFBBC
:101F500082461049504602F057FF80464FF07C51B0
:101F600002F076FD074602F0A3FE064602F0BCFE34
:101F70000546084902F0DAFD82465046BDE8F88F72
:101F8000333353409A99F9402A6B0A40B81E85EBC7
:101F900051B8E63F00401C462DE9F04107460E4689
:101FA00015464FF0000800F0F5FDEC2000F036FE7D
:101FB00008B14FF00108384600F030FE08B14FF08C
:101FC000010800F0E7FDED2000F028FE08B14FF019
:101FD000010800240BE0691EA14201D0012100E0AC
:101FE0000021084600F068FD3055601CC4B2AC42C8
:101FF000F1DB00F0EFFD4046BDE8F08100B587B0B1
:10200000182201A98820FFF7C7FF9DF804009DF85A
:10201000051040EA0120334908809DF806009DF82C
:10202000071040EA012000B22F4908809DF80800FF
:102030009DF8091040EA012000B22C4908809DF863
:102040000A009DF80B1040EA0120294908809DF8FC
:102050000C009DF80D1040EA012000B225490880CF
:102060009DF80E009DF80F1040EA012000B22249B1
:1020700008809DF810009DF8111040EA012000B280
:102080001E4908809DF812009DF8131040EA0120B7
:1020900000B21B4908809DF814009DF8151040EA15
:1020A000012000B2174908809DF816009DF817100E
:1020B00040EA012000B2144908809DF818009DF8FC
:1020C000191040EA012000B2104908809DF81A005A
:1020D0009DF81B1040EA012000B20D49088007B0AE
:1020E00000BD00007000002072000020740000207D
:1020F00076000020780000207A0000207C0000207C
:102100007E0000208000002082000020840000204B
:10211000860000201CB50121082001F0B1F84FF421
:102120004060ADF8040014208DF8070003208DF8FE
:10213000060001A9274800F0C9FB4FF4806125483B
:1021400000F0A3FC4FF40061224800F09EFC142034
:1021500000F039FB0020009001226946D020FFF7F3
:102160001BFF04461CB99DF80000582809D09DF8B3
:102170000020214618A001F0FFFD22A001F0FCFD87
:102180001CBD9DF800102DA001F0F6FDFFF736FFF5
:102190003048008830B93048008818B92FA001F0C5
:1021A000EBFDEDE72721F42000F0E2F904460821D9
:1021B000F52000F0DDF904431CB131A001F0DCFD95
:1021C00002E037A001F0D8FD0F2000F0FCFA00BFBC
:1021D000D6E70000000C01405B424D503238305DC4
:1021E000204552524F523A20494420726561642082
:1021F0006661696C3D25642069643D307825303224
:10220000580D0A005B424D503238305D20436865FE
:10221000636B20776972696E673A2053434C3D5077
:10222000423130205344413D504231312061646499
:10223000723D307837360D0A000000005B424D5089
:102240003238305D2049443D307825303258204FB7
:102250004B0D0A0070000020760000205B424D50BC
:102260003238305D204552524F523A2063616C69DA
:102270006220616C6C207A65726F0D0A00000000AC
:102280005B424D503238305D205741524E3A2072F9
:102290006567207772697465204E41434B0D0A00D3
:1022A0005B424D503238305D20496E6974204F4B8F
:1022B0000D0A00001CB506226946F720FFF76CFEE8
:1022C0009DF8000000039DF8011040EA01109DF800
:1022D000021040EA2110084908609DF8030000033D
:1022E0009DF8041040EA01109DF8051040EA211005
:1022F000024908601CBD0000900000208C000020F6
:102300002DE9F05F71480068C1174FF4FA33C41A21
:1023100061F10005A4FB041005FB040004FB0503A8
:102320006B48B0F90000C217A1FB008A03FB00A0B4
:1023300001FB02096748B0F90000C217A4FB0013B3
:1023400005FB003004FB0200400440EAD1304904A0
:1023500011EB080840EB09095F48B0F9000018F1DB
:10236000000849EBC009A4FB041005FB040004FBB2
:1023700005035A48B0F900004FEAE07CA1FB002AAF
:1023800003FB00A001FB0C004FEA122141EA0061AF
:102390004FEA20225248B0F900004FEAE073A44609
:1023A000ACFB00BE05FB00E004FB03004FEA00307D
:1023B00040EA1B504FEA0B338C461CEB030442EB04
:1023C0000005231C45F50040464909880022A3FB6F
:1023D00001AC00FB01C003FB02014C10CD17002132
:1023E00084EA01006940084301D1BDE8F09F3E48FE
:1023F00000684FF4801300211E1A61EBE0774FEA6A
:10240000C77040EA56004FEAC671B1EB080160EBB5
:10241000090040F635430022A1FB03AE00FB03E0B8
:1024200001FB020122462B465046FDF723FF0646DC
:102430000F46700B40EAC7407B132C49B1F90010DE
:102440004FEAE17CA0FB012A03FB01A100FB0C1178
:10245000700B40EAC7404FEA673CA2FB003A01FB21
:1024600000A002FB0C01580E40EAC1144D16204892
:10247000B0F90000C117A0FB062301FB063100FBE9
:102480000711D00C40EA41384FEAE149311947EBD6
:10249000050011EB080240EB0901100A40EA016C4B
:1024A00008121449B1F90010CA17120142EA117258
:1024B00009011CEB010640EB02073046394602F0E9
:1024C0002EFC82460C4902F031FB8EE7880000208A
:1024D000800000207E0000207C0000207A00002088
:1024E0007800002076000020900000208600002068
:1024F00084000020820000200000C8462DE9F04141
:1025000015480068C01015490988A0EB410014491E
:10251000B1F900104843C412104800880E490968F8
:10252000C0EB2110404300130E49B1F9001048439D
:10253000851360190C4908600846006800EB8000AC
:1025400080300612304602F0CFFB0746074902F002
:10255000EDFABDE8F08100008C0000207000002042
:102560007200002074000020880000200000C84293
:1025700070B505460C46002600F00CFBEC2000F080
:102580004DFB00B10126284600F048FB00B10126B2
:10259000204600F043FB00B1012600F01BFB304653
:1025A00070BD000010B5FFF785FEFFF7A7FF0349D8
:1025B0000860FFF7A5FE0249086010BD0800002072
:1025C0000C00002000BFFEE770B50546B5B9002439
:1025D0000FE04FF4617000F075F8962000F0F3F80A
:1025E0004FF4C86000F06EF8962000F0ECF8601C24
:1025F000C4B2062CEDDB00F059F809E04FF4FA60A4
:1026000000F060F84FF4167000F0DDF800F04EF8BE
:1026100070BD000000B589B0012140F6040000F053
:102620002FFE4FF48070ADF8200018208DF82300A5
:1026300003208DF8220008A91A4800F047F941F656
:102640003F10ADF818000020ADF81400ADF81A00E6
:10265000ADF8160005A9144801F0D0F86020ADF8D7
:1026600004000120ADF806004FF4FA70ADF80A003E
:102670000020ADF80C0001A90B4801F069F8082111
:10268000094801F0B1F80121074801F038F80121AB
:10269000054801F019F80021034801F024F809B0B9
:1026A00000BD000000080140002C014010B50021D1
:1026B000034801F018F8002001493431088010BDAA
:1026C000002C014070B50446322C00DA322444F666
:1026D0002060844200DD044600210D4801F003F82B
:1026E00000200B49283108800A48B0FBF4F505B9F1
:1026F0000125681E06492C310880C5F34F000449A6
:10270000343108800121024800F0EDFF70BD000067
:10271000002C014000A24A047CB505460E4600206C
:102720000090019001F002FF01F078FD08B1012056
:102730007CBD002405E001F0E9FE0DF80400601CFA
:10274000C4B2052CF7DB9DF800009DF80110084489
:102750009DF8021008449DF803100844C0B29DF88B
:102760000410884201D00220E2E79DF8000030709A
:102770009DF8020028700020DAE7000010B504463A
:1027800000F082F80C480068201A0C49097809B159
:10279000C82101E04FF47A71884203D306480460EF
:1027A00000F034F806480068201A642803D304486F
:1027B0000460FFF7F7FE10BD340000202400002065
:1027C00038000020704700B5034603E04FF47A70EC
:1027D00000F005F8181EA3F10103F7D100BD00EBCE
:1027E000C001C9004FF0E022516100219161052133
:1027F000116100BF4FF0E021096901F48031002927
:10280000F8D004214FF0E022116170471CB5002080
:1028100001900090694601A8FFF77EFF68B99DF816
:1028200004000C4908709DF800000B490870012055
:102830000A4908700A4908700BE00020074908702F
:102840000748007828B100200549087005A001F06C
:1028500093FA1CBD04000020050000202400002085
:10286000320000205B44656275675D5B53656E7383
:102870006F725D2044485431312D52656164466168
:10288000696C65640D0A000010B50020FFF72EFB8F
:10289000094908600120FFF729FB0849086000F09A
:1028A000E9FD0749087000F019FC0649088000F0AE
:1028B00009FC0549087010BD140000201800002014
:1028C0001000002012000020110000202DE9F0412E
:1028D000024600250026002000230024002791F84E
:1028E00003C00CF00F0591F803C00CF0100CBCF104
:1028F000000F03D091F802C04CEA050591F800C022
:10290000BCF1000F31D0146800202BE04FF0010C17
:102910000CFA00F3B1F800C00CEA03069E4220D185
:1029200083004FF00F0C0CFA03F7BC4305FA03FCCD
:102930004CEA040491F803C0BCF1280F06D14FF013
:10294000010C0CFA00FCC2F814C00AE091F803C0B4
:10295000BCF1480F05D14FF0010C0CFA00FCC2F895
:1029600010C0401C0828D1D31460B1F800C0BCF1DD
:10297000FF0F34DD546800202EE000F1080C4FF00A
:10298000010808FA0CF3B1F800C00CEA03069E42F5
:1029900021D183004FF00F0C0CFA03F7BC4305FA6A
:1029A00003FC4CEA040491F803C0BCF1280F05D1E4
:1029B00000F1080C08FA0CF8C2F8148091F803C072
:1029C000BCF1480F07D100F1080C4FF0010808FADC
:1029D0000CF8C2F81080401C0828CED35460BDE823
:1029E000F0810000F0B50A460023002400210025F4
:1029F00000F00046B6F1004F02D11D4EF16901E032
:102A00001B4E7168C0F3034583B200F44016B6F55F
:102A1000401F08D121F07061154E766826F070666F
:102A2000134F7E6012E000F48016B6F5801F06D1C9
:102A3000032606FA05F4A14341F0706106E0460D55
:102A4000360103FA06F6B14341F0706122B1460D3A
:102A5000360103FA06F6314300F00046B6F1004FA6
:102A600002D1034EF16101E0014E7160F0BD000042
:102A7000000001400246002093680B400BB101208A
:102A800000E000207047416170470161704700BF5E
:102A9000FEE70000024606480078811A002902DAA3
:102AA00001F1400001B2034850F8210070470000D6
:102AB000450000209800002070B50546002400F075
:102AC00045F800261BE04FF480611F48FFF7DDFF4B
:102AD0000520FFF784FE6006040E4FF400611A48DB
:102AE000FFF7C8FF08B144F001044FF480611648B5
:102AF000FFF7C9FF0320FFF772FE701CC6B2082E55
:102B0000E1DB00F035F82DB14FF400610E48FFF71E
:102B1000BAFF04E04FF400610B48FFF7B6FF032053
:102B2000FFF75DFE4FF480610748FFF7AEFF052019
:102B3000FFF755FE4FF480610348FFF7A4FF032021
:102B4000FFF74DFE204670BD000C014008B54FF464
:102B50000060ADF8000048208DF8030003208DF8D8
:102B6000020069460148FFF7B1FE08BD000C0140B4
:102B700008B54FF40060ADF8000014208DF8030094
:102B800003208DF8020069460148FFF79FFE08BD4B
:102B9000000C014010B5FFF7EBFF4FF400610C484B
:102BA000FFF773FF4FF480610948FFF76EFF0520C0
:102BB000FFF715FE4FF400610548FFF764FF05209D
:102BC000FFF70DFE4FF480610148FFF75CFF10BD79
:102BD000000C014010B5FFF7CBFF4FF480610E48A9
:102BE000FFF751FF4FF400610B48FFF74CFF052042
:102BF000FFF7F5FD4FF480610748FFF746FF05201A
:102C0000FFF7EDFD4FF400610348FFF73EFF05209D
:102C1000FFF7E5FD10BD0000000C014070B5044653
:102C2000FFF7A6FF002524E004F0800028B14FF450
:102C300000611F48FFF729FF04E04FF400611C48C2
:102C4000FFF721FF6006040E0320FFF7C8FD4FF4D5
:102C500080611748FFF719FF0520FFF7C0FD4FF40B
:102C600080611348FFF70FFF0320FFF7B8FD681CD2
:102C7000C5B2082DD8DBFFF769FF4FF480610C481F
:102C8000FFF703FF0520FFF7AAFD4FF40061084896
:102C9000FFF7F0FE06464FF480610548FFF7F3FEAC
:102CA0000320FFF79CFDFFF763FF304670BD000077
:102CB000000C014008B50121082000F0E1FA4FF4B2
:102CC0004070ADF8000048208DF8030003208DF817
:102CD000020069460148FFF7F9FD08BD000C0140FC
:102CE00010B54FF480710448FFF7C4FE08B9012005
:102CF00010BD0020FCE70000000C014010B54FF4AF
:102D000000710448FFF7B6FE08B9012010BD00208D
:102D1000FCE70000000C014008B501210D2000F087
:102D2000AFFA01210C48FFF75DFE4FF40040ADF80B
:102D3000000048208DF8030003208DF8020069464A
:102D40000648FFF7C3FD2020ADF80000694604489F
:102D5000FFF7BCFD08BD0000000230000008014084
:102D6000000C014070B5054600F0A8F80446601C50
:102D700000B970BD0CB91CA000E01EA0014620A047
:102D800000F0FAFF27492848006802F009F809D244
:102D9000002000F047FC00202449087024A000F027
:102DA000EBFFE6E784B92149097881F0010000F0E2
:102DB00039FC1E48007808B12AA000E02AA001468C
:102DC0002AA000F0D9FF0CE0012C0AD1FFF796FFF2
:102DD00038B947F2305028442D4908602DA000F042
:102DE000CBFF00BFC5E700004C69676874506F7780
:102DF000657200004F4C4544506F776572000000CB
:102E00005B44656275675D5B4F7074696F6E5D20D2
:102E10004B65792D44657465637465642D25730D68
:102E20000A0000009A996940180000201C00002048
:102E30005B44656275675D5B4F7074696F6E5D20A2
:102E40004B65792D4C69676874506F7765722D4FAB
:102E500066662D556E646572566F6C746167650D9C
:102E60000A0000004F6E00004F6666005B4465621A
:102E700075675D5B4F7074696F6E5D204B65792D72
:102E80004C69676874506F7765722D25730D0A0061
:102E9000200000205B44656275675D5B4F7074695C
:102EA0006F6E5D204B65792D4F4C4544506F7765B3
:102EB000722D4F6E2D356D696E0D0A0010B54FF4F1
:102EC00000412048FFF7D6FDD0B900241420FFF7B9
:102ED0007AFC4FF400411B48FFF7CCFD78B903E0C2
:102EE000641C0120FFF76FFC4FF400411548FFF709
:102EF000C1FD10B9B4F5FA7FF2D3002010BD00BFB8
:102F000020211148FFF7B6FDC0B900241420FFF7B7
:102F10005AFC20210C48FFF7ADFD70B903E0641C9A
:102F20000120FFF750FC20210748FFF7A3FD10B94F
:102F3000B4F5FA7FF3D30120E0E700BF4FF0FF3094
:102F4000DCE7000000080140000C014010B5FFF76D
:102F5000C7FE00B910BD0D4800780D4909788842B8
:102F600011D00A4800780A4908700848007800F033
:102F700059FB0648007808B106A000E007A001460A
:102F800007A000F0F9FE00BFE4E7000011000020F8
:102F90001D0000204E6967687400000044617900DC
:102FA0005B44656275675D5B53656E736F725D2030
:102FB0004C696768742D4461794E696768742D2582
:102FC000730D0A0008B50121092000F059F901210B
:102FD0000948FFF707FD1020ADF800008DF8030049
:102FE00003208DF8020069460448FFF76FFC1021AA
:102FF0000248FFF748FD08BD00023000000C014008
:1030000010B510210148FFF73EFD10BD000C014036
:1030100010B510210148FFF738FD10BD000C01402C
:1030200000B587B001214FF4037000F029F94FF487
:10303000004000F009F90120ADF8180000208DF8DB
:103040001B0006A91C48FFF741FC0120ADF8180041
:1030500048208DF81B0003208DF81A0006A9174898
:10306000FFF734FC002001908DF808008DF809006E
:103070004FF4602003900020049001208DF814008C
:1030800001A90F48FEF736FE01210D48FEF705FEA7
:103090000B48FEF7B3FE00BF0948FEF720FE0028EC
:1030A000FAD10748FEF7BAFE00BF0548FEF700FE5A
:1030B0000028FAD107B000BD00080140000C014013
:1030C0000024014010B500F009F840F68C21884238
:1030D00001DB012010BD0020FCE7000070B50523D6
:1030E000012200210B48FEF72DFE01210948FEF7C1
:1030F0008AFE00BF02210748FEF7E8FD0028F9D04C
:103100000448FEF7DFFD044640F6E4406043050B4B
:10311000284670BD0024014000BFFEE77047000054
:1031200070B5002100230F22C47804B3154C246825
:1031300004F4E064C4F5E064210AC1F10403CA4068
:10314000447804FA03F184781440214309010E4CB9
:103150000678A155047804F01F050124AC400578D9
:103160006D11AD0005F1E025C5F8004109E00478D6
:1031700004F01F050124AC40044D0678761145F893
:10318000264070BD0CED00E000E400E080E100E0CE
:1031900008B50121092000F073F801210A48FFF762
:1031A00021FC0820ADF8000010208DF8030003205A
:1031B0008DF8020069460548FFF788FB082103489F
:1031C000FFF761FC08BD000000023000000C014068
:1031D00010B508210148FFF756FC10BD000C014056
:1031E00010B508210148FFF750FC10BD000C01404C
:1031F00070B50546FFF782FD08B1012403E00A48D7
:103200000068281AC40F0948007884420AD0074889
:1032100004702CB1FFF7E4FF05A000F0D1FD01E040
:10322000FFF7D6FF70BD0000200000201E00002028
:103230005B436D645D4F4C45442D5265696E697406
:103240000D0A00007047000001460020034A506844
:1032500020F44040084350607047000000100240D6
:1032600029B1064AD2690243044BDA6104E0034AF9
:10327000D2698243014BDA617047000000100240BE
:1032800029B1064A92690243044B9A6104E0034A59
:1032900092698243014B9A6170470000001002401E
:1032A00030B500210022002400232D4D6D6805F06B
:1032B0000C0121B1042905D0082923D105E0294DAD
:1032C000056022E0274D05601FE0254D6D6805F47F
:1032D0007012234D6D6805F48034022505EB92428F
:1032E0001CB9214D554305600BE01D4D6D6805F47B
:1032F00000351DB11C4D5543056002E0194D554385
:10330000056002E0174D056000BF00BF144D6D68F9
:1033100005F0F0010909154D6B5C0568DD4045605D
:103320000F4D6D6805F4E061090A104D6B5C45684E
:10333000DD4085600A4D6D6805F46051C90A0B4D8A
:103340006B5C4568DD40C560054D6D6805F4404126
:10335000890B074D6B5CC568B5FBF3F5056130BDA6
:103360000010024000127A0000093D0059000020C0
:10337000690000200CB5002101910DE000210091B1
:1033800003E000BF0099491C00910099B1F5FA5F74
:10339000F7D30199491C019101998142EED30CBDEB
:1033A00008B50220ADF8000010208DF803000220BF
:1033B0008DF8020069460548FFF788FA02210348A4
:1033C000FFF761FB0220FFF7D5FF08BD00080140B1
:1033D00008B50220ADF8000000208DF80300694612
:1033E0000148FFF773FA08BD0008014000B587B037
:1033F00001214FF40170FFF743FF4FF40040FFF746
:1034000023FF0220ADF8180000208DF81B0006A94C
:103410001648FFF75BFA002001908DF808008DF840
:1034200009004FF4602003900020049001208DF8E3
:10343000140001A90E48FEF75DFC01210C48FEF7BF
:103440002CFC0B48FEF7DAFC00BF0948FEF747FCEE
:103450000028FAD10648FEF7E1FC00BF0448FEF759
:1034600027FC0028FAD107B000BD00000008014089
:103470000024014010B500F00BF80448007807283C
:1034800001DB012010BD0020FCE7000094000020BB
:1034900070B586B00026002412E000F02BF801A9D8
:1034A00021F8140031F8140040F2DC51884201DBAD
:1034B000012100E0002109B1701CC6B2601CC4B239
:1034C0000A2CEADB0A480670BDF80450012409E022
:1034D00001A830F81400A84202DD01A830F8145009
:1034E000601CC4B20A2CF3DB284606B070BD000095
:1034F0009400002010B5FFF753FFFFF769FF062384
:10350000012211460B48FEF71DFC01210948FEF778
:103510007AFC00BF02210748FEF7D8FB0028F9D04B
:103520000448FEF7CFFB044640F6E4406043000B3E
:1035300010BD000000240140704710B500F002F8F3
:1035400010BD00000CB500200190009033480068C9
:1035500040F480303149086000BF3048006800F412
:10356000003000900198401C0190009818B9019813
:10357000B0F5A06FF1D12948006800F4003010B117
:103580000120009001E0002000900098012843D124
:103590002348006840F01000214908600846006890
:1035A00020F0030008600846006840F00200086050
:1035B0001A4840681949486008464068486008460B
:1035C000406840F4806048600846406820F47C1001
:1035D00048600846406840F4E810486008460068C3
:1035E00040F08070086000BF0C48006800F0007078
:1035F0000028F9D00948406820F0030007494860D6
:103600000846406840F00200486000BF0348406838
:1036100000F00C000828F9D10CBD00000010024099
:103620000020024010B504460448047014B1FFF7AE
:10363000EFFC01E0FFF7E4FC10BD00001C000020DF
:103640007047000010B51348006840F001001149B0
:10365000086008464068104908400E49486008461E
:1036600000680E4908400B4908600846006820F4CD
:10367000802008600846406820F4FE0048604FF44F
:103680001F008860FFF759FF4FF000600449086091
:1036900010BD0000001002400000FFF8FFFFF6FE22
:1036A00008ED00E010B50121880700F037F840B1BF
:1036B0000121880700F014F802480068401C014905
:1036C000086010BD0000002021B1028842F0800295
:1036D000028004E002884FF67F731A400280704730
:1036E000CA430282704721B1028842F0010202807F
:1036F00004E002884FF6FE731A400280704731B131
:10370000B0F8442042F40042A0F8442005E0B0F8AC
:103710004420C2F30E02A0F84420704730B50246A0
:10372000002000230024158A05EA0103958905EA93
:10373000010413B10CB1012000E0002030BD1AB12A
:1037400083890B43838102E083898B4383817047A4
:1037500070B5002400220023058C4FF6FE7635401C
:103760000584028C8388048B4FF68F752C40B51E20
:103770002C400D882C43751E2A400D892A434D8804
:103780002A43144DA8420BD0134DA84208D0134D24
:10379000A84205D0124DA84202D0124DA84213D122
:1037A0004FF6F7752A404D892A434FF6FB752A409C
:1037B0008D882A434FF6FF652B404FF6FF552B406F
:1037C0008D892B43CD892B4383800483CD888586C7
:1037D000028470BD002C01400034014000400140D3
:1037E00000440140004801400A460021018B4FF689
:1037F000F7731940114301837047000000220288CB
:103800001D4B98420ED01D4B98420BD0B0F1804F0B
:1038100008D01B4B984205D01A4B984202D01A4B45
:10382000984204D14FF68F731A404B881A43174BB6
:10383000984207D0164B984204D04FF6FF431A40E7
:10384000CB881A4302808B8883850B8803850A4BBB
:1038500098420BD0094B984208D00E4B984205D0A5
:103860000D4B984202D00D4B984201D10B7A038642
:103870000123838270470000002C01400034014086
:103880000004004000080040000C00400010004010
:103890000014004000400140004401400048014045
:1038A0001FB501210846FFF7DBFC42F20F70ADF8AF
:1038B00008004720ADF804000020ADF80A00ADF87C
:1038C000060001A94FF08040FFF798FF0122114642
:1038D0009007FFF734FF1C208DF8000001208DF8C1
:1038E000010000208DF8020001208DF803006846D9
:1038F000FFF716FC01218807FFF7F5FE1FBD00004A
:1039000010B504462046FFF72DFA2046FEF736FF95
:103910002046FFF76DFCFFF719FB0C480068201AE2
:1039200041F27071884203D30848046000F09AFBAA
:10393000204600F0E1FA06480068201AC82803D3A0
:103940000348046000F006F810BD000040000020AD
:103950003C0000202DE9F04F95B000F07DFB149065
:103960007148006801F048F804460D466F48006849
:1039700001F042F806460F466D48006801F03CF839
:10398000804689466B48006801F036F882468B46CF
:103990006948007801F0F0F90F9001F02DF8CDE9B9
:1039A00012016648007801F0E7F90F9001F024F861
:1039B000CDE9100162490978149809B161A100E0CC
:1039C00062A1644A1288CDE90867CDE90A45CDE9CC
:1039D0000C210E906048007808B15AA000E05BA06E
:1039E0005E49097809B157A100E058A1CDE902ABC1
:1039F000CDE90489CDE90610DDE91201CDE9000128
:103A000057A0DDE9102300F0B7F94C48007801F029
:103A1000B3F9064600F0F0FF044622460B465EA0CE
:103A200000F0AAF94448007801F0A6F9064600F033
:103A3000E3FF044622460B4662A000F09DF93D4894
:103A4000006800F0D9FF044622460B4667A000F04C
:103A500093F93748006800F0CFFF044622460B4632
:103A60006CA000F089F93D48007808B135A000E06D
:103A700036A0014672A000F07FF93748007808B1FF
:103A800030A000E031A0014676A000F075F927488B
:103A9000006800F0B1FF044622460B467AA000F011
:103AA0006BF92148006800F0A7FF044622460B4648
:103AB0007EA000F061F92748018886A000F05CF93B
:103AC0000EA80FA910AA11ABCDE90021029012AAED
:103AD00013A914A800F072FA129800F08DFF0446A2
:103AE0000D46139800F088FF06460F46149800F024
:103AF00083FF804689469DF83C009DF840109DF864
:103B000044209DF83830CDE90067CDE90245CDE984
:103B10000432CDE9061042464B46774800F02CF9B6
:103B200015B0BDE8F08F0000180000201400002040
:103B3000080000200C0000200500002004000020E8
:103B40001E000020747275650000000066616C73D1
:103B5000650000001200002011000020100000206D
:103B60003E252E32662D252E32662D252E31662DD0
:103B7000252E32662D25732D25732D252E33667641
:103B80002D252E3266762D25756D762D25732D25E6
:103B9000643C0D0A000000005B44656275675D5B74
:103BA00053656E736F725D2044485431312D5465F6
:103BB0006D70657261747572652D252E32660D0A01
:103BC000000000005B44656275675D5B53656E7362
:103BD0006F725D2044485431312D48756D696469B8
:103BE00074792D252E32660D0A0000005B44656253
:103BF00075675D5B53656E736F725D20424D503229
:103C000038302D50726573737572652D252E3166AF
:103C10000D0A00005B44656275675D5B53656E73FA
:103C20006F725D20424D503238302D54656D706595
:103C30007261747572652D252E32660D0A000000C2
:103C40005B44656275675D5B53656E736F725D2083
:103C50005261696E2D49735261696E2D25730D0A8B
:103C6000000000005B44656275675D5B53656E73C1
:103C70006F725D204C696768742D49734E6967687F
:103C8000742D25730D0A00005B44656275675D5BEA
:103C900053656E736F725D2050542D566F6C746156
:103CA00067652D252E3366760D0A00005B4465623C
:103CB00075675D5B53656E736F725D2042617474EE
:103CC0006572792D566F6C746167652D252E32668D
:103CD000760D0A005B44656275675D5B53656E73C4
:103CE0006F725D204C696768742D56616C75652D27
:103CF00025756D760D0A00000852000800B585B0E4
:103D0000012144F20400FFF7BBFA4FF40070ADF854
:103D1000100018208DF8130003208DF8120004A95C
:103D20001348FEF7D3FD4FF48060ADF81000042077
:103D30008DF8130004A90E48FEF7C8FD4FF4E130DA
:103D400000900020ADF80400ADF80600ADF80800C2
:103D5000ADF80C000C20ADF80A006946054800F0EB
:103D600059F80121034800F03CF805B000BD0000FF
:103D700000080140003801400FB400B5C1B043A8AD
:103D800000904FF4807101A8009B429AFCF796FACC
:103D90000020009001A800F013F841B05DF814FB7A
:103DA00010B5044600BF8021044800F026F8002822
:103DB000F9D02146014800F099F810BD00380140C3
:103DC00010B5044609E020780A2802D10D20FFF73B
:103DD000E7FF2078FFF7E4FF641C20780028F2D189
:103DE00010BD21B1828942F40052828104E08289AF
:103DF0004DF6FF731A408281704702460020B1F5EC
:103E0000007F00D100BF13880B400BB1012000E000
:103E1000002070472DE9F04786B005460E46002485
:103E2000A24600BFA1460027B08900B100BF2F46BF
:103E30002C8A4CF6FF700440F08804432C82AC8935
:103E40004EF6F3100440B088318908437189084365
:103E50000443AC81AC8A4FF6FF400440B089044370
:103E6000AC8201A8FFF71CFA1F48874202D1DDF897
:103E700010A001E0DDF80CA0A88900F4004040B1DA
:103E80000AEBCA0000EB0A1031684900B0FBF1F8F8
:103E900007E00AEBCA0000EB0A1031688900B0FBAA
:103EA000F1F86420B8FBF0F004012009642101FB63
:103EB0001089A88900F4004040B1322000EBC9000D
:103EC000B0FBF1F000F00700044308E0322000EB03
:103ED00009106421B0FBF1F000F00F0004432C81C5
:103EE00006B0BDE8F087000000380140C1F30802C9
:103EF0008280704700BFFEE770B5044600F0ACF862
:103F00000546012D01D0032D01D1012000E0002044
:103F10000646DEB325480078A0B92548007888B960
:103F200024480068201A4EF6602188420ADB0120EE
:103F30001F490870204804601E4804600020FEF7F6
:103F400043FB15E01A48007890B11B480068201A1E
:103F500044F2506188420BDA16480068201A40F695
:103F6000B831884204DB134804600020FEF72CFBC4
:103F70000F480078B8B110480068201A44F2506128
:103F8000884210DB00200A4908700CE0FFE7074870
:103F9000007810B90648007828B10020044908705C
:103FA0000120FEF711FB0148067070BD31000020B2
:103FB000300000202C00002028000020F0B505ACC7
:103FC00070CC10B10D4F3F68076011B10C4F3F68C6
:103FD0000F6012B10B4F3F68176013B10A4F3F7863
:103FE0001F7014B1094F3F78277015B1084F3F7803
:103FF0002F7016B1074F3F783770F0BD4C0000208E
:1040000050000020540000205800002046000020EE
:10401000480000204400002010B54FF4807108488B
:10402000FCF766F90020074908700749087004206A
:10403000064908700649087000200649087010BD3E
:104040009800002044000020450000204600002089
:104050004700002048000020014800787047000019
:10406000460000202DE9F0474FF00008FEF748F920
:10407000054653485349097840F821505149097879
:10408000481CC11700EB91618911A0EB81114D4AC9
:1040900011704D480078402804DA4B480078401CE5
:1040A00049490870484800780A280ADA0420474934
:1040B0000870002046490870042046490870BDE891
:1040C000F0870A20FEF7E6FC8146294600F099FFBA
:1040D00006463D4800783C2807DB3C20FEF7DAFC2A
:1040E0008146294600F08DFF8046FFF7C3F9074659
:1040F0003949304600F054FE01D8032442E07FB134
:104100004FF07C51304600F04BFF05D94FF07F5106
:10411000404600F045FF01D8002433E0012431E09F
:104120002E49304600F03CFE04D92D49404600F0AF
:1041300037FE01D8012425E04FF07C51304600F0D5
:104140002FFF05D94FF07F51404600F029FF01D8DD
:10415000002417E01C4800783C2806DB2049404634
:1041600000F01EFE01D801240CE0174800783C281E
:1041700007DB4FF07F51404600F012FF01D80024CA
:1041800000E0022411480078844211D110480078E0
:10419000032804DA0E480078401C0D4908700C48CA
:1041A0000078032809DB094800780A49087004E010
:1041B0000648047001200649087000BF7FE7000030
:1041C0009800002045000020440000204700002007
:1041D0004800002046000020000080BF9A9999BE48
:1041E0000000C0BF490050EAC12018BF04204A0D9A
:1041F00018BF40F0010040F2FF72B2EB515F08BF00
:1042000040F00200012808BF0520704730380A2816
:1042100001D20120704700207047000038B500240B
:1042200000BF0420ADF8000048208DF80300694667
:104230001448FEF74BFB00BF04E0601CC4B2012031
:10424000FEF7CDFA04210F48FEF714FC08B1642CE8
:10425000F3DB642C01DB012038BD002404E0601C8A
:10426000C4B20120FEF7BBFA04210648FEF702FCA7
:1042700008B9642CF3DB642C01DB0120ECE700209F
:10428000EAE700000008014008B501210420FEF71C
:10429000F7FF00BF0420ADF8000010208DF80300E8
:1042A00003208DF8020069460648FEF70FFB00BFA9
:1042B00004210448FEF7E9FB00F038F9FFF7AEFFF0
:1042C00008BD0000000801400024FFF717FD34A0DE
:1042D000FFF776FD4FF4FA70FEF775FAFDF7A4FDCF
:1042E000FFF7D2FFFDF716FFFFF796FEFFF77EF808
:1042F000FEF768FEFEF794FEFEF78CF9FEF70CFD64
:10430000FEF7D8FCFEF744FF28A0FFF759FD40F662
:10431000B830FEF7D7F94FF47A70FEF754FAFEF78B
:10432000C5F93220FEF74FFA0120FEF74DF9FEF7EE
:10433000D7FC08B129A000E02AA0054629462BA0F9
:10434000FFF71AFDFEF7DAFC08B124A000E025A073
:104350000546294632A0FFF70FFD40F2DC513BA095
:10436000FFF70AFD45A0FFF707FDFFF799FA4FF4A5
:10437000FA70FEF728FA4BA0FFF722FDFEF784FA49
:10438000FEF744FAFEF70EF909E000BF484800685E
:10439000A042FBD0464804682046FFF7B1FAF4E794
:1043A00053746172742E2E0D0A0000005B426F6F11
:1043B000745D2042757A7A65722D42656570204081
:1043C00033303030487A203173202850617373695C
:1043D0007665292E2E2E0D0A000000005472756598
:1043E0000000000046616C73650000005B4465627C
:1043F00075675D5B436F6E6669675D204A756D70BA
:1044000065722D49734E696768744175746F547590
:10441000726E4F6E4C696768742D25730D0A00002B
:104420005B44656275675D5B436F6E6669675D20BF
:104430004A756D7065722D49734F4C4544506F77C6
:1044400065724F6E2D25730D0A0000005B44656296
:1044500075675D5B436F6E6669675D205261696E6B
:1044600053656E736F722D5261696E546872657315
:10447000686F6C642D25756D760D0A005B4465626E
:1044800075675D5B436F6E6669675D204F4C4544A1
:104490002D4F6E4475726174696F6E2D356D696E46
:1044A0000D0A000052656164792E2E0D0A0000008D
:1044B0000000002010B5002404E0601CC4B20120FC
:1044C000FEF78DF904211048FEF7D4FA08B1642CE8
:1044D000F3DB002404E0601CC4B20120FEF77FF986
:1044E00004210948FEF7C6FA08B9642CF3DB28203A
:1044F000FEF775F904210448FEF7BCFA08B1012063
:1045000010BD0020FCE700000008014070B5002449
:10451000002506E06006040EFFF7CCFF0443681C8C
:10452000C5B2082DF6DB204670BD000008B500BFFF
:104530000420ADF8000010208DF8030003208DF852
:10454000020069460948FEF7C1F900BF0421074887
:10455000FEF799FA1420FEF736F904210348FEF716
:1045600094FA1E20FEF73BF908BD00000008014048
:1045700010B500290AD00878002807D005487844EB
:10458000FCF77CFF002801D0002010BD02487844D1
:1045900010BD0000060D0000FE0C000010B5002943
:1045A0000AD00878002807D005487844FCF766FF51
:1045B000002801D0002010BD0248784410BD000042
:1045C000F60C0000EE0C000021F00042A2F1605257
:1045D000B2F5801F01F0004328BFD2F17F6C0BD9E8
:1045E0005FEA001C43EAC20242EB507018BF7047FA
:1045F00028BF20F001007047B2F5801FBCBF1846ED
:1046000070474FEA410C1CF5001F02D2084600F02B
:10461000C2BC70B500F0B2F800000089FFF7F6BF29
:104620004FF00040A0F580007047000010B591EAFF
:10463000030F48BF83F0004300F1FC80841A71EB44
:10464000030C05D2121943EB0C03001B61EB0C01A8
:10465000DFF824E14FEA1154A4EB135C1EEA430F88
:1046600018BF9EEA445F73D023EA0E03DCF1200EEC
:1046700021EA045143F4801332D322FA0CFE10EBEA
:104680000E0023FA0CFE41EB0E01CCF1200E03FAD2
:104690000EFE10EB0E0051F10001B1F5801FCCF1C0
:1046A000200E32D201EB045112FA0EF2BDE8104096
:1046B00058BF7047401C38BF5FEA420218BF7047BE
:1046C000002814BF20F0010041F100014FEA41032E
:1046D00013F5001F38BF7047A1F1C04100F09CB82E
:1046E000012A43EB0302ACF1200CDCF11F0E32BFB8
:1046F0004FF0000E23FA0CF310EB030041EB0451D2
:10470000B4EB115FD0D0A1EB045101F58011490841
:104710005FEA300001EB04510ED350F1000038BFC6
:1047200012FA0EFE08D1BDE81040C9E7401C38BFA0
:104730005FEA4202CAD1C3E7BDE810404FEA410335
:1047400013F5001F38BF7047A1F1C04100F064B8F5
:104750009EEA445F08D011EA5E0FBDE8104004BF36
:1047600001F0004100207047BDE8104070B500F036
:1047700005F800BF64FBBE3E0000E0FF0EF1020E34
:104780002EF0030E5EF8046B364205D4012A43EB8B
:10479000030515F5001F12D8012841EB010C1CF58B
:1047A000001F0CD80ED14FEAD17C15F5001F0CEB81
:1047B0004C0C0CF1020C08BF4CEBD37C04E04FF026
:1047C000080C01E04FEAD37C0CEB4C0526FA05F609
:1047D00006F00706B6F1040C06D20EEB860CBDE817
:1047E00070404CF0010C6047DFE80CF0090B02024E
:1047F0004FF000414FF00000A1F5002170BD1946B7
:104800001046012851EB010418BFD4F5001484BFF1
:10481000002001F0004170BD0808A0F500114FEA2A
:104820003101704710B591EA030F48BF83F0004390
:104830003FF504AF841A71EB030C07D212198CF008
:10484000004C43EB0C03001B61EB0C01DFF8A4E10F
:104850004FEA1154A4EB135C1EEA430F18BF9EEA03
:10486000445F00F0B08023EA6E03524221EA045113
:10487000C3EB6E0338BF5B1EDCF1200E25D322FA9A
:104880000CFE10EB0E0043FA0CFE41EB0E01CCF1D6
:10489000200E03FA0EFE10EB0E0051F10001CCF1D8
:1048A000200E29D412FA0EF201EB0451BDE810409B
:1048B00058BF7047401C1CBFB2F1004F7047002822
:1048C0000CBF491C20F00100704712EB020E43EBB5
:1048D000030218BF4FF0010E4EEA4202ACF1200C69
:1048E000DCF11E0E54D943FA0CFE10EB0E0051F110
:1048F000FF31CCF11E0ED5D50EF1010E12FA0EFECF
:10490000404141EB010101EB445C5FEA5C5C10D982
:1049100010EBDE7001EB045138BFBEF1004FBDE873
:10492000104018BF704700280CBF491C20F0010040
:10493000704730D24FEAD42C11F5001124F40064F2
:104940001BD0B1FA81F20B3AA41AA41ED2F12003B3
:10495000914030FA03F31943904001EBCC71002CE5
:1049600001EB0451BDE81040A8BF704701F1C04100
:104970004FF0000001F000417047B0FA80F310FAE8
:1049800003F100D110BDE41A173C4805C90AE4E759
:1049900001EB045110BD491001EB0451BDE810407A
:1049A0004FEA300002E04FF0000170474A0008BFB4
:1049B0000042F8D0B2F5001F28BF704701F0004157
:1049C0004FF0000070479EEA445F07D011EA5E0F87
:1049D000BDE8104004BF002100207047BDE8104032
:1049E00070B5FFF7CBFE00BF40DFF63E83F000411D
:1049F000104670470000E0FF43004FEAD30C4FEA37
:104A00003C0C43401FBF40070CF1605113F0FE4FB8
:104A100070471CF0006F03D100200CF0004170477C
:104A20000CF0004343EA507010B540EACC0000F0AF
:104A30006CFA00BF000000924FEA0001FFF7ECBEE5
:104A40004FF000414FF00000A1F500217047000039
:104A500090EA010F48BF81F0004100F1E482421A60
:104A60003CBF801A89184FEAD0524FF07F4C1CEAA5
:104A7000410FA2EBD15318BF9CEA026F00F03B80BC
:104A80004FF0004C4CEA00204CEA012121FA03FCD3
:104A900010EB0C0C1ED202F1FF325FEA1C2040EB3F
:104AA000C25038BF70471CF07F0F4FEA400C18BF50
:104AB000BCF17F4F38BF7047C3F12003994008BF56
:104AC00020F00100BCF17F4F38BF7047A0F1C0401B
:104AD00000F061BA4FEA3C00000A40EBC25028BF28
:104AE0001CF0FF0F4FEA400CE6D018BFBCF17F4F1F
:104AF00038BF7047EAE79CEA026F05D010EA5C0F06
:104B000008BF00F00040704710B500F0FEF900BF8C
:104B100064FBBE3E401058BFC0F14040491058BF32
:104B2000C1F140418142EFF3008070474FF47F0CA8
:104B30001CEAD0121EBF1CEAD11392EA0C0F93EAB2
:104B40000C0F00F0858090EA010F48BF42F480729C
:104B500040F4000C41F400002CF07F4120F07F4035
:104B600000B58142A2EB03020FF2081CACEB504EE1
:104B7000C0F100009EF800E04FEA4E0E00FB0EFC74
:104B800038BF49004FEA2C1C02F5FA020CFB0EF369
:104B90004FEACE1E4FEA112C4FEAC1210EEB635EA5
:104BA00042EB22420EFB0CFC4FEA1C5300FB0311AC
:104BB0004FEA112C4FEA01310EFB0CFC4FEADC4CA2
:104BC00000FB0C11C14228BF09184CEB03335DF800
:104BD00004EB10EB410143EBC250B2F57C0F38BF40
:104BE000704729D512F0F00F1CBF00F1C04000F053
:104BF00000407047008182838485868788898B8CFA
:104C00008D8E8F919293959697999A9C9D9FA0A235
:104C1000A3A5A7A8AAACAEB0B2B3B5B7B9BCBEC085
:104C2000C2C5C7C9CCCED1D4D7D9DCDFE2E6E9EC26
:104C3000F0F3F7FAFE0000004FEA400C0CF1807C24
:104C4000BCF17E4F28BF7047B0F1C04000F0A3B95F
:104C500090EA010F0CEAD11348BF42F4807262451A
:104C600038BF634507D213F47F0F16D080EA0100E6
:104C700000F00040704710B500F047F9097EFC3E97
:104C800000F005B880EA010000F00040704780EABB
:104C9000010000F0004000F07EB912F47F0F04BF65
:104CA0000248704780EA010000F075B90000C07F3B
:104CB00041000B0ED3F19E0208D950F400034FEAD5
:104CC000032323FA02F048BF4042704710B500F0BA
:104CD0001CF900BF49922480002070476FF0004209
:104CE00082EA20007047000010F0004148BF4042B7
:104CF000B0FA80F310FA03F2C3F19D030BD051EA2E
:104D0000C35101EB1220530638BF704700F1010078
:104D100008BF20F0010070474FF07E5209E011F00B
:104D2000004204D54042C1F1000138BF491E42F0A3
:104D30007E520B0002F1706212BF20235FEA000175
:104D40007047B1FA81FCA3EB0C0301FA0CF120FAD5
:104D500003FC02EBC352C3F1200341EA0C0110FA39
:104D600003FC5CEA416C42EB112018BF5FF0806CE1
:104D700028BF20F001007047B0FA80F310FA03F268
:104D8000C3F19D030AD0D90501EB1220530638BFA9
:104D9000704700F1010008BF20F0010070470000DB
:104DA00050EA010C00F113801CF5000F58BFBCF550
:104DB000000F01D48842704707D710F5000F58BF85
:104DC00011F5000F15D488427047894270471CF5D1
:104DD000000F04D5BCF5000FF7D5814270474FF0A6
:104DE000807C1CEB400F38BF1CEB410F01D281428D
:104DF000704710B500F089F8922449004FF0005038
:104E00004FF08051FFF786BE4FF47F0C1CEAD012A2
:104E10001EBF1CEAD11392EA0C0F93EA0C0F00F0AC
:104E2000478090EA010F48BF42F480724FF0004C77
:104E30004CEA00204CEA012102EB0302A0FB011323
:104E4000A2F50002002918BF43F001035B0028BF50
:104E50004FEA330342EB22425FEA132C4CEBC25081
:104E60002EBFBCEB436FB2F57C0F70474FEA036C6B
:104E7000BCF1004F08BF20F00100B2F57C0F38BF35
:104E800070470BD582F0FF0212F5803FC8BF704714
:104E900000F1C040D8BF00F00040704700F5000CA2
:104EA0005FEA4C0C48BF7047B0F1C04000F073B8E7
:104EB00090EA010F0CEAD11348BF42F480726245B8
:104EC00038BF634504D280EA010000F0004070471B
:104ED00010B500F01AF800BF8900013E00F007B8D5
:104EE00000F009B85FEA410C5FEA1C6C08D080EA68
:104EF000010000F050B85FEA400C5FEA1C6CF6D18C
:104F00004FF00040A0F5800070470EF1020E2EF029
:104F1000030E5EF8044B244204D44FEA4102B2F17E
:104F20007F4F11D84FEA4003B3F17F4F0CD80ED119
:104F30004FEAD07CB2F17F4F0CEB4C0C0CF1020C21
:104F400008BF4CEBD17C04E04FF0080C01E04FEAC5
:104F5000D17C0CEB4C0324FA03F404F00704B4F105
:104F6000040C06D20EEB840CBDE810404CF0010C92
:104F70006047DFE80CF0070802024FF00040A0F5A0
:104F8000800010BD0846420018BFD2F1807288BF71
:104F900000F0004010BDFF2141EAD050C00570472D
:104FA00051EA000C00F113801CF5000F58BFBCF54E
:104FB000000F01D48142704707D711F5000F58BF89
:104FC00010F5000F15D481427047894270471CF5D7
:104FD000000F04D5BCF5000FF7D5884270474FF09D
:104FE000807C1CEB410F38BF1CEB400F01D2884284
:104FF000704780EA010081EA000180EA0100FFF7C2
:10500000F8BE80F0004090EA010F7FF528AD81F0F6
:10501000004100F008B8000090EA010F48BF81F09D
:1050200000413FF51CAD421A04D882F00042A0EBCB
:10503000020011444FEAD0524FF07F4C1CEA410F5E
:10504000A2EBD15318BF9CEA026F4AD04FF0004C3C
:105050004CEA00204CEA012121FA03FCB0EB0C0CD5
:105060000FD412F0FE0F36D05FEA4C001DD50012AF
:1050700040EBC25038BF70471CF03F0F18BF70475D
:105080000BE0A2F101025FEA1C2040EBC25038BFE6
:1050900070471CF07F0F18BF7047C3F12003994081
:1050A00014BF401E20F00100704780084FEA122311
:1050B00008BF7047B0FA80FCA2EB0C02CCF1280CC0
:1050C00060FA0CF093EA122F04BF00EBC250704755
:1050D0004FEAC3707047130A5FEADC1008BF7047DD
:1050E000F6E79CEA026F04D010EA5C0F08BF0020CC
:1050F000704710B5FFF709FF40DFF63E81F0004032
:105100007047FBF7C8BDFBF7FDBE000000000000C4
:1051100000000000303132333435363738394142FF
:105120004344454640305800303132333435363709
:1051300038396162636465664030780004000008B5
:1051400000000000000000020001000010303132B9
:105150003334353637383961626364656678700098
:10516000303132333435363738394142434445469D
:105170005850000002400000000000A000000000A5
:1051800005400000000000C8000000000C400000C6
:105190000000409C00000000194000000020BCBE40
:1051A0000000000034400000BFC91B8E0000000456
:1051B000B5400000504BCFD06607E2CF01000000A1
:1051C0006C4100003E8251AADFEEA73401000000CE
:1051D000D9420000DCB5A0E23A301F97FFFFFFFF85
:1051E000B4450000FD25A0C8E9A3C14FFFFFFFFFA4
:1051F000FF3F00000000008000000000FF3F0000B3
:1052000000000080000000005B44656275675D5B24
:1052100057505D20503D252E316668506120645006
:1052200031303D252B2E3266685061206450363077
:105230003D252B2E32666850612073616D706C6560
:105240003D25752063616E643D2575206375723D53
:10525000257520636F6E6669726D3D25752F330D60
:105260000A000000B0530008000000209800000071
:10527000280100084854000898000020600700003A
:10528000440100081C00000043000000F8FFFFFF7D
:105290000C0000000E0000000F0000002E000000B7
:1052A0001001000043000000F8FFFFFF00404040F5
:1052B00040404040404041414141414040404040E9
:1052C0004040404040404040404040404005020295
:1052D0000202020202020202020202020220202054
:1052E00020202020202020020202020202029090B0
:1052F00090909090101010101010101010101010AE
:105300001010101010101010020202020202888801
:10531000888888880808080808080808080808080D
:1053200008080808080808080202020240000000F5
:10533000000000000000000000000000000000006D
:10534000000000000000000000000000000000005D
:10535000000000000000000000000000000000004D
:10536000000000000000000000000000000000003D
:10537000000000000000000000000000000000002D
:10538000000000000000000000000000000000001D
:10539000000000000000000000000000000000000D
:1053A00000000000000000000000000000000000FD
:1053B00000000000000000000000000000000000ED
:1053C00000000000000000000000000000000000DD
:1053D00000000000010000000000000000000000CC
:1053E00000000100000000000000000000000000BC
:1053F00000000000000004040000000000000000A5
:105400000000000000000000040000000001020392
:10541000040102030406070809020406080000004C
:10542000000000000000000000000000000000007C
:10543000000000000000000000000000000000006C
:08544000000000000000000064
:04000005080000ED02
:00000001FF
