:101627004101460002360000023C0000023E000075
:10163700044000000000043800000000C12BC12A4C
:100BD900121A0812185612168F1218BD1219F3128A
:100BE9001A087F0A120D271219E912139E7F06129D
:100BF900134B78401206BED221120006D2211219D7
:100C0900DA1218707F06120050AC06AD07E4120321
:100C190072E4FBFA79A0784012014EE4FBFA79807C
:100C290078441202577B007A8C7907784712014E73
:100C39007B007AE07992784512025778401206BE15
:100C49001219F640147F147E0012193F1219F6503A
:100C5900FBB22AE4783CF608F6202A03020CEAD211
:100C6900211219DF900146E0FF1219C178401206DE
:100C79008A9000001206CA900146E0FF120000782F
:100C8900381206BEC37837E6946418E694004047E4
:100C9900783812068A9000B61206CA784012068A77
:100CA9009000BA1206CA783EE6FE08E6FF120F82E5
:100CB900D3783FE6940018E69400401508E6161824
:100CC900700116783FE618467007783C7601087679
:100CD9002CE47836F608F6783706E618701606809A
:100CE90013C2211219DF1219E9E47836F608F678E9
:100CF9003CF608F6D3783DE6940018E69400400FD8
:100D09007FC81213EE783DE616187008168005E4C0
:0E0D1900FF1213EE7F0A7E0012193F020C0D2E
:10102C00201702B22B302B1F20160A783F06E61829
:10103C00700B068008783FE61618700116783EE6AD
:10104C00FE08E6FF02148CE4FF12134B78401206E4
:10105C00BE201612900146E0C3940C74809480500C
:10106C0015E004F08010900146E0D3940074809455
:10107C00804003E014F0784012068A9000001206BB
:10108C00CA900146E0FF12000078381206BE9001AB
:10109C0046E0FF12190C90007C1206CA784012062A
:1010AC008A9000801206CA783812068A12123822E8
:10139E00E49000B4F0F09000B4E0FFC394077480C2
:1013AE00948050147D011219CA7FF47E0112193FE8
:1013BE009000B4E004F080DEE49000B4F09000B44D
:1013CE00E0FFC39407748094805014E4FD1219CA90
:0F13DE007FF47E0112193F9000B4E004F080DE2E
:0113ED0022DD
:1016E800EF1FAC0670011E4C601C9001427402F0A2
:1016F800A374EFF0900143E014F070F8900142E019
:0717080014F070F080DA22FA
:0F195F009001427402F0900142E014F070F822FF
:10181E00009001427402F0A374C7F0900143E014EB
:0C182E00F070F8900142E014F070F0221D
:10193F00EF1FAC0670011E4C600512181E80F122BD
:10194F00438901758CFC758A66D2A9D2AFD28C22DD
:041647004101370A1C
:0D18FA00EE4F24FF92EDD2EC121907C2EC64
:051907000000000022B9
:100D2700900137EFF0C2ECC2EDD2EED2E9D2A76460
:100D37000A706AC2EE90013AF090013AE0C3940457
:100D4700748094805008121907E004F080EBE49057
:100D5700013AF090013AE0FF7E00C3940A74809450
:100D6700805033C3EF940474809480501AC3740383
:100D77009FFFE4A807088006CEA2E713CE13D8F892
:100D87007E005401FF80047E007F001218FA900154
:100D97003AE004F080BDD2EE20A76B80FBC2EEE400
:100DA70090013AF090013AE0C39404748094805023
:100DB70008121907E004F080EBE490013AF0900183
:100DC7003AE0FF7E00C3940C748094805033C3EFE5
:100DD700940474809480501AC374039FFFE4A80797
:100DE700088006CEA2E713CE13D8F87E005401FF81
:100DF70080047E007F001218FA90013AE004F08028
:070E0700BDD2EE30A7FD2271
:10114800AD07E4900138F0A3F0C2EEA3F090013AA5
:10115800E0C39404748094805008121907E004F0E6
:1011680080EBE490013AF0900137E0FF90013AE01B
:10117800FEC39F5041EEC39404748094805015E0E0
:10118800FFC374039FFFF8ED088002C313D8FC1354
:1011980092ED8002C2ED121900900139E025E0F0CD
:1011A800900138E033F030E905A3E04401F0900104
:1011B8003AE004F080B1D2EE30A7FD900138E0FEAD
:0411C800A3E0FF227F
:0300500002114852
:10134B00120050900138EEF0A3EFF0900137E064FB
:10135B000A701EA3E0FCA3E0FDE4120372E4FBFAA7
:10136B0079A0784012014E7B007AC0797F78448057
:10137B001E900138E0FCA3E0FDE4120372E4FBFADB
:10138B0079A0784012014E7B007AF0797F78451274
:03139B00025722D4
:1012F600120050900138EEF0A3EFF0900137E06451
:101306000A701FA3E0FCA3E0FDE41203727B007ADF
:1013160040799C784512014E7B007AC0797F7844EB
:10132600801F900138E0FCA3E0FDE41203727B000D
:101336007A40799C784512014E7B007AF0797F7865
:051346004512025722D0
:1015A8009001251206CAE4FFFEFDFC9001291206EF
:1015B800B21202F460144012E4FFFE7D807C3F907A
:1015C80001291206B21202F44006E4FFFEFDFC22D5
:1015D8009001291206B2900125120696120257228E
:0319F300D2EA2213
:0319F600A2EA2240
:10164B00420130000042012D000041012F00C12D4D
:03000B000211CC13
:1011CC00C0E0C0F0C083C082C0D075D000C000C0E9
:1011DC0006C007758CFC758A66202D04C2B6803B50
:1011EC0090012DE475F001120666900130E0FEA32B
:1011FC00E0FFC390012EE09F90012DE09E4004E49F
:10120C00F0A3F090012FE0FFC390012EE09F90011E
:10121C002DE0940050028001C392B6D007D006D0C6
:0C122C0000D0D0D082D083D0F0D0E032CF
:1018D200EFD394647480948040047F64800090010C
:0418E2002FEFF022D2
:1013EE00AE07EE700BC22D900130F0A3F0C2B62204
:1013FE00D22D7F321218D2AF0674FA8FF084FF7E90
:10140E0000900130EEF0A3EFF0C39401EE94005083
:10141E0008900130E4F0A304F0D3900131E094C8B9
:0F142E00900130E094004006E4F0A374C8F0226F
:05000600A22192A522D9
:0519DA00A22192A422ED
:0519DF00A22192B422D8
:0519E400A22C92B522C7
:1018BD00D2B2D2B3D2B0D288D2A8D28AD2AAD2C052
:0518CD00D2C2D2AF22DF
:0319F900C2A8225F
:0319FC00D2A8224C
:0319FF00C2AA2257
:031A0200D2AA2243
:0300030002143DA7
:10143D00C0E0C0F0C083C082C0D075D000C000C075
:10144D0001C002C003C004C005C006C0071219FFC9
:10145D007590FF20B302C22EA22E9216C217121043
:10146D002C121A02D007D006D005D004D003D0021A
:0F147D00D001D000D0D0D082D083D0F0D0E032D8
:03000B000214DA02
:1014DA00C0E0C0F0C083C082C0D075D000C000C0D8
:1014EA0001C002C003C004C005C006C0071219F932
:1014FA0020B202D22EA22E9216C21712102C121944
:10150A00FCD007D006D005D004D003D002D001D039
:0C151A0000D0D0D082D083D0F0D0E032DE
:030053000215266D
:10152600C0E0C0F0C083C082C0D075D000C000C08B
:1015360001C002C003C004C005C006C007A22E92A7
:1015460016D21712102CD007D006D005D004D0031F
:10155600D002D001D000D0D0D082D083D0F0D0E05D
:011566003252
:031A0500A22E22EC
:100ECF0046616B654C6F616420426F6F7400496EB1
:100EDF00697469616C697A696E672E2E2E00506F86
:100EEF007765723A20252E32665700523A252E32F8
:100EFF00664F686D20563A252E31660054696D6530
:100F0F00723A253032753A253032750025303275F8
:100F1F003A253032752052756E6E696E67004566E0
:100F2F003A252E31665700563A252E3266005379F0
:100F3F007374656D2049646C650053657420546942
:100F4F006D6572004572726F723A0020202020206A
:100F5F002020202020202020202020004C6F6164A2
:100F6F00696E672E2E2E004566663A20252E326654
:030F7F0025250025
:031A08000218E6DB
:101856007BFF7A0E79CF7D017F011216607BFF7ABE
:0A1866000E79DD7D017F020216609D
:10123800E47826F67BFF7A0E79ED9000E212072714
:101248009000E51206CA7B007A0079261207BB7B5C
:10125800007A0079267D017F011216607BFF7A0EE5
:1012680079FA9000E212072790007C120696900007
:10127800E51206CA9000801206969000E91206CA86
:101288007B007A0079261207BB7B007A0079267DDD
:06129800017F0202166056
:04148C00AB07AA06FA
:101490007C007D3C120611900078EFF0AE02AF03A5
:1014A0007C007D3C120611AF05E47826F67BFF7ABE
:1014B0000F790B9000E2120727900078E09000E58A
:1014C000F0A3EFF07B007A0079261207BB7B007A4D
:0A14D0000079267D017F02021660FC
:040F8200AB07AA0609
:100F86007C007D3C1206119000BEEFF0AE02AF036E
:100F96007C007D3C120611AF05E47826F67BFF7ACD
:100FA6000F791B9000E21207279000BEE09000E543
:100FB600F0A3EFF07B007A0079261207BB7BFF7A5D
:100FC6000F792D9000E21207279000B61206969030
:100FD60000E51206CA7B017A0079BF1207BB7B01C6
:100FE6007A0079BF7D017F011216607BFF7A0F7947
:100FF600369000E21207279000BA1206969000E596
:101006001206CA7B017A0079CF1207BB7B017A00F0
:1010160079CF7D087F011216607B007A0079267DE4
:06102600017F02021660CA
:101870007BFF7A0F793D7D017F011216607BFF7A35
:0A1880000F79497D017F0202166016
:1017C10090013F1207277BFF7A0F79537D017F013B
:1017D10012166090013F1207077D017F0202166019
:10188A007BFF7A0F795A7D017F011216607BFF7AFE
:0A189A000F795A7D017F02021660EB
:0D197D007BFF7A0F796B7D017F0102166000
:1016BC00E47826F67BFF7A0F79769000E212072702
:1016CC009000E51206CA7B007A0079261207BB7BD4
:0C16DC00007A0079267D017F0202166072
:06177F00C2968F80D29794
:101785009001447402F0A374EFF0900145E014F069
:0B17950070F8900144E014F070F022A6
:0A19A300C29512177FC29702178544
:0A19AD00D29512177FC2970217852A
:10180000AE07EEFB7A0064017004ED148009EB640E
:0E181000024A7009ED243F4480FF1219A32202
:1018E6007F381219A37F0C1219A37F061219A37F42
:0418F600010219A32F
:0A19B700AC03121800AF040219ADD2
:101660009000DF120727121800E4900144F0900068
:10167000DF120707900144E0F5827583001205C070
:0F168000FF600B1219AD900144E004F080E022EE
:0E000E0090013BEEF0A3EFF0A3ECF0A3EDF0B9
:10001C007F017E00E4900144F0900144E0FDD39018
:10002C00013EE09D7480F890013DE064809840139F
:10003C0090013BE0FCA3E0FD1205FF900144E004BD
:03004C00F080D66B
:01004F00228E
:10129E00900134EAF0A3EBF0121800900136E090C2
:1012AE000144F0900144E0FF7E00D39400748094DA
:1012BE00804034EF24FFFDEE34FFFC7F0A12000E57
:1012CE00900134E0FCA3E0FDCFCDCFCECCCE120604
:1012DE00117C007D0A120611ED2430FF1219AD901B
:0812EE000144E014F080BC2271
:10156700404EB85240551EB840766666408000002F
:10157700409851EC40A0000040C8000040D570A43E
:10158700411170A44120000041855C2941A0000061
:1015970042C80000C0E0C2E2C1E1C3E3C7E7CFEF42
:0115A700DF64
:10168F001219D2C221E4FF1215E8C2217F011215EF
:10169F00E8C2217F021215E8C2217F031215E8C2AA
:0D16AF00217F041215E8C2217F050215E815
:060E0E0090010F1206CA5C
:100E140090011B1206D64479C000E490011FF0FF34
:100E2400FEFDFC90010F1206B21202F470087FC09E
:100E34001217E17F0022900113120696A804A90557
:100E4400AA06AB0712014E90010F1206B212025706
:100E54009001171206CAE4900120F0900120E0FFEF
:100E6400C3940D748094805050EF25E025E02467EE
:100E7400F582E43415F5831206A29001171206B226
:100E840012005912198A9001211206CA90011B12EC
:100E940006969001211206B21202F4501490012118
:100EA40012069690011B1206CA900120E090011FC1
:100EB400F0900120E004F080A290011FE090159BC7
:0A0EC40093FF1217E190011FE0FFF9
:010ECE002201
:0919C100EF90159B93FF0217E162
:10190C00EF25E025E02467F582E43415F583020623
:01191C00A228
:0519E900E4FF0217E11C
:0819CA00ED24FF92210215E853
:04165B00410147FF03
:06191D00EF25E0FFD2A05F
:0B192300781C7664781CE61670FA222F
:0519EE00D2A1D2A022ED
:0F196E00D2A1D2A0121923C2A1121923C2A02202
:0C199700C2A1D2A0121923D2A102192370
:10175D00E4781CF6781CE6C39408748094805011CC
:10176D00EF3392A112191DC2A0121923781C068005
:02177D00E32265
:10170F00E4FFD2A1781CF6781CE6C3940874809489
:10171F0080501312191DA2A1E4334FFFC2A012195A
:06172F0023781C0680E196
:011735002291
:0318A40012175DBB
:1018A700D2A1121923D2A0121923A2A19222C2A057
:0518B700121923A2221A
:0118BC002209
:10192E00A22F92A1121923D2A0121923C2A002191A
:01193E002385
:0819D2001219EE7FFF0217E17C
:1017A00012196E7F411218A45006900147E0FF22E3
:1017B00012170FD22F12192E121997900147EFF01E
:0117C0002206
:1017E100AE0712196E7F401218A44012AF061217ED
:0F17F1005D1218A74008121997900147EEF022D9
:1015E800EFD39407748094805034302113900147CE
:1015F800E0FEA8077401088002C333D8FC4E8012AD
:10160800900147E0FEA8077401088002C333D8FCA4
:0F161800F45E900147F0900147E0FF1217E122C6
:10183A00AE07EED39407748094804001221217A059
:0C184A00A806EF088002C313D8FC13228C
:100056000203E0E86480F8E933E83360110460F0F5
:10006600ED33EC337009E8FCE9FDEAFEEBFF220410
:1000760060DED3EB9FEA9EE99DE8C2E78CF0C2F70B
:1000860095F0400CE8CCF8E9CDF9EACEFAEBCFFBD7
:100096001203AB85D0F05804700320D5B3E8047082
:1000A600075002B2D50203EA92D5EC0460F7E4CC1D
:1000B600C0E0C398F8603B94186008400DD0E0FBA0
:1000C6000203C2E4FBFAC9FC8028E830E406E4C96E
:1000D600FBE4CAFCE830E305E4C9CACBFCE85407F4
:1000E6006010F8C3E913F9EA13FAEB13FBEC13FCFF
:1000F600D8F130F52FC3E49CFCEF9BFFEE9AFEEDA2
:1001060099FDD0E0FBEF4E4D4C701222DB0302034B
:10011600E7EC2CFCEF33FFEE33FEED33FDED30E77D
:10012600EB0203C2EF2BFFEE3AFEED39FDD0E0FB0A
:1001360050130BBB00030203EAED13FDEE13FEEFB3
:0801460013FFEC13FC0203C2DD
:10014E00EC4D6011E8497017ED33EC3304600DE4AB
:10015E00FCFFFEFD22E933E8330470F80203E012DF
:10016E0003AB58046009E4CC2481500628500902E0
:10017E0003EA2840030203E7C0E0EB4A7044B9806B
:10018E0006D0E0FB0203D6EF4E701CBD8008EBFFDD
:10019E00EAFEE9FD80EBE98DF0A4FEE5F002023700
:1001AE00E9CDF9EAFEEBFFEF89F0A4FCE5F0CE898C
:1001BE00F0A42EFFE435F0CD89F0A42DFEE435F049
:1001CE008067EF4E7005BD80D780C3EF8BF0A4AC77
:1001DE00F0EE8BF0A42CFCE435F0F8EF8AF0A42CB2
:1001EE00E5F038FCE433CB8DF0A42CFCE5F03BF8C5
:1001FE00EE8AF0A42CFCE5F038F8E433CF89F0A4B5
:10020E002CFCE5F038CF3400CE89F0A42FFFE5F0BA
:10021E003EFEE433C98DF0A42EFEE5F039CD8AF012
:10022E00A42FFFE5F03EFEE43DFD33D0E0FB50078A
:10023E000BBB000F0203EAEC2CFCEF33FFEE33FE98
:06024E00ED33FD0203C2C6
:100254000203EAEC5D046005E8590470030203E05C
:100264001203AB580460F6EC4860F2EC7004FDFE37
:10027400FF22C860DB2481C85009C398600250067D
:100284000203E79850CAF582E9294B4A7005AB820C
:100294000203D675F0007C1A7880C3EF9BEE9AEDCA
:1002A40099400DC3EF9BFFEE9AFEED99FDE842F0F5
:1002B400DC23ACF0D0E0FFD0E0FED0E0FDAB822048
:1002C400E7101BEB60BAEC2CFCEF33FFEE33FEEDD2
:1002D40033FD0203C2E803F830E705C0F075F0000F
:1002E400EF2FFFEE33FEED33FD40B830E7C280AAB6
:1002F40074F8CC6480CCC86480C8F58204604FC3B1
:10030400EB9FF5F0EA9E42F0E99D42F0E89C45F04F
:10031400603C501DE5825FFFE582D313CB5BCBF4D9
:100324002B5582FB50280ABA002409B90020088002
:100334001DE5825BFBE582D313CF5FCFF4C3132F9C
:100344005582FF50090EBE00050DBD00010CC3EB24
:100354009FF5F0EA9E42F0E99D42F0E89C45F0608A
:0903640007CC4820E701B3EC22AC
:10036D0075F020800E75F010800575F0087D007E0B
:10037D00007F003392D530D50312067CEC3340104C
:10038D00EF33FFEE33FEED33FDEC33FCD5F0ED2214
:0E039D00E5F0247EA2D513CC92E7CDCEFF2250
:10075600E51724E2F582E43400F583E005172290DC
:1007660000DF3028039000E2E475F0011207100262
:1007760005A72021E97F2ED2218018EF540F24905F
:10078600D43440D4FF30250BEF24BFB41A005003F5
:100796002461FFE51860021518051BE51B700205AC
:1007A6001A30280E9000DFE475F001120710EF02F0
:1007B60005ED0217367403D2288003E4C228F51724
:1007C6009000DF120727E4F518F51AF51BE5186007
:1007D600077F2012079980F57519FFC222C221C230
:1007E60023C224C226C227C229120765FF700D3014
:1007F60028057F001207AAAF1BAE1A22B4255FC2D6
:10080600D5C225120765FF24D0B40A00501A75F028
:100816000A781830D50508B6FF0106C6A426F620C4
:10082600D5047002D22480D924CFB41A00EF500424
:10083600C2E5D225020A9CD22280C6D22180C0D22D
:100846002380BCD2D580BAD22680B47F20120799E5
:100856002023077401B5180040F1120756FF12074E
:10086600990207D3D229D2278095120756FB120781
:1008760056FA120756F94A4B7006799A7A0B7BFF9D
:1008860020232EE518602A7E008E827583001205CD
:10089600C060060EEE651970F0C2D5EBC0E0EAC086
:1008A600E0E9C0E0EE120AFDD0E0F9D0E0FAD0E0CF
:1008B600FB1205A7FF60AAEBC0E0EAC0E0E9C0E0D2
:1008C600120799D0E02401F9D0E03400FAD0E0FB19
:1008D600E5190460DCD519D98087D22380A2120AD3
:1008E600DF60F7E5197001041203F5A919600DE53B
:1008F60019600914F519120B87EF60F3EA30E70265
:10090600F404C3995079EAF425190430E701E404A4
:10091600F519800D120ADF60C1EA051925191203BF
:10092600F5EA90010EF030E701E4251904D5190423
:1009360020260114120AFDE4C0E0120B8790010E76
:10094600E0601320E70714F0120781802204F0D03C
:10095600E014C0E07F00120781E5196007120778EE
:100966001519800B302603120778D0E00207D3D082
:10097600E00480C4120ADF609EE519041203F590B4
:10098600010EEAF0E5192026026001042404120A89
:01099600FD63
:1009970074FF04C0E0120B87120781E519202602B5
:1009A7006003120778D0E0B519E87F4512078B90EE
:1009B700010EE07F2B30E7047F2DF404C0E012071F
:1009C70099D0E075F00A84C0F0120782D0E01207D0
:1009D700820207D3791080027908C227C2298008CA
:1009E700D2D5790A8004790AC2D5E519047002F5CF
:1009F70019E4FAFDFEFF120756FC7B0820221312AA
:100A07000756FD7B1030210A120756FE120756FFC4
:100A17007B20EC3382D592D55013C3E43021069F57
:100A2700FFE49EFEE42022039DFDE49CFCE4CBF85A
:100A3700C222EC700CCFCECDCCE824F8F870F3804E
:100A470017C3EF33FFEE33FEED33FDEC33FCEB332F
:100A5700FB994002FB0FD8E9EB302205F8D0E0C440
:100A670048B222C0E00AEC4D4E4F78207B0070C29E
:100A7700EAB5190040BCC0E0120AFFD0F0D0E02070
:100A87002204C4C0E0C4B222C0F0120782D0F0D55D
:100A9700F0EB0207D312073008705309DB580841FF
:100AA7004C083D4209DF4F09E74409E74908564327
:100AB70009ED55091A46097A4508E4470BBA500863
:100AC700452D08492E086C2B084D23086A200BA3D7
:100AD7002A08054800000864E519B4FF03751906DC
:100AE700120756FC120756FD120756FE120756FF4D
:100AF700900107020432790AA2D52024143026096E
:100B0700B910020404B9080104A2D5202702500134
:100B1700042023689223B518005034C0E07F2030AA
:100B270024197F30A22372277226500F120B56C248
:100B370023C227C226C2297F30800F302603E9C08F
:100B4700E0120799302603D0E0F9D0E0B518CC3091
:100B570026177F30B9100C1207997F583025077F69
:100B6700788003B908031207993023057F2D020700
:100B7700997F202029F87F2B2027F322922380CFEB
:100B87007F00B40700500B2407F582E43401F58396
:100B9700E0FF22286E756C6C2900D22212075630AE
:100BA70022F8C222781830D50108F60208052D5020
:100BB7004349581207562403B405004001E4900B3B
:100BC700B59312078A743A12078AD2247518040259
:020BD70009DB38
:0D198A00ED33EC3360065004EC6480FC2269
:1003AB00E9D2E7C933E833F892D5EDD2E7CD33EC98
:0703BB0033FC5002B2D52211
:1003C200EC30E7100FBF000C0EBE00080DBD00049C
:1003D2000BEB6014A2D5EB13FCED92E7FD2274FF48
:1003E200FCFDFEFF22E480F8A2D574FF13FC7D80A1
:0303F200E480EFB5
:1003F500F920E73624F950037907E4F42402FBE5F4
:1004050082158270021583DBF6E024FB501BE96040
:1004150014E4F0E582158270021583E004F0B40A55
:0D04250008E4F0D9EE7401F00A22C2D522DD
:10043200ED33EC3392D5FA602AB4FF33EDC2E77B99
:10044200FF60067A047957E4227A04796020D504A1
:100452007A04795B224E614E002B494E46002D49AB
:100462004E4600E47A08F0A3DAFC7B00740722C04F
:1004720083C082ECC0E0EDC0E0EEC0E0EFC0E0EA95
:1004820075F010A4CAABF075F04DA42BFBE435F067
:10049200FCEA2410FAEB34C5FBEC34D9FCEDC2E7DC
:1004A200FF75F056A4F42411C5F0F434C58FF0A4FE
:1004B2002AE5F03BE43CF020E714120567D0E0FFA8
:1004C200D0E0FED0E0FDD0E0FC1202578014F4042C
:1004D200120567D0E0FFD0E0FED0E0FDD0E0FC12D4
:1004E200014ED082D083E0FAEDD2E7CD33EC332453
:1004F20082FBE4C3CF33CFCE33CECD33CD33DBF368
:100502007B0775F00A846004F0A31B0AE5F0F0A3F0
:100512008FF0740AA4FFACF08EF0740AA42CFEAC27
:10052200F050010C8DF0740AA42CFDE435F0F0A318
:05053200DBDE7407226E
:100537003F8000004120000042C80000447A0000CC
:10054700461C400047C35000497424004B1896804E
:100557004CBEBC205A0E1BCA6753C21C749DC5AE45
:10056700FB60065407601C2323120595EB54386083
:100577000912058112059012014EECF8EDF9EEFA19
:10058700EFCB22EB12059080F1543803241C900521
:1005970037FE93FC0EEE93FD0EEE930ECE93FF22E5
:030000000210BC2F
:0C10BC00787FE4F6D8FD75814302110333
:1005A700BB010689828A83E0225002E722BBFE0252
:0905B700E32289828A83E4932285
:1005C000BB010CE58229F582E5833AF583E02250F0
:1005D00006E92582F8E622BBFE06E92582F8E2223A
:0D05E000E58229F582E5833AF583E4932254
:1005ED00BB010689828A83F0225002F722BBFE01ED
:0205FD00F322E7
:1005FF00EF8DF0A4A8F0CF8CF0A428CE8DF0A42E10
:02060F00FE22C9
:10061100BC000BBE0029EF8DF084FFADF022E4CCCD
:10062100F875F008EF2FFFEE33FEEC33FCEE9DEC96
:10063100984005FCEE9DFE0FD5F0E9E4CEFD22EDDC
:10064100F8F5F0EE8420D21CFEADF075F008EF2F26
:10065100FFED33FD4007985006D5F0F222C398FD17
:050661000FD5F0EA22B4
:10066600C5F0F8A3E028F0C5F0F8E582158270021F
:060676001583E038F022BC
:0E067C00C3E49FFFE49EFEE49DFDE49CFC228F
:0C068A00E6FC08E6FD08E6FE08E6FF229C
:0C069600E0FCA3E0FDA3E0FEA3E0FF22D7
:1006A200E493FC740193FD740293FE740393FF229E
:0C06B200E0F8A3E0F9A3E0FAA3E0FB22CB
:0C06BE00ECF608EDF608EEF608EFF62268
:0C06CA00ECF0A3EDF0A3EEF0A3EFF022A3
:1006D600A8828583F0D083D0821206ED1206ED1231
:1006E60006ED1206EDE473E493A3C583C5F0C58356
:1006F600C8C582C8F0A3C583C5F0C583C8C582C86E
:0107060022D0
:09070700E0FBA3E0FAA3E0F922F3
:10071000F8E0FBA3A3E0F925F0F0E5821582700272
:070720001583E0FA38F02216
:09072700EBF0A3EAF0A3E9F022D3
:10073000D083D082F8E4937012740193700DA3A358
:1007400093F8740193F5828883E47374029368606C
:06075000EFA3A3A380DF6C
:10173600EFB40A07740D121741740A309811A8996C
:10174600B8130CC2983098FDA899C298B811F63013
:0717560099FDC299F59922EB
:1010C800020BD9E493A3F8E493A34003F68001F25A
:1010D80008DFF48029E493A3F85407240CC8C33329
:1010E800C4540F4420C8834004F456800146F6DFF8
:1010F800E4800B0102040810204080901627E47E4B
:10110800019360BCA3FF543F30E509541FFEE493EC
:10111800A360010ECF54C025E060A840B8E493A3B3
:10112800FAE493A3F8E493A3C8C582C8CAC583CADE
:10113800F0A3C8C582C8CAC583CADFE9DEE780BE96
:01165F00008A
:00000001FF
