:101060005B44454255475D2053797374656D20425A
:101070006F6F74696E672E2E2E0D0A005B44454219
:1010800055475D20446973706C617920696E69749D
:1010900069616C697A65640D0A005B444542554795
:1010A0005D2046616B654C6F616420696E6974698F
:1010B000616C697A65640D0A005B44454255475D81
:1010C000204543313120656E636F64657220696E1F
:1010D000697469616C697A65640D0A005B44454214
:1010E00055475D2053544D333220414443204865D9
:1010F0006C70657220696E697469616C697A656487
:101100000D0A005B44454255475D20456E636F64A0
:10111000657220696E7420636F756E743A200025C5
:1011200064000D0A005B44454255475D20416C6CEC
:101130002073797374656D7320696E697469616C6D
:10114000697A65640D0A00563D252E32660D0A0047
:101150005B44454255475D2053746F707065640D64
:101160000A005B44454255475D20537461727465C3
:10117000640D0A005B44454255475D2054696D6526
:101180007220697320302C207374617920696E207D
:1011900073657474696E67730D0A004F766572200B
:0811A000566F6C746167650075
:10126E00012D0002330000023500000139FF02405B
:10127E000000013200013700C113043C00000000E1
:10128E00042E00000000C111C10E012800C10CC1C6
:10129E001202260000C10FC10DC1100429BF80002B
:1012AE0000023A0000013800012400012500C10BA4
:1015CE00E4FFFEFDFC1206830202C47836D3E694D5
:1015DE000018E6940022EF24D0FBEE34FFFAE6FE6C
:1015EE0008E6FF7C007D0A1205E0EF2B227883E6E9
:1015FE002442F8E6FF3395E0FEC3EF9430EE6480AC
:10160E00948022E6FC08E6FDE4020353783C1206C1
:10161E006B9000031206A8782DE6FF22781EE6FED8
:10162E0008E6FF7840A60608A60722E47826F60804
:10163E00F6C20F2212066B783C12069CD21022C301
:10164E007827E6947018E6941722D3EF9439EE6457
:04165E0080948022D2
:030023000216EED4
:0F16EE00C0E0C0D075D000C000C004C005C00768
:1016FD00309865C298AF997824E6FD7C007008EFAC
:10170D00B43E0476018051ED64014C700DEFB43E92
:10171D000978247602087600803E7824E66402700B
:10172D0033EF640D6004EFB40A0C7825E62442F81B
:10173D007600D20D801EEFB420057825E66019786D
:10174D0025E6C3940774809480500DE6062442F874
:08175D00A60780047824760041
:0D176500D007D005D004D000D0D0D0E032A5
:10074D00121E57D2ACD2AF7BFF7A107960121CB259
:10075D00121F987BFF7A10797C121CB2121BEC7B56
:10076D00FF7A10799A121CB2121EDA121ACC121FCD
:10077D000C7BFF7A1079B9121CB2121EA0E4781E00
:10078D00F608F6121F92121F377BFF7A1079DC12D2
:10079D001CB2D200121F6FD200121F74121DFB7BF0
:1007AD00FF7A117903121CB27BFF7A11791F900029
:1007BD003312071E7898E6900036F07B007A0079A8
:1007CD004A120C427B007A00794A121CB27BFF7AE6
:1007DD00117922121CB27BFF7A117925121CB220DD
:0507ED000D03020907E5
:1007F200C20D787F1206B400000000E47883F60888
:10080200F608F608F608F608F60876011215FB4017
:1008120015121658501078841215E47885F6EE3ABF
:1008220018F6180680E67883E62442F8E6642E700D
:100832002E80271215FB4027121658502278861256
:1008420015E47887F6EE3A18F67888E6FE08E6FFB1
:100852001205E07888A60608A60778830680D47871
:1008620088121611C004C005C006C0077886121689
:1008720011D003D002D001D000120227C004C0055B
:10088200C006C0077884121611D003D002D001D05E
:100892000012002D787F12069C7829120683C00070
:1008A200787F12066BD000120029788A12069C7893
:1008B2008A1215CE500D788A12066B12033D788A81
:1008C20012069C7F0A7ED77D237C3C788A1215D340
:1008D2006002500778291215CE5021787F12066BDC
:1008E200782912069C787F121642200E09201106E2
:1008F200200F03120B44120B7C121CB2E4783AF65E
:0209020008F6F5
:100904000209A7783B06E618700106C3783BE69413
:10091400C818E6940050030209A7E4F608F6C2AC2E
:10092400121E15788E12069CE4FFFEFDFC788E12D2
:1009340015D3406D7829120683C000788E12066B99
:10094400D000120029789212069CE4FFFEFDFC7888
:10095400921215D3500D789212066B12033D7892C1
:1009640012069C7F0A7ED77D237C3C78921215D395
:100974006002500CE4FFFEFDFC78291215D35021CF
:10098400788E12066B782912069C788E12164220F5
:100994000E09201106200F03120B44120B7C121CAB
:0109A400B2A0
:0209A500D2ACD2
:1009A7007B017A00790190000512071E7A0019125F
:1009B7001D865014121639900000E024FF9200A300
:0809C700E024FF9201121772F7
:0809CF00121BBF500312163980
:1009D700121F954047200B4A782806E69405748035
:1009E7009480403EE4F6D20B12163A300E10C20E37
:1009F7007833F608F6120BA37A117950801912157D
:100A0700D9400DD20E12162A7BFF7A117962800720
:100A1700120BA37A117974121CB28006E47828F6B7
:020A2700C20B00
:100A2900200E03020AC8D200121F79D200121F7EBB
:100A3900C2A21215D94012782DE6FF7839666009ED
:100A4900121F40782DE67839F612161A121B6478AF
:100A59002E12069CC3791FE7784196FF19E718966D
:100A6900FEC3EF94E8EE9403406E12162A1215D9CC
:100A7900402B08E616187001167836E61846701DE0
:100A89007833760108762C783C12066B90000612B2
:100A990006A87F007E007D007C001213F2782E12DA
:100AA900066B9000041206A8783C12066B900008A9
:100AB9001206A87835E6FE08E6FF1211A88019C2C9
:100AC90000121F79C200121F7E121F88D2A2783924
:100AD90076FFE47840F608F6E4FFFE7D147C427860
:100AE9003C1215D360124010200C0F7BFF7A11794C
:100AF9009B121D1FD20C8002C20C200E1912164D1A
:100B090050140806E61870010612164D4008200F09
:100B190005D20F121DFB78341215DB400F7FC81266
:100B2900192D7834E616187008168005E4FF121995
:100B39002D7F0A7E00121E900207EC783C12066B8C
:100B49009000031206A8782DE6FF121B64782E1276
:100B5900069C782DE6FF121F699000061206A878F8
:100B69003C12066B90000A1206A8782E12066B1228
:100B79001870227BFF7A11794790003312071E788B
:100B89003C12066B9000361206A87B007A00794A5F
:100B9900120C427B007A00794A22783C12066B904B
:100BA90000031206A8782DE6FF121B64782E1206A0
:100BB9009C782DE6FF121F699000061206A8783C62
:100BC90012066B90000A1206A8782E12066B1218EC
:040BD900707BFF220C
:10177200300102B21130112E200015C37836E694E2
:101782002018E6941C50150806E618700F06800C07
:101792001215D9400708E616187001167835E6FECC
:1017A20008E6FF021A0E20000F782DE6C3940C748F
:1017B200809480501006800D782DE6D394007480BA
:1017C200948040011612161A121B64782E12069C7F
:1017D200782DE6FF121F699000061206A8783C12C7
:1017E200066B90000A1206A8782E12066B12187069
:0117F20022D4
:101DC300009000A67402F0A374C7F09000A7E0147B
:0C1DD300F070F89000A6E014F070F02210
:101E9000EF1FAC0670011E4C6005121DC380F122BD
:101EA000438901758CFC758A66D2A9D2AFD28C2287
:101E570075985053890F438920758DFD758BFDD279
:041E67008ED299225C
:080003008F993099FDC299228A
:101CB20090000212071E9000021206FE12058860B2
:101CC20013900002E475F001120707120588FF1253
:051CD200000380E22286
:1019C7000D0A0053544D33325F4144432048656C40
:1019D7007065723A205175657279696E6720535444
:1019E7004D33322E2E2E0D0A0041542B51554552A0
:1019F700592B4144430041542B51554552592B56BD
:071A07006F6C74616765005C
:101B9200EF24D0FBE434FFFAE0FEA3E0FF7C007DFB
:101BA2000A1205E0EF2BFFEE3A22E0FCA3E0FDE48F
:0D1BB200020353745E29F8E6FFC39430224D
:10000E00EF1FAC0670011E4C60083098F3C298AF1B
:05001E0099227F002281
:1017F300E49000A8F0FDEDC3942074809480500918
:10180300745E2DF8E4F60D80ED121CB27BFF7A199D
:1018130079C7121CB2E4FDEDC3948874809493508D
:10182300337F017E0012000EEF60269000A8E0C314
:10183300941F74809480500AE0FE04F0745E2EF8C6
:10184300A607EFB40A0B9000A8E0245EF8E4F68044
:10185300030D80C39000A8E0D3940074809480406B
:0C18630009785EE6B43E037F01227F009E
:01186F002256
:101C66007903E4FFFE745E29F8E6FDC3943040155F
:101C7600EDD39439500FED24D0FBE434FFFA121B58
:051C86009FFE0980E053
:011C8B002236
:10149D007903E4900002F0A3F0A3F0A3F0A3F0A36E
:1014AD0004F0121BB54016EFD39439501090000282
:1014BD00121B92900002F0A3EFF00980E5745E29F3
:1014CD00F8E6642E702D09121BB54027EFD3943921
:1014DD005021900004121B92900004F0A3EFF0A392
:1014ED00E0FEA3E0FF1205E0900006EEF0A3EFF0A2
:1014FD000980D4900006121BACC004C005C006C004
:10150D0007900004121BACD003D002D001D0001202
:10151D000227C004C005C006C007900002121BAC14
:0B152D00D003D002D001D00002002D3E
:091F37007BFF7A1979CA021CB281
:101E42007BFF7A1979F01217F3EF70057EFF7FFF9F
:051E520022121C6622B3
:101E15007BFF7A1979FD1217F3EF7007FFFE7D80BE
:071E25007CBF2212149D2274
:031F9200D2A022B8
:031F9500A2A022E5
:1012BE004200A400004200A100004100A300C11999
:0712CE00021E0000011D01DA
:0D1ECD00E0FFC39000A2E09F9000A1E02282
:03000B00021538A3
:10153800C0E0C0F0C083C082C0D075D000C000C079
:0315480006C007D3
:10154B00758CFC758A66781F06E618700106A2B2C8
:10155B00E433787EF6E6FF7025781DE66401701E95
:10156B0000000000000000000000209203C3800177
:10157B00D39216D215A2169217C218789806781D18
:10158B00A607201904C2B680299000A1E475F001CA
:10159B001206479000A4E0FEA3121ECD9E4004E469
:1015AB00F0A3F09000A3121ECD940050028001C353
:0215BB0092B6E6
:1015BD00D007D006D000D0D0D082D083D0F0D0E0EC
:0115CD0032EB
:101E6B00EFD394647480948040047F64800090006E
:041E7B00A3EFF022BF
:10192D00AE07EE700BC2199000A4F0A3F0C2B62260
:10193D00D2197F32121E6BAF0674FA8FF084FF7EC0
:10194D00009000A4EEF0A3EFF0C39401EE940050CC
:10195D00089000A4E4F0A304F0D39000A5E094C88F
:0F196D009000A4E094004006E4F0A374C8F022B8
:051F6F00A20092A52272
:051F7400A20092A4226E
:051F7900A20092B42259
:051F7E00A20092B52253
:0E12D500C115C117C118019800C1140197007E
:0B1F0C00D2B2D292D2B3C2A8C2AA2265
:101D860030151AA217E4331205CEA218E433FF90D9
:0F1D960000051206FEEF1205CEC215D322C3229E
:101BBF0020B3222014257897E6C394027480948072
:101BCF005003068016D214E47897F6D215A2169217
:0C1BDF0017D218D322C214E47897F6C382
:011BEB0022D7
:1013300046616B654C6F616420426F6F7400496E4B
:10134000697469616C697A696E672E2E2E00506F20
:101350007765723A20252E326657202000523A25B2
:101360002E32664F686D20252E3166562000523A87
:10137000252E32664F686D20252E3266562000528B
:101380003A252E32664F686D20563A554B20200084
:1013900054696D65723A00202020202020202020F2
:1013A0002020202020202000253032753A253032A0
:1013B000752052756E6E696E6700503A252E316643
:1013C00057200020563A252E3266200020563A55E6
:1013D0004B2020200053797374656D2049646C653F
:1013E000005365742054696D6572004572726F72A6
:0213F0003A00C1
:101A50007BFF90003302071E1206A87B007A0079F4
:101A60000D22EFF0AE02AF037C007D3C0205F29048
:101A7000000612067790003622E0FB7A00900008FC
:101A80007402F0227BFF7D017F01227BFF7D017FBD
:021A9000022230
:031F9800021B35F4
:101BEC007A137930121A84121D427A13793E121A22
:101BFC008B121D427B767D107F01121F2D900008E9
:0C1C0C007401F0FB7A007D0FFF02197CD0
:101870007A13794E121A50900036121A58120C42EE
:10188000121A5B7D017F01121D423010357F667E8A
:10189000667D1E7C4190000A1206901202C47BFFF6
:1018A000600840067A13795D80047A13796E121A03
:1018B00052121A6F1206A890000A12067790003A88
:1018C000800A7A13797F121A50121A6F121A58125C
:0C18D0000C42121A5B7D017F02021D42D7
:041A0E00AB07AA0672
:101A1200121A68900002121A62A3EDF0E4780DF631
:101A2200121F837A137990121A8B121D42900002B0
:101A3200121A797D07FF12197C7B3A7D097F021207
:0E1A42001F2D900003121A797D0AFF02197CF5
:0411A800AB07AA06E1
:1011AC00121A6890000CEEF0A3121A62A3ECF0A3D2
:1011BC00EDF0121F83E4780DF67F011212627BFFB3
:1011CC007A1379A8121A5290000CE0FFA3E0900059
:1011DC0036CFF0A3EFF090000EE0FFA3E0900038C4
:1011EC00CFF0A3EFF0121A5B120C427BFF7A13794B
:1011FC00BA121A52900004121A721206A87B017AC3
:10120C00007910120C427B017A0079107D017F016C
:10121C00121D427BFF3010127A1379C3121A5290AE
:10122C000008121A721206A880077A1379CC121AC7
:10123C00527B017A007920120C427B017A007920D2
:10124C007D087F01121D427F02121262121A5B7D11
:06125C00017F02021D42A9
:0C1262007BFF7A1379977D01121D422258
:101DFB00121F837A1379D5121A84121D427BFF7A34
:0A1E0B001379E17D017F02021D4200
:101D1F0090000212071E121F837BFF7A1379EB7D4F
:101D2F00017F01121D429000021206FE7D017F020B
:031D3F00021D4240
:0C1EF400C2968F80D297121EC4C29722A3
:051EBF007F38121F49ED
:081EC4007F057EF8DEFEDFFA67
:011ECC0022F3
:101CD700E4FFEFC394057480948050177EF8DEFE0E
:101CE7007EF8DEFE7EF8DEFE7EF8DEFE7EF8DEFEA5
:031CF7000F80DF7C
:011CFA0022C7
:081F4900C295121EF4021EC431
:081F5100D295121EF4021EC419
:101DA500AE07EEFB7A0064017004ED148009EB6464
:0E1DB500024A7009ED243F4480FF121F4922AC
:101B3500121CD7121CD7121CD77F38121F49121C32
:101B4500D7121EBF121EBF7F0C121F49121EC47F63
:0F1B550001121F49121CD77F06121F49021EC41E
:051F83007F01021F496F
:0A1F2D00AC03121DA5AF04021F5102
:061D420090003012071EA4
:101D4800121DA5E4FD9000301206FE8D82758300F9
:0C1D58001205A1FF6006121F510D80E96A
:011D6400225C
:0E18DC00900009EEF0A3EFF0A3ECF0A3EDF006
:1018EA00A3E4F0A304F0E4FBEBFFD390000CE09F29
:1018FA007480F890000BE0648098401E90000DE020
:10190A00FEA3E0FF900009E0FCA3E0FD1205E090D1
:10191A00000DEEF0A3EFF00B80CE90000DE0FEA3D9
:02192A00E0FFDC
:01192C002298
:08197C00900006EAF0A3EBF075
:10198400121DA5A3E0FAEAFF7E00D39400748094AC
:1019940080402FEF24FFFDEE34FFFC7F0A1218DC99
:1019A400900006E0FCA3E0FDCFCDCFCECCCE120557
:1019B400F27C007D0A1205F2ED2430FF121F511A49
:0219C40080C4DD
:0119C60022FE
:1012E3006034006D404EB85240551EB84076666675
:1012F30040800000409851EC40A0000040C800002E
:1013030040D570A4411170A44120000041855C299F
:1013130041A0000042C800004D00603F1F2F0F3E58
:081323001E2E0E2606220220F8
:101B0100EF25E025E0246DF582E43400F58322120F
:101B11000677A804A905AA06AB0702011E900002D8
:101B2100E0FFC394077480948022F582E43400F5C9
:041B310083E0FF222C
:0D1EDA007F327E00121E90121F61021F88D1
:0613F2009000021206A8A3
:1013F80090000E1206CD4479C000E4900012F0FF70
:10140800FEFDFC9000021206901202C470087FC014
:10141800121C187F0022900006121B109000021266
:10142800069012022790000A1206A8E4900013F012
:10143800900013E0FFC3940D748094805045121BF4
:101448000112067790000A120690120029121EE770
:101458009000141206A890000E120677900014123D
:1014680006901202C4501490001412067790000ED1
:101478001206A8900013E0900012F0900013E00408
:10148800F080AD900012E02460121B2B121C189003
:041498000012E0FF5F
:01149C00222D
:101B6400900002EFF0121B02120677E4FBFAF9F878
:101B74001202C47005FFFEFDFC22900003121B102C
:0E1B8400900002E0121B0212069012022722AD
:091F400074602F121B2B021C1807
:061F6900121B01020677C5
:051F8800E4FF021C183B
:081F5900ED24FF9200021A9230
:101ACC00E4900002F0F0121B1E50077D01121AF078
:101ADC0080F4E4900002F0121B1E5007E4FD121A71
:031AEC00F080F493
:101AEF0022121F597F327E00121E90900002E004D6
:021AFF00F022D3
:04132B004100A9FFD5
:0B1F22007899E6C39408748094802234
:0A1F1700789676647896E61670FA64
:011F2100229D
:051F8D00D294D2932262
:0F1EB000D294D293121F17C294121F17C29322FB
:0C1F0000C294D293121F17D294021F1734
:101D6500E47899F6121F225017EF339294EF25E08D
:101D7500FFD293121F17C293121F1778990680E49A
:011D8500223B
:101C8C00E4FFD2947899F6121F225019EF25E0FF49
:101C9C00D293121F17A294E4334FFFC293121F1753
:051CAC0078990680E2BA
:011CB1002210
:101E2C00D294121F17D293121F17A2949201C2932D
:051E3C00121F17A201B6
:011E4100227E
:101E7F00A21A9294121F17D293121F17C293021F06
:011E8F00173B
:081F6100121F8D7FFF021C1806
:101CFB00121EB07F41121D65121E2C50069000A9BA
:101D0B00E0FF22121C8CD21A121E7F121F009000B1
:031D1B00A9EFF03D
:011D1E0022A2
:101C1800AE07121EB07F40121D65121E2C500280A6
:101C28000AAF06121D65121E2C5003021F00121F58
:071C3800009000A9EEF0226C
:101A92009000A9E0FEFDEFD3940774809480502952
:101AA20030000FA8077401088002C333D8FC4DFD33
:101AB200800EA8077401088002C333D8FCF45DFDD0
:091AC200ED6E6005AF05121C1861
:011ACB0022F8
:101DDF00AE07EED3940774809480400122121CFB4F
:0C1DEF00A806EF088002C313D8FC1322E2
:100026000203C1E86480F8E933E83360110460F044
:10003600ED33EC337009E8FCE9FDEAFEEBFF220440
:1000460060DED3EB9FEA9EE99DE8C2E78CF0C2F73B
:1000560095F0400CE8CCF8E9CDF9EACEFAEBCFFB07
:1000660012038C85D0F05804700320D5B3E80470D1
:10007600075002B2D50203CB92D5EC0460F7E4CC6C
:10008600C0E0C398F8603B94186008400DD0E0FBD0
:100096000203A3E4FBFAC9FC8028E830E406E4C9BD
:1000A600FBE4CAFCE830E305E4C9CACBFCE8540724
:1000B6006010F8C3E913F9EA13FAEB13FBEC13FC2F
:1000C600D8F130F52FC3E49CFCEF9BFFEE9AFEEDD2
:1000D60099FDD0E0FBEF4E4D4C701222DB0302037C
:1000E600C8EC2CFCEF33FFEE33FEED33FDED30E7CD
:1000F600EB0203A3EF2BFFEE3AFEED39FDD0E0FB5A
:1001060050130BBB00030203CBED13FDEE13FEEF02
:0801160013FFEC13FC0203A32C
:10011E00EC4D6011E8497017ED33EC3304600DE4DB
:10012E00FCFFFEFD22E933E8330470F80203C1122E
:10013E00038C58046009E4CC24815006285009022F
:10014E0003CB2840030203C8C0E0EB4A7044B980D9
:10015E0006D0E0FB0203B7EF4E701CBD8008EBFF2C
:10016E00EAFEE9FD80EBE98DF0A4FEE5F002020760
:10017E00E9CDF9EAFEEBFFEF89F0A4FCE5F0CE89BC
:10018E00F0A42EFFE435F0CD89F0A42DFEE435F079
:10019E008067EF4E7005BD80D780C3EF8BF0A4ACA7
:1001AE00F0EE8BF0A42CFCE435F0F8EF8AF0A42CE2
:1001BE00E5F038FCE433CB8DF0A42CFCE5F03BF8F5
:1001CE00EE8AF0A42CFCE5F038F8E433CF89F0A4E5
:1001DE002CFCE5F038CF3400CE89F0A42FFFE5F0EB
:1001EE003EFEE433C98DF0A42EFEE5F039CD8AF043
:1001FE00A42FFFE5F03EFEE43DFD33D0E0FB5007BB
:10020E000BBB000F0203CBEC2CFCEF33FFEE33FEE7
:06021E00ED33FD0203A315
:100224000203CBEC5D046005E8590470030203C1CA
:1002340012038C580460F6EC4860F2EC7004FDFE86
:10024400FF22C860DB2481C85009C39860025006AD
:100254000203C89850CAF582E9294B4A7005AB825B
:100264000203B775F0007C1A7880C3EF9BEE9AED19
:1002740099400DC3EF9BFFEE9AFEED99FDE842F025
:10028400DC23ACF0D0E0FFD0E0FED0E0FDAB822078
:10029400E7101BEB60BAEC2CFCEF33FFEE33FEED02
:1002A40033FD0203A3E803F830E705C0F075F0005E
:1002B400EF2FFFEE33FEED33FD40B830E7C280AAE6
:1002C40074F8CC6480CCC86480C8F58204604FC3E1
:1002D400EB9FF5F0EA9E42F0E99D42F0E89C45F080
:1002E400603C501DE5825FFFE582D313CB5BCBF40A
:1002F4002B5582FB50280ABA002409B90020088033
:100304001DE5825BFBE582D313CF5FCFF4C3132FCC
:100314005582FF50090EBE00050DBD00010CC3EB54
:100324009FF5F0EA9E42F0E99D42F0E89C45F060BA
:0903340007CC4820E701B3EC22DC
:10033D00ED33EC33600A047003BD8004ECB2E7FCCE
:01034D00228D
:10034E0075F020800E75F010800575F0087D007E2A
:10035E00007F003392D530D50312065DEC3340108A
:10036E00EF33FFEE33FEED33FDEC33FCD5F0ED2233
:0E037E00E5F0247EA2D513CC92E7CDCEFF226F
:100BDD00E5082433F582E43400F583E0050822901E
:100BED000030300903900033E475F001120707025D
:100BFD0005882002E97F2ED2028018EF540F249031
:100C0D00D43440D4FF30060BEF24BFB41A00500388
:100C1D002461FFE50960021509050CE50C7002055C
:100C2D000B30090E900030E475F001120707EF024A
:100C3D0005CE021C3F7403D2098003E4C209F508F6
:100C4D0090003012071EE4F509F50BF50CE509606F
:100C5D00077F20120C2080F5750AFFC203C202C265
:100C6D0004C205C207C208C20A120BECFF700D3098
:100C7D0009057F00120C31AF0CAE0B22B4255FC2FB
:100C8D00D5C206120BECFF24D0B40A00501A75F031
:100C9D000A780930D50508B6FF0106C6A426F62048
:100CAD00D5047002D20580D924CFB41A00EF5004B8
:100CBD00C2E5D206020F23D20380C6D20280C0D273
:100CCD000480BCD2D580BAD20780B47F20120C200C
:100CDD002004077401B5090040F1120BDDFF120C61
:100CED0020020C5AD20AD2088095120BDDFB120B92
:100CFD00DDFA120BDDF94A4B700679217A107BFF74
:100D0D0020042EE509602A7E008E8275830012056F
:100D1D00A160060EEE650A70F0C2D5EBC0E0EAC028
:100D2D00E0E9C0E0EE120F84D0E0F9D0E0FAD0E0B7
:100D3D00FB120588FF60AAEBC0E0EAC0E0E9C0E065
:100D4D00120C20D0E02401F9D0E03400FAD0E0FB01
:100D5D00E50A0460DCD50AD98087D20480A2120F7F
:100D6D006660F7E50A7001041203D6A90A600DE565
:100D7D000A600914F50A12100EEF60F3EA30E7026B
:100D8D00F404C3995079EAF4250A0430E701E40428
:100D9D00F50A800D120F6660C1EA050A250A1203D5
:100DAD00D6EA90005FF030E701E4250A04D50A0485
:100DBD0020070114120F84E4C0E012100E90005FA2
:100DCD00E0601320E70714F0120C08802204F0D025
:100DDD00E014C0E07F00120C08E50A6007120BFF5B
:100DED00150A800B300703120BFFD0E0020C5AD00E
:100DFD00E00480C4120F66609EE50A041203D690CB
:100E0D00005FEAF0E50A2007026001042404120FD6
:010E1D008450
:100E1E0074FF04C0E012100E120C08E50A2007023F
:100E2E006003120BFFD0E0B50AE87F45120C12905A
:100E3E00005FE07F2B30E7047F2DF404C0E0120C3E
:100E4E0020D0E075F00A84C0F0120C09D0E0120C2C
:100E5E0009020C5A791080027908C208C20A800869
:100E6E00D2D5790A8004790AC2D5E50A047002F552
:100E7E000AE4FAFDFEFF120BDDFC7B0820031312C1
:100E8E000BDDFD7B1030020A120BDDFE120BDDFFB7
:100E9E007B20EC3382D592D55013C3E43002069FEB
:100EAE00FFE49EFEE42003039DFDE49CFCE4CBF8EE
:100EBE00C203EC700CCFCECDCCE824F8F870F380E2
:100ECE0017C3EF33FFEE33FEED33FDEC33FCEB33A4
:100EDE00FB994002FB0FD8E9EB300305F8D0E0C4D4
:100EEE0048B203C0E00AEC4D4E4F78207B0070C232
:100EFE00EAB50A0040BCC0E0120F86D0F0D0E02068
:100F0E000304C4C0E0C4B203C0F0120C09D0F0D583
:100F1E00F0EB020C5A1207270CF7530E62580CC84E
:100F2E004C0CC4420E664F0E6E440E6E490CDD43E1
:100F3E000E74550DA1460E01450D6B471041500C18
:100F4E00CC2D0CD02E0CF32B0CD4230CF120102A0C
:100F5E002A0C8C4800000CEBE50AB4FF03750A0658
:100F6E00120BDDFC120BDDFD120BDDFE120BDDFF95
:100F7E00900058020413790AA2D5200514300709EF
:100F8E00B910020404B9080104A2D52008025001C8
:100F9E00042004689204B509005034C0E07F20306C
:100FAE0005197F30A20472087207500F120FDDC2AE
:100FBE0004C208C207C20A7F30800F300703E9C09F
:100FCE00E0120C20300703D0E0F9D0E0B509CC30A8
:100FDE0007177F30B9100C120C207F583006077F90
:100FEE00788003B90803120C203004057F2D020C03
:100FFE00207F20200AF87F2B2008F322920480CF36
:10100E007F00B40700500B2458F582E43400F583BA
:10101E00E0FF22286E756C6C2900D203120BDD30B6
:10102E0003F8C203780930D50108F6020C8C2D5056
:10103E00434958120BDD2403B405004001E490101F
:10104E003C93120C11743A120C11D205750904025C
:02105E000E6220
:0D1EE700ED33EC3360065004EC6480FC2207
:10038C00E9D2E7C933E833F892D5EDD2E7CD33ECB7
:07039C0033FC5002B2D52230
:1003A300EC30E7100FBF000C0EBE00080DBD0004BB
:1003B3000BEB6014A2D5EB13FCED92E7FD2274FF67
:1003C300FCFDFEFF22E480F8A2D574FF13FC7D80C0
:0303D300E480EFD4
:1003D600F920E73624F950037907E4F42402FBE513
:1003E60082158270021583DBF6E024FB501BE96060
:1003F60014E4F0E582158270021583E004F0B40A75
:0D04060008E4F0D9EE7401F00A22C2D522FC
:10041300ED33EC3392D5FA602AB4FF33EDC2E77BB8
:10042300FF60067A047938E4227A04794120D504FE
:100433007A04793C224E614E002B494E46002D49E9
:100443004E4600E47A08F0A3DAFC7B00740722C06E
:1004530083C082ECC0E0EDC0E0EEC0E0EFC0E0EAB4
:1004630075F010A4CAABF075F04DA42BFBE435F086
:10047300FCEA2410FAEB34C5FBEC34D9FCEDC2E7FB
:10048300FF75F056A4F42411C5F0F434C58FF0A41D
:100493002AE5F03BE43CF020E714120548D0E0FFE6
:1004A300D0E0FED0E0FDD0E0FC1202278014F4047B
:1004B300120548D0E0FFD0E0FED0E0FDD0E0FC1212
:1004C300011ED082D083E0FAEDD2E7CD33EC3324A2
:1004D30082FBE4C3CF33CFCE33CECD33CD33DBF387
:1004E3007B0775F00A846004F0A31B0AE5F0F0A310
:1004F3008FF0740AA4FFACF08EF0740AA42CFEAC47
:10050300F050010C8DF0740AA42CFDE435F0F0A337
:05051300DBDE7407228D
:100518003F8000004120000042C80000447A0000EB
:10052800461C400047C35000497424004B1896806D
:100538004CBEBC205A0E1BCA6753C21C749DC5AE64
:10054800FB60065407601C2323120576EB543860C1
:100558000912056212057112011EECF8EDF9EEFAA6
:10056800EFCB22EB12057180F1543803241C90055F
:1005780018FE93FC0EEE93FD0EEE930ECE93FF2223
:0300000002166283
:0C166200787FE4F6D8FD7581990216A986
:10058800BB010689828A83E0225002E722BBFE0271
:09059800E32289828A83E49322A4
:1005A100BB010CE58229F582E5833AF583E022500F
:1005B10006E92582F8E622BBFE06E92582F8E22259
:0D05C100E58229F582E5833AF583E4932273
:1005CE00BB010689828A83F0225002F722BBFE010C
:0205DE00F32206
:1005E000EF8DF0A4A8F0CF8CF0A428CE8DF0A42E2F
:0205F000FE22E9
:1005F200BC000BBE0029EF8DF084FFADF022E4CCED
:10060200F875F008EF2FFFEE33FEEC33FCEE9DECB5
:10061200984005FCEE9DFE0FD5F0E9E4CEFD22EDFB
:10062200F8F5F0EE8420D21CFEADF075F008EF2F45
:10063200FFED33FD4007985006D5F0F222C398FD36
:050642000FD5F0EA22D3
:10064700C5F0F8A3E028F0C5F0F8E582158270023E
:060657001583E038F022DB
:0E065D00C3E49FFFE49EFEE49DFDE49CFC22AE
:0C066B00E6FC08E6FD08E6FE08E6FF22BB
:0C067700E0FCA3E0FDA3E0FEA3E0FF22F6
:0D068300E6FB08E6F908E6FA08E6CBF822E7
:0C069000E0F8A3E0F9A3E0FAA3E0FB22ED
:0C069C00ECF608EDF608EEF608EFF6228A
:0C06A800ECF0A3EDF0A3EEF0A3EFF022C5
:1006B400D083D082E493F608740193F6087402930D
:0906C400F608740393F674047344
:1006CD00A8828583F0D083D0821206E41206E4124C
:1006DD0006E41206E4E473E493A3C583C5F0C58371
:1006ED00C8C582C8F0A3C583C5F0C583C8C582C877
:0106FD0022DA
:0906FE00E0FBA3E0FAA3E0F922FD
:10070700F8E0FBA3A3E0F925F0F0E582158270027B
:070717001583E0FA38F0221F
:09071E00EBF0A3EAF0A3E9F022DC
:10072700D083D082F8E4937012740193700DA3A361
:1007370093F8740193F5828883E473740293686075
:06074700EFA3A3A380DF75
:101C3F00EFB40A07740D121C4A740A309811A89950
:101C4F00B8130CC2983098FDA899C298B811F63005
:071C5F0099FDC299F59922DD
:10166E0002074DE493A3F8E493A34003F68001F23E
:10167E0008DFF48029E493A3F85407240CC8C3337D
:10168E00C4540F4420C8834004F456800146F6DF4C
:10169E00E4800B010204081020408090126EE47E5C
:1016AE00019360BCA3FF543F30E509541FFEE49341
:1016BE00A360010ECF54C025E060A840B8E493A308
:1016CE00FAE493A3F8E493A3C8C582C8CAC583CA33
:1016DE00F0A3C8C582C8CAC583CADFE9DEE780BEEB
:01132F0000BD
:00000001FF
