:1015E3004100CE000212000002180000021A00009F
:1015F300041C00000000041400000000C117C11601
:100BA10012198512180312164B1218EC1218CD12D5
:100BB10019767F0A120CF21219691213577F061265
:100BC1001304781C120686D20B120006D20B1219DE
:100BD1005A12181D7F06121973AC06AD07E41203F1
:100BE1002AE4FBFA79A07840120106E4FBFA798045
:100BF100784412020F7B007A8C790778471201063C
:100C01007B007AE07992784512020F781C120686F1
:100C110012197940147F147E001218BD12197950EF
:100C2100FBB216E47818F608F6201603020CB2D2CD
:100C31000B12195F9000CEE0FF121941781C1206C9
:100C41004290003D1206929000CEE0FF121494787B
:100C510014120686C37813E6946418E6940040479C
:100C6100781412064290003E120692781C12064237
:100C7100900042120692781AE6FE08E6FF120E9ADA
:100C8100D3781BE6940018E69400401508E6161880
:100C9100700116781BE618467007781876010876F9
:100CA1002CE47812F608F6781306E618701606801A
:100CB10013C20B12195F121969E47812F608F6785B
:100CC10018F608F6D37819E6940018E69400400F58
:100CD1007FC81213F77819E616187008168005E414
:100CE100FF1213F71217AE7F0A7E001218BD020B16
:010CF100D52D
:100F4400300C02B217301735200B15C3781BE6940A
:100F54002018E6941C501C0806E618701606801328
:100F6400D3781BE6940018E69400400708E61618A8
:100F7400700116781AE6FE08E6FF021446E4FF1232
:100F84001304781C120686200B129000CEE0C39442
:100F94000C748094805015E004F080109000CEE032
:100FA400D39400748094804003E014F0781C1206FB
:100FB4004290003D1206929000CEE0FF1214947805
:100FC400141206869000CEE0FF12188A9000401298
:100FD4000692781C1206429000441206927814126B
:060FE40006421211F12289
:10135700E490003CF0F090003CE0FFC394077480F9
:10136700948050147D0112194A7FF47E011218BD32
:1013770090003CE004F080DEE490003CF090003CFC
:10138700E0FFC39407748094805014E4FD12194A57
:0F1397007FF47E011218BD90003CE004F080DE70
:0113A6002224
:10167800EF1FAC0670011E4C601C9000CA7402F08B
:10168800A374EFF09000CBE014F070F89000CAE07B
:0716980014F070F080DA226B
:0F18DD009000CA7402F09000CAE014F070F82274
:1017CB00009000CA7402F0A374C7F09000CBE01431
:0C17DB00F070F89000CAE014F070F022EA
:1018BD00EF1FAC0670011E4C60051217CB80F12294
:1018CD00438901758CFC758A66D2A9D2AFD28C2260
:041603004100BF0AD9
:0D187800EE4F24FF92EDD2EC121885C2EC69
:0518850000000000223C
:100CF2009000BFEFF0C2ECC2EDD2EED2E9D2A7640F
:100D02000A706AC2EE9000C2F09000C2E0C394047E
:100D1200748094805008121885E004F080EBE4900F
:100D220000C2F09000C2E0FF7E00C3940A74809477
:100D3200805033C3EF940474809480501AC37403B8
:100D42009FFFE4A807088006CEA2E713CE13D8F8C7
:100D52007E005401FF80047E007F0012187890000C
:100D6200C2E004F080BDD2EE20A76B80FBC2EEE4AD
:100D72009000C2F09000C2E0C3940474809480504A
:100D820008121885E004F080EBE49000C2F09000B5
:100D9200C2E0FF7E00C3940C748094805033C3EF92
:100DA200940474809480501AC374039FFFE4A807CC
:100DB200088006CEA2E713CE13D8F87E005401FFB6
:100DC20080047E007F001218789000C2E004F08058
:070DD200BDD2EE30A7FD22A7
:10110100AD07E49000C0F0A3F0C2EEA3F09000C2DE
:10111100E0C39404748094805008121885E004F0B0
:1011210080EBE49000C2F09000BFE0FF9000C2E0CD
:10113100FEC39F5041EEC39404748094805015E027
:10114100FFC374039FFFF8ED088002C313D8FC139B
:1011510092ED8002C2ED12187E9000C1E025E0F010
:101161009000C0E033F030E905A3E04401F09000C5
:10117100C2E004F080B1D2EE30A7FD9000C0E0FEE5
:04118100A3E0FF22C6
:031973000211015D
:101304001219739000C0EEF0A3EFF09000BFE064F8
:101314000A701EA3E0FCA3E0FDE412032AE4FBFA36
:1013240079A078401201067B007AC0797F784480E6
:101334001E9000C0E0FCA3E0FDE412032AE4FBFAE3
:1013440079A078401201067B007AF0797F78451203
:03135400020F2263
:1012AF001219739000C0EEF0A3EFF09000BFE0644E
:1012BF000A701FA3E0FCA3E0FDE412032A7B007A6F
:1012CF0040799C78451201067B007AC0797F78447B
:1012DF00801F9000C0E0FCA3E0FDE412032A7B0016
:1012EF007A40799C78451201067B007AF0797F78F5
:0512FF004512020F2260
:101564009000AD120692E4FFFEFDFC9000B112065D
:101574006A1202AC60144012E4FFFE7D807C3F904E
:1015840000B112066A1202AC4006E4FFFEFDFC2222
:101594009000B112066A9000AD12064E12020F229C
:03197600D2EA2290
:03197900A2EA22BD
:101607004200B800004200B500004100B700C11910
:03000B000211855A
:10118500C0E0C0F0C083C082C0D075D000C000C030
:1011950006C007758CFC758A66201904C2B6803BAB
:1011A5009000B5E475F00112061E9000B8E0FEA3AC
:1011B500E0FFC39000B6E09F9000B5E09E4004E4D8
:1011C500F0A3F09000B7E0FFC39000B6E09F900059
:1011D500B5E0940050028001C392B6D007D006D086
:0C11E50000D0D0D082D083D0F0D0E03217
:10185000EFD394647480948040047F64800090008F
:04186000B7EFF022CC
:1013F700AE07EE700BC2199000B8F0A3F0C2B62288
:10140700D2197F32121850AF0674FA8FF084FF7E1C
:10141700009000B8EEF0A3EFF0C39401EE940050F3
:10142700089000B8E4F0A304F0D39000B9E094C8A2
:0F1437009000B8E094004006E4F0A374C8F022DF
:05000600A20B92A522EF
:05195A00A20B92A42283
:05195F00A20B92B4226E
:05196400A21892B5225B
:0F18EC00D2B2D292D2EBD288D2A8C2AAD2AF2265
:03197C00C2A822DC
:03197F00D2A822C9
:030003000213A73E
:1013A700C0E0C0F0C083C082C0D075D000C000C00C
:1013B70001C002C003C004C005C006C00712197CE3
:1013C700209204C21A8002D21AA21A920BC20C12DD
:1013D7000F4412197FD007D006D005D004D003D010
:1013E70002D001D000D0D0D082D083D0F0D0E0326C
:1017AE0020EB187F147E001218BD20EB0E30EBFDDF
:0D17BE00A21A920BD20C120F44D322C322A8
:03198200A21A2284
:1010760046616B654C6F616420426F6F7400496E08
:10108600697469616C697A696E672E2E2E00506FDD
:101096007765723A20252E32665700523A252E324F
:1010A600664F686D20563A252E31660054696D6587
:1010B600723A253032753A25303275002530327550
:1010C6003A253032752052756E6E696E6700456638
:1010D6003A252E31665700563A252E326600537948
:1010E6007374656D2049646C65005365742054699A
:0B10F6006D6572004572726F723A0067
:03198500021864E1
:101803007BFF7A1079767D017F0112161C7BFF7AAC
:0A1813001079847D017F0202161C8B
:1011F100E47824F67BFF7A10799490006A1206EF66
:1012010090006D1206927B007A0079241207837B8D
:10121100007A0079247D017F0112161C7BFF7A1070
:1012210079A190006A1206EF90004012064E9000DC
:101231006D12069290004412064E900071120692B1
:101241007B007A0079241207837B007A0079247D60
:06125100017F0202161CE1
:04144600AB07AA0640
:10144A007C007D3C1205C990003CEFF0AE02AF0370
:10145A007C007D3C1205C9AF05E47824F67BFF7A4F
:10146A001079B290006A1206EF90003CE090006D8D
:10147A00F0A3EFF07B007A0079241207837B007ACD
:0A148A000079247D017F0202161C88
:040E9A00AB07AA06F2
:100E9E007C007D3C1205C9900046EFF0AE02AF0318
:100EAE007C007D3C1205C9AF05E47824F67BFF7A01
:100EBE001079C290006A1206EF900046E090006D25
:100ECE00F0A3EFF07B007A0079241207837BFF7A80
:100EDE001079D490006A1206EF90003E12064E90E2
:100EEE00006D1206927B017A0079471207837B010F
:100EFE007A0079477D017F0112161C7BFF7A1079EB
:100F0E00DD90006A1206EF90004212064E90006DC0
:100F1E001206927B017A0079571207837B017A00C1
:100F2E0079577D087F0112161C7B007A0079247D8B
:060F3E00017F0202161CF7
:10181D007BFF7A1079E47D017F0112161C7BFF7A24
:0A182D001079F07D017F0202161C05
:101751009000C71206EF7BFF7A1079FA7D017F01B5
:1017610012161C9000C71206CF7D017F0202161CC3
:06170F00C2968F80D29704
:101715009000CC7402F0A374EFF09000CDE014F0CB
:0B17250070F89000CCE014F070F0228F
:0A192300C29512170FC297021715A4
:0A192D00D29512170FC2970217158A
:10179000AE07EEFB7A0064017004ED148009EB647F
:0E17A000024A7009ED243F4480FF12192322F3
:101864007F381219237F0C1219237F061219237F44
:041874000102192331
:0A193700AC03121790AF0402192D43
:10161C009000671206EF121790E49000CCF0900047
:10162C00671206CF9000CCE0F58275830012057826
:0F163C00FF600B12192D9000CCE004F080E0222B
:0E14E1009000C3EEF0A3EFF0A3ECF0A3EDF04B
:1014EF007F017E00E49000CCF09000CCE0FDD39023
:1014FF0000C6E09D7480F89000C5E06480984013AA
:10150F009000C3E0FCA3E0FD1205B79000CCE0040F
:03151F00F080D683
:0115220022A6
:101257009000BCEAF0A3EBF01217909000BEE0906C
:1012670000CCF09000CCE0FF7E00D3940074809413
:10127700804034EF24FFFDEE34FFFC7F0A1214E1B7
:101287009000BCE0FCA3E0FDCFCDCFCECCCE1205C5
:10129700C97C007D0A1205C9ED2430FF12192D9073
:0812A70000CCE014F080BC2231
:10152300404EB85240551EB8407666664080000073
:10153300409851EC40A0000040C8000040D570A482
:10154300411170A44120000041855C2941A00000A5
:1015530042C80000C0E0C2E2C1E1C3E3C7E7CFEF86
:01156300DFA8
:10164B00121952C20BE4FF1215A4C20B7F01121523
:10165B00A4C20B7F021215A4C20B7F031215A4C2E6
:0D166B000B7F041215A4C20B7F050215A40D
:060DD90090009712069243
:100DDF009000A312069E4479C000E49000A7F0FF94
:100DEF00FEFDFC90009712066A1202AC70087FC0DD
:100DFF001217717F002290009B12064EA804A905BE
:100E0F00AA06AB0712010690009712066A12020F8C
:100E1F0090009F120692E49000A8F09000A8E0FFC7
:100E2F00C3940D748094805050EF25E025E0242367
:100E3F00F582E43415F58312065A90009F12066A64
:100E4F0012001112190A9000A91206929000A31213
:100E5F00064E9000A912066A1202AC50149000A917
:100E6F0012064E9000A31206929000A8E09000A7E1
:100E7F00F09000A8E004F080A29000A7E090155732
:0A0E8F0093FF1217719000A7E0FF17
:010E99002236
:1014940090003CEFF025E025E02423F582E43415A8
:1014A400F58312065AE4FBFAF9F81202AC7005FF50
:1014B400FEFDFC2290003D12064EA804A905AA06D2
:1014C400AB0712010690003CE025E025E02423F55B
:0D14D40082E43415F58312067612020F2211
:09194100EF90155793FF02177196
:10188A00EF25E025E02423F582E43415F5830206EA
:01189A005AF3
:05196900E4FF0217710C
:08194A00ED24FF920B0215A42D
:041617004100CFFFC0
:06189B00EF25E0FFD2A0E2
:0B18A100783476647834E61670FA2282
:05196E00D2A1D2A0226D
:0F18FB00D2A1D2A01218A1C2A11218A1C2A0227C
:0C191700C2A1D2A01218A1D2A10218A1F6
:1016ED00E47834F67834E6C394087480948050110D
:1016FD00EF3392A112189BC2A01218A17834068064
:02170D00E322D5
:10169F00E4FFD2A17834F67834E6C39408748094CA
:1016AF0080501312189BA2A1E4334FFFC2A012184F
:0616BF00A178340680E171
:0116C5002202
:031837001216ED99
:10183A00D2A11218A1D2A01218A1A2A1920CC2A0E0
:05184A001218A1A20C20
:01184F002276
:1018AC00A21B92A11218A1D2A01218A1C2A00218B8
:0118BC00A18A
:0819520012196E7FFF021771EC
:101730001218FB7F4112183750069000CFE0FF22AD
:1017400012169FD21B1218AC1219179000CFEFF08F
:011750002276
:10177100AE071218FB7F401218374012AF0612163F
:0F178100ED12183A40081219179000CFEEF0221F
:1015A400EFD39407748094805034300B139000CFA1
:1015B400E0FEA8077401088002C333D8FC4E8012F1
:1015C4009000CFE0FEA8077401088002C333D8FC62
:0F15D400F45E9000CFF09000CFE0FF121771226D
:1017E700AE07EED39407748094804001221217301D
:0C17F700A806EF088002C313D8FC1322E0
:10000E00020398E86480F8E933E83360110460F085
:10001E00ED33EC337009E8FCE9FDEAFEEBFF220458
:10002E0060DED3EB9FEA9EE99DE8C2E78CF0C2F753
:10003E0095F0400CE8CCF8E9CDF9EACEFAEBCFFB1F
:10004E0012036385D0F05804700320D5B3E8047012
:10005E00075002B2D50203A292D5EC0460F7E4CCAD
:10006E00C0E0C398F8603B94186008400DD0E0FBE8
:10007E0002037AE4FBFAC9FC8028E830E406E4C9FE
:10008E00FBE4CAFCE830E305E4C9CACBFCE854073C
:10009E006010F8C3E913F9EA13FAEB13FBEC13FC47
:1000AE00D8F130F52FC3E49CFCEF9BFFEE9AFEEDEA
:1000BE0099FDD0E0FBEF4E4D4C701222DB03020394
:1000CE009FEC2CFCEF33FFEE33FEED33FDED30E70E
:1000DE00EB02037AEF2BFFEE3AFEED39FDD0E0FB9B
:1000EE0050130BBB00030203A2ED13FDEE13FEEF44
:0800FE0013FFEC13FC02037A6E
:10010600EC4D6011E8497017ED33EC3304600DE4F3
:10011600FCFFFEFD22E933E8330470F8020398126F
:10012600036358046009E4CC248150062850090270
:1001360003A228400302039FC0E0EB4A7044B98043
:1001460006D0E0FB02038EEF4E701CBD8008EBFF6D
:10015600EAFEE9FD80EBE98DF0A4FEE5F00201EF91
:10016600E9CDF9EAFEEBFFEF89F0A4FCE5F0CE89D4
:10017600F0A42EFFE435F0CD89F0A42DFEE435F091
:100186008067EF4E7005BD80D780C3EF8BF0A4ACBF
:10019600F0EE8BF0A42CFCE435F0F8EF8AF0A42CFA
:1001A600E5F038FCE433CB8DF0A42CFCE5F03BF80D
:1001B600EE8AF0A42CFCE5F038F8E433CF89F0A4FD
:1001C6002CFCE5F038CF3400CE89F0A42FFFE5F003
:1001D6003EFEE433C98DF0A42EFEE5F039CD8AF05B
:1001E600A42FFFE5F03EFEE43DFD33D0E0FB5007D3
:1001F6000BBB000F0203A2EC2CFCEF33FFEE33FE29
:06020600ED33FD02037A56
:10020C000203A2EC5D046005E85904700302039834
:10021C00120363580460F6EC4860F2EC7004FDFEC7
:10022C00FF22C860DB2481C85009C39860025006C5
:10023C0002039F9850CAF582E9294B4A7005AB829C
:10024C0002038E75F0007C1A7880C3EF9BEE9AED5A
:10025C0099400DC3EF9BFFEE9AFEED99FDE842F03D
:10026C00DC23ACF0D0E0FFD0E0FED0E0FDAB822090
:10027C00E7101BEB60BAEC2CFCEF33FFEE33FEED1A
:10028C0033FD02037AE803F830E705C0F075F0009F
:10029C00EF2FFFEE33FEED33FD40B830E7C280AAFE
:1002AC0074F8CC6480CCC86480C8F58204604FC3F9
:1002BC00EB9FF5F0EA9E42F0E99D42F0E89C45F098
:1002CC00603C501DE5825FFFE582D313CB5BCBF422
:1002DC002B5582FB50280ABA002409B9002008804B
:1002EC001DE5825BFBE582D313CF5FCFF4C3132FE5
:1002FC005582FF50090EBE00050DBD00010CC3EB6D
:10030C009FF5F0EA9E42F0E99D42F0E89C45F060D2
:09031C0007CC4820E701B3EC22F4
:1003250075F020800E75F010800575F0087D007E53
:10033500007F003392D530D503120634EC334010DC
:10034500EF33FFEE33FEED33FDEC33FCD5F0ED225C
:0E035500E5F0247EA2D513CC92E7CDCEFF2298
:10071E00E50D246AF582E43400F583E0050D2290A0
:10072E00006730140390006AE475F0011206D802D7
:10073E00055F200DE97F2ED20D8018EF540F249007
:10074E00D43440D4FF30110BEF24BFB41A00500341
:10075E002461FFE50E6002150E0511E5117002050C
:10076E001030140E900067E475F0011206D8EF02F7
:10077E0005A50216C67403D2148003E4C214F50D47
:10078E009000671206EFE4F50EF510F511E50E6018
:10079E00077F2012076180F5750FFFC20EC20DC2D2
:1007AE000FC210C212C213C21512072DFF700D30E8
:1007BE0014057F00120772AF11AE1022B4255FC26E
:1007CE00D5C21112072DFF24D0B40A00501A75F0AD
:1007DE000A780E30D50508B6FF0106C6A426F62007
:1007EE00D5047002D21080D924CFB41A00EF500471
:1007FE00C2E5D211020A64D20E80C6D20D80C0D2DA
:10080E000F80BCD2D580BAD21280B47F201207617D
:10081E00200F077401B50E0040F112071EFF1207DC
:10082E006102079BD215D213809512071EFB120789
:10083E001EFA12071EF94A4B700679627A0B7BFF7D
:10084E00200F2EE50E602A7E008E82758300120523
:10085E007860060EEE650F70F0C2D5EBC0E0EAC010
:10086E00E0E9C0E0EE120AC5D0E0F9D0E0FAD0E03F
:10087E00FB12055FFF60AAEBC0E0EAC0E0E9C0E052
:10088E00120761D0E02401F9D0E03400FAD0E0FB89
:10089E00E50F0460DCD50FD98087D20F80A2120A33
:1008AE00A760F7E50F7001041203ADA90F600DE507
:1008BE000F600914F50F120B4FEF60F3EA30E702E9
:1008CE00F404C3995079EAF4250F0430E701E404E7
:1008DE00F50F800D120AA760C1EA050F250F12034E
:1008EE00ADEA900096F030E701E4250F04D50F0431
:1008FE0020120114120AC5E4C0E0120B4F900096AC
:10090E00E0601320E70714F0120749802204F0D0AC
:10091E00E014C0E07F00120749E50F6007120740A0
:10092E00150F800B301203120740D0E002079BD048
:10093E00E00480C4120AA7609EE50F041203AD9076
:10094E000096EAF0E50F2012026001042404120A58
:01095E00C5D3
:10095F0074FF04C0E0120B4F120749E50F2012027B
:10096F006003120740D0E0B50FE87F4512075390A0
:10097F000096E07F2B30E7047F2DF404C0E01207D0
:10098F0061D0E075F00A84C0F012074AD0E0120778
:10099F004A02079B791080027908C213C21580089A
:1009AF00D2D5790A8004790AC2D5E50F047002F511
:1009BF000FE4FAFDFEFF12071EFC7B08200E131238
:1009CF00071EFD7B10300D0A12071EFE12071EFFB9
:1009DF007B20EC3382D592D55013C3E4300D069FA4
:1009EF00FFE49EFEE4200E039DFDE49CFCE4CBF8A7
:1009FF00C20EEC700CCFCECDCCE824F8F870F3809B
:100A0F0017C3EF33FFEE33FEED33FDEC33FCEB3367
:100A1F00FB994002FB0FD8E9EB300E05F8D0E0C48C
:100A2F0048B20EC0E00AEC4D4E4F78207B0070C2EA
:100A3F00EAB50F0040BCC0E0120AC7D0F0D0E020EA
:100A4F000E04C4C0E0C4B20EC0F012074AD0F0D5F5
:100A5F00F0EB02079B1206F808385309A358080950
:100A6F004C08054209A74F09AF4409AF49081E4377
:100A7F0009B55508E24609424508AC470B825008B4
:100A8F000D2D08112E08342B0815230832200B6B5F
:100A9F002A07CD480000082CE50FB4FF03750F0699
:100AAF0012071EFC12071EFD12071EFE12071EFF65
:100ABF0090008F0203EA790AA2D520101430120990
:100ACF00B910020404B9080104A2D5201302500181
:100ADF0004200F68920FB50E005034C0E07F203015
:100AEF0010197F30A20F72137212500F120B1EC209
:100AFF000FC213C212C2157F30800F301203E9C02C
:100B0F00E0120761301203D0E0F9D0E0B50ECC301F
:100B1F0012177F30B9100C1207617F583011077F01
:100B2F00788003B90803120761300F057F2D020784
:100B3F00617F202015F87F2B2013F322920F80CF97
:100B4F007F00B40700500B248FF582E43400F58347
:100B5F00E0FF22286E756C6C2900D20E12071E3032
:100B6F000EF8C20E780E30D50108F60207CD2D50C3
:100B7F0043495812071E2403B405004001E4900BAB
:100B8F007D93120752743A120752D210750E040257
:020B9F0009A3A8
:0D190A00ED33EC3360065004EC6480FC22E9
:10036300E9D2E7C933E833F892D5EDD2E7CD33ECE0
:0703730033FC5002B2D52259
:10037A00EC30E7100FBF000C0EBE00080DBD0004E4
:10038A000BEB6014A2D5EB13FCED92E7FD2274FF90
:10039A00FCFDFEFF22E480F8A2D574FF13FC7D80E9
:0303AA00E480EFFD
:1003AD00F920E73624F950037907E4F42402FBE53C
:1003BD0082158270021583DBF6E024FB501BE96089
:1003CD0014E4F0E582158270021583E004F0B40A9E
:0D03DD0008E4F0D9EE7401F00A22C2D52226
:1003EA00ED33EC3392D5FA602AB4FF33EDC2E77BE2
:1003FA00FF60067A04790FE4227A04791820D5047A
:10040A007A047913224E614E002B494E46002D493B
:10041A004E4600E47A08F0A3DAFC7B00740722C097
:10042A0083C082ECC0E0EDC0E0EEC0E0EFC0E0EADD
:10043A0075F010A4CAABF075F04DA42BFBE435F0AF
:10044A00FCEA2410FAEB34C5FBEC34D9FCEDC2E724
:10045A00FF75F056A4F42411C5F0F434C58FF0A446
:10046A002AE5F03BE43CF020E71412051FD0E0FF38
:10047A00D0E0FED0E0FDD0E0FC12020F8014F404BC
:10048A0012051FD0E0FFD0E0FED0E0FDD0E0FC1264
:10049A000106D082D083E0FAEDD2E7CD33EC3324E3
:1004AA0082FBE4C3CF33CFCE33CECD33CD33DBF3B0
:1004BA007B0775F00A846004F0A31B0AE5F0F0A339
:1004CA008FF0740AA4FFACF08EF0740AA42CFEAC70
:1004DA00F050010C8DF0740AA42CFDE435F0F0A361
:0504EA00DBDE740722B7
:1004EF003F8000004120000042C80000447A000015
:1004FF00461C400047C35000497424004B18968097
:10050F004CBEBC205A0E1BCA6753C21C749DC5AE8D
:10051F00FB60065407601C232312054DEB54386013
:10052F0009120539120548120106ECF8EDF9EEFA39
:10053F00EFCB22EB12054880F1543803241C9004B2
:10054F00EFFE93FC0EEE93FD0EEE930ECE93FF2275
:03000000020FEA02
:0C0FEA00787FE4F6D8FD758134021031E8
:10055F00BB010689828A83E0225002E722BBFE029A
:09056F00E32289828A83E49322CD
:10057800BB010CE58229F582E5833AF583E0225038
:1005880006E92582F8E622BBFE06E92582F8E22282
:0D059800E58229F582E5833AF583E493229C
:1005A500BB010689828A83F0225002F722BBFE0135
:0205B500F3222F
:1005B700EF8DF0A4A8F0CF8CF0A428CE8DF0A42E58
:0205C700FE2212
:1005C900BC000BBE0029EF8DF084FFADF022E4CC16
:1005D900F875F008EF2FFFEE33FEEC33FCEE9DECDF
:1005E900984005FCEE9DFE0FD5F0E9E4CEFD22ED25
:1005F900F8F5F0EE8420D21CFEADF075F008EF2F6F
:10060900FFED33FD4007985006D5F0F222C398FD5F
:050619000FD5F0EA22FC
:10061E00C5F0F8A3E028F0C5F0F8E5821582700267
:06062E001583E038F02204
:0E063400C3E49FFFE49EFEE49DFDE49CFC22D7
:0C064200E6FC08E6FD08E6FE08E6FF22E4
:0C064E00E0FCA3E0FDA3E0FEA3E0FF221F
:10065A00E493FC740193FD740293FE740393FF22E6
:0C066A00E0F8A3E0F9A3E0FAA3E0FB2213
:10067600E493F8740193F9740293FA740393FB22DA
:0C068600ECF608EDF608EEF608EFF622A0
:0C069200ECF0A3EDF0A3EEF0A3EFF022DB
:10069E00A8828583F0D083D0821206B51206B512D9
:1006AE0006B51206B5E473E493A3C583C5F0C583FE
:1006BE00C8C582C8F0A3C583C5F0C583C8C582C8A6
:0106CE002209
:0906CF00E0FBA3E0FAA3E0F9222C
:1006D800F8E0FBA3A3E0F925F0F0E58215827002AB
:0706E8001583E0FA38F0224F
:0906EF00EBF0A3EAF0A3E9F0220C
:1006F800D083D082F8E4937012740193700DA3A391
:1007080093F8740193F5828883E4737402936860A4
:06071800EFA3A3A380DFA4
:1016C600EFB40A07740D1216D1740A309811A8994E
:1016D600B8130CC2983098FDA899C298B811F63084
:0716E60099FDC299F599225C
:100FF600020BA1E493A3F8E493A34003F68001F265
:1010060008DFF48029E493A3F85407240CC8C333FB
:10101600C4540F4420C8834004F456800146F6DFCA
:10102600E4800B01020408102040809015E3E47E62
:10103600019360BCA3FF543F30E509541FFEE493BF
:10104600A360010ECF54C025E060A840B8E493A386
:10105600FAE493A3F8E493A3C8C582C8CAC583CAB1
:10106600F0A3C8C582C8CAC583CADFE9DEE780BE69
:01161B0000CE
:00000001FF
