:100FC4005B44454255475D2053797374656D2042F7
:100FD4006F6F74696E672E2E2E0D0A005B444542B6
:100FE40055475D20446973706C617920696E69743A
:100FF40069616C697A65640D0A005B444542554732
:101004005D2046616B654C6F616420696E6974692B
:10101400616C697A65640D0A005B44454255475D1D
:10102400204543313120656E636F64657220696EBB
:10103400697469616C697A65640D0A005B444542B0
:1010440055475D2053544D33322041444320486575
:101054006C70657220696E697469616C697A656423
:101064000D0A005B44454255475D20456E636F643D
:10107400657220696E7420636F756E743A20002562
:1010840064000D0A005B44454255475D20416C6C89
:101094002073797374656D7320696E697469616C0A
:1010A400697A65640D0A00563D252E32660D0A00E4
:1010B4005B44454255475D2053746F707065640D01
:1010C4000A005B44454255475D2053746172746560
:1010D400640D0A005B44454255475D2054696D65C3
:1010E4007220697320302C207374617920696E201A
:1010F40073657474696E67730D0A004F76657220A8
:08110400566F6C746167650011
:1012CF00012D000233000002350000C110023A0068
:1012DF00000139FF02420000013200013700C11442
:1012EF00043E00000000042E00000000C112C10ED9
:1012FF00012800C10CC11302260000C10FC10DC18E
:10130F00110429BF800000023C00000138000124B5
:06131F0000012500C10BD6
:10139700782E12066B9000041206A8783E12066B90
:1013A7009000080206A8783E12066B90000312060A
:1013B700A8782DE6FF22EF24D0FBEE34FFFAE6FEF5
:1013C70008E6FF7C007D0A1205E0EF2B227836D372
:1013D700E6940018E69400229000061206A8783ECC
:1013E70012066B90000A1206A8782E02066B781276
:1013F700E62444F8E6FF3395E0FEC3EF9430EE644D
:1014070080948022E4FFFEFDFC1206830202C4E6FC
:10141700FC08E6FDE40203537891E6FE08E6FF7850
:1014270042A60608A60722E47826F608F6C20F2287
:10143700C37827E6947018E6941722D3EF9439EE11
:0F1447006480948022782E12069C782DE6FF2276
:030023000216B80A
:0F16B800C0E0C0D075D000C000C004C005C0079E
:1016C700309865C298AF997824E6FD7C007008EFE2
:1016D700B43E0476018051ED64014C700DEFB43EC9
:1016E7000978247602087600803E7824E664027042
:1016F70033EF640D6004EFB40A0C7825E62444F850
:101707007600D20D801EEFB420057825E6601978A3
:1017170025E6C3940774809480500DE6062444F8A8
:08172700A60780047824760077
:0D172F00D007D005D004D000D0D0D0E032DB
:100BD00012000ED2ACD2AF7BFF7A0F79C4121B2663
:100BE000121D947BFF7A0F79E0121B26121A607B8C
:100BF000FF7A0F79FE121B26121CCE12196D121DE0
:100C0000007BFF7A10791D121B26121C94E4789148
:100C1000F608F6121D8E121D2B7BFF7A10794012FA
:100C20001B26D200121D6BD200121D70121C2F7BCE
:100C3000FF7A107967121B267BFF7A107983900068
:100C40003312071E781FE6900036F0120FB4121B05
:100C5000267BFF7A107986121B267BFF7A10798912
:090C6000121B26200D03020D9861
:100C6900C20D780E1206B400000000E47812F608EE
:100C7900F608F608F608F608F60876011213F540A4
:100C890015121442501078131213BD7814F6EE3A67
:100C990018F6180680E67812E62444F8E6642E7001
:100CA9002E80271213F5402712144250227815126C
:100CB90013BD7816F6EE3A18F67817E6FE08E6FF41
:100CC9001205E07817A60608A60778120680D478D8
:100CD90017121416C004C005C006C00778151214EF
:100CE90016D003D002D001D000120227C004C005DB
:100CF900C006C0077813121416D003D002D001D051
:100D09000012002D780E12069C7829120683C00065
:100D1900780E12066BD000120029781912069C78F9
:100D29001912140B500D781912066B12033D78191C
:100D390012069C7F0A7ED77D237C3C7819121410F9
:100D490060025007782912140B503F780E12066B77
:100D5900782912069C780E12066B783E12069CD2F0
:100D690011200E09201206200F03120F7C7BFF7A37
:100D79001079AB90003312071E783E12066B900073
:0D0D8900361206A8120FB4121B26E4783CA7
:100D96008015783D06E618700106C3783DE694C8CE
:0A0DA60018E694004004E4F608F695
:100DB0007B017A00790190000512071E7A00191252
:100DC0001BD6501412142E900000E024FF9200A3B2
:080DD000E024FF9201121597C7
:080DD800121A33500312142E0D
:100DE000121D914066200B69782806E694057480F0
:100DF0009480405DE4F6D20B12142F300E12C20E16
:100E00007833F608F6120F7C7BFF7A1079B48036BF
:100E10001213D45003301016D20E12141F301006C5
:100E2000E4783AF608F67BFF7A1079C68018121338
:100E3000AD121A0512144C121D651213DF12173C65
:100E40007BFF7A1079D8121B268006E47828F6C238
:010E50000B96
:100E5100200E03020F00D200121D75D200121D7A5E
:100E6100C2A22010051213D44012782DE6FF783962
:100E7100666009121D34782DE67839F61213AD1229
:100E81001A05782E12069CC37992E7784396FF19CA
:100E9100E71896FEC3EF94E8EE9403407B12141F0B
:100EA100301011783B06E618700106121397D20034
:100EB100783A80371213D4403908E61618700116B3
:100EC1007836E61846701D7833760108762C783E20
:100ED10012066B9000061206A87F007E007D007C42
:100EE10000121456121397C2007835E6FE08E6FF89
:100EF1008008121397C200E4FFFE1211F28019C29A
:100F010000121D75C200121D7A121D84D2A27839F9
:100F110076FFE47842F608F6E4FFFE7D147C427821
:100F21003E12141060124010200C0F7BFF7A1079D2
:100F3100FF121B6FD20C8002C20C200E1912143743
:100F410050140806E6187001061214374008200FE5
:100F510005D20F121C2F78341213D6400F7FC812FE
:100F610018597834E616187008168005E4FF12182F
:100F7100597F0A7E00121C84020C63783E12066BB4
:100F81009000031206A8782DE6FF121A05782E129A
:100F9100069C782DE6FF121D659000061206A878C2
:100FA1003E12066B90000A1206A8782E12066B12EA
:100FB100173C227B007A00794C1207B27B007A0041
:030FC100794C2246
:10159700300102B21230125B20002330100BC21050
:1015A70078357600087601803CC37836E6942018B3
:1015B700E6941C50300806E618702A06802720108B
:1015C700247835E6FE08E6FFD39401EE9400400840
:1015D700E61618701016800DEF64014E7007D210D2
:1015E7007835F608F67835E6FE08E6FFA21092028F
:1015F7000217A820000F782DE6C3940C74809480FE
:10160700501006800D782DE6D394007480948040A6
:1016170001161213AD121A0512144C121D6512137E
:05162700DF12173C2258
:101C1300009000A67402F0A374C7F09000A7E0142C
:0C1C2300F070F89000A6E014F070F022C1
:101C8400EF1FAC0670011E4C6005121C1380F1227C
:101C9400438901758CFC758A66D2A9D2AFD28C2295
:10000E0075985053890F438920758DFD758BFDD2E0
:04001E008ED29922C3
:080003008F993099FDC299228A
:101B260090000212071E9000021206FE120588603F
:101B360013900002E475F001120707120588FF12E0
:051B4600000380E22213
:101ADA0053544D33325F4144432048656C706572FC
:101AEA003A205175657279696E672053544D3332C5
:061AFA002E2E2E0D0A0045
:091D2B007BFF7A1A79DA021B260B
:081D3D00E4FFFE7D807CBF2263
:031D8E00D2A022BE
:031D9100A2A022EB
:101325004200A400004200A100004100A300C11A30
:07133500029100000190018C
:0D1CC100E0FFC39000A2E09F9000A1E02290
:03000B00021501DA
:10150100C0E0C0F0C083C082C0D075D000C000C0B0
:0315110006C0070A
:10151400758CFC758A66789206E618700106A2B28C
:10152400E433780DF6E6FF70257890E66401701ECA
:1015340000000000000000000000209203C38001AE
:10154400D39217D216A2179218C219781F06789050
:10155400A607201A04C2B680299000A1E475F00100
:101564001206479000A4E0FEA3121CC19E4004E4AE
:10157400F0A3F09000A3121CC1940050028001C398
:0215840092B61D
:10158600D007D006D000D0D0D082D083D0F0D0E023
:011596003222
:101C5F00EFD394647480948040047F64800090007C
:041C6F00A3EFF022CD
:10185900AE07EE700BC21A9000A4F0A3F0C2B62234
:10186900D21A7F32121C5FAF0674FA8FF084FF7EA2
:10187900009000A4EEF0A3EFF0C39401EE940050A1
:10188900089000A4E4F0A304F0D39000A5E094C864
:0F1899009000A4E094004006E4F0A374C8F0228D
:051D6B00A20092A52278
:051D7000A20092A42274
:051D7500A20092B4225F
:051D7A00A20092B52259
:0E133C00C116C118C119011F00C115011E0004
:0B1D0000D2B2D292D2B3C2A8C2AA2273
:101BD60030161AA218E4331205CEA219E433FF9088
:0F1BE60000051206FEEF1205CEC216D322C3224F
:101A330020B322201525781EE6C394027480948077
:101A43005003068016D215E4781EF6D216A217921A
:0C1A530018D219D322C215E4781EF6C385
:011A5F002264
:10110C0046616B654C6F616420426F6F7400496E71
:10111C00697469616C697A696E672E2E2E00506F46
:10112C007765723A20252E326657202000523A25D8
:10113C002E32664F686D20252E3166562000523AAD
:10114C00252E32664F686D20252E326656200052B1
:10115C003A252E32664F686D20563A554B202000AA
:10116C0054696D65723A202020205374616E6400BE
:10117C0054696D65723A0020202020202020202008
:10118C0020202020202020004620253032753A25B2
:10119C003032752052756E6E696E6700253032756F
:1011AC003A253032752052756E6E696E6700503A72
:1011BC00252E316657200020563A252E3266200007
:1011CC0020563A554B2020200053797374656D20BE
:1011DC0049646C65005365742054696D65720045F3
:0611EC0072726F723A00FE
:1018F3007BFF90003302071E1206A87B007A007953
:1019030080227BFF7D017F022290000612067790E2
:101913000036227C007D3CAE021205F2A322E0FBDE
:101923007A0090000A7402F0227BFF7D017F01227E
:031D94000219D65B
:101A60007A11790C12192C121B927A11791A121907
:101A700005121B927B767D107F01121D2190000ABA
:0C1A80007401F0FB7A007D0FFF0218A833
:10173C007A11792A1218F39000361218FB1207B29C
:10174C001218FE7D017F01121B923011357F667ECF
:10175C00667D1E7C4190000A1206901202C47BFF2B
:10176C00600840067A11793980047A11794A121886
:10177C00F512190C1206A890000A12067790003A7E
:10178C00800A7A11795B1218F312190C1218FB12D9
:0C179C0007B21218FE7D017F02021B92B2
:1017A800900002EEF0A3EFF0E47880F6121D7F308F
:0C17B800020A7A11796C121905021B92CA
:1017C400900002E0FAA3E0FBFF121916EFF0AF035A
:1017D400121916EDF07BFF7A11797C7D017F0212DC
:1017E4001B929000041219217D07FF1218A87B3A5E
:1017F4007D097F02121D219000051219217D0AFF27
:031804001218A80F
:0118070022BE
:0411F200AB07AA0697
:1011F6007C007D3C1205F290000CEEF0A3EFF0AE01
:1012060002AF037C007D3C1205F2A3ECF0A3EDF0E7
:10121600121D7FE47880F67F011212C37BFF300037
:10122600067A11799480047A1179A81218F590003B
:101236000CE0FFA3E0900036CFF0A3EFF090000E95
:10124600E0FFA3E0900038CFF0A3EFF01218FE12F3
:1012560007B27BFF7A1179BA1218F59000041219B9
:101266000F1206A87B017A0079101207B27B017A69
:101276000079107D017F01121B927BFF3011127ADB
:101286001179C31218F590000812190F1206A880DA
:10129600077A1179CC1218F57B017A0079201207AA
:1012A600B27B017A0079207D087F01121B927F02B2
:0D12B6001212C31218FE7D017F02021B926E
:0C12C3007BFF7A1179837D01121B9222BF
:101C2F00121D7F7A1179D512192C121B927BFF7A14
:0A1C3F001179E17D017F02021B9282
:101B6F0090000212071E121D7F7BFF7A1179EB7D09
:101B7F00017F01121B929000021206FE7D017F026F
:031B8F00021B92A4
:0C1CE800C2968F80D297121CB8C29722BF
:051CB3007F38121D4501
:081CB8007F057EF8DEFEDFFA75
:011CC0002201
:101B4B00E4FFEFC394057480948050177EF8DEFE9B
:101B5B007EF8DEFE7EF8DEFE7EF8DEFE7EF8DEFE32
:031B6B000F80DF09
:011B6E002254
:081D4500C295121CE8021CB853
:081D4D00D295121CE8021CB83B
:101BF500AE07EEFB7A0064017004ED148009EB6416
:0E1C0500024A7009ED243F4480FF121D452263
:1019D600121B4B121B4B121B4B7F38121D45121B41
:1019E6004B121CB3121CB37F0C121D45121CB87F80
:0F19F60001121D45121B4B7F06121D45021CB826
:051D7F007F01021D457B
:0A1D2100AC03121BF5AF04021D4DC8
:061B920090003012071E56
:101B9800121BF5E4FD9000301206FE8D827583005D
:0C1BA8001205A1FF6006121D4D0D80E922
:011BB400220E
:0E18080090000BEEF0A3EFF0A3ECF0A3EDF0D8
:10181600A3E4F0A304F0E4FBEBFFD390000EE09FFB
:101826007480F890000DE0648098401E90000FE0F0
:10183600FEA3E0FF90000BE0FCA3E0FD1205E090A4
:10184600000FEEF0A3EFF00B80CE90000FE0FEA3AA
:02185600E0FFB1
:01185800226D
:0818A800900008EAF0A3EBF048
:1018B000121BF5A3E0FAEAFF7E00D3940074809433
:1018C00080402FEF24FFFDEE34FFFC7F0A12180842
:1018D000900008E0FCA3E0FDCFCDCFCECCCE12052A
:1018E000F27C007D0A1205F2ED2430FF121D4D1A24
:0218F00080C4B2
:0118F20022D3
:10134A006034006D404EB85240551EB8407666660D
:10135A0040800000409851EC40A0000040C80000C6
:10136A0040D570A4411170A44120000041855C2938
:10137A0041A0000042C800004D00603F1F2F0F3EF1
:08138A001E2E0E260622022091
:1019A200EF25E025E0246DF582E43400F583221270
:1019B2000677A804A905AA06AB0702011E90000239
:1019C200E0FFC394077480948022F582E43400F52A
:0419D20083E0FF228D
:0D1CCE007F327E00121C84121D5D021D84F9
:061456009000021206A83E
:10145C0090000E1206CD4479C000E4900012F0FF0B
:10146C00FEFDFC9000021206901202C470087FC0B0
:10147C00121A8C7F00229000061219B190000212F1
:10148C00069012022790000A1206A8E4900013F0AE
:10149C00900013E0FFC3940D748094805045121992
:1014AC00A212067790000A120690120029121CDB79
:1014BC009000141206A890000E12067790001412D9
:1014CC0006901202C4501490001412067790000E6D
:1014DC001206A8900013E0900012F0900013E004A4
:1014EC00F080AD900012E024601219CC121A8C908E
:0414FC000012E0FFFB
:0115000022C8
:101A0500900002EFF01219A3120677E4FBFAF9F839
:101A15001202C47005FFFEFDFC229000031219B1ED
:0E1A2500900002E01219A3120690120227226E
:091D340074602F1219CC021A8C04
:061D65001219A20206772C
:051D8400E4FF021A8CCF
:081D5500ED24FF920002193396
:10196D00E4900002F0F01219BF50077D0112199199
:10197D0080F4E4900002F01219BF5007E4FD121933
:03198D009180F452
:1019900022121D557F327E00121C84900002E0044A
:0219A000F02233
:041392004100A9FF6E
:0B1D16007893E6C39408748094802248
:0A1D0B00781D7664781DE61670FA64
:011D150022AB
:051D8900D294D2932268
:0F1CA400D294D293121D0BC294121D0BC2932225
:0C1CF400C294D293121D0BD294021D0B5F
:101BB500E47893F6121D165017EF339294EF25E053
:101BC500FFD293121D0BC293121D0B78930680E46E
:011BD50022ED
:101B0000E4FFD2947893F6121D165019EF25E0FFEA
:101B1000D293121D0BA294E4334FFFC293121D0BFC
:051B200078930680E24D
:011B2500229D
:101C4900D294121D0BD293121D0BA2949201C2932E
:051C5900121D0BA201A9
:011C5E002263
:101C7300A21B9294121D0BD293121D0BC293021D31
:011C83000B55
:081D5D00121D897FFF021A8CA0
:101A8C00AE07121CA47F40121BB5121C49500280D9
:101A9C000AAF06121BB5121C495003021CF4121C8F
:071AAC00F49000A9EEF02206
:101933009000A9E0FEFDEFD39407748094805029B2
:1019430030000FA8077401088002C333D8FC4DFD93
:10195300800EA8077401088002C333D8FCF45DFD30
:09196300ED6E6005AF05121A8C4F
:01196C002258
:100026000203C1E86480F8E933E83360110460F044
:10003600ED33EC337009E8FCE9FDEAFEEBFF220440
:1000460060DED3EB9FEA9EE99DE8C2E78CF0C2F73B
:1000560095F0400CE8CCF8E9CDF9EACEFAEBCFFB07
:1000660012038C85D0F05804700320D5B3E80470D1
:10007600075002B2D50203CB92D5EC0460F7E4CC6C
:10008600C0E0C398F8603B94186008400DD0E0FBD0
:100096000203A3E4FBFAC9FC8028E830E406E4C9BD
:1000A600FBE4CAFCE830E305E4C9CACBFCE8540724
:1000B6006010F8C3E913F9EA13FAEB13FBEC13FC2F
:1000C600D8F130F52FC3E49CFCEF9BFFEE9AFEEDD2
:1000D60099FDD0E0FBEF4E4D4C701222DB0302037C
:1000E600C8EC2CFCEF33FFEE33FEED33FDED30E7CD
:1000F600EB0203A3EF2BFFEE3AFEED39FDD0E0FB5A
:1001060050130BBB00030203CBED13FDEE13FEEF02
:0801160013FFEC13FC0203A32C
:10011E00EC4D6011E8497017ED33EC3304600DE4DB
:10012E00FCFFFEFD22E933E8330470F80203C1122E
:10013E00038C58046009E4CC24815006285009022F
:10014E0003CB2840030203C8C0E0EB4A7044B980D9
:10015E0006D0E0FB0203B7EF4E701CBD8008EBFF2C
:10016E00EAFEE9FD80EBE98DF0A4FEE5F002020760
:10017E00E9CDF9EAFEEBFFEF89F0A4FCE5F0CE89BC
:10018E00F0A42EFFE435F0CD89F0A42DFEE435F079
:10019E008067EF4E7005BD80D780C3EF8BF0A4ACA7
:1001AE00F0EE8BF0A42CFCE435F0F8EF8AF0A42CE2
:1001BE00E5F038FCE433CB8DF0A42CFCE5F03BF8F5
:1001CE00EE8AF0A42CFCE5F038F8E433CF89F0A4E5
:1001DE002CFCE5F038CF3400CE89F0A42FFFE5F0EB
:1001EE003EFEE433C98DF0A42EFEE5F039CD8AF043
:1001FE00A42FFFE5F03EFEE43DFD33D0E0FB5007BB
:10020E000BBB000F0203CBEC2CFCEF33FFEE33FEE7
:06021E00ED33FD0203A315
:100224000203CBEC5D046005E8590470030203C1CA
:1002340012038C580460F6EC4860F2EC7004FDFE86
:10024400FF22C860DB2481C85009C39860025006AD
:100254000203C89850CAF582E9294B4A7005AB825B
:100264000203B775F0007C1A7880C3EF9BEE9AED19
:1002740099400DC3EF9BFFEE9AFEED99FDE842F025
:10028400DC23ACF0D0E0FFD0E0FED0E0FDAB822078
:10029400E7101BEB60BAEC2CFCEF33FFEE33FEED02
:1002A40033FD0203A3E803F830E705C0F075F0005E
:1002B400EF2FFFEE33FEED33FD40B830E7C280AAE6
:1002C40074F8CC6480CCC86480C8F58204604FC3E1
:1002D400EB9FF5F0EA9E42F0E99D42F0E89C45F080
:1002E400603C501DE5825FFFE582D313CB5BCBF40A
:1002F4002B5582FB50280ABA002409B90020088033
:100304001DE5825BFBE582D313CF5FCFF4C3132FCC
:100314005582FF50090EBE00050DBD00010CC3EB54
:100324009FF5F0EA9E42F0E99D42F0E89C45F060BA
:0903340007CC4820E701B3EC22DC
:10033D00ED33EC33600A047003BD8004ECB2E7FCCE
:01034D00228D
:10034E0075F020800E75F010800575F0087D007E2A
:10035E00007F003392D530D50312065DEC3340108A
:10036E00EF33FFEE33FEED33FDEC33FCD5F0ED2233
:0E037E00E5F0247EA2D513CC92E7CDCEFF226F
:10074D00E5082433F582E43400F583E005082290B2
:10075D000030300903900033E475F00112070702F1
:10076D0005882002E97F2ED2028018EF540F2490C5
:10077D00D43440D4FF30060BEF24BFB41A0050031D
:10078D002461FFE50960021509050CE50C700205F1
:10079D000B30090E900030E475F001120707EF02DF
:1007AD0005CE021AB37403D2098003E4C209F50819
:1007BD0090003012071EE4F509F50BF50CE5096004
:1007CD00077F2012079080F5750AFFC203C202C28F
:1007DD0004C205C207C208C20A12075CFF700D30C1
:1007ED0009057F001207A1AF0CAE0B22B4255FC225
:1007FD00D5C20612075CFF24D0B40A00501A75F05A
:10080D000A780930D50508B6FF0106C6A426F620DC
:10081D00D5047002D20580D924CFB41A00EF50044C
:10082D00C2E5D206020A93D20380C6D20280C0D29C
:10083D000480BCD2D580BAD20780B47F2012079035
:10084D002004077401B5090040F112074DFF12078E
:10085D00900207CAD20AD208809512074DFB1207E3
:10086D004DFA12074DF94A4B700679917A0B7BFFC1
:10087D0020042EE509602A7E008E82758300120504
:10088D00A160060EEE650A70F0C2D5EBC0E0EAC0BD
:10089D00E0E9C0E0EE120AF4D0E0F9D0E0FAD0E0E1
:1008AD00FB120588FF60AAEBC0E0EAC0E0E9C0E0FA
:1008BD00120790D0E02401F9D0E03400FAD0E0FB2B
:1008CD00E50A0460DCD50AD98087D20480A2120A19
:1008DD00D660F7E50A7001041203D6A90A600DE58A
:1008ED000A600914F50A120B7EEF60F3EA30E70295
:1008FD00F404C3995079EAF4250A0430E701E404BD
:10090D00F50A800D120AD660C1EA050A250A1203FE
:10091D00D6EA90005FF030E701E4250A04D50A0419
:10092D0020070114120AF4E4C0E0120B7E90005F60
:10093D00E0601320E70714F0120778802204F0D04E
:10094D00E014C0E07F00120778E50A600712076F18
:10095D00150A800B30070312076FD0E00207CAD0CB
:10096D00E00480C4120AD6609EE50A041203D690F4
:10097D00005FEAF0E50A2007026001042404120A70
:01098D00F475
:10098E0074FF04C0E0120B7E120778E50A200702FE
:10099E00600312076FD0E0B50AE87F451207829018
:1009AE00005FE07F2B30E7047F2DF404C0E01207D8
:1009BE0090D0E075F00A84C0F0120779D0E01207EB
:1009CE00790207CA791080027908C208C20A800823
:1009DE00D2D5790A8004790AC2D5E50A047002F5E7
:1009EE000AE4FAFDFEFF12074DFC7B0820031312EA
:1009FE00074DFD7B1030020A12074DFE12074DFF08
:100A0E007B20EC3382D592D55013C3E43002069F7F
:100A1E00FFE49EFEE42003039DFDE49CFCE4CBF882
:100A2E00C203EC700CCFCECDCCE824F8F870F38076
:100A3E0017C3EF33FFEE33FEED33FDEC33FCEB3338
:100A4E00FB994002FB0FD8E9EB300305F8D0E0C468
:100A5E0048B203C0E00AEC4D4E4F78207B0070C2C6
:100A6E00EAB50A0040BCC0E0120AF6D0F0D0E02091
:100A7E000304C4C0E0C4B203C0F0120779D0F0D5AD
:100A8E00F0EB0207CA12072708675309D258083835
:100A9E004C08344209D64F09DE4409DE49084D435D
:100AAE0009E45509114609714508DB470BB1500899
:100ABE003C2D08402E08632B0844230861200B9A16
:100ACE002A07FC480000085BE50AB4FF03750A0616
:100ADE0012074DFC12074DFD12074DFE12074DFF7A
:100AEE00900058020413790AA2D520051430070984
:100AFE00B910020404B9080104A2D520080250015D
:100B0E00042004689204B509005034C0E07F203000
:100B1E0005197F30A20472087207500F120B4DC2D6
:100B2E0004C208C207C20A7F30800F300703E9C033
:100B3E00E0120790300703D0E0F9D0E0B509CC30D1
:100B4E0007177F30B9100C1207907F583006077FB9
:100B5E00788003B908031207903004057F2D020731
:100B6E00907F20200AF87F2B2008F322920480CF5A
:100B7E007F00B40700500B2458F582E43400F5834F
:100B8E00E0FF22286E756C6C2900D20312074D30DF
:100B9E0003F8C203780930D50108F60207FC2D5080
:100BAE0043495812074D2403B405004001E4900B4D
:100BBE00AC93120781743A120781D20575090402AB
:020BCE0009D24A
:0D1CDB00ED33EC3360065004EC6480FC2215
:10038C00E9D2E7C933E833F892D5EDD2E7CD33ECB7
:07039C0033FC5002B2D52230
:1003A300EC30E7100FBF000C0EBE00080DBD0004BB
:1003B3000BEB6014A2D5EB13FCED92E7FD2274FF67
:1003C300FCFDFEFF22E480F8A2D574FF13FC7D80C0
:0303D300E480EFD4
:1003D600F920E73624F950037907E4F42402FBE513
:1003E60082158270021583DBF6E024FB501BE96060
:1003F60014E4F0E582158270021583E004F0B40A75
:0D04060008E4F0D9EE7401F00A22C2D522FC
:10041300ED33EC3392D5FA602AB4FF33EDC2E77BB8
:10042300FF60067A047938E4227A04794120D504FE
:100433007A04793C224E614E002B494E46002D49E9
:100443004E4600E47A08F0A3DAFC7B00740722C06E
:1004530083C082ECC0E0EDC0E0EEC0E0EFC0E0EAB4
:1004630075F010A4CAABF075F04DA42BFBE435F086
:10047300FCEA2410FAEB34C5FBEC34D9FCEDC2E7FB
:10048300FF75F056A4F42411C5F0F434C58FF0A41D
:100493002AE5F03BE43CF020E714120548D0E0FFE6
:1004A300D0E0FED0E0FDD0E0FC1202278014F4047B
:1004B300120548D0E0FFD0E0FED0E0FDD0E0FC1212
:1004C300011ED082D083E0FAEDD2E7CD33EC3324A2
:1004D30082FBE4C3CF33CFCE33CECD33CD33DBF387
:1004E3007B0775F00A846004F0A31B0AE5F0F0A310
:1004F3008FF0740AA4FFACF08EF0740AA42CFEAC47
:10050300F050010C8DF0740AA42CFDE435F0F0A337
:05051300DBDE7407228D
:100518003F8000004120000042C80000447A0000EB
:10052800461C400047C35000497424004B1896806D
:100538004CBEBC205A0E1BCA6753C21C749DC5AE64
:10054800FB60065407601C2323120576EB543860C1
:100558000912056212057112011EECF8EDF9EEFAA6
:10056800EFCB22EB12057180F1543803241C90055F
:1005780018FE93FC0EEE93FD0EEE930ECE93FF2223
:0300000002162CB9
:0C162C00787FE4F6D8FD758193021673F8
:10058800BB010689828A83E0225002E722BBFE0271
:09059800E32289828A83E49322A4
:1005A100BB010CE58229F582E5833AF583E022500F
:1005B10006E92582F8E622BBFE06E92582F8E22259
:0D05C100E58229F582E5833AF583E4932273
:1005CE00BB010689828A83F0225002F722BBFE010C
:0205DE00F32206
:1005E000EF8DF0A4A8F0CF8CF0A428CE8DF0A42E2F
:0205F000FE22E9
:1005F200BC000BBE0029EF8DF084FFADF022E4CCED
:10060200F875F008EF2FFFEE33FEEC33FCEE9DECB5
:10061200984005FCEE9DFE0FD5F0E9E4CEFD22EDFB
:10062200F8F5F0EE8420D21CFEADF075F008EF2F45
:10063200FFED33FD4007985006D5F0F222C398FD36
:050642000FD5F0EA22D3
:10064700C5F0F8A3E028F0C5F0F8E582158270023E
:060657001583E038F022DB
:0E065D00C3E49FFFE49EFEE49DFDE49CFC22AE
:0C066B00E6FC08E6FD08E6FE08E6FF22BB
:0C067700E0FCA3E0FDA3E0FEA3E0FF22F6
:0D068300E6FB08E6F908E6FA08E6CBF822E7
:0C069000E0F8A3E0F9A3E0FAA3E0FB22ED
:0C069C00ECF608EDF608EEF608EFF6228A
:0C06A800ECF0A3EDF0A3EEF0A3EFF022C5
:1006B400D083D082E493F608740193F6087402930D
:0906C400F608740393F674047344
:1006CD00A8828583F0D083D0821206E41206E4124C
:1006DD0006E41206E4E473E493A3C583C5F0C58371
:1006ED00C8C582C8F0A3C583C5F0C583C8C582C877
:0106FD0022DA
:0906FE00E0FBA3E0FAA3E0F922FD
:10070700F8E0FBA3A3E0F925F0F0E582158270027B
:070717001583E0FA38F0221F
:09071E00EBF0A3EAF0A3E9F022DC
:10072700D083D082F8E4937012740193700DA3A361
:1007370093F8740193F5828883E473740293686075
:06074700EFA3A3A380DF75
:101AB300EFB40A07740D121ABE740A309811A8996C
:101AC300B8130CC2983098FDA899C298B811F63093
:071AD30099FDC299F599226B
:10163800020BD0E493A3F8E493A34003F68001F2ED
:1016480008DFF48029E493A3F85407240CC8C333B3
:10165800C4540F4420C8834004F456800146F6DF82
:10166800E4800B01020408102040809012CFE47E31
:10167800019360BCA3FF543F30E509541FFEE49377
:10168800A360010ECF54C025E060A840B8E493A33E
:10169800FAE493A3F8E493A3C8C582C8CAC583CA69
:1016A800F0A3C8C582C8CAC583CADFE9DEE780BE21
:011396000056
:00000001FF
