:0705DD00AE071FEE70FA22C9
:0905B000007F027EC7DEFEDFFCC5
:0105B900221F
:0C059900AD07ED60061205B01D80F722D2
:10054F00AB07AA06EB4A600C7FE8120599EB1B700C
:05055F00F31A80F022F8
:1004CC00495220446174613A2000204B65793A20EE
:0F04DC00000D0A0000160C185E081C5A42524A06
:10057800C100010800020D0000010F000110000178
:02058800110060
:10056400D28AD2AAD2AF5389F0438901E4F58CF53B
:040574008AC28C2289
:03000300020006F2
:10000600C0E0C0D075D000C000C004C005C006C0A6
:1000160007E5101460241460521470030200A8143B
:1000260070030200DC2404600302018AD28C758C02
:1000360000758A0075100102018AAF8CEFFEAD8A49
:100046007C00E42DF50EEC3EF50D758C00758A00EE
:10005600D3E50E9440E50D941F4044E50E9410E55B
:100066000D9427503A75100202018AAF8CEFFEAD4F
:100076008A7C00E42DF50EEC3EF50D758C00758A34
:1000860000D3E50E94A0E50D940F4013E50E948879
:10009600E50D94135009751003750F0002018A02CD
:1000A6000182AF8CEFFEAD8A7C00E42DF50EEC3EAE
:1000B600F50D758C00758A00D3E50E9490E50D94C8
:1000C600014010E50E94BCE50D940250067510042F
:1000D60002018A020182AF8CEFFEAD8A7C00E42D1C
:1000E600F50EEC3EF50D758C00758A00D3E50E9481
:1000F60090E50D9401402BE50E94BCE50D9402505D
:1001060021E50F131313541F2409F8C000E6FFE579
:100116000F5407FEF87480088002C313D8FCF45FFE
:100126008033D3E50E94DCE50D9405402DE50E9461
:100136006CE50D94075023E50F131313541F240980
:10014600F8C000E6FFE50F5407FEF8748008800249
:10015600C313D8FC4FD000F680028020050FC3E5FC
:100166000F9420748094804018E509650AF4700C99
:10017600E50B650CF47005850B08D2007510008040
:1001860003751003D007D006D005D004D000D0D018
:03019600D0E03284
:0E058B00300008C200751101AF08227F002267
:1004AC0012058BE4FEEEC3940B74809480500EEE18
:0F04BC009004E093B50703AF06220E80E87FFFA0
:0104CB00220E
:0305E800AF11222E
:0405E400E4F5112207
:1003E3003000457BFF7A0479CC120487AF091204ED
:1003F3002C7F201205D5AF0A12042C7F201205D5BD
:10040300AF0B12042C7F201205D5AF0C12042C7BEA
:10041300FF7A0479D6120487AF0812042C7BFF7A83
:090423000479DD120487C20022F5
:10029C00426F6F7465642052656C61792053656C94
:1002AC00662D436865636B696E67202E2E2E2E00BB
:1002BC0052656C61792053656C662D436865636B80
:1002CC00696E6720436F6D706C657465642E0054A5
:1002DC006F67676C65642052656C61792000556EA0
:1002EC006B6E6F776E20436F6D6D616E640A00529A
:1002FC0065636569766564204E6F6E2D4469676928
:07030C0074204B65790A0023
:10022500E4F5121205BA1205641205387BFF7A024D
:10023500799C1204877FF412059912037C7BFF7A5F
:100245000279BC1204871205A51205A53000FA1221
:1002550004AC8F13D3EF940474809480502E120451
:10026500EB7BFF7A0279DB120487AF131203138F3E
:1002750012EF60097BFF7A0279EA120487E51324FD
:1002850030FF1205D57F0A1205D580BD7BFF7A02A6
:0702950079FB12048780B21F
:0905BA00C2B3C2B6C2B7C290225E
:10046000EF24FE601014601314601624037017ED5F
:1004700024FF92B322ED24FF92B622ED24FF92B71F
:0704800022ED24FF929022FF
:1004EB00EF24FE600D14600D14600D2403700BB22D
:0B04FB00B322B2B622B2B722B29022A8
:0905C300C2B3C2B6C2B7C2902255
:0905CC00C2B3C2B6C2B7C290224C
:10037C00E4F514751401D3E514940474809480503E
:10038C001C7D01AF141204607FF4120599E4FDAFDB
:10039C00141204607FF4120599051480D9751404A5
:1003AC00C3E514940174809480401C7D01AF141239
:1003BC0004607FF4120599E4FDAF141204607FF41D
:1003CC00120599151480D91205CC7FF412059912D7
:0703DC0005C37FF40205993F
:10050600E4FF30B3010F30B60343070230B70343AD
:080516000704309003430708BD
:01051E0022BA
:0B05A500120506EF640F7002D29222D4
:10031300EFB407005060900320F8282873020335D8
:1003230002033C02034902035602036702036D0200
:1003330003737F011204EB1F2220B6047D018002A8
:100343007D007F02801820B7047D0180027D007F3D
:1003530003800B2090047D0180027D007F04120442
:10036300607F00221205CC7F00221205C37F00228A
:0903730012037C7F00227F0122AD
:10053800759850438E40538EFE53890F758BE07526
:070548008DFEC2ABD28E2232
:0805D5008F993099FDC29922B3
:100487008B148A158916AB14AA15A91612051F60B5
:10049700130516E5167002051514F912051FFF124C
:0504A70005D580E222F2
:10042C00EFC4540FFEEF540FFDEEC3940A74809486
:10043C0080EE5004243080022437FF1205D5EDC322
:10044C00940A74809480ED5004243080022437FF89
:03045C001205D5B1
:01045F00227A
:0300000002019961
:0C019900787FE4F6D8FD7581200201E0BB
:10051F00BB010689828A83E0225002E722BBFE02DA
:09052F00E32289828A83E493220D
:1001A500020225E493A3F8E493A34003F68001F249
:1001B50008DFF48029E493A3F85407240CC8C3335B
:1001C500C4540F4420C8834004F456800146F6DF2A
:1001D500E4800B0102040810204080900578E47E3D
:1001E500019360BCA3FF543F30E509541FFEE4931F
:1001F500A360010ECF54C025E060A840B8E493A3E6
:10020500FAE493A3F8E493A3C8C582C8CAC583CA10
:10021500F0A3C8C582C8CAC583CADFE9DEE780BEC8
:01058A000070
:00000001FF
