:0705F300AE071FEE70FA22B3
:0905C600007F027EC7DEFEDFFCAF
:0105CF002209
:0C05AF00AD07ED60061205C61D80F722A6
:10056500AB07AA06EB4A600C7FE81205AFEB1B70E0
:05057500F31A80F022E2
:1004E200495220446174613A2000204B65793A20D8
:0F04F200000D0A0000160C185E081C5A42524AF0
:10058E00C100010800020D0000010F000110000162
:02059E0011004A
:10057A00D28AD2AAD2AF5389F0438901E4F58CF525
:04058A008AC28C2273
:03000300020006F2
:10000600C0E0C0D075D000C000C004C005C006C0A6
:1000160007E5101460241460521470030200A8143B
:1000260070030200DC2404600302018AD28C758C02
:1000360000758A0075100102018AAF8CEFFEAD8A49
:100046007C00E42DF50EEC3EF50D758C00758A00EE
:10005600D3E50E9440E50D941F4044E50E9410E55B
:100066000D9427503A75100202018AAF8CEFFEAD4F
:100076008A7C00E42DF50EEC3EF50D758C00758A34
:1000860000D3E50E94A0E50D940F4013E50E948879
:10009600E50D94135009751003750F0002018A02CD
:1000A6000182AF8CEFFEAD8A7C00E42DF50EEC3EAE
:1000B600F50D758C00758A00D3E50E9490E50D94C8
:1000C600014010E50E94BCE50D940250067510042F
:1000D60002018A020182AF8CEFFEAD8A7C00E42D1C
:1000E600F50EEC3EF50D758C00758A00D3E50E9481
:1000F60090E50D9401402BE50E94BCE50D9402505D
:1001060021E50F131313541F2409F8C000E6FFE579
:100116000F5407FEF87480088002C313D8FCF45FFE
:100126008033D3E50E94DCE50D9405402DE50E9461
:100136006CE50D94075023E50F131313541F240980
:10014600F8C000E6FFE50F5407FEF8748008800249
:10015600C313D8FC4FD000F680028020050FC3E5FC
:100166000F9420748094804018E509650AF4700C99
:10017600E50B650CF47005850B08D2007510008040
:1001860003751003D007D006D005D004D000D0D018
:03019600D0E03284
:0E05A100300008C200751101AF08227F002251
:1004C2001205A1E4FEEEC3940B74809480500EEEEC
:0F04D2009004F693B50703AF06220E80E87FFF74
:0104E10022F8
:0305FE00AF112218
:0405FA00E4F51122F1
:1003F9003000457BFF7A0479E212049DAF091204AB
:10040900427F201205EBAF0A1204427F201205EB4E
:10041900AF0B1204427F201205EBAF0C1204427B92
:10042900FF7A0479EC12049DAF081204427BFF7A2B
:090439000479F312049DC20022B3
:10022500426F6F74696E67202E2E2E2E00426F6FFF
:100235007465642052656C61792053656C662D4345
:100245006865636B696E67202E2E2E2E0052656CD5
:1002550061792053656C662D436865636B696E67CC
:1002650020436F6D706C657465642E00546F67670D
:100275006C65642052656C61792000556E6B6E6FFC
:10028500776E20436F6D6D616E640A00526563651C
:1002950069766564204E6F6E2D4469676974204BDD
:0402A50065790A006D
:1002A900E4F51212054E7BFF7A02792512049D129C
:1002B90005D012057A7BFF7A02793212049D7FF408
:1002C9001205AF1203927BFF7A02795212049D1232
:1002D90005BB1205BB3000FA1204C28F13D3EF9489
:1002E9000474809480502E1205017BFF7A02797183
:1002F90012049DAF131203298F12EF60097BFF7A55
:1003090002798012049DE5132430FF1205EB7F0A60
:100319001205EB80BD7BFF7A02799112049D80B2B0
:0905D000C2B3C2B6C2B7C2902248
:10047600EF24FE601014601314601624037017ED49
:1004860024FF92B322ED24FF92B622ED24FF92B709
:0704960022ED24FF929022E9
:10050100EF24FE600D14600D14600D2403700BB216
:0B051100B322B2B622B2B722B2902291
:0905D900C2B3C2B6C2B7C290223F
:0905E200C2B3C2B6C2B7C2902236
:10039200E4F514751401D3E5149404748094805028
:1003A2001C7D01AF141204767FF41205AFE4FDAF99
:1003B200141204767FF41205AF051480D975140463
:1003C200C3E514940174809480401C7D01AF141223
:1003D20004767FF41205AFE4FDAF141204767FF4C5
:1003E2001205AF151480D91205E27FF41205AF127F
:0703F20005D97FF40205AFFD
:10051C00E4FF30B3010F30B60343070230B7034397
:08052C000704309003430708A7
:0105340022A4
:0B05BB0012051CEF640F7002D29222A8
:10032900EFB407005060900336F828287302034B96
:1003390002035202035F02036C02037D020383027C
:1003490003897F011205011F2220B6047D01800265
:100359007D007F02801820B7047D0180027D007F27
:1003690003800B2090047D0180027D007F0412042C
:10037900767F00221205E27F00221205D97F002232
:090389001203927F00227F012281
:10054E00759850438E40538EFE53890F758BE07510
:07055E008DFEC2ABD28E221C
:0805EB008F993099FDC299229D
:10049D008B148A158916AB14AA15A9161205356089
:1004AD00130516E5167002051514F9120535FF1220
:0504BD0005EB80E222C6
:10044200EFC4540FFEEF540FFDEEC3940A74809470
:1004520080EE5004243080022437FF1205EBEDC3F6
:10046200940A74809480ED5004243080022437FF73
:030472001205EB85
:010475002264
:0300000002019961
:0C019900787FE4F6D8FD7581200201E0BB
:10053500BB010689828A83E0225002E722BBFE02C4
:09054500E32289828A83E49322F7
:1001A5000202A9E493A3F8E493A34003F68001F2C5
:1001B50008DFF48029E493A3F85407240CC8C3335B
:1001C500C4540F4420C8834004F456800146F6DF2A
:1001D500E4800B010204081020408090058EE47E27
:1001E500019360BCA3FF543F30E509541FFEE4931F
:1001F500A360010ECF54C025E060A840B8E493A3E6
:10020500FAE493A3F8E493A3C8C582C8CAC583CA10
:10021500F0A3C8C582C8CAC583CADFE9DEE780BEC8
:0105A000005A
:00000001FF
