:10199100536574205468723A00426F74682D3E4258
:0E19A10061636B004E6F536967004C6F7700F7
:1018450004220000000002290000012100012841B6
:0D18550002260000C1004400C00101010195
:101568009000831205CE12036B9000C5EFF0FCE4E7
:10157800120337A804A905AA06AB07900083120531
:10158800CE120019E4FBFA7920784112010E1203F9
:101598006B9000C4EFF0FDA3E0243090008EF0A320
:1015A800742EF0ED2430A3F0A37456F0E4A3F09069
:1015B8000082E0C454F0FD7B017A00798890009A9B
:1015C80002062C900082E024C0F582E43400F58302
:1015D80022900082E0FFC3940474809480227A00F1
:1015E800798E02062C2430FBE49000B9F0FD22909D
:0815F80000831205DA0202B4BF
:101A0D00438E805389F0758A48758C77C28DD28C40
:031A1D00D2A92229
:03000B0002197364
:10197300C0E0C0D075D000C000758C77758A4878F8
:0E1983002A06E618700106D000D0D0D0E0325F
:10095A00E4900080F0A3F0C2AF1214CC121A59121C
:10096A001722121AB6121A20121A0DE4900082F0F7
:10097A001215D95022EF04FFE4FD12194F9000829C
:10098A00E0FF2422F8E4F674C02F1215D1E4F090A7
:10099A000082E004F080D9D2AF7829E6FE08E6FFAB
:1009AA0012137120B24920B34620004B7826E6FE86
:1009BA0008E6FF4E70107829E6FC08E6FD7826A6C0
:1009CA000408A6058031C3782AE69FFF18E69EFE32
:1009DA00C3EF9432EE9400401ED2007821E67004F0
:1009EA007F0180027F007821A607121A598008E445
:0C09FA007826F608F6C2007821E6606B53
:100A0600121AAC900096EFF07828E66F608FE0F649
:100A1600E4FF1219F77F011219F77BFF7A19799112
:100A2600E49000B1F0FDFF1216007828E675F00A92
:100A3600841215ED7F381212647828E675F00A8460
:100A4600E5F01215ED7F40121264E49000B9F07BD8
:100A560025FD7F481212647BFF7A19799AE490008B
:0B0A6600B1F07D10FF1216000209A382
:100A7100900080E0FEA3E0FF7829E6FC08E6FDC3D4
:100A81009FFFEC9EFEC3EF94E8EE9403500302092E
:100A9100A3900080ECF0A3EDF0121AAC7828A60721
:100AA100E4900082F01215D940030209A3EF04FF7C
:100AB100E4FD12194F7F147E00121A6AC2AF900032
:100AC10082E0FF120E1F9000831205E6D2AF900064
:100AD100887443F0A37468F0A37420F0900082E05E
:100AE100243190008BF0E4A3F07F0A7ED77D237C34
:100AF1003C1215F75037900082E0FF1215CFE4F059
:100B010090008E742DF0A3F0A3F0E4A3F0EF04FFA6
:100B11007D0112194F900082E0FF1215CF7401F090
:100B2100EF1215BB7BFF7A1979A5020B497FCD7EA8
:100B3100CC7D2C7C401215F750261215CBE4F01217
:100B410015687BFF7A1979AB90009D12062C7B0109
:100B51009000A01215E6E49000A3F07B80020BBD8B
:100B61009000831205CE12112A900087EFF07828A9
:100B7100E6FEEFC39E40071215CBE4F08012EE248F
:100B8100F9FF900087E0D39F50061215CB7401F056
:100B9100900082E0FE04FF74C02E1215D1E0FD1218
:100BA100194F12156890009D1215E69000A01206CB
:100BB1002C900087E09000A3F07B80E4FF120BCA29
:090BC100900082E004F0020AA693
:10192B00106810040FA00F3C0ED80E740E100DACE7
:10193B000D480CE40C800BB8645A4B37281E140C62
:04194B00070301008D
:1018A700EF25E0249BF582E43400F583E0FCA3E018
:1018B700FDEF25E02499F582E43400F583229000BA
:0E18C70097E004F0221205E69000A50205CE7F
:0A1AA20053DEF043DE0275DF35224B
:10172200C290C291C292C2935392F043910F439DD1
:101732000F438E01121AA275BC80E4900097F090BC
:101742000097E0C394C874809480500F7F017E009C
:10175200121A6A900097E004F080E4E4900097F097
:10176200900097E0C3940A748094805015E4FF12AD
:1017720017D0900098EEF0A3EFF0900097E004F0FD
:0217820080DE07
:011784002242
:1017D000EF54074488F5BC00000000E4FFFEE5BCC0
:1017E00020E4140FEF70010ED39430EE947540EEA8
:1017F00053BCBFE4FEFF2253BCEF43DE20AFBDEF7E
:0F18000075F004A4FFAEF0E5BE5403FDEF4DFFFD
:01180F0022B6
:020E1F00AC071E
:100E21001217D0E4900097F0900097E0C3940A74F1
:100E31008094805013AF041217D0E01218B9EEF06D
:100E4100A3EFF01218C580E0E4900097F0900097AE
:100E5100E0C39409748094805051E4FF900097E0BE
:100E6100FEC374099EFEEFC39E503A1218A7E0FA22
:100E7100A3E0FBD39DEA9C40299000ADEAF0A3EBEF
:100E8100F01218A7ECF0A3EDF09000ADE0FCA3E0A8
:100E9100FDEF25E0249BF582E43400F583ECF0A31B
:100EA100EDF00F80B71218C5020E4E9000A3E0FEC0
:100EB100A3E0FF9000A2E02FFF9000A1E03EC3134A
:100EC100FEEF13FF9000B3EEF0A3EFF09000AF122E
:100ED10005F200000000E4900098F090009704F003
:100EE100900097E0FFD39408748094805054900050
:100EF100B3E0FCA3E0FD24E2FBEC34FFFA1218B8E6
:100F0100E0FEA3E0FFC39BEE9A4032ED241EFDE418
:100F11003CFCD3EF9DEE9C50249000AF1205DA907B
:100F21000097E01218B9E0FEA3E0FFE4FCFD120413
:100F3100E59000AF1205E6900098E004F01218C5A4
:100F4100809E900098E0700E9000B3E0FCA3E0FD5D
:100F5100E4120332802E9000AF1205CEE412032D6D
:100F6100C004C005C006C007900098E0FCE412036D
:100F710037A804A905AA06AB07D007D006D005D02B
:100F810004120217E4FBFA79807844120217E4FB99
:100F9100FA79A0784012010E9000B51205E6900092
:040FA100B50205CEC2
:06112A009000971205E69B
:10113000E4FFFE7D7A7C449000971205DA12010EDE
:10114000E4FBFAF9783F12001D12036B90009BEE4E
:10115000F0A3EFF0C39468EE941040037F6422D3B1
:1011600090009CE094B890009BE0940B50037F00AB
:01117000225C
:10117100E490009DF090009DE0FFC3940B74809477
:10118100804003021261EF25E0242BF582E434193B
:10119100F583E493FC740193FDEF25E0242DF582A2
:1011A100E43419F583E493FF74019390009ECFF02A
:1011B100A3EFF090009DE0FF901943939000A0F001
:1011C100EF90194493F990009BE0FEA3E0FFD39DBB
:1011D100EE9C400302125890009EE0FAA3E0FBC38C
:1011E100EF9BEE9A4071ED9BFEEC9A9000A1F0A36B
:1011F100CEF0AF019000A0E0F9C39FFEE49400900F
:1012010000A3F0A3CEF09000A1E07002A3E0700370
:10121100AF012290009BE0FEA3E0FFC3ED9FFFEC36
:101221009EFE9000A3E0FCA3E0FD120635A3121878
:10123100CCC006C0079000A1E0FEA3E0FBAA06E433
:10124100F9F8D007D00612052E9000A51218CC90FF
:1012510000A0E0C39FFF2290009DE004F002117600
:021261007F000C
:011263002268
:091AB600D294D295D2CCD2CD22FB
:061AC800EF24FF929422BE
:061ACE00EF24FF929522B7
:061AD400EF24FF92CC227A
:061ADA00EF24FF92CD2273
:10194F00EF24FE600F14601114601324037014AFA2
:10195F0005021AC8AF05021ACEAF05021AD4AF0599
:04196F00121ADA224C
:101862004100C7464100C6004200CA00004200C80B
:041872000000C101B0
:1018D5009000C8EEF0A3EFF0C2AFED229000C7E094
:1018E500D3940074809480229000C7E0C3946474FC
:0E18F50080948022C2AFE49000C6F0D2AF22F1
:101A200053B2F353B1F3D2B2D2B3D288D28AD2A88E
:031A3000D2AA2215
:03000300021A33AB
:101A3300C0E0C083C0829000C67401F0D082D0831E
:031A4300D0E032BE
:03001300021A4688
:101A4600C0E0C083C0829000C67402F0D082D0830A
:031A5600D0E032AB
:10137100C202E4FDC2AF9000C6E0FCD2AF20B201D0
:101381000D20B3027D02ED700AC201EC6003121858
:10139100F9C322EC60031218F920012FD201900049
:1013A100CAEEF0A3EFF01218D56401700A1218E129
:1013B1004005E014F0D202ED6402700A1218ED50FB
:1013C10005E004F0D202D2AFA202229000CAE0FAF4
:1013D100A3E0FBC3EF9BFBEE9AFAC3EB942CEA94D8
:1013E10001403D9000C8E0FAA3E0FBEF9BFBEE9AC1
:1013F100FAC3EB9496EA940040261218D5FF7E00BA
:101401006401700A1218E14005E014F0D202EF64A1
:10141100024E700A1218ED5005E004F0D202D2AF6C
:02142100A20225
:0114230022A6
:091AAC00C2AF9000C7E0FFD2AF09
:011AB500220E
:10066200000000000000000000005F000000000029
:10067200000007000700000000147F147F14000030
:1006820000242A7F2A12000000626408132300005B
:10069200003649552250000000000503000000000A
:1006A20000001C2241000000000041221C0000004A
:1006B2000014083E081400000008083E0808000064
:1006C200000000A060000000000808080808000000
:1006D200000060600000000000201008040200001A
:1006E200003E5149453E00000000427F40000000AC
:1006F2000042615149460000002141454B31000052
:10070200001814127F1000000027454545390000EB
:10071200003C4A494930000000017109050300000C
:10072200003649494936000000064949291E0000A1
:1007320000003636000000000000563600000000BF
:1007420000081422410000000014141414140000C4
:1007520000004122140800000002015109060000B5
:1007620000324979413E0000007E1111117E0000E5
:10077200007F494949360000003E414141220000C4
:10078200007F4141221C0000007F4949494100008D
:10079200007F090909010000003E4149497A000031
:1007A200007F0808087F00000000417F4100000030
:1007B200002040413F010000007F08142241000058
:1007C200007F404040400000007F020C027F00009A
:1007D200007F0408107F0000003E4141413E0000BE
:1007E200007F090909060000003E4151215E000018
:1007F200007F0919294600000026494949320000B4
:100802000001017F01010000003F4040403F000025
:10081200001F2040201F0000003F4038403F0000E2
:100822000063140814630000000708700807000042
:10083200006151494543000000007F414100000032
:100842000002040810200000000041417F00000067
:100852000004020102040000004040404040000049
:1008620000000102040000000020545454780000EB
:10087200007F4844443800000038444444200000CB
:1008820000384444487F0000003854545418000093
:1008920000087E09010200000018A4A4A47C000044
:1008A200007F0804047800000000447D400000003E
:1008B200004080847D000000007F1028440000007A
:1008C2000000417F40000000007C04180478000012
:1008D200007C0804047800000038444444380000D6
:1008E20000FC2424241800000018242418FC000012
:1008F200007C0804040800000048545454200000FE
:1009020000043F4440200000003C4040207C0000A6
:10091200001C2040201C0000003C4030403C0000F5
:100922000044281028440000001CA0A0A07C000065
:10093200004464544C4400000000083641000000AA
:100942000000007F000000000000413608000000A7
:08095200000201020402000092
:101424002F24F0FF9000A6E0FD9000A3E022FBFF34
:10143400E0FD9000D4E09000CFF09000D5E0900063
:10144400D0F02274002FF582E43400F58322EF13E8
:101454001313541F9000BAF0FD9000B6E09000BB47
:10146400F09000B8E0FF3395E0FEEF78032290009F
:10147400BCE0FFC394087480948022781BE6FFC309
:1014840094807480948022900099E0FF900097E00B
:1014940022FF9000A6E0FD227813E625E0FF18E67F
:1014A40033FE229000B4E0FF9000B2E02F227C00D3
:1014B4007D08AE020204999000A6E0131313541F92
:0814C40022120623E94A4B2223
:05000600D2B6D2B722C2
:081ABF007F01AE071FEE70FA73
:011AC70022FC
:0F1A7A00D2B6D2B7121ABFC2B6121ABFC2B72263
:0C1A9600C2B6D2B7121ABFD2B6021ABFF5
:07181000AC07121A7A7F7881
:02181700AD071B
:10181900E4FBEB121477501FED5480FFC41313132C
:10182900540124FF92B6ED25E0FDD2B7121ABFC2CA
:0C183900B7121ABF0B80DBD2B6021ABF38
:1019E100D2B6121ABFD2B7121ABFA2B69202C2B7AA
:0519F100121ABFA20262
:0119F60022CE
:1019AF001218101219E17F801218171219E1AF04E3
:0919BF001218171219E1021A9620
:1019C8001218101219E17F401218171219E1AF040A
:0919D8001218171219E1021A9607
:10190300EF44B0FF1219AFE4FF1219AF7F101219A1
:10191300AFE4FAEA121483500E74002A12144AE058
:07192300FF1219C80A80EC55
:01192A00229A
:1019F700E4FEEE121483500B74002E12144AE4F026
:061A07000E80EF0219033E
:101A5900E4F9E91214775008AF011219F70980F275
:011A6900225A
:10187700EF1214835029ED1214775023AE05A806F2
:101887007401088002C333D8FCFEEB6007121447CB
:0F189700E04EF022121447E0FFEEF4FEEF5EF099
:0118A600221F
:070FA500A9079000CEEBF05C
:100FAC00D3994005E099FF80099000CEE0FFC3E99A
:100FBC009FFF780A760008A6079000CFE0FFD39D2C
:100FCC004005EF9DFF80099000CFE0FFC3ED9FFF30
:100FDC00780C760008A6079000CEE0C39940067EF8
:100FEC00007F0180047EFF7FFF780EA60608A6070F
:100FFC009000CFE0C39D40067E007F0180047EFF01
:10100C007FFF7810A60608A607780AE6FE08E6C356
:10101C00780D96FFEE18967812F608A607AF010821
:10102C00760008A607AF057E0008EEF608EFF67C02
:10103C00007D081204997818A607E4781BF61214A0
:10104C007F5008121447E4F00680F37816E6FA088D
:10105C00E6FBFF1214B2781AA607AF031214B2788B
:10106C0019A60518E6FF781A666019121903E40828
:10107C00F612147F5008121447E4F00680F3781A25
:10108C00E67818F67815E6FF7819E6FD9000D0E0C2
:10109C00FB1218779000CEE0781566700218E67097
:1010AC000D9000CFE0781766700218E66069121494
:1010BC009C780CE6FC08E6FDC3E49DFBE49CFAD3AB
:1010CC00EF9BEA6480F8EE64809840177813E69DF5
:1010DC00F618E69CF6780EE6FE08E6781526F61865
:1010EC00EE36F612149C780AE6FC08E6FDC3EF9D7A
:1010FC00EC6480F8EE64809840030210577813ED8E
:10110C0026F618EC36F67810E6FE08E6781726F682
:0E111C0018EE36F60210577818E6FF02190397
:101785009000D2EDF09000D1EFF09000D3EBF09007
:1017950000D2E0FD12143A120FA59000D3E090009C
:1017A500D2121432120FA59000D1E0FF9000D4E0C0
:1017B500FD9000D3E0FB9000CFED12143D120FA574
:0B17C5009000D1E0A3121432020FA527
:0B1264009000B6EFF0A3EDF0A3EBF05C
:10126F00FF3395E0FEC3EF9420EE64809480400B33
:10127F00D3EF947EEE6480948040069000B8742083
:10128F00F09000B9E070269000B7E0FF54076003BC
:10129F0002132E121452C333CE33CED8F912132F9A
:1012AF00E4A3F0121472507712135A80F69000B91B
:1012BF00E06401706A9000B7E0FF54077061121488
:1012CF0052C333CE33CED8F912132FE4A3F0121436
:1012DF0072500512135A80F69000BAE00444B0FF22
:1012EF001219AFA3E0540FFF1219AFE0C4540F440B
:1012FF0010FF1219AFA37408F09000BCE0FFC39465
:10130F0010748094805018A31206238F8275830067
:0F131F00120405FF1219C89000BCE004F080DA38
:10132E00222462F974053EFA7BFF9000BD12062C52
:10133E00ED44B0FF1219AF9000BBE0540FFF12192D
:10134E00AFE0C4540F4410FF1219AF22A3120623AC
:10135E008F82758300120405FF1219C89000BCE03D
:03136E0004F02266
:061600009000AE12062C62
:101606009000B2EFF0A3EDF09000B1E0FF7E007025
:10161600047C0880027C109000B4ECF0EF4E70045D
:101626007F0880027F109000B5EFF0ED5407705FE1
:101636009000AE1206231203ECFB60531214A7FFB0
:10164600E433FED3EF9480EE64809480401EE4F091
:101656009000B5E0FF9000B3E02FF0E02FFFE433F9
:10166600FED3EF9440EE6480948050239000B2E065
:10167600FFA3E0FD9000B1E09000B9F012126412F1
:0F16860014A7F09000AFE475F0011204CF80A11B
:011695002232
:1014CC00120006E4FDFC121ABF0DBD00010CED6408
:1014DC00644C70F27FAE1219AF7FD51219AF7F80BA
:1014EC001219AF7FA81219AF7F3F1219AF7FD31219
:1014FC0019AFE4FF1219AF7F401219AF7F8D12198B
:10150C00AF7F141219AF7F201219AFE4FF1219AF7D
:10151C007FA11219AF7FC81219AF7FDA1219AF7FF2
:10152C00121219AF7F811219AF7FCF1219AF7FD969
:10153C001219AF7FF11219AF7FDB1219AF7F401276
:10154C0019AF7FA41219AF7FA61219AF7F2E1219F3
:0C155C00AF7FAF1219AF121ABF021A596C
:0F0BCA00900097EFF0900099EBF0900098EDF00D
:100BD90054076003020DB49000A3E0D394647480B9
:100BE900948040037464F0900099E0C3941E74806B
:100BF90094805003020DB4900098E0FE2408900000
:100C0900A6F0EE131313541FFF1219F71214BBFFAA
:100C19001219F790009A1214C5600D900097E0FF21
:100C2900A3E090009A120E1290009D1214C5604A1A
:100C3900E49000A8F090009D1206239000A91206E6
:100C49002C9000A91206231203EC60129000A8E070
:100C590004F09000AAE475F0011204CF80E31214A5
:100C69008B2FFF9000A8E075F008A4FEC3EF9EFF4C
:0A0C7900900098E090009D120E120A
:100C83009000A01214C56015900097E0121495907F
:100C930000A0120623E49000B1F01216009000A306
:100CA300E0FEC3946474809480402712148B2F2435
:100CB300E0121495EE75F064120DB524E8121427B2
:100CC30075F00A120DB512142575F00A84E5F002C9
:100CD3000D149000A3E0C3940A7480948012148BC3
:100CE300401A120DD224E812142775F00A84120D4B
:100CF300F012142475F00A84E5F08015120DD22445
:100D0300E8121495E49000B9F07B20120E0512143A
:100D130024120DF02F24F8121495E49000B9F07BFF
:100D230025120E052F24E09000A5F0900097E024F3
:100D3300039000A4F02404FFE433FEA3E0FD7C0051
:100D4300D39FEE6480F874809840669000A4E0FF1F
:100D5300ED9FFFEC9400FE9000A3E0FD1204327DB2
:100D630064120444A9071214BB44B0FF1219AF90D4
:100D730000A4E0540FFF1219AFE0C4540F4410FF56
:0F0D83001219AFE0FA9000A5E0FFEAC39F5022DB
:100D92009000A4E0FFC3EA9FC3999000A850057495
:0F0DA2003CF080037424F09000A8E0FF1219C801
:030DB1000A80D4E1
:100DB400228475F00A84E5F02430FBE49000B9F055
:100DC400121264900099E0FF900097E02F222F24E4
:100DD400E0FF9000A6E0FDE49000B9F07B20121241
:100DE40064900099E0FF900097E02F222430FBE408
:100DF4009000B9F0121264900099E0FF900097E01F
:100E040022121264900099E0FF900097E022FD12F4
:0B0E14000623E49000B1F0121600224B
:0C1A8900750823750908D509FDD508FA79
:011A9500222E
:101A6A00EF1FAC0670011E4C6005121A8980F12224
:100016000203D7E86480F8E933E83360110460F03E
:10002600ED33EC337009E8FCE9FDEAFEEBFF220450
:1000360060DED3EB9FEA9EE99DE8C2E78CF0C2F74B
:1000460095F0400CE8CCF8E9CDF9EACEFAEBCFFB17
:100056001203A285D0F05804700320D5B3E80470CB
:10006600075002B2D50203E192D5EC0460F7E4CC66
:10007600C0E0C398F8603B94186008400DD0E0FBE0
:100086000203B9E4FBFAC9FC8028E830E406E4C9B7
:10009600FBE4CAFCE830E305E4C9CACBFCE8540734
:1000A6006010F8C3E913F9EA13FAEB13FBEC13FC3F
:1000B600D8F130F52FC3E49CFCEF9BFFEE9AFEEDE2
:1000C60099FDD0E0FBEF4E4D4C701222DB0302038C
:1000D600DEEC2CFCEF33FFEE33FEED33FDED30E7C7
:1000E600EB0203B9EF2BFFEE3AFEED39FDD0E0FB54
:1000F60050130BBB00030203E1ED13FDEE13FEEFFD
:0801060013FFEC13FC0203B926
:10010E00EC4D6011E8497017ED33EC3304600DE4EB
:10011E00FCFFFEFD22E933E8330470F80203D71228
:10012E0003A258046009E4CC248150062850090229
:10013E0003E12840030203DEC0E0EB4A7044B980BD
:10014E0006D0E0FB0203CDEF4E701CBD8008EBFF26
:10015E00EAFEE9FD80EBE98DF0A4FEE5F00201F781
:10016E00E9CDF9EAFEEBFFEF89F0A4FCE5F0CE89CC
:10017E00F0A42EFFE435F0CD89F0A42DFEE435F089
:10018E008067EF4E7005BD80D780C3EF8BF0A4ACB7
:10019E00F0EE8BF0A42CFCE435F0F8EF8AF0A42CF2
:1001AE00E5F038FCE433CB8DF0A42CFCE5F03BF805
:1001BE00EE8AF0A42CFCE5F038F8E433CF89F0A4F5
:1001CE002CFCE5F038CF3400CE89F0A42FFFE5F0FB
:1001DE003EFEE433C98DF0A42EFEE5F039CD8AF053
:1001EE00A42FFFE5F03EFEE43DFD33D0E0FB5007CB
:1001FE000BBB000F0203E1EC2CFCEF33FFEE33FEE2
:06020E00ED33FD0203B90F
:100214000203E1EC5D046005E8590470030203D7AE
:100224001203A2580460F6EC4860F2EC7004FDFE80
:10023400FF22C860DB2481C85009C39860025006BD
:100244000203DE9850CAF582E9294B4A7005AB8255
:100254000203CD75F0007C1A7880C3EF9BEE9AED13
:1002640099400DC3EF9BFFEE9AFEED99FDE842F035
:10027400DC23ACF0D0E0FFD0E0FED0E0FDAB822088
:10028400E7101BEB60BAEC2CFCEF33FFEE33FEED12
:1002940033FD0203B9E803F830E705C0F075F00058
:1002A400EF2FFFEE33FEED33FD40B830E7C280AAF6
:1002B40074F8CC6480CCC86480C8F58204604FC3F1
:1002C400EB9FF5F0EA9E42F0E99D42F0E89C45F090
:1002D400603C501DE5825FFFE582D313CB5BCBF41A
:1002E4002B5582FB50280ABA002409B90020088043
:1002F4001DE5825BFBE582D313CF5FCFF4C3132FDD
:100304005582FF50090EBE00050DBD00010CC3EB64
:100314009FF5F0EA9E42F0E99D42F0E89C45F060CA
:0903240007CC4820E701B3EC22EC
:10032D0075F020800E75F010800575F0087D007E4B
:10033D00007F003392D530D5031205C0EC33401049
:10034D00EF33FFEE33FEED33FDEC33FCD5F0ED2254
:0E035D00E5F0247EA2D513CC92E7CDCEFF2290
:10036B00EDD2E7CD33EC3392D524814006E4FFFE8A
:10037B00FDFC22FCE4CFCECDCC24E0501174FF80E9
:10038B00EDC3CC13CCCD13CDCE13CECF13CF047086
:07039B00F030D5DE0205C0C1
:1003A200E9D2E7C933E833F892D5EDD2E7CD33ECA1
:0703B20033FC5002B2D5221A
:1003B900EC30E7100FBF000C0EBE00080DBD0004A5
:1003C9000BEB6014A2D5EB13FCED92E7FD2274FF51
:1003D900FCFDFEFF22E480F8A2D574FF13FC7D80AA
:0303E900E480EFBE
:030000000216964F
:0C169600787FE4F6D8FD75812A0216DD8D
:1003EC00BB010689828A83E0225002E722BBFE020F
:0903FC00E32289828A83E4932242
:10040500BB010CE58229F582E5833AF583E02250AC
:1004150006E92582F8E622BBFE06E92582F8E222F6
:0D042500E58229F582E5833AF583E4932210
:10043200EF8DF0A4A8F0CF8CF0A428CE8DF0A42EDE
:02044200FE2298
:10044400BC000BBE0029EF8DF084FFADF022E4CC9C
:10045400F875F008EF2FFFEE33FEEC33FCEE9DEC65
:10046400984005FCEE9DFE0FD5F0E9E4CEFD22EDAB
:10047400F8F5F0EE8420D21CFEADF075F008EF2FF5
:10048400FFED33FD4007985006D5F0F222C398FDE6
:050494000FD5F0EA2283
:10049900C2D5EC30E709B2D5E4C39DFDE49CFCEE7E
:1004A90030E715B2D5E4C39FFFE49EFE120444C3AE
:1004B900E49DFDE49CFC800312044430D507C3E4A9
:0604C9009FFFE49EFE22ED
:1004CF00C5F0F8A3E028F0C5F0F8E58215827002B8
:0604DF001583E038F02255
:0D04E500EF2BFFEE3AFEED39FDEC38FC2266
:1004F20075F008758200EF2FFFEE33FECD33CDCCC1
:1005020033CCC58233C5829BED9AEC99E582984043
:100512000CF582EE9BFEED9AFDEC99FC0FD5F0D620
:10052200E4CEFBE4CDFAE4CCF9A88222B800C1B94A
:100532000059BA002DEC8BF084CFCECDFCE5F0CB88
:10054200F97818EF2FFFEE33FEED33FDEC33FCEBC1
:1005520033FB10D703994004EB99FB0FD8E5E4F97C
:10056200FA227818EF2FFFEE33FEED33FDEC33FC69
:10057200C933C910D7059BE99A4007EC9BFCE99A5D
:10058200F90FD8E0E4C9FAE4CCFB2275F010EF2FA2
:10059200FFEE33FEED33FDCC33CCC833C810D707A2
:1005A2009BEC9AE899400AED9BFDEC9AFCE899F8DD
:0E05B2000FD5F0DAE4CDFBE4CCFAE4C8F92270
:0E05C000C3E49FFFE49EFEE49DFDE49CFC224C
:0C05CE00E0FCA3E0FDA3E0FEA3E0FF22A0
:0C05DA00E0F8A3E0F9A3E0FAA3E0FB22A4
:0C05E600ECF0A3EDF0A3EEF0A3EFF02288
:1005F200A8828583F0D083D08212060912060912DE
:100602000609120609E473E493A3C583C5F0C58302
:10061200C8C582C8F0A3C583C5F0C583C8C582C852
:0106220022B5
:09062300E0FBA3E0FAA3E0F922D8
:09062C00EBF0A3EAF0A3E9F022CF
:10063500EC8EF0A4CCC5F0CCCDF8EFA4CEC5F02D52
:10064500FDE43CFCE8A42EC8C5F03DFDE43CFCEF10
:0D065500A4FFE5F028FEE43DFDE43CFC229E
:1016A20002095AE493A3F8E493A34003F68001F2FB
:1016B20008DFF48029E493A3F85407240CC8C33349
:1016C200C4540F4420C8834004F456800146F6DF18
:1016D200E4800B0102040810204080901845E47E4B
:1016E200019360BCA3FF543F30E509541FFEE4930D
:1016F200A360010ECF54C025E060A840B8E493A3D4
:10170200FAE493A3F8E493A3C8C582C8CAC583CAFE
:10171200F0A3C8C582C8CAC583CADFE9DEE780BEB6
:011876000071
:00000001FF
