:10192400536574205468723A00426F74682D3E42C5
:0E19340061636B004E6F536967004C6F770064
:10186E00043D0000000002430000013C0002410064
:03187E0000C100A6
:101942007833E6FFC3940474809480227A00792B62
:0D1952000206512430FBE49000A2F0FD22BB
:1019BD00438E805389F0758A06758CFFC28DD28C4B
:0319CD00D2A9227A
:03000B00021906D1
:10190600C0E0C0D075D000C000758CFF758A06781F
:0E1916004406E618700106D000D0D0D0E032B2
:10097F00E47821F608F6C2AF121507121A091216FB
:10098F00C5121A691219D01219BDE47833F612196B
:10099F00425015EF04FFE4FD1218E27833E6243DD0
:1009AF00F8E4F678330680E6D2AF7843E6FE08E641
:1009BF00FF7823EEF6FE08EFF6FF1213AC20B249D4
:1009CF0020B34620004B7841E6FE08E6FF4E70103C
:1009DF007823E6FC08E6FD7841A60408A6058031D9
:1009EF00C37824E69FFF18E69EFEC3EF9432EE9481
:1009FF0000401ED200783CE670047F0180027F0029
:100A0F00783CA607121A098008E47841F608F6C266
:100A1F0000783CE6605D121A5F7834A607E4FF1297
:100A2F0019A77BFF7A197924E490009AF0FDFF1241
:100A3F0015A37834E675F00A841219557F3812120F
:100A4F009F7834E675F00A84E5F01219557F40124D
:100A5F00129FE49000A2F07B25FD7F4812129F7B2E
:100A6F00FF7A19792DE490009AF07D10FF1215A3EB
:100A7F000209B97823E6FE08E6FFC3782296FDEE59
:100A8F001896FCC3ED94E8EC940350030209B9A641
:100A9F000608A607121A5F7834A607E418F612198B
:100AAF004240030209B9C2AF120FE278351205FFB7
:100ABF00D2AF782576430876680876207833E62417
:100ACF00317928F7E47829F67F0A7ED77D237C3C9D
:100ADF0078351205E61202B45020782B762D087661
:100AEF002D08762DE408F67833E604FF7D01120B0E
:100AFF00F17BFF7A197938020B8C78351205CE12FB
:100B0F00036B7839EFF6FCE4120337C004C005C05D
:100B1F0006C00778351205CED003D002D001D00021
:100B2F00120019E4FBFA7920784112010E12036BBF
:100B3F00783AA60778351205CE121165783BA607CD
:100B4F007839E62430792BF7782C762E783AE6240C
:100B5F0030792DF7782E7656E408F67FCD7ECC7D52
:100B6F002C7C4078351205E61202B450277833E614
:100B7F0004FFE4FD120BF17BFF7A19793E9000869A
:100B8F001206517B0090008912194EE490008CF0F0
:100B9F007B808044793BE7C3783496400818E6049D
:100BAF00FFE4FD80077833E604FF7D011218E27839
:100BBF0033E6C454F0FD7B007A0079259000831250
:100BCF00065190008612194E900089120651783BFB
:100BDF00E690008CF07B80E4FF120C08783306025D
:020BEF000AAD4D
:100BF1001218E27833E6C454F0FD7B007A007925BF
:070C0100900083120651224E
:1018BE00106810040FA00F3C0ED80E740E100DAC55
:1018CE000D480CE40C800BB8645A4B37281E140CD0
:0418DE0007030100FB
:10181200EF25E02484F582E43400F583E0FCA3E0C4
:10182200FDEF25E02482F582E43400F58322900066
:0E18320080E004F02212060B90008E0205DA10
:0A1A550053DEF043DE0275DF352298
:1016C5005392F043910F439D0F438E01121A5575A6
:1016D500BC80E4900080F0900080E0C394C87480E2
:1016E5009480500F7F017E00121A2A900080E0043A
:1016F500F080E4E4900080F0900080E0C3940A74E8
:101705008094805015E4FF12176B900081EEF0A3D2
:0A171500EFF0900080E004F080DEA9
:01171F0022A7
:10176B00EF5407FF4488F5BC00000000E4FDFCE5E6
:10177B00BC20E4160DED70010CD39430EC94754045
:10178B00EEEF4480F5BCE4FEFF22EF4480F5BCAFE6
:10179B00BDEF75F004A4FFAEF0E5BE5403FDEF4DB5
:0117AB00FF3E
:0117AC00221A
:020FE200AB075B
:100FE400E4900080F0900080E0C3940A74809480C0
:100FF4005013AF0312176BE0121824EEF0A3EFF0B6
:1010040012183080E0E4900080F0900080E0C394F7
:1010140009748094805051E4FF900080E0FEC37412
:10102400099EFEEFC39E503A121812E0FAA3E0FBA9
:10103400D39DEA9C4029900096EAF0A3EBF01218A5
:1010440012ECF0A3EDF0900096E0FCA3E0FDEF2598
:10105400E02484F582E43400F583ECF0A3EDF00F92
:1010640080B712183002100E90008CE0FEA3E0FF4F
:1010740090008BE02FFF90008AE03EC313FEEF1335
:10108400FF90009CEEF0A3EFF0900098120617007A
:10109400000000E4900081F090008004F090008053
:1010A400E0FFD3940874809480505490009CE0FC3A
:1010B400A3E0FD24E2FBEC34FFFA121823E0FEA3C4
:1010C400E0FFC39BEE9A4032ED241EFDE43CFCD3CA
:1010D400EF9DEE9C50249000981205F3900080E060
:1010E400121824E0FEA3E0FFE4FCFD1204E59000E6
:1010F4009812060B900081E004F0121830809E9044
:101104000081E0700E90009CE0FCA3E0FDE412037B
:1011140032802E9000981205DAE412032DC004C028
:1011240005C006C007900081E0FCE4120337A80460
:10113400A905AA06AB07D007D006D005D004120231
:1011440017E4FBFA79807844120217E4FBFA79A0D9
:10115400784012010E90009E12060B90009E02052C
:01116400DAB0
:0611650090008012060B51
:10116B00E4FFFE7D7A7C449000801205F312010EA1
:10117B00E4FBFAF9783F12001D12036B900084EE2A
:10118B00F0A3EFF0C39468EE941040037F6422D376
:10119B00900085E094B8900084E0940B50037F009E
:0111AB002221
:1011AC00E4900086F0900086E0FFC3940B7480946A
:1011BC0080400302129CEF25E024BEF582E4341833
:1011CC00F583E493FC740193FDEF25E024C0F582D4
:1011DC00E43418F583E493FF740193900087CFF007
:1011EC00A3EFF0900086E0FF9018D693900089F062
:1011FC00EF9018D793F9900084E0FEA3E0FFD39D05
:10120C00EE9C4003021293900087E0FAA3E0FBC32C
:10121C00EF9BEE9A4071ED9BFEEC9A90008AF0A346
:10122C00CEF0AF01900089E0F9C39FFEE4940090EA
:10123C00008CF0A3CEF090008AE07002A3E0700363
:10124C00AF0122900084E0FEA3E0FFC3ED9FFFEC12
:10125C009EFE90008CE0FCA3E0FD12065AA312182F
:10126C0037C006C00790008AE0FEA3E0FBAA06E4A4
:10127C00F9F8D007D00612052E90008E1218379070
:10128C000089E0C39FFF22900086E004F00211B1B8
:02129C007F00D1
:01129E00222D
:091A6900D294D295D2CCD2CD2248
:061A7B00EF24FF9294220B
:061A8100EF24FF92952204
:061A8700EF24FF92CC22C7
:061A8D00EF24FF92CD22C0
:1018E200EF24FE600F14601114601324037014AF10
:1018F20005021A7BAF05021A81AF05021A87AF05EE
:04190200121A8D2206
:101881004100AA464100A9004200AD00004200AB60
:041891000000C10191
:101840009000ABEEF0A3EFF0C2AFED229000AAE063
:10185000D3940074809480229000AAE0C3946474AE
:0E18600080948022C2AFE49000A9F0D2AF22A3
:1019D00053B2F353B1F3D2B2D2B3D288D28AD2A8DF
:0319E000D2AA2266
:030003000219E3FC
:1019E300C0E0C083C0829000A97401F0D082D0838C
:0319F300D0E0320F
:030013000219F6D9
:1019F600C0E0C083C0829000A97402F0D082D08378
:031A0600D0E032FB
:1013AC00C202E4FDC2AF9000A9E0FCD2AF20B201B2
:1013BC000D20B3027D02ED700AC201EC600312181D
:1013CC0064C322EC600312186420012FD201900038
:1013DC00ADEEF0A3EFF01218406401700A12184C35
:1013EC004005E014F0D202ED6402700A1218585055
:1013FC0005E004F0D202D2AFA202229000ADE0FAD6
:10140C00A3E0FBC3EF9BFBEE9AFAC3EB942CEA949C
:10141C0001403D9000ABE0FAA3E0FBEF9BFBEE9AA2
:10142C00FAC3EB9496EA94004026121840FF7E0013
:10143C006401700A12184C4005E014F0D202EF64FB
:10144C00024E700A1218585005E004F0D202D2AFC6
:02145C00A202EA
:01145E00226B
:091A5F00C2AF9000AAE0FFD2AF73
:011A6800225B
:10068700000000000000000000005F000000000004
:10069700000007000700000000147F147F1400000B
:1006A70000242A7F2A120000006264081323000036
:1006B70000364955225000000000050300000000E5
:1006C70000001C2241000000000041221C00000025
:1006D7000014083E081400000008083E080800003F
:1006E700000000A0600000000008080808080000DB
:1006F70000006060000000000020100804020000F5
:10070700003E5149453E00000000427F4000000086
:100717000042615149460000002141454B3100002C
:10072700001814127F1000000027454545390000C6
:10073700003C4A49493000000001710905030000E7
:10074700003649494936000000064949291E00007C
:10075700000036360000000000005636000000009A
:10076700000814224100000000141414141400009F
:100777000000412214080000000201510906000090
:1007870000324979413E0000007E1111117E0000C0
:10079700007F494949360000003E4141412200009F
:1007A700007F4141221C0000007F49494941000068
:1007B700007F090909010000003E4149497A00000C
:1007C700007F0808087F00000000417F410000000B
:1007D700002040413F010000007F08142241000033
:1007E700007F404040400000007F020C027F000075
:1007F700007F0408107F0000003E4141413E000099
:10080700007F090909060000003E4151215E0000F2
:10081700007F09192946000000264949493200008E
:100827000001017F01010000003F4040403F000000
:10083700001F2040201F0000003F4038403F0000BD
:10084700006314081463000000070870080700001D
:10085700006151494543000000007F41410000000D
:100867000002040810200000000041417F00000042
:100877000004020102040000004040404040000024
:1008870000000102040000000020545454780000C6
:10089700007F4844443800000038444444200000A6
:1008A70000384444487F000000385454541800006E
:1008B70000087E09010200000018A4A4A47C00001F
:1008C700007F0804047800000000447D4000000019
:1008D700004080847D000000007F10284400000055
:1008E7000000417F40000000007C041804780000ED
:1008F700007C0804047800000038444444380000B1
:1009070000FC2424241800000018242418FC0000EC
:10091700007C0804040800000048545454200000D8
:1009270000043F4440200000003C4040207C000081
:10093700001C2040201C0000003C4030403C0000D0
:100947000044281028440000001CA0A0A07C000040
:10095700004464544C440000000008364100000085
:100967000000007F00000000000041360800000082
:0809770000020102040200006D
:10145F002F24F0FF90008FE0FD90008CE022FBFF27
:10146F00E0FD9000B7E09000B2F09000B8E090007F
:10147F00B3F02274002FF582E43400F58322EF13CA
:10148F001313541F9000A3F0FD90009FE09000A451
:10149F00F09000A1E0FF3395E0FEEF78032290007B
:1014AF00A5E0FFC394087480948022781BE6FFC3E5
:1014BF0094807480948022900082E0FF900080E0FE
:1014CF0022FF90008FE0FD227813E625E0FF18E65B
:1014DF0033FE2290009DE0FF90009BE02F227C00C6
:1014EF007D08AE0202049990008FE0131313541F6E
:0814FF0022120648E94A4B22C3
:05000600D2B6D2B722C2
:081A72007F01AE071FEE70FAC0
:011A7A002249
:0F1A3A00D2B6D2B7121A72C2B6121A72C2B7223D
:0C1A4900C2B6D2B7121A72D2B6021A72DC
:0717AD00AC07121A3A7F7825
:0217B400AD077F
:1017B600E4FBEB1214B2501FED5480FFC413131355
:1017C600540124FF92B6ED25E0FDD2B7121A72C27B
:0C17D600B7121A720B80DBD2B6021A7236
:10199100D2B6121A72D2B7121A72A2B69202C2B794
:0519A100121A72A202FF
:0119A600221E
:10195F001217AD1219917F801217B4121991AF049B
:09196F001217B4121991021A4971
:101978001217AD1219917F401217B4121991AF04C2
:091988001217B4121991021A4958
:10189600EF44B0FF12195FE4FF12195F7F101219AF
:1018A6005FE4FAEA1214BE500E74002A121485E0A0
:0718B600FF1219780A80EC13
:0118BD002208
:1019A700E4FEEE1214BE500B74002E121485E4F000
:0619B7000E80EF021896FD
:101A0900E4F9E91214B25008AF011219A70980F2DA
:011A190022AA
:1017E200EF1214BE5029ED1214B25023AE05A80612
:1017F2007401088002C333D8FCFEEB600712148226
:0F180200E04EF022121482E0FFEEF4FEEF5EF0F3
:0118110022B4
:070E5D00A9079000B1EBF0C2
:100E6400D3994005E099FF80099000B1E0FFC3E900
:100E74009FFF780A760008A6079000B2E0FFD39D92
:100E84004005EF9DFF80099000B2E0FFC3ED9FFF96
:100E9400780C760008A6079000B1E0C39940067E5E
:100EA400007F0180047EFF7FFF780EA60608A60758
:100EB4009000B2E0C39D40067E007F0180047EFF67
:100EC4007FFF7810A60608A607780AE6FE08E6C3A0
:100ED400780D96FFEE18967812F608A607AF01086B
:100EE400760008A607AF057E0008EEF608EFF67C4C
:100EF400007D081204997818A607E4781BF61214EA
:100F0400BA5008121482E4F00680F37816E6FA0860
:100F1400E6FBFF1214ED781AA607AF031214ED785E
:100F240019A60518E6FF781A666019121896E408DF
:100F3400F61214BA5008121482E4F00680F3781AF8
:100F4400E67818F67815E6FF7819E6FD9000B3E028
:100F5400FB1217E29000B1E0781566700218E67093
:100F64000D9000B2E0781766700218E660691214FA
:100F7400D7780CE6FC08E6FDC3E49DFBE49CFAD3B9
:100F8400EF9BEA6480F8EE64809840177813E69D3E
:100F9400F618E69CF6780EE6FE08E6781526F618AE
:100FA400EE36F61214D7780AE6FC08E6FDC3EF9D88
:100FB400EC6480F8EE6480984003020F0F7813ED20
:100FC40026F618EC36F67810E6FE08E6781726F6CC
:0E0FD40018EE36F6020F0F7818E6FF02189698
:101720009000B5EDF09000B4EFF09000B6EBF090C3
:1017300000B5E0FD121475120E5D9000B6E0900049
:10174000B512146D120E5D9000B4E0FF9000B7E08A
:10175000FD9000B6E0FB9000B2ED121478120E5D21
:0B1760009000B4E0A312146D020E5DB7
:0B129F0090009FEFF0A3EDF0A3EBF038
:1012AA00FF3395E0FEC3EF9420EE64809480400BF8
:1012BA00D3EF947EEE6480948040069000A174205F
:1012CA00F09000A2E070269000A0E0FF54076003AF
:1012DA0002136912148DC333CE33CED8F912136AAE
:1012EA00E4A3F01214AD507712139580F69000A281
:1012FA00E06401706A9000A0E0FF54077061121464
:10130A008DC333CE33CED8F912136AE4A3F0121484
:10131A00AD500512139580F69000A3E00444B0FF87
:10132A0012195FA3E0540FFF12195FE0C4540F446F
:10133A0010FF12195FA37408F09000A5E0FFC39490
:10134A0010748094805018A31206488F8275830007
:0F135A00120405FF1219789000A5E004F080DA64
:10136900222487F974053EFA7BFF9000A6120651E4
:10137900ED44B0FF12195F9000A4E0540FFF121959
:101389005FE0C4540F4410FF12195F22A3120648EC
:101399008F82758300120405FF1219789000A5E069
:0313A90004F0222B
:0615A300900097120651B2
:1015A90090009BEFF0A3EDF090009AE0FF7E0070B1
:1015B900047C0880027C1090009DECF0EF4E7004D2
:1015C9007F0880027F1090009EEFF0ED5407705F56
:1015D9009000971206481203ECFB60531214E2FFC5
:1015E900E433FED3EF9480EE64809480401EE4F0EF
:1015F90090009EE0FF90009CE02FF0E02FFFE43385
:10160900FED3EF9440EE64809480502390009BE0D9
:10161900FFA3E0FD90009AE09000A2F012129F1241
:0F16290014E2F0900098E475F0011204CF80A154
:01163800228F
:10150700120006E4FDFC121A720DBD00010CED6419
:10151700644C70F27FAE12195F7FD512195F7F801E
:1015270012195F7FA812195F7F3F12195F7FD312CD
:10153700195FE4FF12195F7F4012195F7F8D12193F
:101547005F7F1412195F7F2012195FE4FF12195F82
:101557007FA112195F7FC812195F7FDA12195F7FA7
:101567001212195F7F8112195F7FCF12195F7FD91E
:1015770012195F7FF112195F7FDB12195F7F40122B
:10158700195F7FA412195F7FA612195F7F2E1219A8
:0C1597005F7FAF12195F121A72021A096E
:0F0C0800900080EFF0900082EBF0900081EDF013
:100C170054076003020DF290008CE0D39464748053
:100C2700948040037464F0900082E0C3941E748043
:100C370094805003020DF2900081E0FE240890009A
:100C47008FF0EE131313541FFF1219A71214F6FF98
:100C57001219A7900083121500600D900080E0FF25
:100C6700A3E0900083120E50900086121500604A90
:100C7700E4900091F09000861206489000921206C8
:100C8700519000921206481203EC6012900091E016
:100C970004F0900093E475F0011204CF80E312147E
:100CA700C62FFF900091E075F008A4FEC3EF9EFFEA
:0A0CB700900081E0900086120E50BC
:100CC1009000891215006015900080E01214D090F8
:100CD1000089120648E490009AF01215A390008C46
:100CE100E0FEC394647480948040271214C62F24BC
:100CF100E01214D0EE75F064120DF324E8121462C0
:100D010075F00A120DF312146075F00A84E5F00211
:100D11000D5290008CE0C3940A748094801214C622
:100D2100401A120E1024E812146275F00A84120E91
:100D31002E12145F75F00A84E5F08015120E10244E
:100D4100E81214D0E49000A2F07B20120E4312149A
:100D51005F120E2E2F24F81214D0E49000A2F07B23
:100D610025120E432F24E090008EF0900080E024A5
:100D71000390008DF02404FFE433FEA3E0FD7C002A
:100D8100D39FEE6480F8748098406690008DE0FFF8
:100D9100ED9FFFEC9400FE90008CE0FD1204327D8B
:100DA10064120444A9071214F644B0FF12195F90AB
:100DB100008DE0540FFF12195FE0C4540F4410FF7F
:0F0DC10012195FE0FA90008EE0FFEAC39F502204
:100DD00090008DE0FFC3EA9FC39990009150057485
:0F0DE0003CF080037424F0900091E0FF1219782A
:030DEF000A80D4A3
:100DF200228475F00A84E5F02430FBE49000A2F02E
:100E020012129F900082E0FF900080E02F222F2498
:100E1200E0FF90008FE0FDE49000A2F07B20121230
:100E22009F900082E0FF900080E02F222430FBE4BC
:100E32009000A2F012129F900082E0FF900080E0EA
:100E42002212129F900082E0FF900080E022FD12A9
:0B0E52000648E490009AF01215A3225D
:0F1A1A0000000075080B7509BED509FDD508FA47
:011A2900229A
:101A2A00EF1FAC0670011E4C6005121A1A80F122D3
:100016000203D7E86480F8E933E83360110460F03E
:10002600ED33EC337009E8FCE9FDEAFEEBFF220450
:1000360060DED3EB9FEA9EE99DE8C2E78CF0C2F74B
:1000460095F0400CE8CCF8E9CDF9EACEFAEBCFFB17
:100056001203A285D0F05804700320D5B3E80470CB
:10006600075002B2D50203E192D5EC0460F7E4CC66
:10007600C0E0C398F8603B94186008400DD0E0FBE0
:100086000203B9E4FBFAC9FC8028E830E406E4C9B7
:10009600FBE4CAFCE830E305E4C9CACBFCE8540734
:1000A6006010F8C3E913F9EA13FAEB13FBEC13FC3F
:1000B600D8F130F52FC3E49CFCEF9BFFEE9AFEEDE2
:1000C60099FDD0E0FBEF4E4D4C701222DB0302038C
:1000D600DEEC2CFCEF33FFEE33FEED33FDED30E7C7
:1000E600EB0203B9EF2BFFEE3AFEED39FDD0E0FB54
:1000F60050130BBB00030203E1ED13FDEE13FEEFFD
:0801060013FFEC13FC0203B926
:10010E00EC4D6011E8497017ED33EC3304600DE4EB
:10011E00FCFFFEFD22E933E8330470F80203D71228
:10012E0003A258046009E4CC248150062850090229
:10013E0003E12840030203DEC0E0EB4A7044B980BD
:10014E0006D0E0FB0203CDEF4E701CBD8008EBFF26
:10015E00EAFEE9FD80EBE98DF0A4FEE5F00201F781
:10016E00E9CDF9EAFEEBFFEF89F0A4FCE5F0CE89CC
:10017E00F0A42EFFE435F0CD89F0A42DFEE435F089
:10018E008067EF4E7005BD80D780C3EF8BF0A4ACB7
:10019E00F0EE8BF0A42CFCE435F0F8EF8AF0A42CF2
:1001AE00E5F038FCE433CB8DF0A42CFCE5F03BF805
:1001BE00EE8AF0A42CFCE5F038F8E433CF89F0A4F5
:1001CE002CFCE5F038CF3400CE89F0A42FFFE5F0FB
:1001DE003EFEE433C98DF0A42EFEE5F039CD8AF053
:1001EE00A42FFFE5F03EFEE43DFD33D0E0FB5007CB
:1001FE000BBB000F0203E1EC2CFCEF33FFEE33FEE2
:06020E00ED33FD0203B90F
:100214000203E1EC5D046005E8590470030203D7AE
:100224001203A2580460F6EC4860F2EC7004FDFE80
:10023400FF22C860DB2481C85009C39860025006BD
:100244000203DE9850CAF582E9294B4A7005AB8255
:100254000203CD75F0007C1A7880C3EF9BEE9AED13
:1002640099400DC3EF9BFFEE9AFEED99FDE842F035
:10027400DC23ACF0D0E0FFD0E0FED0E0FDAB822088
:10028400E7101BEB60BAEC2CFCEF33FFEE33FEED12
:1002940033FD0203B9E803F830E705C0F075F00058
:1002A400EF2FFFEE33FEED33FD40B830E7C280AAF6
:1002B40074F8CC6480CCC86480C8F58204604FC3F1
:1002C400EB9FF5F0EA9E42F0E99D42F0E89C45F090
:1002D400603C501DE5825FFFE582D313CB5BCBF41A
:1002E4002B5582FB50280ABA002409B90020088043
:1002F4001DE5825BFBE582D313CF5FCFF4C3132FDD
:100304005582FF50090EBE00050DBD00010CC3EB64
:100314009FF5F0EA9E42F0E99D42F0E89C45F060CA
:0903240007CC4820E701B3EC22EC
:10032D0075F020800E75F010800575F0087D007E4B
:10033D00007F003392D530D5031205C0EC33401049
:10034D00EF33FFEE33FEED33FDEC33FCD5F0ED2254
:0E035D00E5F0247EA2D513CC92E7CDCEFF2290
:10036B00EDD2E7CD33EC3392D524814006E4FFFE8A
:10037B00FDFC22FCE4CFCECDCC24E0501174FF80E9
:10038B00EDC3CC13CCCD13CDCE13CECF13CF047086
:07039B00F030D5DE0205C0C1
:1003A200E9D2E7C933E833F892D5EDD2E7CD33ECA1
:0703B20033FC5002B2D5221A
:1003B900EC30E7100FBF000C0EBE00080DBD0004A5
:1003C9000BEB6014A2D5EB13FCED92E7FD2274FF51
:1003D900FCFDFEFF22E480F8A2D574FF13FC7D80AA
:0303E900E480EFBE
:03000000021639AC
:0C163900787FE4F6D8FD7581440216802D
:1003EC00BB010689828A83E0225002E722BBFE020F
:0903FC00E32289828A83E4932242
:10040500BB010CE58229F582E5833AF583E02250AC
:1004150006E92582F8E622BBFE06E92582F8E222F6
:0D042500E58229F582E5833AF583E4932210
:10043200EF8DF0A4A8F0CF8CF0A428CE8DF0A42EDE
:02044200FE2298
:10044400BC000BBE0029EF8DF084FFADF022E4CC9C
:10045400F875F008EF2FFFEE33FEEC33FCEE9DEC65
:10046400984005FCEE9DFE0FD5F0E9E4CEFD22EDAB
:10047400F8F5F0EE8420D21CFEADF075F008EF2FF5
:10048400FFED33FD4007985006D5F0F222C398FDE6
:050494000FD5F0EA2283
:10049900C2D5EC30E709B2D5E4C39DFDE49CFCEE7E
:1004A90030E715B2D5E4C39FFFE49EFE120444C3AE
:1004B900E49DFDE49CFC800312044430D507C3E4A9
:0604C9009FFFE49EFE22ED
:1004CF00C5F0F8A3E028F0C5F0F8E58215827002B8
:0604DF001583E038F02255
:0D04E500EF2BFFEE3AFEED39FDEC38FC2266
:1004F20075F008758200EF2FFFEE33FECD33CDCCC1
:1005020033CCC58233C5829BED9AEC99E582984043
:100512000CF582EE9BFEED9AFDEC99FC0FD5F0D620
:10052200E4CEFBE4CDFAE4CCF9A88222B800C1B94A
:100532000059BA002DEC8BF084CFCECDFCE5F0CB88
:10054200F97818EF2FFFEE33FEED33FDEC33FCEBC1
:1005520033FB10D703994004EB99FB0FD8E5E4F97C
:10056200FA227818EF2FFFEE33FEED33FDEC33FC69
:10057200C933C910D7059BE99A4007EC9BFCE99A5D
:10058200F90FD8E0E4C9FAE4CCFB2275F010EF2FA2
:10059200FFEE33FEED33FDCC33CCC833C810D707A2
:1005A2009BEC9AE899400AED9BFDEC9AFCE899F8DD
:0E05B2000FD5F0DAE4CDFBE4CCFAE4C8F92270
:0E05C000C3E49FFFE49EFEE49DFDE49CFC224C
:0C05CE00E6FC08E6FD08E6FE08E6FF2259
:0C05DA00E0FCA3E0FDA3E0FEA3E0FF2294
:0D05E600E6FB08E6F908E6FA08E6CBF82285
:0C05F300E0F8A3E0F9A3E0FAA3E0FB228B
:0C05FF00ECF608EDF608EEF608EFF62228
:0C060B00ECF0A3EDF0A3EEF0A3EFF02262
:10061700A8828583F0D083D08212062E12062E126E
:10062700062E12062EE473E493A3C583C5F0C58393
:10063700C8C582C8F0A3C583C5F0C583C8C582C82D
:010647002290
:09064800E0FBA3E0FAA3E0F922B3
:09065100EBF0A3EAF0A3E9F022AA
:10065A00EC8EF0A4CCC5F0CCCDF8EFA4CEC5F02D2D
:10066A00FDE43CFCE8A42EC8C5F03DFDE43CFCEFEB
:0D067A00A4FFE5F028FEE43DFDE43CFC2279
:1016450002097FE493A3F8E493A34003F68001F233
:1016550008DFF48029E493A3F85407240CC8C333A6
:10166500C4540F4420C8834004F456800146F6DF75
:10167500E4800B010204081020408090186EE47E7F
:10168500019360BCA3FF543F30E509541FFEE4936A
:10169500A360010ECF54C025E060A840B8E493A331
:1016A500FAE493A3F8E493A3C8C582C8CAC583CA5C
:1016B500F0A3C8C582C8CAC583CADFE9DEE780BE14
:011895000052
:00000001FF
