:101B8400496E697469616C697A696E672E2E0054B6
:101B9400683A202564004368202564004C6F772050
:101BA400566F6C7400252E32665600252E3166253C
:0F1BB40025284F7665722900252E3166252500DC
:0A1D5F00040D000000000211000056
:101B43007B007A00792B9000831208047A00792FA6
:101B53009000861208047A007934900089120804F0
:101B6300E422FFFE7DC87C4278271207B312010EE0
:101B730012036B90008CEFF0227BFF90008302082E
:011B8300045D
:03000B00021D4192
:101D4100C0E0C0D075D000C000758CFF758A0678E0
:0E1D51001206E618700106D000D0D0D0E032A5
:100FAE00E47843F608F608F608F608F61218B712B3
:100FBE001E507BFF7A1B79841211E6121E61121EDF
:100FCE00AC121E3F120000121803121ED67842EF0A
:100FDE00F61866603D08E618F6784776017811E651
:100FEE00FE08E6FF7845A60608A6077F01121DDB60
:100FFE007A1B7993121B7C7841E6900086F07B0079
:10100E007A0079391208987B007A0079391211E644
:10101E0080237847E6601EC37912E71896FF19E71A
:10102E001896FEC3EF94E8EE94034009E47847F671
:10103E007F01121DDB7811E6FE08E6FFC3784496A9
:10104E00FDEE1896FCC3ED94E8EC94035003020FEA
:10105E00D5A60608A607E47822F67822E6FFC39402
:10106E0004748094804003020FD5121D227823123F
:10107E0007CC782312079B1215A678271207CC7F70
:10108E00CD7ECC7D2C7C4078231207B31202B45057
:10109E00497822E61211C51208987A1B79A0121B04
:1010AE007C7B007A00792F1208987BFF7A1B79A936
:1010BE00121B7E782312079B9000861207D87B00A6
:1010CE007A0079341208987822E6C454F0FD121B87
:1010DE004390008CF07B800211217841E6FCE412F3
:1010EE00033778271207B31202B4603640347822E1
:1010FE00E6FF240DF8E66075EF1211C51208987A16
:10110E001B79AF121181C005121B43121B65D0054E
:10111E007B80E4FF1211F27822E6240DF8E4F60249
:10112E00117B7822E6FF240DF8E67006740D2FF879
:10113E0076017822E604FF7D01121E067BFF7A1BE4
:10114E00799A121B7E7822E6900086F07B007A0058
:10115E00792B1208987A1B79BC121181C005121BCB
:10116E0043121B65D0057B80E4FF1211F278220634
:03117E00021068F4
:101181007BFF900083120804782712079B9000864A
:101191001207D87B007A00792F1208987BFF7A1BFF
:1011A10079A9900083120804782312079B90008686
:1011B1001207D87B007A0079341208987822E6C4A5
:1011C10054F0FD2204FFE4FD121E067BFF7A1B7919
:1011D1009A9000831208047822E6900086F07B0042
:1011E1007A00792B22E490009DF07D14FF121953AF
:0111F10022DB
:101BC300408666664081EB85407EB852407AE148A4
:101BD3004077AE1440747AE140728F5C407147AE37
:101BE300406F5C29406B851F405CCCCD40400000BA
:0C1BF300645A50463C32281E140A0500BB
:101D01001207A79000801207C00202B41207C09008
:101D110000871207A70200197D017BFF7E000206E2
:011D21006E53
:101E61005392F043910F5397F843970343BC802259
:101CDB0053BCF0EF540F42BC43BC40E5BC30E5FBBA
:101CEB00AFBDEF75F004A4FFAEF0E5BE5403FDEFFE
:051CFB004DFF53BCDFAA
:011D000022C0
:101D2200121CDBAD07AC06E4120332E4FBFA798045
:0F1D32007844120217E4FBFA79A0784002010E00
:0615A6009000801207D83E
:1015AC0078977C007A1B79C37F30121D1978C77C21
:1015BC00007A1B79F37F0C121D199000D3740CF078
:1015CC007F667E667D867C40121D044008E4FFFE2B
:1015DC007DC87C4222E4FFFE7D407C40121D0460ED
:1015EC000250030216F0E4900084F09000D3E01453
:1015FC00FF900084E0FBC39F40030216F0EB25E054
:10160C0025E02497F582E43400F5831207A79000B7
:10161C00871207D8EB25E025E0249BF582E4340003
:10162C00F5831207A790008B1207D8900084E0FF77
:10163C0024C7F582E43400F583E0900085F074C88B
:10164C002FF582E43400F583E0900086F0A3121DA0
:10165C0001600540030216E790008B121D01407BD0
:10166C0090008B121D0DC004C005C006C007900071
:10167C0080121D0DD003D002D001D00012021790A1
:10168C00008F1207D8900086E0FF900085E0C39F82
:10169C00FDE49400FC12033290008F1207C012017B
:1016AC000EC004C005C006C007900085E0FCE41223
:1016BC000337D003D002D001D00012001990009350
:1016CC001207D8E4FFFEFD7C3F9000931207C01276
:1016DC00001D12036BAC07E4020337900084E00496
:0916EC00F00215F7E4FFFEFDFC1D
:0116F50022D2
:091EAC00D294D295D2CCD2CD2201
:061EBE00EF24FF929422C4
:061EC400EF24FF929522BD
:061ECA00EF24FF92CC2280
:061ED000EF24FF92CD2279
:101E0600900080EFF0AF05121EBE121EC4121ECA4D
:031E1600021ED0D9
:101D69004100D5004100D4004200D700004100D60F
:011D79000069
:101DAD009000D5E0D3940074809480229000D5E00B
:081DBD00C39464748094802239
:101E3F0053B2F343B10CD288D28AD2A8D2AAD2AF6E
:011E4F002270
:03000300021E19C1
:101E1900C0E0C083C0829000D47401F0D082D08326
:031E2900D0E032D4
:03001300021E2C9E
:101E2C00C0E0C083C0829000D47402F0D082D08312
:031E3C00D0E032C1
:101803009000D4E07002803B7F0A7E00121E81E4C8
:101813009000D6F09000D4E0FF7E006401700820B1
:10182300B2059000D604F0EF64024E700920B306AF
:101833009000D67402F09000D6E0FF7E00700B900B
:1018430000D4F09000D7F0A3F0229000D7E070020C
:10185300A3E0701EEF64014E7008121DAD4003E05B
:1018630014F09000D6E064027008121DB95003E032
:1018730004F09000D7E475F001120777C39000D805
:10188300E094329000D7E0940040289000D6E0FF27
:101893007E0064017008121DAD4003E014F0EF6494
:1018A300024E7008121DB95003E004F07F327E002F
:0418B300121E81225E
:061ED6009000D5E0FF22A0
:100CB600000000000000000000005F0000000000CF
:100CC600000007000700000000147F147F140000D6
:100CD60000242A7F2A120000006264081323000001
:100CE60000364955225000000000050300000000B0
:100CF60000001C2241000000000041221C000000F0
:100D06000014083E081400000008083E0808000009
:100D1600000000A0600000000008080808080000A5
:100D260000006060000000000020100804020000BF
:100D3600003E5149453E00000000427F4000000051
:100D46000042615149460000002141454B310000F7
:100D5600001814127F100000002745454539000091
:100D6600003C4A49493000000001710905030000B2
:100D7600003649494936000000064949291E000047
:100D86000000363600000000000056360000000065
:100D9600000814224100000000141414141400006A
:100DA600000041221408000000020151090600005B
:100DB60000324979413E0000007E1111117E00008B
:100DC600007F494949360000003E4141412200006A
:100DD600007F4141221C0000007F49494941000033
:100DE600007F090909010000003E4149497A0000D7
:100DF600007F0808087F00000000417F41000000D6
:100E0600002040413F010000007F081422410000FD
:100E1600007F404040400000007F020C027F00003F
:100E2600007F0408107F0000003E4141413E000063
:100E3600007F090909060000003E4151215E0000BD
:100E4600007F091929460000002649494932000059
:100E56000001017F01010000003F4040403F0000CB
:100E6600001F2040201F0000003F4038403F000088
:100E760000631408146300000007087008070000E8
:100E8600006151494543000000007F4141000000D8
:100E96000002040810200000000041417F0000000D
:100EA60000040201020400000040404040400000EF
:100EB6000000010204000000002054545478000091
:100EC600007F484444380000003844444420000071
:100ED60000384444487F0000003854545418000039
:100EE60000087E09010200000018A4A4A47C0000EA
:100EF600007F0804047800000000447D40000000E4
:100F0600004080847D000000007F1028440000001F
:100F16000000417F40000000007C041804780000B7
:100F2600007C08040478000000384444443800007B
:100F360000FC2424241800000018242418FC0000B7
:100F4600007C0804040800000048545454200000A3
:100F560000043F4440200000003C4040207C00004C
:100F6600001C2040201C0000003C4030403C00009B
:100F76000044281028440000001CA0A0A07C00000B
:100F8600004464544C440000000008364100000050
:100F96000000007F0000000000004136080000004D
:080FA600000201020402000038
:101A750074002FF582E43400F58322FBFFE0FD902E
:101A8500009BE09000A0F090009CE09000A1F02267
:101A9500EF131313541F9000A6F0FD9000A2E090E1
:101AA50000A7F09000A4E0FF3395E0FEEF78032255
:101AB5007859E6FFC3948074809480229000A8E052
:101AC500FFC394087480948022F09000891207E483
:101AD500E94A4B227851E625E0FF18E633FE2290CD
:101AE50000A0E0FF90009EE02F227C007D08AE0262
:031AF500020741A4
:05000600D287D2862222
:081EB5007F01AE071FEE70FA79
:011EBD002202
:0F1E9100D287D286121EB5C287121EB5C2862214
:0C1EA000C287D286121EB5D287021EB582
:071BFF00AC07121E917F7874
:021C0600AD0728
:101C0800E4FBEB121AC6501FED5480FFC4131313E4
:101C1800540124FF9287ED25E0FDD286121EB5C23D
:0C1C280086121EB50B80DBD287021EB5B1
:101DC500D287121EB5D286121EB5A2879200C28690
:051DD500121EB5A20082
:011DDA0022E6
:101D7B00121BFF121DC57F80121C06121DC5AF045E
:091D8B00121C06121DC5021EA067
:101D9400121BFF121DC57F40121C06121DC5AF0485
:091DA400121C06121DC5021EA04E
:101C6400EF44B0FF121D7BE4FF121D7B7F10121D99
:101C74007BE4FAEA121AB9500E74002A121A78E0B8
:071C8400FF121D940A80EC21
:011C8B002236
:101DDB00E4FEEE121AB9500B74002E121A78E4F0CE
:061DEB000E80EF021C64F3
:101E5000E4F9E9121AC65008AF01121DDB0980F23D
:011E6000225F
:101C3400EF121AB95029ED121AC65023AE05A806A0
:101C44007401088002C333D8FCFEEB6007121A75D6
:0F1C5400E04EF022121A75E0FFEEF4FEEF5EF0A4
:011C6300225E
:101C8C00ED131313541FF9ED5407FEE4FDED121A76
:101C9C00B9500B74002D121A78E4F00D80EFAD06DC
:081CAC00121C34AF01021C649C
:07142100A90790009FEBF00A
:10142800D3994005E099FF800990009FE0FFC3E948
:101438009FFF7848760008A6079000A0E0FFD39D9C
:101448004005EF9DFF80099000A0E0FFC3ED9FFFDE
:10145800784A760008A60790009FE0C39940067E68
:10146800007F0180047EFF7FFF784CA60608A60750
:101478009000A0E0C39D40067E007F0180047EFFAF
:101488007FFF784EA60608A6077848E6FE08E6C35A
:10149800784B96FFEE18967850F608A607AF010825
:1014A800760008A607AF057E0008EEF608EFF67C82
:1014B800007D081207417856A607E47859F6121AF3
:1014C800B55008121A75E4F00680F37854E6FA0865
:1014D800E6FBFF121AEF7858A607AF03121AEF7847
:1014E80057A60518E6FF7858666019121C64E408C8
:1014F800F6121AB55008121A75E4F00680F37858F7
:10150800E67856F67853E6FF7857E6FD9000A1E0B6
:10151800FB121C3490009FE0785366700218E67046
:101528000D9000A0E0785566700218E66069121AFE
:10153800D9784AE6FC08E6FDC3E49DFBE49CFAD3AF
:10154800EF9BEA6480F8EE64809840177851E69D36
:10155800F618E69CF6784CE6FE08E6785326F61868
:10156800EE36F6121AD97848E6FC08E6FDC3EF9D78
:10157800EC6480F8EE64809840030214D37851ED4F
:1015880026F618EC36F6784EE6FE08E6785526F686
:0E15980018EE36F60214D37856E6FF021C64F5
:101AF800900099EDF0900098EFF090009AEBF0903C
:101B08000099E0FD121A8812142190009AE09000C2
:101B180099121A80121421900098E0FF90009BE01F
:101B2800FD90009AE0FB9000A0ED121A8B12142190
:0B1B3800900098E0A3121A8002142114
:0B16F6009000A2EFF0A3EDF0A3EBF0DA
:10170100FF3395E0FEC3EF9420EE64809480400B9C
:10171100D3EF947EEE6480948040069000A4742000
:10172100F09000A5E070269000A3E0FF540760034D
:101731000217C0121A95C333CE33CED8F91217C18E
:10174100E4A3F0121AC150771217EC80F69000A5AD
:10175100E06401706A9000A3E0FF54077061121AFF
:1017610095C333CE33CED8F91217C1E4A3F0121AC0
:10177100C150051217EC80F69000A6E00444B0FFBA
:10178100121D7BA3E0540FFF121D7BE0C4540F44D4
:1017910010FF121D7BA37408F09000A8E0FFC39412
:1017A10010748094805018A31207E48F827583000F
:0F17B1001206ADFF121D949000A8E004F080DA3C
:1017C0002224B6F9740B3EFA7BFF9000A91208049C
:1017D000ED44B0FF121D7B9000A7E0540FFF121DD7
:1017E0007BE0C4540F4410FF121D7B22A31207E4B8
:1017F0008F827583001206ADFF121D949000A8E041
:0318000004F022CF
:0619530090009A12080446
:1019590090009EEFF0A3EDF090009DE0FF7E0070F7
:10196900047C0880027C109000A0ECF0EF4E70041B
:101979007F0880027F109000A1EFF0ED5407705F9F
:1019890090009A1207E4120694FB6053121AE4FFBE
:10199900E433FED3EF9480EE64809480401EE4F03B
:1019A9009000A1E0FF90009FE02FF0E02FFFE433CB
:1019B900FED3EF9440EE64809480502390009EE023
:1019C900FFA3E0FD90009DE09000A5F01216F6122D
:0F19D9001AE4F090009BE475F00112077780A1EB
:0119E80022DC
:1018B700120006E4FDFC121EB50DBD00010CED641F
:1018C700644C70F27FAE121D7B7FD5121D7B7F802B
:1018D700121D7B7FA8121D7B7F3F121D7B7FD312BA
:1018E7001D7BE4FF121D7B7F40121D7B7F8D121D28
:1018F7007B7F14121D7B7F20121D7BE4FF121D7B53
:101907007FA1121D7B7FC8121D7B7FDA121D7B7F93
:1019170012121D7B7F81121D7B7FCF121D7B7FD90A
:10192700121D7B7FF1121D7B7FDB121D7B7F401217
:101937001D7B7FA4121D7B7FA6121D7B7F2E121D90
:0C1947007B7FAF121D7B121EB5021E50EC
:0F11F200900080EFF0900082EBF0900081EDF024
:101201005407600302141390008CE0D3946474803B
:10121100948040037464F0900082E0C3941E748053
:1012210094805003021413A3121AD2600D9000800F
:10123100E0FFA3E0900083121414900086121AD2EA
:1012410060249000861207E4121DF1EF75F008A4E6
:10125100FF900082E0FE900080E02EC39FFFA3E09C
:10126100900086121414900081E0240890009712D7
:101271001ACE60169000891207E4121DF1EF78036F
:10128100C333CE33CED8F9FF80047E007F009000B7
:101291008EEF121ACE6018900080E0FF900097E068
:1012A100FD9000891207E4E490009DF0121953901B
:1012B100008CE0FF7E00C3946474809480400C90A5
:1012C10000927431F0A314F0A38031C3EF940AEEBD
:1012D1006480948090008CE04017FD75F00A8424AE
:1012E10030900092F0ED75F00A84E5F02430A3808F
:1012F1000B75F00A84E5F02430900092F0A3742578
:10130100F0E4A3F07B017A007992121DF1EF75F000
:1013110008A490008DF0FCA3E0FE900080E0FD2E7B
:10132100240390008FF0ED2403FFF0900082E0FE93
:10133100ED2EC39C24FDFBD39F5003021413900098
:101341008FE0FFEB9FFA90008CE0FFEA8FF0A4FFA3
:10135100AEF07C007D641206EC900090EFF0D39A21
:101361004004AF02EFF0900090C37480948050026B
:10137100E4F0900097E0FE2402FDEE240590009B2E
:10138100F0A37401F090008FE0FF121AF890009022
:10139100E0D3940074809480404B900097E0240344
:1013A100900091F0900097E02404FFE433FE900058
:1013B10091E0D39FEE6480F8748098502890008F5C
:1013C100E0FE04FF900091E0FD900090E0FCEE2C27
:1013D100FB9000A0EDF0A37401F012142190009194
:1013E100E004F080BF900092E06027900082E0FF6F
:1013F100900080E02FFF90008DE0FEC3EF9EFF90F4
:101401000097E0FD7B017A007992E490009DF01253
:0214110019536D
:0E14130022FD1207E4E490009DF0121953220E
:0F1E710000000075080B7509BED509FDD508FAEC
:011E8000223F
:101E8100EF1FAC0670011E4C6005121E7180F1221D
:100016000203D7E86480F8E933E83360110460F03E
:10002600ED33EC337009E8FCE9FDEAFEEBFF220450
:1000360060DED3EB9FEA9EE99DE8C2E78CF0C2F74B
:1000460095F0400CE8CCF8E9CDF9EACEFAEBCFFB17
:100056001203A285D0F05804700320D5B3E80470CB
:10006600075002B2D50203E192D5EC0460F7E4CC66
:10007600C0E0C398F8603B94186008400DD0E0FBE0
:100086000203B9E4FBFAC9FC8028E830E406E4C9B7
:10009600FBE4CAFCE830E305E4C9CACBFCE8540734
:1000A6006010F8C3E913F9EA13FAEB13FBEC13FC3F
:1000B600D8F130F52FC3E49CFCEF9BFFEE9AFEEDE2
:1000C60099FDD0E0FBEF4E4D4C701222DB0302038C
:1000D600DEEC2CFCEF33FFEE33FEED33FDED30E7C7
:1000E600EB0203B9EF2BFFEE3AFEED39FDD0E0FB54
:1000F60050130BBB00030203E1ED13FDEE13FEEFFD
:0801060013FFEC13FC0203B926
:10010E00EC4D6011E8497017ED33EC3304600DE4EB
:10011E00FCFFFEFD22E933E8330470F80203D71228
:10012E0003A258046009E4CC248150062850090229
:10013E0003E12840030203DEC0E0EB4A7044B980BD
:10014E0006D0E0FB0203CDEF4E701CBD8008EBFF26
:10015E00EAFEE9FD80EBE98DF0A4FEE5F00201F781
:10016E00E9CDF9EAFEEBFFEF89F0A4FCE5F0CE89CC
:10017E00F0A42EFFE435F0CD89F0A42DFEE435F089
:10018E008067EF4E7005BD80D780C3EF8BF0A4ACB7
:10019E00F0EE8BF0A42CFCE435F0F8EF8AF0A42CF2
:1001AE00E5F038FCE433CB8DF0A42CFCE5F03BF805
:1001BE00EE8AF0A42CFCE5F038F8E433CF89F0A4F5
:1001CE002CFCE5F038CF3400CE89F0A42FFFE5F0FB
:1001DE003EFEE433C98DF0A42EFEE5F039CD8AF053
:1001EE00A42FFFE5F03EFEE43DFD33D0E0FB5007CB
:1001FE000BBB000F0203E1EC2CFCEF33FFEE33FEE2
:06020E00ED33FD0203B90F
:100214000203E1EC5D046005E8590470030203D7AE
:100224001203A2580460F6EC4860F2EC7004FDFE80
:10023400FF22C860DB2481C85009C39860025006BD
:100244000203DE9850CAF582E9294B4A7005AB8255
:100254000203CD75F0007C1A7880C3EF9BEE9AED13
:1002640099400DC3EF9BFFEE9AFEED99FDE842F035
:10027400DC23ACF0D0E0FFD0E0FED0E0FDAB822088
:10028400E7101BEB60BAEC2CFCEF33FFEE33FEED12
:1002940033FD0203B9E803F830E705C0F075F00058
:1002A400EF2FFFEE33FEED33FD40B830E7C280AAF6
:1002B40074F8CC6480CCC86480C8F58204604FC3F1
:1002C400EB9FF5F0EA9E42F0E99D42F0E89C45F090
:1002D400603C501DE5825FFFE582D313CB5BCBF41A
:1002E4002B5582FB50280ABA002409B90020088043
:1002F4001DE5825BFBE582D313CF5FCFF4C3132FDD
:100304005582FF50090EBE00050DBD00010CC3EB64
:100314009FF5F0EA9E42F0E99D42F0E89C45F060CA
:0903240007CC4820E701B3EC22EC
:10032D0075F020800E75F010800575F0087D007E4B
:10033D00007F003392D530D50312078DEC3340107A
:10034D00EF33FFEE33FEED33FDEC33FCD5F0ED2254
:0E035D00E5F0247EA2D513CC92E7CDCEFF2290
:10036B00EDD2E7CD33EC3392D524814006E4FFFE8A
:10037B00FDFC22FCE4CFCECDCC24E0501174FF80E9
:10038B00EDC3CC13CCCD13CDCE13CECF13CF047086
:07039B00F030D5DE02078DF2
:10083300E5082483F582E43400F583E0050822907B
:100843000080300703900083E475F0011207ED0286
:1008530006942000E97F2ED2008018EF540F2490D5
:10086300D43440D4FF30040BEF24BFB41A00500338
:100873002461FFE50960021509050CE50C7002050A
:100883000B30070E900080E475F0011207EDEF02C4
:1008930006DA021CB47403D2078003E4C207F50826
:1008A300900080120804E4F509F50BF50CE50960E6
:1008B300077F2012087680F5750AFFC201C200C2C5
:1008C30002C203C205C206C208120842FF700D30FD
:1008D30007057F00120887AF0CAE0B22B4255FC259
:1008E300D5C204120842FF24D0B40A00501A75F08E
:1008F3000A780930D50508B6FF0106C6A426F620F6
:10090300D5047002D20380D924CFB41A00EF500467
:10091300C2E5D204020B79D20180C6D20080C0D2D4
:100923000280BCD2D580BAD20580B47F201208766B
:100933002002077401B5090040F1120833FF1208C1
:10094300760208B0D208D2068095120833FB12084B
:1009530033FA120833F94A4B700679777A0C7BFF26
:1009630020022EE509602A7E008E8275830012061E
:10097300AD60060EEE650A70F0C2D5EBC0E0EAC0CA
:10098300E0E9C0E0EE120BDAD0E0F9D0E0FAD0E013
:10099300FB120694FF60AAEBC0E0EAC0E0E9C0E006
:1009A300120876D0E02401F9D0E03400FAD0E0FB5D
:1009B300E50A0460DCD50AD98087D20280A2120B33
:1009C300BC60F7E50A7001041203ECA90A600DE5A7
:1009D3000A600914F50A120C64EF60F3EA30E702C7
:1009E300F404C3995079EAF4250A0430E701E404D6
:1009F300F50A800D120BBC60C1EA050A250A120331
:100A0300ECEA9000AFF030E701E4250A04D50A04CC
:100A130020050114120BDAE4C0E0120C649000AF5D
:100A2300E0601320E70714F012085E802204F0D080
:100A3300E014C0E07F0012085EE50A600712085563
:100A4300150A800B300503120855D0E00208B0D018
:100A5300E00480C4120BBC609EE50A041203EC9010
:100A630000AFEAF0E50A2005026001042404120B3A
:010A7300DAA8
:100A740074FF04C0E0120C6412085EE50A2005024B
:100A84006003120855D0E0B50AE87F451208689063
:100A940000AFE07F2B30E7047F2DF404C0E01208A0
:100AA40076D0E075F00A84C0F012085FD0E0120836
:100AB4005F0208B0791080027908C206C208800873
:100AC400D2D5790A8004790AC2D5E50A047002F500
:100AD4000AE4FAFDFEFF120833FC7B08200113121E
:100AE4000833FD7B1030000A120833FE120833FF6E
:100AF4007B20EC3382D592D55013C3E43000069F9B
:100B0400FFE49EFEE42001039DFDE49CFCE4CBF89D
:100B1400C201EC700CCFCECDCCE824F8F870F38091
:100B240017C3EF33FFEE33FEED33FDEC33FCEB3351
:100B3400FB994002FB0FD8E9EB300105F8D0E0C483
:100B440048B201C0E00AEC4D4E4F78207B0070C2E1
:100B5400EAB50A0040BCC0E0120BDCD0F0D0E020C3
:100B64000104C4C0E0C4B201C0F012085FD0F0D5E3
:100B7400F0EB0208B012080D094D530AB858091ECB
:100B84004C091A420ABC4F0AC4440AC449093343F3
:100B94000ACA5509F7460A574509C1470C9750092F
:100BA400222D09262E09492B092A230947200C80C6
:100BB4002A08E24800000941E50AB4FF03750A0661
:100BC400120833FC120833FD120833FE120833FFF7
:100BD4009000A8020429790AA2D52003143005093B
:100BE400B910020404B9080104A2D5200602500178
:100BF400042002689202B509005034C0E07F20301E
:100C040003197F30A20272067205500F120C33C210
:100C140002C206C205C2087F30800F300503E9C056
:100C2400E0120876300503D0E0F9D0E0B509CC3005
:100C340005177F30B9100C1208767F583004077FEF
:100C4400788003B908031208763002057F2D020864
:100C5400767F202008F87F2B2006F322920280CF93
:100C64007F00B40700500B24A8F582E43400F58318
:100C7400E0FF22286E756C6C2900D2011208333013
:100C840001F8C201780930D50108F60208E22D50B6
:100C94004349581208332403B405004001E4900C7E
:100CA4009293120867743A120867D2037509040212
:020CB4000AB87C
:1003A200E9D2E7C933E833F892D5EDD2E7CD33ECA1
:0703B20033FC5002B2D5221A
:1003B900EC30E7100FBF000C0EBE00080DBD0004A5
:1003C9000BEB6014A2D5EB13FCED92E7FD2274FF51
:1003D900FCFDFEFF22E480F8A2D574FF13FC7D80AA
:0303E900E480EFBE
:1003EC00F920E73624F950037907E4F42402FBE5FD
:1003FC0082158270021583DBF6E024FB501BE9604A
:10040C0014E4F0E582158270021583E004F0B40A5E
:0D041C0008E4F0D9EE7401F00A22C2D522E6
:10042900ED33EC3392D5FA602AB4FF33EDC2E77BA2
:10043900FF60067A04794EE4227A04795720D504BC
:100449007A047952224E614E002B494E46002D49BD
:100459004E4600E47A08F0A3DAFC7B00740722C058
:1004690083C082ECC0E0EDC0E0EEC0E0EFC0E0EA9E
:1004790075F010A4CAABF075F04DA42BFBE435F070
:10048900FCEA2410FAEB34C5FBEC34D9FCEDC2E7E5
:10049900FF75F056A4F42411C5F0F434C58FF0A407
:1004A9002AE5F03BE43CF020E71412055ED0E0FFBA
:1004B900D0E0FED0E0FDD0E0FC1202178014F40475
:1004C90012055ED0E0FFD0E0FED0E0FDD0E0FC12E6
:1004D900010ED082D083E0FAEDD2E7CD33EC33249C
:1004E90082FBE4C3CF33CFCE33CECD33CD33DBF371
:1004F9007B0775F00A846004F0A31B0AE5F0F0A3FA
:100509008FF0740AA4FFACF08EF0740AA42CFEAC30
:10051900F050010C8DF0740AA42CFDE435F0F0A321
:05052900DBDE74072277
:10052E003F8000004120000042C80000447A0000D5
:10053E00461C400047C35000497424004B18968057
:10054E004CBEBC205A0E1BCA6753C21C749DC5AE4E
:10055E00FB60065407601C232312058CEB54386095
:10056E000912057812058712010EECF8EDF9EEFA74
:10057E00EFCB22EB12058780F1543803241C900533
:10058E002EFE93FC0EEE93FD0EEE930ECE93FF22F7
:030000000219E9F9
:0C19E900787FE4F6D8FD758159021A30B1
:10059E00E709F608DFFA8046E709F208DFFA803E3F
:1005AE0088828C83E709F0A3DFFA8032E309F6082C
:1005BE00DFFA8078E309F208DFFA807088828C8394
:1005CE00E309F0A3DFFA806489828A83E0A3F60848
:1005DE00DFFA805889828A83E0A3F208DFFA804C22
:1005EE0080D280FA80C680D4806980F280338010F9
:1005FE0080A680EA809A80A880DA80E280CA803362
:10060E0089828A83ECFAE493A3C8C582C8CCC583D9
:10061E00CCF0A3C8C582C8CCC583CCDFE9DEE780A9
:10062E000D89828A83E493A3F608DFF9ECFAA9F028
:10063E00EDFB2289828A83ECFAE0A3C8C582C8CC7E
:10064E00C583CCF0A3C8C582C8CCC583CCDFEADE97
:10065E00E880DB89828A83E493A3F208DFF980CCF9
:10066E0088F0EF60010E4E60C388F0ED2402B404F2
:10067E000050B9F582EB2402B4040050AF23234599
:06068E0082239005EE73CB
:10069400BB010689828A83E0225002E722BBFE0264
:0906A400E32289828A83E4932297
:1006AD00BB010CE58229F582E5833AF583E0225002
:1006BD0006E92582F8E622BBFE06E92582F8E2224C
:0D06CD00E58229F582E5833AF583E4932266
:1006DA00BB010689828A83F0225002F722BBFE01FF
:0206EA00F322F9
:1006EC00BC000BBE0029EF8DF084FFADF022E4CCF2
:1006FC00F875F008EF2FFFEE33FEEC33FCEE9DECBB
:10070C00984005FCEE9DFE0FD5F0E9E4CEFD22ED00
:10071C00F8F5F0EE8420D21CFEADF075F008EF2F4A
:10072C00FFED33FD4007985006D5F0F222C398FD3B
:05073C000FD5F0EA22D8
:10074100C2D5EC30E709B2D5E4C39DFDE49CFCEED3
:1007510030E715B2D5E4C39FFFE49EFE1206ECC359
:10076100E49DFDE49CFC80031206EC30D507C3E454
:060771009FFFE49EFE2242
:10077700C5F0F8A3E028F0C5F0F8E582158270020D
:060787001583E038F022AA
:0E078D00C3E49FFFE49EFEE49DFDE49CFC227D
:0C079B00E6FC08E6FD08E6FE08E6FF228A
:0C07A700E0FCA3E0FDA3E0FEA3E0FF22C5
:0D07B300E6FB08E6F908E6FA08E6CBF822B6
:0C07C000E0F8A3E0F9A3E0FAA3E0FB22BC
:0C07CC00ECF608EDF608EEF608EFF62259
:0C07D800ECF0A3EDF0A3EEF0A3EFF02294
:0907E400E0FBA3E0FAA3E0F92216
:1007ED00F8E0FBA3A3E0F925F0F0E5821582700295
:0707FD001583E0FA38F02239
:09080400EBF0A3EAF0A3E9F022F5
:10080D00D083D082F8E4937012740193700DA3A37A
:10081D0093F8740193F5828883E47374029368608E
:06082D00EFA3A3A380DF8E
:101CB400EFB40A07740D121CBF740A309811A89966
:101CC400B8130CC2983098FDA899C298B811F63090
:071CD40099FDC299F5992268
:101DF100E4FFFE120694600C0FEF70010E09E9700A
:051E0100F20A80EF224F
:1019F500020FAEE493A3F8E493A34003F68001F24B
:101A050008DFF48029E493A3F85407240CC8C333F2
:101A1500C4540F4420C8834004F456800146F6DFC1
:101A2500E4800B0102040810204080901D5FE47ED5
:101A3500019360BCA3FF543F30E509541FFEE493B6
:101A4500A360010ECF54C025E060A840B8E493A37D
:101A5500FAE493A3F8E493A3C8C582C8CAC583CAA8
:101A6500F0A3C8C582C8CAC583CADFE9DEE780BE60
:011D7A000068
:00000001FF
