:100884003531205265616479210D0A0049522043B3
:090894006F64653A20000D0A00B2
:100026009000477401F0E4A3F0A3F0A3F0C200C26D
:1000360001C202C20312089D12097FC283C282C294
:1000460084C291C292C294C297C2807BFF7A087919
:10005600841208B012091412098D400302010A1213
:1000660009868B2C8A2D892E7BFF7A0879901208B7
:10007600B0E4F52BC3E52B940474809480507CABDC
:100086002CAA2DA92E852B82758300120366C454D3
:100096000FFFC3940A748094805006EF2430FF80CB
:1000A60015AB2CAA2DA92E852B827583001203660B
:1000B600C4540F2437FF120968AB2CAA2DA92E852C
:1000C6002B82758300120366540FFFC3940A748053
:1000D60094805006EF2430FF8014AB2CAA2DA92E55
:1000E600852B82758300120366540F2437FF12098D
:1000F600687F20120968052B02007A7BFF7A08794F
:100106009A1208B0308110D202E4900048F0B20092
:10011600900046E054F7F0900046E030E306D297B0
:10012600D2808004C297C2802002030201B3D29714
:10013600900047E004F0E0C3940374809480400389
:100146007401F0900047E024FE600F14601424024E
:100156007016D291C292C294800EC291D292C2946B
:100166008006C291C292D29430803112092090004A
:1001760047E024FE601214601A2402701F308303C5
:10018600C38001D392838014308203C38001D3924B
:10019600828009308403C38001D39284900048E0B2
:1001A600C3940A748094804004C202C297A28392C8
:0F01B60091A2829292A284929412082702005A78
:0A077E0002430000C106C105C1845A
:10089D00759850438920758DFD758BFDD28ED2AC28
:0308AD00D2AF22A5
:080968008F993099FDC299221C
:1008B00012034DFF600C120968740129F9E43AFA39
:0308C00080EE22A5
:03002300020505CE
:0F050500C0E0C083C082C0D075D000C004C00762
:10051400309870C298AF99300425EF643E7064F54A
:1005240043F5440544E544AC4370020543142400F8
:10053400F58274003CF583EFF0C204D2058044BF19
:100544000A1474002544F58274003543F583E4F0FD
:10055400D206D204802DC3E5449427E54394005089
:10056400180544E544AC4370020543142400F582A5
:1005740074003CF583EFF0800AD204C20575430091
:03058400754400BB
:0D058700D007D004D0D0D082D083D0E03295
:070978007B017A00790022E7
:0C091400300607300504C206D322C322BF
:08097000E4F543F544C2052241
:0B092C00EF1FAC0670011E4C70F6229D
:09093700007F027EC7DEFEDFFC3A
:010940002294
:0D08F800007F087E017DF3DDFEDEFCDFFAEF
:0109050022CF
:0E090600438901758CFC758A66D2A9C28C22C9
:10082700120906E4FFFED28C308DFDC28D758CFC5B
:10083700758A660FBF00010EBE03EBBFE8E8C28CE6
:01084700228E
:1008C300AD07AC06ED4C600A120937ED1D70F51C3F
:0308D30080F2228E
:1008D600AB07AA06EB4A600A1208F8EB1B70F51A7A
:0308E60080F2227B
:100788001F4D313630303030003230323331303274
:1007980034000000193C00000000000000000000C8
:0607A80000C108014B0036
:0601C5008B458A468947C4
:1001CB0074012547F547E43546F546E4FFEFC39444
:1001DB0008748094805022AB45AA46A94712034D60
:1001EB0060170547E5477002054614F912034DFEEB
:1001FB0074542FF8A6060F80D474542FF8E4F60429
:10020B002547F547E43546F546E4FFEFC3940674FE
:10021B008094805022AB45AA46A94712034D601724
:10022B000547E5477002054614F912034DFE744D60
:10023B002FF8A6060F80D4744D2FF8E4F60425474B
:10024B00F547E43546F546AB450547E547AA467005
:10025B0002054614F912034D5401FF786BE654FE68
:10026B004FF6AB450547E547AA467002054614F91C
:10027B0012034D540125E0FFE654FD4FF6AB450547
:10028B0047E547AA467002054614F912034D54017F
:10029B0025E025E0FFE654FB4FF674012547F547B3
:1002AB00E43546F546E4FFEFC39405748094805023
:1002BB0022AB45AA46A94712034D60170547E547F0
:1002CB007002054614F912034DFE745F2FF8A60653
:1002DB000F80D4745F2FF8E4F6042547F547E43517
:1002EB0046F546E4FFEFC39405748094805022AB2F
:1002FB0045AA46A94712034D60170547E54770020B
:10030B00054614F912034DFE74652FF8A6060F80EF
:10031B00D474652FF8E4F6042547F547E43546F524
:10032B0046AB450547E547AA467002054614F91248
:10033B00034D540133333354F8FF786BE654F74FC6
:01034B00F6BB
:01034C00228E
:0A0941001201C57B007A00794D22F7
:07097F00D288D2A8D2AF22FA
:03000300020438BC
:10043800C0E0C0F0C083C082C0D075D000C000C08A
:1004480001C002C003C004C005C006C007C28C209A
:1004580008030204E3D3E54C94207480948040148C
:10046800754B007E007F047D007B017A00794B127A
:0F047800040C8069C3E54B942074809480505E1F
:10048700E54B131313541FF522E54B5407F523C30C
:10049700E54C940874809480401C744B2522F582A7
:1004A700E43400F583E0FFAE23A806740108800258
:1004B700C333D8FC4FF0054BE54B64207020900008
:1004C7004CE0F4FF90004BE0B5071390004EE0F4CA
:0A04D700FF90004DE0B50706D209C2
:1004E1008002D208754C00D28CD007D006D005D03E
:1004F10004D003D002D001D000D0D0D082D083D09C
:04050100F0D0E03224
:03000B00020006EA
:03000600054C3274
:03098D00A209229A
:070986007B017A00794B228E
:100594008B0E8A0F89108B118A128913AB0EAA0F46
:0705A400A91012034D606B6A
:1005AB00850B14850C15850D16E4F517F518AB1492
:1005BB00AA15A91612034DFF6021AB0EAA0FA910A5
:1005CB0012034DB50708751700751801800D7401DE
:1005DB002516F516E43515F51580D3E51845177076
:1005EB001DAB0EAA0FA91012034DAB11AA12A91322
:1005FB0012039374012513F513E43512F5127401EC
:09060B002510F510E4350FF50F80
:0C061400808AAB11AA12A913E402039320
:0C092000D2867FE87E031208C3C2862244
:09095F00EF24D0FFE434FFFE2276
:0608E900C2A58F80D2A71A
:0808EF007F027EEFDEFEDFFC5C
:0108F70022DE
:0A094B00C2A61208E9C2A70208EFD5
:10084800CFCDCFCECCCE1203B77C007D0A1203B732
:04085800ED2430FF5C
:0A085C00D2A61208E9C2A70208EFB5
:10086600AE07EEFB7A0064017004ED148009EB64B8
:0E087600024A7009ED243F4480FF12094B2214
:10000E007F3812094B7F0C12094B7F0612094B7F6A
:04001E000102094B87
:0A095500AC03120866AF0402085C50
:060804008B488A49894A75
:10080A00120866E4FDAB48AA49A94A8D827583009D
:0C081A00120366FF600612085C0D80E906
:0108260022AF
:0A07AF00EF24FFFDEE34FFFC7F0A8B
:0807B9008E3E8F3F8C408D4104
:1007C1007F017E00E4FBEBC39541E5406480F87452
:0E07D1008098500AAC3EAD3F1203A50B80E8A5
:0107DF0022F7
:0407E0008A318B329D
:1007E400120866AA33EAFF7E00D3940074809480D2
:0F07F400400D1207AFAC31AD321208481A80E643
:0108030022D2
:0406F7008B828A83E5
:1006FB00120866C3E58364809480400D7F2B12083B
:10070B005C85831E85821F80107F2D12085CC3E4DD
:10071B009582F51FE49583F51EAA1DEAFF7E00D393
:10072B00940074809480400D1207AFAC1EAD1F1265
:05073B0008481A80E6E9
:010740002296
:0406AC008A368B37C8
:1006B000120866AA38EAD39400748094804037EA1E
:1006C00024FFFDE434FFFC7F107E001207B9AC3636
:1006D000AD37CFCDCFCECCCE1203B7EF540FFEC384
:1006E000940A74809480EE5004243080022437FFF2
:0606F00012085C1A80BF35
:0106F60022E1
:040741008A3B8B3C28
:10074500120866AA3DEAFF7E00D394007480948067
:100755004026EF24FFFDEE34FFFC7F021207B9AC03
:100765003BAD3CCFCDCFCECCCE1203B7EF54012459
:0807750030FF12085C1A80CD70
:01077D002259
:03000000020620D5
:0C062000787FE4F6D8FD75816B02066758
:10034D00BB010689828A83E0225002E722BBFE02AE
:09035D00E32289828A83E49322E1
:10036600BB010CE58229F582E5833AF583E022504C
:1003760006E92582F8E622BBFE06E92582F8E22296
:0D038600E58229F582E5833AF583E49322B0
:10039300BB010689828A83F0225002F722BBFE0149
:0203A300F32243
:1003A500EF8DF0A4A8F0CF8CF0A428CE8DF0A42E6C
:0203B500FE2226
:1003B700BC000BBE0029EF8DF084FFADF022E4CC2A
:1003C700F875F008EF2FFFEE33FEEC33FCEE9DECF3
:1003D700984005FCEE9DFE0FD5F0E9E4CEFD22ED39
:1003E700F8F5F0EE8420D21CFEADF075F008EF2F83
:1003F700FFED33FD4007985006D5F0F222C398FD74
:050407000FD5F0EA2210
:10040C00EF4E6012EF60010EEDBB010B89828A8307
:10041C00F0A3DFFCDEFA2289F05007F709DFFCA914
:0C042C00F022BBFEFCF309DFFCA9F0226B
:10062C00020026E493A3F8E493A34003F68001F2BE
:10063C0008DFF48029E493A3F85407240CC8C333CF
:10064C00C4540F4420C8834004F456800146F6DF9E
:10065C00E4800B010204081020408090077EE47EA9
:10066C00019360BCA3FF543F30E509541FFEE49393
:10067C00A360010ECF54C025E060A840B8E493A35A
:10068C00FAE493A3F8E493A3C8C582C8CAC583CA85
:10069C00F0A3C8C582C8CAC583CADFE9DEE780BE3D
:0107AE00004A
:00000001FF
