:0202F800C10043
:1002A800A20092921202BA1202FB1203011202CCAD
:0202B80080FBC9
:1002BA0053BCEF759DFFE4F5BD759D0375BC8802BF
:0202CA0002E848
:10028A007F0112025F8E088F097F007E007D007C4D
:0D029A0000750D66750C66750BE6750A4063
:0102A7002234
:10022B00E4FFFEFBFAF9F875119A751099750F99A1
:10023B00750E4012025FAD07AC06E412010E7B0A8D
:10024B007A2879A0783B120003AB11AA10A90FA84A
:04025B000E0200038C
:10025F00E4FDFC53BCF8EF540742BC43BC08E5BCBB
:10026F0030E4FB53BCEFAFBDEF75F004A4FDACF071
:0A027F00E5BE54034205AE04AF05CE
:010289002252
:0E02CC0000007F2B7E067DCBDDFEDEFCDFFA20
:0102DA002201
:0B02E8000000007F0B7EBEDEFEDFFC8E
:0102F30022E8
:0402F40000000022E4
:0D02DB004392065391DB43CA1053C9EF2232
:0302FB00D2952277
:0302FE00C2952284
:03030100D2CC2239
:03030400C2CC2246
:10000300EC4D6011E8497017ED33EC3304600DE4F7
:10001300FCFFFEFD22E933E8330470F802017C1291
:10002300014758046009E4CC248150062850090292
:100033000186284003020183C0E0EB4A7044B98083
:1000430006D0E0FB020172EF4E701CBD8008EBFF8F
:10005300EAFEE9FD80EBE98DF0A4FEE5F00200EC99
:10006300E9CDF9EAFEEBFFEF89F0A4FCE5F0CE89D8
:10007300F0A42EFFE435F0CD89F0A42DFEE435F095
:100083008067EF4E7005BD80D780C3EF8BF0A4ACC3
:10009300F0EE8BF0A42CFCE435F0F8EF8AF0A42CFE
:1000A300E5F038FCE433CB8DF0A42CFCE5F03BF811
:1000B300EE8AF0A42CFCE5F038F8E433CF89F0A401
:1000C3002CFCE5F038CF3400CE89F0A42FFFE5F007
:1000D3003EFEE433C98DF0A42EFEE5F039CD8AF05F
:1000E300A42FFFE5F03EFEE43DFD33D0E0FB5007D7
:1000F3000BBB000F020186EC2CFCEF33FFEE33FE4B
:06010300ED33FD02015E78
:1001090075F020800E75F010800575F0087D007E71
:10011900007F003392D530D503120191EC334010A2
:10012900EF33FFEE33FEED33FDEC33FCD5F0ED227A
:0E013900E5F0247EA2D513CC92E7CDCEFF22B6
:10014700E9D2E7C933E833F892D5EDD2E7CD33ECFE
:0701570033FC5002B2D52277
:10015E00EC30E7100FBF000C0EBE00080DBD000402
:10016E000BEB6014A2D5EB13FCED92E7FD2274FFAE
:10017E00FCFDFEFF22E480F8A2D574FF13FC7D8007
:03018E00E480EF1B
:0300000002019F5B
:0C019F00787FE4F6D8FD7581200201E6AF
:0E019100C3E49FFFE49EFEE49DFDE49CFC227F
:1001AB000202A8E493A3F8E493A34003F68001F2C0
:1001BB0008DFF48029E493A3F85407240CC8C33355
:1001CB00C4540F4420C8834004F456800146F6DF24
:1001DB00E4800B01020408102040809002F8E47EBA
:1001EB00019360BCA3FF543F30E509541FFEE49319
:1001FB00A360010ECF54C025E060A840B8E493A3E0
:10020B00FAE493A3F8E493A3C8C582C8CAC583CA0A
:10021B00F0A3C8C582C8CAC583CADFE9DEE780BEC2
:0102FA000003
:00000001FF
